{
	"Contracts/PeerProtocol.sol": {
		"PeerProtocol": {
			"abi": [
				{
					"inputs": [],
					"stateMutability": "nonpayable",
					"type": "constructor"
				},
				{
					"anonymous": false,
					"inputs": [
						{
							"indexed": false,
							"internalType": "uint8",
							"name": "version",
							"type": "uint8"
						}
					],
					"name": "Initialized",
					"type": "event"
				},
				{
					"anonymous": false,
					"inputs": [
						{
							"indexed": true,
							"internalType": "address",
							"name": "previousOwner",
							"type": "address"
						},
						{
							"indexed": true,
							"internalType": "address",
							"name": "newOwner",
							"type": "address"
						}
					],
					"name": "OwnershipTransferred",
					"type": "event"
				},
				{
					"anonymous": false,
					"inputs": [
						{
							"indexed": false,
							"internalType": "address",
							"name": "_from",
							"type": "address"
						},
						{
							"indexed": false,
							"internalType": "address",
							"name": "_to",
							"type": "address"
						},
						{
							"indexed": false,
							"internalType": "uint256",
							"name": "amount",
							"type": "uint256"
						}
					],
					"name": "Transfer",
					"type": "event"
				},
				{
					"anonymous": false,
					"inputs": [
						{
							"indexed": false,
							"internalType": "address",
							"name": "borrower",
							"type": "address"
						},
						{
							"indexed": false,
							"internalType": "uint256",
							"name": "amount",
							"type": "uint256"
						},
						{
							"indexed": false,
							"internalType": "uint256",
							"name": "fee",
							"type": "uint256"
						},
						{
							"indexed": false,
							"internalType": "uint256",
							"name": "rate",
							"type": "uint256"
						},
						{
							"indexed": false,
							"internalType": "uint256",
							"name": "period",
							"type": "uint256"
						}
					],
					"name": "createLoan",
					"type": "event"
				},
				{
					"inputs": [
						{
							"internalType": "address",
							"name": "",
							"type": "address"
						}
					],
					"name": "balances",
					"outputs": [
						{
							"internalType": "uint256",
							"name": "",
							"type": "uint256"
						}
					],
					"stateMutability": "view",
					"type": "function"
				},
				{
					"inputs": [],
					"name": "borrowerAdd",
					"outputs": [
						{
							"internalType": "address",
							"name": "",
							"type": "address"
						}
					],
					"stateMutability": "view",
					"type": "function"
				},
				{
					"inputs": [],
					"name": "feePayable",
					"outputs": [
						{
							"internalType": "uint256",
							"name": "",
							"type": "uint256"
						}
					],
					"stateMutability": "view",
					"type": "function"
				},
				{
					"inputs": [
						{
							"internalType": "uint256",
							"name": "amount",
							"type": "uint256"
						}
					],
					"name": "joinLoan",
					"outputs": [],
					"stateMutability": "nonpayable",
					"type": "function"
				},
				{
					"inputs": [],
					"name": "loanDefault",
					"outputs": [
						{
							"internalType": "bool",
							"name": "",
							"type": "bool"
						}
					],
					"stateMutability": "view",
					"type": "function"
				},
				{
					"inputs": [],
					"name": "loanPeriod",
					"outputs": [
						{
							"internalType": "uint256",
							"name": "",
							"type": "uint256"
						}
					],
					"stateMutability": "view",
					"type": "function"
				},
				{
					"inputs": [],
					"name": "loanRate",
					"outputs": [
						{
							"internalType": "uint256",
							"name": "",
							"type": "uint256"
						}
					],
					"stateMutability": "view",
					"type": "function"
				},
				{
					"inputs": [],
					"name": "loanStatus",
					"outputs": [
						{
							"internalType": "bool",
							"name": "",
							"type": "bool"
						}
					],
					"stateMutability": "view",
					"type": "function"
				},
				{
					"inputs": [],
					"name": "monthlyRepayment",
					"outputs": [
						{
							"internalType": "uint256",
							"name": "",
							"type": "uint256"
						}
					],
					"stateMutability": "view",
					"type": "function"
				},
				{
					"inputs": [
						{
							"internalType": "address",
							"name": "borrower",
							"type": "address"
						},
						{
							"internalType": "uint256",
							"name": "amount",
							"type": "uint256"
						},
						{
							"internalType": "uint256",
							"name": "rate",
							"type": "uint256"
						},
						{
							"internalType": "uint256",
							"name": "period",
							"type": "uint256"
						},
						{
							"internalType": "uint256",
							"name": "peerIRate",
							"type": "uint256"
						},
						{
							"internalType": "uint256",
							"name": "originateRate",
							"type": "uint256"
						}
					],
					"name": "newLoan",
					"outputs": [],
					"stateMutability": "nonpayable",
					"type": "function"
				},
				{
					"inputs": [],
					"name": "originationRate",
					"outputs": [
						{
							"internalType": "uint256",
							"name": "",
							"type": "uint256"
						}
					],
					"stateMutability": "view",
					"type": "function"
				},
				{
					"inputs": [],
					"name": "owner",
					"outputs": [
						{
							"internalType": "address",
							"name": "",
							"type": "address"
						}
					],
					"stateMutability": "view",
					"type": "function"
				},
				{
					"inputs": [],
					"name": "peerRate",
					"outputs": [
						{
							"internalType": "uint256",
							"name": "",
							"type": "uint256"
						}
					],
					"stateMutability": "view",
					"type": "function"
				},
				{
					"inputs": [],
					"name": "principalAmount",
					"outputs": [
						{
							"internalType": "uint256",
							"name": "",
							"type": "uint256"
						}
					],
					"stateMutability": "view",
					"type": "function"
				},
				{
					"inputs": [],
					"name": "principalLimit",
					"outputs": [
						{
							"internalType": "uint256",
							"name": "",
							"type": "uint256"
						}
					],
					"stateMutability": "view",
					"type": "function"
				},
				{
					"inputs": [],
					"name": "principalPayable",
					"outputs": [
						{
							"internalType": "uint256",
							"name": "",
							"type": "uint256"
						}
					],
					"stateMutability": "view",
					"type": "function"
				},
				{
					"inputs": [],
					"name": "renounceOwnership",
					"outputs": [],
					"stateMutability": "nonpayable",
					"type": "function"
				},
				{
					"inputs": [
						{
							"internalType": "address",
							"name": "borrower",
							"type": "address"
						},
						{
							"internalType": "uint256",
							"name": "amount",
							"type": "uint256"
						}
					],
					"name": "repayment",
					"outputs": [],
					"stateMutability": "nonpayable",
					"type": "function"
				},
				{
					"inputs": [
						{
							"internalType": "address",
							"name": "",
							"type": "address"
						}
					],
					"name": "tokenId",
					"outputs": [
						{
							"internalType": "uint256",
							"name": "",
							"type": "uint256"
						}
					],
					"stateMutability": "view",
					"type": "function"
				},
				{
					"inputs": [],
					"name": "totalPayable",
					"outputs": [
						{
							"internalType": "uint256",
							"name": "",
							"type": "uint256"
						}
					],
					"stateMutability": "view",
					"type": "function"
				},
				{
					"inputs": [
						{
							"internalType": "address",
							"name": "newOwner",
							"type": "address"
						}
					],
					"name": "transferOwnership",
					"outputs": [],
					"stateMutability": "nonpayable",
					"type": "function"
				}
			],
			"devdoc": {
				"events": {
					"Initialized(uint8)": {
						"details": "Triggered when the contract has been initialized or reinitialized."
					}
				},
				"kind": "dev",
				"methods": {
					"owner()": {
						"details": "Returns the address of the current owner."
					},
					"renounceOwnership()": {
						"details": "Leaves the contract without owner. It will not be possible to call `onlyOwner` functions. Can only be called by the current owner. NOTE: Renouncing ownership will leave the contract without an owner, thereby disabling any functionality that is only available to the owner."
					},
					"transferOwnership(address)": {
						"details": "Transfers ownership of the contract to a new account (`newOwner`). Can only be called by the current owner."
					}
				},
				"version": 1
			},
			"evm": {
				"assembly": "    /* \"Contracts/PeerProtocol.sol\":879:4558  contract PeerProtocol is Initializable, Ownable{ ... */\n  mstore(0x40, 0x80)\n    /* \"Contracts/PeerProtocol.sol\":1176:1181  10000 */\n  0x2710\n    /* \"Contracts/PeerProtocol.sol\":1162:1181  uint tenthK = 10000 */\n  0x03\n  sstore\n    /* \"Contracts/PeerProtocol.sol\":1209:1211  12 */\n  0x0c\n    /* \"Contracts/PeerProtocol.sol\":1188:1211  uint dayConvention = 12 */\n  0x04\n  sstore\n    /* \"Contracts/PeerProtocol.sol\":1600:1601  0 */\n  0x00\n    /* \"Contracts/PeerProtocol.sol\":1574:1601  uint private currentTid = 0 */\n  0x10\n  sstore\n    /* \"Contracts/PeerProtocol.sol\":936:1053  constructor() initializer  {... */\n  callvalue\n  dup1\n  iszero\n  tag_1\n  jumpi\n  0x00\n  dup1\n  revert\ntag_1:\n  pop\n    /* \"@openzeppelin/contracts/access/Ownable.sol\":936:968  _transferOwnership(_msgSender()) */\n  tag_5\n    /* \"@openzeppelin/contracts/access/Ownable.sol\":955:967  _msgSender() */\n  tag_6\n    /* \"@openzeppelin/contracts/access/Ownable.sol\":955:965  _msgSender */\n  shl(0x20, tag_7)\n    /* \"@openzeppelin/contracts/access/Ownable.sol\":955:967  _msgSender() */\n  0x20\n  shr\n  jump\t// in\ntag_6:\n    /* \"@openzeppelin/contracts/access/Ownable.sol\":936:954  _transferOwnership */\n  shl(0x20, tag_8)\n    /* \"@openzeppelin/contracts/access/Ownable.sol\":936:968  _transferOwnership(_msgSender()) */\n  0x20\n  shr\n  jump\t// in\ntag_5:\n    /* \"@openzeppelin/contracts-upgradeable/proxy/utils/Initializable.sol\":3279:3298  bool isTopLevelCall */\n  0x00\n    /* \"@openzeppelin/contracts-upgradeable/proxy/utils/Initializable.sol\":3302:3315  _initializing */\n  dup1\n  0x01\n  swap1\n  sload\n  swap1\n  0x0100\n  exp\n  swap1\n  div\n  0xff\n  and\n    /* \"@openzeppelin/contracts-upgradeable/proxy/utils/Initializable.sol\":3301:3315  !_initializing */\n  iszero\n    /* \"@openzeppelin/contracts-upgradeable/proxy/utils/Initializable.sol\":3279:3315  bool isTopLevelCall = !_initializing */\n  swap1\n  pop\n    /* \"@openzeppelin/contracts-upgradeable/proxy/utils/Initializable.sol\":3347:3361  isTopLevelCall */\n  dup1\n    /* \"@openzeppelin/contracts-upgradeable/proxy/utils/Initializable.sol\":3347:3381  isTopLevelCall && _initialized < 1 */\n  dup1\n  iszero\n  tag_10\n  jumpi\n  pop\n    /* \"@openzeppelin/contracts-upgradeable/proxy/utils/Initializable.sol\":3380:3381  1 */\n  0x01\n    /* \"@openzeppelin/contracts-upgradeable/proxy/utils/Initializable.sol\":3365:3377  _initialized */\n  0x00\n  dup1\n  sload\n  swap1\n  0x0100\n  exp\n  swap1\n  div\n  0xff\n  and\n    /* \"@openzeppelin/contracts-upgradeable/proxy/utils/Initializable.sol\":3365:3381  _initialized < 1 */\n  0xff\n  and\n  lt\n    /* \"@openzeppelin/contracts-upgradeable/proxy/utils/Initializable.sol\":3347:3381  isTopLevelCall && _initialized < 1 */\ntag_10:\n    /* \"@openzeppelin/contracts-upgradeable/proxy/utils/Initializable.sol\":3346:3454  (isTopLevelCall && _initialized < 1) || (!AddressUpgradeable.isContract(address(this)) && _initialized == 1) */\n  dup1\n  tag_11\n  jumpi\n  pop\n    /* \"@openzeppelin/contracts-upgradeable/proxy/utils/Initializable.sol\":3388:3432  AddressUpgradeable.isContract(address(this)) */\n  tag_12\n    /* \"@openzeppelin/contracts-upgradeable/proxy/utils/Initializable.sol\":3426:3430  this */\n  address\n    /* \"@openzeppelin/contracts-upgradeable/proxy/utils/Initializable.sol\":3388:3417  AddressUpgradeable.isContract */\n  shl(0x20, tag_13)\n    /* \"@openzeppelin/contracts-upgradeable/proxy/utils/Initializable.sol\":3388:3432  AddressUpgradeable.isContract(address(this)) */\n  0x20\n  shr\n  jump\t// in\ntag_12:\n    /* \"@openzeppelin/contracts-upgradeable/proxy/utils/Initializable.sol\":3387:3432  !AddressUpgradeable.isContract(address(this)) */\n  iszero\n    /* \"@openzeppelin/contracts-upgradeable/proxy/utils/Initializable.sol\":3387:3453  !AddressUpgradeable.isContract(address(this)) && _initialized == 1 */\n  dup1\n  iszero\n  tag_14\n  jumpi\n  pop\n    /* \"@openzeppelin/contracts-upgradeable/proxy/utils/Initializable.sol\":3452:3453  1 */\n  0x01\n    /* \"@openzeppelin/contracts-upgradeable/proxy/utils/Initializable.sol\":3436:3448  _initialized */\n  0x00\n  dup1\n  sload\n  swap1\n  0x0100\n  exp\n  swap1\n  div\n  0xff\n  and\n    /* \"@openzeppelin/contracts-upgradeable/proxy/utils/Initializable.sol\":3436:3453  _initialized == 1 */\n  0xff\n  and\n  eq\n    /* \"@openzeppelin/contracts-upgradeable/proxy/utils/Initializable.sol\":3387:3453  !AddressUpgradeable.isContract(address(this)) && _initialized == 1 */\ntag_14:\n    /* \"@openzeppelin/contracts-upgradeable/proxy/utils/Initializable.sol\":3346:3454  (isTopLevelCall && _initialized < 1) || (!AddressUpgradeable.isContract(address(this)) && _initialized == 1) */\ntag_11:\n    /* \"@openzeppelin/contracts-upgradeable/proxy/utils/Initializable.sol\":3325:3526  require(... */\n  tag_15\n  jumpi\n  mload(0x40)\n  0x08c379a000000000000000000000000000000000000000000000000000000000\n  dup2\n  mstore\n  0x04\n  add\n  tag_16\n  swap1\n  tag_17\n  jump\t// in\ntag_16:\n  mload(0x40)\n  dup1\n  swap2\n  sub\n  swap1\n  revert\ntag_15:\n    /* \"@openzeppelin/contracts-upgradeable/proxy/utils/Initializable.sol\":3551:3552  1 */\n  0x01\n    /* \"@openzeppelin/contracts-upgradeable/proxy/utils/Initializable.sol\":3536:3548  _initialized */\n  0x00\n  dup1\n    /* \"@openzeppelin/contracts-upgradeable/proxy/utils/Initializable.sol\":3536:3552  _initialized = 1 */\n  0x0100\n  exp\n  dup2\n  sload\n  dup2\n  0xff\n  mul\n  not\n  and\n  swap1\n  dup4\n  0xff\n  and\n  mul\n  or\n  swap1\n  sstore\n  pop\n    /* \"@openzeppelin/contracts-upgradeable/proxy/utils/Initializable.sol\":3566:3580  isTopLevelCall */\n  dup1\n    /* \"@openzeppelin/contracts-upgradeable/proxy/utils/Initializable.sol\":3562:3627  if (isTopLevelCall) {... */\n  iszero\n  tag_18\n  jumpi\n    /* \"@openzeppelin/contracts-upgradeable/proxy/utils/Initializable.sol\":3612:3616  true */\n  0x01\n    /* \"@openzeppelin/contracts-upgradeable/proxy/utils/Initializable.sol\":3596:3609  _initializing */\n  0x00\n  0x01\n    /* \"@openzeppelin/contracts-upgradeable/proxy/utils/Initializable.sol\":3596:3616  _initializing = true */\n  0x0100\n  exp\n  dup2\n  sload\n  dup2\n  0xff\n  mul\n  not\n  and\n  swap1\n  dup4\n  iszero\n  iszero\n  mul\n  or\n  swap1\n  sstore\n  pop\n    /* \"@openzeppelin/contracts-upgradeable/proxy/utils/Initializable.sol\":3562:3627  if (isTopLevelCall) {... */\ntag_18:\n    /* \"Contracts/PeerProtocol.sol\":994:995  0 */\n  0x00\n    /* \"Contracts/PeerProtocol.sol\":976:991  principalAmount */\n  0x0b\n    /* \"Contracts/PeerProtocol.sol\":976:995  principalAmount = 0 */\n  dup2\n  swap1\n  sstore\n  pop\n    /* \"Contracts/PeerProtocol.sol\":1017:1018  0 */\n  0x00\n    /* \"Contracts/PeerProtocol.sol\":1006:1014  loanRate */\n  0x09\n    /* \"Contracts/PeerProtocol.sol\":1006:1018  loanRate = 0 */\n  dup2\n  swap1\n  sstore\n  pop\n    /* \"Contracts/PeerProtocol.sol\":1042:1043  0 */\n  0x00\n    /* \"Contracts/PeerProtocol.sol\":1029:1039  loanPeriod */\n  0x0a\n    /* \"Contracts/PeerProtocol.sol\":1029:1043  loanPeriod = 0 */\n  dup2\n  swap1\n  sstore\n  pop\n    /* \"@openzeppelin/contracts-upgradeable/proxy/utils/Initializable.sol\":3651:3665  isTopLevelCall */\n  dup1\n    /* \"@openzeppelin/contracts-upgradeable/proxy/utils/Initializable.sol\":3647:3746  if (isTopLevelCall) {... */\n  iszero\n  tag_20\n  jumpi\n    /* \"@openzeppelin/contracts-upgradeable/proxy/utils/Initializable.sol\":3697:3702  false */\n  0x00\n    /* \"@openzeppelin/contracts-upgradeable/proxy/utils/Initializable.sol\":3681:3694  _initializing */\n  dup1\n  0x01\n    /* \"@openzeppelin/contracts-upgradeable/proxy/utils/Initializable.sol\":3681:3702  _initializing = false */\n  0x0100\n  exp\n  dup2\n  sload\n  dup2\n  0xff\n  mul\n  not\n  and\n  swap1\n  dup4\n  iszero\n  iszero\n  mul\n  or\n  swap1\n  sstore\n  pop\n    /* \"@openzeppelin/contracts-upgradeable/proxy/utils/Initializable.sol\":3721:3735  Initialized(1) */\n  0x7f26b83ff96e1f2b6a682f133852f6798a09c465da95921460cefb3847402498\n    /* \"@openzeppelin/contracts-upgradeable/proxy/utils/Initializable.sol\":3733:3734  1 */\n  0x01\n    /* \"@openzeppelin/contracts-upgradeable/proxy/utils/Initializable.sol\":3721:3735  Initialized(1) */\n  mload(0x40)\n  tag_21\n  swap2\n  swap1\n  tag_22\n  jump\t// in\ntag_21:\n  mload(0x40)\n  dup1\n  swap2\n  sub\n  swap1\n  log1\n    /* \"@openzeppelin/contracts-upgradeable/proxy/utils/Initializable.sol\":3647:3746  if (isTopLevelCall) {... */\ntag_20:\n    /* \"@openzeppelin/contracts-upgradeable/proxy/utils/Initializable.sol\":3269:3752  {... */\n  pop\n    /* \"Contracts/PeerProtocol.sol\":879:4558  contract PeerProtocol is Initializable, Ownable{ ... */\n  jump(tag_23)\n    /* \"@openzeppelin/contracts/utils/Context.sol\":640:736  function _msgSender() internal view virtual returns (address) {... */\ntag_7:\n    /* \"@openzeppelin/contracts/utils/Context.sol\":693:700  address */\n  0x00\n    /* \"@openzeppelin/contracts/utils/Context.sol\":719:729  msg.sender */\n  caller\n    /* \"@openzeppelin/contracts/utils/Context.sol\":712:729  return msg.sender */\n  swap1\n  pop\n    /* \"@openzeppelin/contracts/utils/Context.sol\":640:736  function _msgSender() internal view virtual returns (address) {... */\n  swap1\n  jump\t// out\n    /* \"@openzeppelin/contracts/access/Ownable.sol\":2426:2613  function _transferOwnership(address newOwner) internal virtual {... */\ntag_8:\n    /* \"@openzeppelin/contracts/access/Ownable.sol\":2499:2515  address oldOwner */\n  0x00\n    /* \"@openzeppelin/contracts/access/Ownable.sol\":2518:2524  _owner */\n  dup1\n  0x02\n  swap1\n  sload\n  swap1\n  0x0100\n  exp\n  swap1\n  div\n  0xffffffffffffffffffffffffffffffffffffffff\n  and\n    /* \"@openzeppelin/contracts/access/Ownable.sol\":2499:2524  address oldOwner = _owner */\n  swap1\n  pop\n    /* \"@openzeppelin/contracts/access/Ownable.sol\":2543:2551  newOwner */\n  dup2\n    /* \"@openzeppelin/contracts/access/Ownable.sol\":2534:2540  _owner */\n  0x00\n  0x02\n    /* \"@openzeppelin/contracts/access/Ownable.sol\":2534:2551  _owner = newOwner */\n  0x0100\n  exp\n  dup2\n  sload\n  dup2\n  0xffffffffffffffffffffffffffffffffffffffff\n  mul\n  not\n  and\n  swap1\n  dup4\n  0xffffffffffffffffffffffffffffffffffffffff\n  and\n  mul\n  or\n  swap1\n  sstore\n  pop\n    /* \"@openzeppelin/contracts/access/Ownable.sol\":2597:2605  newOwner */\n  dup2\n    /* \"@openzeppelin/contracts/access/Ownable.sol\":2566:2606  OwnershipTransferred(oldOwner, newOwner) */\n  0xffffffffffffffffffffffffffffffffffffffff\n  and\n    /* \"@openzeppelin/contracts/access/Ownable.sol\":2587:2595  oldOwner */\n  dup2\n    /* \"@openzeppelin/contracts/access/Ownable.sol\":2566:2606  OwnershipTransferred(oldOwner, newOwner) */\n  0xffffffffffffffffffffffffffffffffffffffff\n  and\n  0x8be0079c531659141344cd1fd0a4f28419497f9722a3daafe3b4186f6b6457e0\n  mload(0x40)\n  mload(0x40)\n  dup1\n  swap2\n  sub\n  swap1\n  log3\n    /* \"@openzeppelin/contracts/access/Ownable.sol\":2489:2613  {... */\n  pop\n    /* \"@openzeppelin/contracts/access/Ownable.sol\":2426:2613  function _transferOwnership(address newOwner) internal virtual {... */\n  pop\n  jump\t// out\n    /* \"@openzeppelin/contracts-upgradeable/utils/AddressUpgradeable.sol\":1423:1743  function isContract(address account) internal view returns (bool) {... */\ntag_13:\n    /* \"@openzeppelin/contracts-upgradeable/utils/AddressUpgradeable.sol\":1483:1487  bool */\n  0x00\n    /* \"@openzeppelin/contracts-upgradeable/utils/AddressUpgradeable.sol\":1735:1736  0 */\n  dup1\n    /* \"@openzeppelin/contracts-upgradeable/utils/AddressUpgradeable.sol\":1713:1720  account */\n  dup3\n    /* \"@openzeppelin/contracts-upgradeable/utils/AddressUpgradeable.sol\":1713:1732  account.code.length */\n  0xffffffffffffffffffffffffffffffffffffffff\n  and\n  extcodesize\n    /* \"@openzeppelin/contracts-upgradeable/utils/AddressUpgradeable.sol\":1713:1736  account.code.length > 0 */\n  gt\n    /* \"@openzeppelin/contracts-upgradeable/utils/AddressUpgradeable.sol\":1706:1736  return account.code.length > 0 */\n  swap1\n  pop\n    /* \"@openzeppelin/contracts-upgradeable/utils/AddressUpgradeable.sol\":1423:1743  function isContract(address account) internal view returns (bool) {... */\n  swap2\n  swap1\n  pop\n  jump\t// out\n    /* \"#utility.yul\":7:176   */\ntag_27:\n    /* \"#utility.yul\":91:102   */\n  0x00\n    /* \"#utility.yul\":125:131   */\n  dup3\n    /* \"#utility.yul\":120:123   */\n  dup3\n    /* \"#utility.yul\":113:132   */\n  mstore\n    /* \"#utility.yul\":165:169   */\n  0x20\n    /* \"#utility.yul\":160:163   */\n  dup3\n    /* \"#utility.yul\":156:170   */\n  add\n    /* \"#utility.yul\":141:170   */\n  swap1\n  pop\n    /* \"#utility.yul\":7:176   */\n  swap3\n  swap2\n  pop\n  pop\n  jump\t// out\n    /* \"#utility.yul\":182:415   */\ntag_28:\n    /* \"#utility.yul\":322:356   */\n  0x496e697469616c697a61626c653a20636f6e747261637420697320616c726561\n    /* \"#utility.yul\":318:319   */\n  0x00\n    /* \"#utility.yul\":310:316   */\n  dup3\n    /* \"#utility.yul\":306:320   */\n  add\n    /* \"#utility.yul\":299:357   */\n  mstore\n    /* \"#utility.yul\":391:407   */\n  0x647920696e697469616c697a6564000000000000000000000000000000000000\n    /* \"#utility.yul\":386:388   */\n  0x20\n    /* \"#utility.yul\":378:384   */\n  dup3\n    /* \"#utility.yul\":374:389   */\n  add\n    /* \"#utility.yul\":367:408   */\n  mstore\n    /* \"#utility.yul\":182:415   */\n  pop\n  jump\t// out\n    /* \"#utility.yul\":421:787   */\ntag_29:\n    /* \"#utility.yul\":563:566   */\n  0x00\n    /* \"#utility.yul\":584:651   */\n  tag_39\n    /* \"#utility.yul\":648:650   */\n  0x2e\n    /* \"#utility.yul\":643:646   */\n  dup4\n    /* \"#utility.yul\":584:651   */\n  tag_27\n  jump\t// in\ntag_39:\n    /* \"#utility.yul\":577:651   */\n  swap2\n  pop\n    /* \"#utility.yul\":660:753   */\n  tag_40\n    /* \"#utility.yul\":749:752   */\n  dup3\n    /* \"#utility.yul\":660:753   */\n  tag_28\n  jump\t// in\ntag_40:\n    /* \"#utility.yul\":778:780   */\n  0x40\n    /* \"#utility.yul\":773:776   */\n  dup3\n    /* \"#utility.yul\":769:781   */\n  add\n    /* \"#utility.yul\":762:781   */\n  swap1\n  pop\n    /* \"#utility.yul\":421:787   */\n  swap2\n  swap1\n  pop\n  jump\t// out\n    /* \"#utility.yul\":793:1212   */\ntag_17:\n    /* \"#utility.yul\":959:963   */\n  0x00\n    /* \"#utility.yul\":997:999   */\n  0x20\n    /* \"#utility.yul\":986:995   */\n  dup3\n    /* \"#utility.yul\":982:1000   */\n  add\n    /* \"#utility.yul\":974:1000   */\n  swap1\n  pop\n    /* \"#utility.yul\":1046:1055   */\n  dup2\n    /* \"#utility.yul\":1040:1044   */\n  dup2\n    /* \"#utility.yul\":1036:1056   */\n  sub\n    /* \"#utility.yul\":1032:1033   */\n  0x00\n    /* \"#utility.yul\":1021:1030   */\n  dup4\n    /* \"#utility.yul\":1017:1034   */\n  add\n    /* \"#utility.yul\":1010:1057   */\n  mstore\n    /* \"#utility.yul\":1074:1205   */\n  tag_42\n    /* \"#utility.yul\":1200:1204   */\n  dup2\n    /* \"#utility.yul\":1074:1205   */\n  tag_29\n  jump\t// in\ntag_42:\n    /* \"#utility.yul\":1066:1205   */\n  swap1\n  pop\n    /* \"#utility.yul\":793:1212   */\n  swap2\n  swap1\n  pop\n  jump\t// out\n    /* \"#utility.yul\":1218:1303   */\ntag_30:\n    /* \"#utility.yul\":1263:1270   */\n  0x00\n    /* \"#utility.yul\":1292:1297   */\n  dup2\n    /* \"#utility.yul\":1281:1297   */\n  swap1\n  pop\n    /* \"#utility.yul\":1218:1303   */\n  swap2\n  swap1\n  pop\n  jump\t// out\n    /* \"#utility.yul\":1309:1395   */\ntag_31:\n    /* \"#utility.yul\":1344:1351   */\n  0x00\n    /* \"#utility.yul\":1384:1388   */\n  0xff\n    /* \"#utility.yul\":1377:1382   */\n  dup3\n    /* \"#utility.yul\":1373:1389   */\n  and\n    /* \"#utility.yul\":1362:1389   */\n  swap1\n  pop\n    /* \"#utility.yul\":1309:1395   */\n  swap2\n  swap1\n  pop\n  jump\t// out\n    /* \"#utility.yul\":1401:1461   */\ntag_32:\n    /* \"#utility.yul\":1429:1432   */\n  0x00\n    /* \"#utility.yul\":1450:1455   */\n  dup2\n    /* \"#utility.yul\":1443:1455   */\n  swap1\n  pop\n    /* \"#utility.yul\":1401:1461   */\n  swap2\n  swap1\n  pop\n  jump\t// out\n    /* \"#utility.yul\":1467:1621   */\ntag_33:\n    /* \"#utility.yul\":1523:1532   */\n  0x00\n    /* \"#utility.yul\":1556:1615   */\n  tag_47\n    /* \"#utility.yul\":1572:1614   */\n  tag_48\n    /* \"#utility.yul\":1581:1613   */\n  tag_49\n    /* \"#utility.yul\":1607:1612   */\n  dup5\n    /* \"#utility.yul\":1581:1613   */\n  tag_30\n  jump\t// in\ntag_49:\n    /* \"#utility.yul\":1572:1614   */\n  tag_32\n  jump\t// in\ntag_48:\n    /* \"#utility.yul\":1556:1615   */\n  tag_31\n  jump\t// in\ntag_47:\n    /* \"#utility.yul\":1543:1615   */\n  swap1\n  pop\n    /* \"#utility.yul\":1467:1621   */\n  swap2\n  swap1\n  pop\n  jump\t// out\n    /* \"#utility.yul\":1627:1770   */\ntag_34:\n    /* \"#utility.yul\":1720:1763   */\n  tag_51\n    /* \"#utility.yul\":1757:1762   */\n  dup2\n    /* \"#utility.yul\":1720:1763   */\n  tag_33\n  jump\t// in\ntag_51:\n    /* \"#utility.yul\":1715:1718   */\n  dup3\n    /* \"#utility.yul\":1708:1764   */\n  mstore\n    /* \"#utility.yul\":1627:1770   */\n  pop\n  pop\n  jump\t// out\n    /* \"#utility.yul\":1776:2010   */\ntag_22:\n    /* \"#utility.yul\":1875:1879   */\n  0x00\n    /* \"#utility.yul\":1913:1915   */\n  0x20\n    /* \"#utility.yul\":1902:1911   */\n  dup3\n    /* \"#utility.yul\":1898:1916   */\n  add\n    /* \"#utility.yul\":1890:1916   */\n  swap1\n  pop\n    /* \"#utility.yul\":1926:2003   */\n  tag_53\n    /* \"#utility.yul\":2000:2001   */\n  0x00\n    /* \"#utility.yul\":1989:1998   */\n  dup4\n    /* \"#utility.yul\":1985:2002   */\n  add\n    /* \"#utility.yul\":1976:1982   */\n  dup5\n    /* \"#utility.yul\":1926:2003   */\n  tag_34\n  jump\t// in\ntag_53:\n    /* \"#utility.yul\":1776:2010   */\n  swap3\n  swap2\n  pop\n  pop\n  jump\t// out\n    /* \"Contracts/PeerProtocol.sol\":879:4558  contract PeerProtocol is Initializable, Ownable{ ... */\ntag_23:\n  dataSize(sub_0)\n  dup1\n  dataOffset(sub_0)\n  0x00\n  codecopy\n  0x00\n  return\nstop\n\nsub_0: assembly {\n        /* \"Contracts/PeerProtocol.sol\":879:4558  contract PeerProtocol is Initializable, Ownable{ ... */\n      mstore(0x40, 0x80)\n      callvalue\n      dup1\n      iszero\n      tag_1\n      jumpi\n      0x00\n      dup1\n      revert\n    tag_1:\n      pop\n      jumpi(tag_2, lt(calldatasize, 0x04))\n      shr(0xe0, calldataload(0x00))\n      dup1\n      0x752c4e56\n      gt\n      tag_24\n      jumpi\n      dup1\n      0xa2eafc81\n      gt\n      tag_25\n      jumpi\n      dup1\n      0xa2eafc81\n      eq\n      tag_18\n      jumpi\n      dup1\n      0xa8f8fe22\n      eq\n      tag_19\n      jumpi\n      dup1\n      0xc892eada\n      eq\n      tag_20\n      jumpi\n      dup1\n      0xe29f5229\n      eq\n      tag_21\n      jumpi\n      dup1\n      0xee73c90a\n      eq\n      tag_22\n      jumpi\n      dup1\n      0xf2fde38b\n      eq\n      tag_23\n      jumpi\n      jump(tag_2)\n    tag_25:\n      dup1\n      0x752c4e56\n      eq\n      tag_13\n      jumpi\n      dup1\n      0x7ca31724\n      eq\n      tag_14\n      jumpi\n      dup1\n      0x7fb0556d\n      eq\n      tag_15\n      jumpi\n      dup1\n      0x808093d4\n      eq\n      tag_16\n      jumpi\n      dup1\n      0x8da5cb5b\n      eq\n      tag_17\n      jumpi\n      jump(tag_2)\n    tag_24:\n      dup1\n      0x27e235e3\n      gt\n      tag_26\n      jumpi\n      dup1\n      0x27e235e3\n      eq\n      tag_8\n      jumpi\n      dup1\n      0x5ab2af51\n      eq\n      tag_9\n      jumpi\n      dup1\n      0x69e1251c\n      eq\n      tag_10\n      jumpi\n      dup1\n      0x7024795d\n      eq\n      tag_11\n      jumpi\n      dup1\n      0x715018a6\n      eq\n      tag_12\n      jumpi\n      jump(tag_2)\n    tag_26:\n      dup1\n      0x0648a75e\n      eq\n      tag_3\n      jumpi\n      dup1\n      0x074ca966\n      eq\n      tag_4\n      jumpi\n      dup1\n      0x086126d3\n      eq\n      tag_5\n      jumpi\n      dup1\n      0x18b4dd3c\n      eq\n      tag_6\n      jumpi\n      dup1\n      0x196e74a7\n      eq\n      tag_7\n      jumpi\n    tag_2:\n      0x00\n      dup1\n      revert\n        /* \"Contracts/PeerProtocol.sol\":1220:1246  address public borrowerAdd */\n    tag_3:\n      tag_27\n      tag_28\n      jump\t// in\n    tag_27:\n      mload(0x40)\n      tag_29\n      swap2\n      swap1\n      tag_30\n      jump\t// in\n    tag_29:\n      mload(0x40)\n      dup1\n      swap2\n      sub\n      swap1\n      return\n        /* \"Contracts/PeerProtocol.sol\":1640:1662  bool public loanStatus */\n    tag_4:\n      tag_31\n      tag_32\n      jump\t// in\n    tag_31:\n      mload(0x40)\n      tag_33\n      swap2\n      swap1\n      tag_34\n      jump\t// in\n    tag_33:\n      mload(0x40)\n      dup1\n      swap2\n      sub\n      swap1\n      return\n        /* \"Contracts/PeerProtocol.sol\":1347:1367  uint public loanRate */\n    tag_5:\n      tag_35\n      tag_36\n      jump\t// in\n    tag_35:\n      mload(0x40)\n      tag_37\n      swap2\n      swap1\n      tag_38\n      jump\t// in\n    tag_37:\n      mload(0x40)\n      dup1\n      swap2\n      sub\n      swap1\n      return\n        /* \"Contracts/PeerProtocol.sol\":1374:1396  uint public loanPeriod */\n    tag_6:\n      tag_39\n      tag_40\n      jump\t// in\n    tag_39:\n      mload(0x40)\n      tag_41\n      swap2\n      swap1\n      tag_38\n      jump\t// in\n    tag_41:\n      mload(0x40)\n      dup1\n      swap2\n      sub\n      swap1\n      return\n        /* \"Contracts/PeerProtocol.sol\":1405:1432  uint public principalAmount */\n    tag_7:\n      tag_42\n      tag_43\n      jump\t// in\n    tag_42:\n      mload(0x40)\n      tag_44\n      swap2\n      swap1\n      tag_38\n      jump\t// in\n    tag_44:\n      mload(0x40)\n      dup1\n      swap2\n      sub\n      swap1\n      return\n        /* \"Contracts/PeerProtocol.sol\":1061:1104  mapping ( address => uint ) public balances */\n    tag_8:\n      tag_45\n      0x04\n      dup1\n      calldatasize\n      sub\n      dup2\n      add\n      swap1\n      tag_46\n      swap2\n      swap1\n      tag_47\n      jump\t// in\n    tag_46:\n      tag_48\n      jump\t// in\n    tag_45:\n      mload(0x40)\n      tag_49\n      swap2\n      swap1\n      tag_38\n      jump\t// in\n    tag_49:\n      mload(0x40)\n      dup1\n      swap2\n      sub\n      swap1\n      return\n        /* \"Contracts/PeerProtocol.sol\":1286:1313  uint public originationRate */\n    tag_9:\n      tag_50\n      tag_51\n      jump\t// in\n    tag_50:\n      mload(0x40)\n      tag_52\n      swap2\n      swap1\n      tag_38\n      jump\t// in\n    tag_52:\n      mload(0x40)\n      dup1\n      swap2\n      sub\n      swap1\n      return\n        /* \"Contracts/PeerProtocol.sol\":1825:2700  function newLoan( address borrower, uint amount, uint rate, uint period, uint peerIRate, uint originateRate ) public onlyOwner {... */\n    tag_10:\n      tag_53\n      0x04\n      dup1\n      calldatasize\n      sub\n      dup2\n      add\n      swap1\n      tag_54\n      swap2\n      swap1\n      tag_55\n      jump\t// in\n    tag_54:\n      tag_56\n      jump\t// in\n    tag_53:\n      stop\n        /* \"Contracts/PeerProtocol.sol\":1505:1527  uint public feePayable */\n    tag_11:\n      tag_57\n      tag_58\n      jump\t// in\n    tag_57:\n      mload(0x40)\n      tag_59\n      swap2\n      swap1\n      tag_38\n      jump\t// in\n    tag_59:\n      mload(0x40)\n      dup1\n      swap2\n      sub\n      swap1\n      return\n        /* \"@openzeppelin/contracts/access/Ownable.sol\":1824:1925  function renounceOwnership() public virtual onlyOwner {... */\n    tag_12:\n      tag_60\n      tag_61\n      jump\t// in\n    tag_60:\n      stop\n        /* \"Contracts/PeerProtocol.sol\":4270:4555  function repayment( address borrower, uint amount ) public {... */\n    tag_13:\n      tag_62\n      0x04\n      dup1\n      calldatasize\n      sub\n      dup2\n      add\n      swap1\n      tag_63\n      swap2\n      swap1\n      tag_64\n      jump\t// in\n    tag_63:\n      tag_65\n      jump\t// in\n    tag_62:\n      stop\n        /* \"Contracts/PeerProtocol.sol\":1111:1153  mapping ( address => uint ) public tokenId */\n    tag_14:\n      tag_66\n      0x04\n      dup1\n      calldatasize\n      sub\n      dup2\n      add\n      swap1\n      tag_67\n      swap2\n      swap1\n      tag_47\n      jump\t// in\n    tag_67:\n      tag_68\n      jump\t// in\n    tag_66:\n      mload(0x40)\n      tag_69\n      swap2\n      swap1\n      tag_38\n      jump\t// in\n    tag_69:\n      mload(0x40)\n      dup1\n      swap2\n      sub\n      swap1\n      return\n        /* \"Contracts/PeerProtocol.sol\":2708:4066  function joinLoan( uint amount ) public  {... */\n    tag_15:\n      tag_70\n      0x04\n      dup1\n      calldatasize\n      sub\n      dup2\n      add\n      swap1\n      tag_71\n      swap2\n      swap1\n      tag_72\n      jump\t// in\n    tag_71:\n      tag_73\n      jump\t// in\n    tag_70:\n      stop\n        /* \"Contracts/PeerProtocol.sol\":1253:1279  uint public principalLimit */\n    tag_16:\n      tag_74\n      tag_75\n      jump\t// in\n    tag_74:\n      mload(0x40)\n      tag_76\n      swap2\n      swap1\n      tag_38\n      jump\t// in\n    tag_76:\n      mload(0x40)\n      dup1\n      swap2\n      sub\n      swap1\n      return\n        /* \"@openzeppelin/contracts/access/Ownable.sol\":1201:1286  function owner() public view virtual returns (address) {... */\n    tag_17:\n      tag_77\n      tag_78\n      jump\t// in\n    tag_77:\n      mload(0x40)\n      tag_79\n      swap2\n      swap1\n      tag_30\n      jump\t// in\n    tag_79:\n      mload(0x40)\n      dup1\n      swap2\n      sub\n      swap1\n      return\n        /* \"Contracts/PeerProtocol.sol\":1474:1498  uint public totalPayable */\n    tag_18:\n      tag_80\n      tag_81\n      jump\t// in\n    tag_80:\n      mload(0x40)\n      tag_82\n      swap2\n      swap1\n      tag_38\n      jump\t// in\n    tag_82:\n      mload(0x40)\n      dup1\n      swap2\n      sub\n      swap1\n      return\n        /* \"Contracts/PeerProtocol.sol\":1439:1467  uint public principalPayable */\n    tag_19:\n      tag_83\n      tag_84\n      jump\t// in\n    tag_83:\n      mload(0x40)\n      tag_85\n      swap2\n      swap1\n      tag_38\n      jump\t// in\n    tag_85:\n      mload(0x40)\n      dup1\n      swap2\n      sub\n      swap1\n      return\n        /* \"Contracts/PeerProtocol.sol\":1610:1633  bool public loanDefault */\n    tag_20:\n      tag_86\n      tag_87\n      jump\t// in\n    tag_86:\n      mload(0x40)\n      tag_88\n      swap2\n      swap1\n      tag_34\n      jump\t// in\n    tag_88:\n      mload(0x40)\n      dup1\n      swap2\n      sub\n      swap1\n      return\n        /* \"Contracts/PeerProtocol.sol\":1320:1340  uint public peerRate */\n    tag_21:\n      tag_89\n      tag_90\n      jump\t// in\n    tag_89:\n      mload(0x40)\n      tag_91\n      swap2\n      swap1\n      tag_38\n      jump\t// in\n    tag_91:\n      mload(0x40)\n      dup1\n      swap2\n      sub\n      swap1\n      return\n        /* \"Contracts/PeerProtocol.sol\":1537:1565  uint public monthlyRepayment */\n    tag_22:\n      tag_92\n      tag_93\n      jump\t// in\n    tag_92:\n      mload(0x40)\n      tag_94\n      swap2\n      swap1\n      tag_38\n      jump\t// in\n    tag_94:\n      mload(0x40)\n      dup1\n      swap2\n      sub\n      swap1\n      return\n        /* \"@openzeppelin/contracts/access/Ownable.sol\":2074:2272  function transferOwnership(address newOwner) public virtual onlyOwner {... */\n    tag_23:\n      tag_95\n      0x04\n      dup1\n      calldatasize\n      sub\n      dup2\n      add\n      swap1\n      tag_96\n      swap2\n      swap1\n      tag_47\n      jump\t// in\n    tag_96:\n      tag_97\n      jump\t// in\n    tag_95:\n      stop\n        /* \"Contracts/PeerProtocol.sol\":1220:1246  address public borrowerAdd */\n    tag_28:\n      0x05\n      0x00\n      swap1\n      sload\n      swap1\n      0x0100\n      exp\n      swap1\n      div\n      0xffffffffffffffffffffffffffffffffffffffff\n      and\n      dup2\n      jump\t// out\n        /* \"Contracts/PeerProtocol.sol\":1640:1662  bool public loanStatus */\n    tag_32:\n      0x11\n      0x01\n      swap1\n      sload\n      swap1\n      0x0100\n      exp\n      swap1\n      div\n      0xff\n      and\n      dup2\n      jump\t// out\n        /* \"Contracts/PeerProtocol.sol\":1347:1367  uint public loanRate */\n    tag_36:\n      sload(0x09)\n      dup2\n      jump\t// out\n        /* \"Contracts/PeerProtocol.sol\":1374:1396  uint public loanPeriod */\n    tag_40:\n      sload(0x0a)\n      dup2\n      jump\t// out\n        /* \"Contracts/PeerProtocol.sol\":1405:1432  uint public principalAmount */\n    tag_43:\n      sload(0x0b)\n      dup2\n      jump\t// out\n        /* \"Contracts/PeerProtocol.sol\":1061:1104  mapping ( address => uint ) public balances */\n    tag_48:\n      mstore(0x20, 0x01)\n      dup1\n      0x00\n      mstore\n      keccak256(0x00, 0x40)\n      0x00\n      swap2\n      pop\n      swap1\n      pop\n      sload\n      dup2\n      jump\t// out\n        /* \"Contracts/PeerProtocol.sol\":1286:1313  uint public originationRate */\n    tag_51:\n      sload(0x07)\n      dup2\n      jump\t// out\n        /* \"Contracts/PeerProtocol.sol\":1825:2700  function newLoan( address borrower, uint amount, uint rate, uint period, uint peerIRate, uint originateRate ) public onlyOwner {... */\n    tag_56:\n        /* \"@openzeppelin/contracts/access/Ownable.sol\":1094:1107  _checkOwner() */\n      tag_99\n        /* \"@openzeppelin/contracts/access/Ownable.sol\":1094:1105  _checkOwner */\n      tag_100\n        /* \"@openzeppelin/contracts/access/Ownable.sol\":1094:1107  _checkOwner() */\n      jump\t// in\n    tag_99:\n        /* \"Contracts/PeerProtocol.sol\":1981:1983  10 */\n      0x0a\n        /* \"Contracts/PeerProtocol.sol\":1973:1977  rate */\n      dup5\n        /* \"Contracts/PeerProtocol.sol\":1973:1983  rate >= 10 */\n      lt\n      iszero\n        /* \"Contracts/PeerProtocol.sol\":1965:2043  require(rate >= 10, \"The lending rate must be at least 10 Basis Point (0.1%)\") */\n      tag_102\n      jumpi\n      mload(0x40)\n      0x08c379a000000000000000000000000000000000000000000000000000000000\n      dup2\n      mstore\n      0x04\n      add\n      tag_103\n      swap1\n      tag_104\n      jump\t// in\n    tag_103:\n      mload(0x40)\n      dup1\n      swap2\n      sub\n      swap1\n      revert\n    tag_102:\n        /* \"Contracts/PeerProtocol.sol\":2074:2078  rate */\n      dup4\n        /* \"Contracts/PeerProtocol.sol\":2062:2071  peerIRate */\n      dup3\n        /* \"Contracts/PeerProtocol.sol\":2062:2078  peerIRate < rate */\n      lt\n        /* \"Contracts/PeerProtocol.sol\":2062:2097  peerIRate < rate && peerIRate >= 40 */\n      dup1\n      iszero\n      tag_105\n      jumpi\n      pop\n        /* \"Contracts/PeerProtocol.sol\":2095:2097  40 */\n      0x28\n        /* \"Contracts/PeerProtocol.sol\":2082:2091  peerIRate */\n      dup3\n        /* \"Contracts/PeerProtocol.sol\":2082:2097  peerIRate >= 40 */\n      lt\n      iszero\n        /* \"Contracts/PeerProtocol.sol\":2062:2097  peerIRate < rate && peerIRate >= 40 */\n    tag_105:\n        /* \"Contracts/PeerProtocol.sol\":2054:2191  require(peerIRate < rate && peerIRate >= 40, \"Fee Payable for PeerRate must be less than lending rate offered and at least 40 BP (0.4%)\") */\n      tag_106\n      jumpi\n      mload(0x40)\n      0x08c379a000000000000000000000000000000000000000000000000000000000\n      dup2\n      mstore\n      0x04\n      add\n      tag_107\n      swap1\n      tag_108\n      jump\t// in\n    tag_107:\n      mload(0x40)\n      dup1\n      swap2\n      sub\n      swap1\n      revert\n    tag_106:\n        /* \"Contracts/PeerProtocol.sol\":2227:2229  50 */\n      0x32\n        /* \"Contracts/PeerProtocol.sol\":2210:2223  originateRate */\n      dup2\n        /* \"Contracts/PeerProtocol.sol\":2210:2229  originateRate >= 50 */\n      lt\n      iszero\n        /* \"Contracts/PeerProtocol.sol\":2202:2279  require(originateRate >= 50, \"Origination fee must be at least 50 BP (0.5%)\") */\n      tag_109\n      jumpi\n      mload(0x40)\n      0x08c379a000000000000000000000000000000000000000000000000000000000\n      dup2\n      mstore\n      0x04\n      add\n      tag_110\n      swap1\n      tag_111\n      jump\t// in\n    tag_110:\n      mload(0x40)\n      dup1\n      swap2\n      sub\n      swap1\n      revert\n    tag_109:\n        /* \"Contracts/PeerProtocol.sol\":2308:2309  1 */\n      0x01\n        /* \"Contracts/PeerProtocol.sol\":2298:2304  period */\n      dup4\n        /* \"Contracts/PeerProtocol.sol\":2298:2309  period >= 1 */\n      lt\n      iszero\n        /* \"Contracts/PeerProtocol.sol\":2290:2354  require(period >= 1, \"The loan period must be at least 1 Month\") */\n      tag_112\n      jumpi\n      mload(0x40)\n      0x08c379a000000000000000000000000000000000000000000000000000000000\n      dup2\n      mstore\n      0x04\n      add\n      tag_113\n      swap1\n      tag_114\n      jump\t// in\n    tag_113:\n      mload(0x40)\n      dup1\n      swap2\n      sub\n      swap1\n      revert\n    tag_112:\n        /* \"Contracts/PeerProtocol.sol\":2381:2389  borrower */\n      dup6\n        /* \"Contracts/PeerProtocol.sol\":2367:2378  borrowerAdd */\n      0x05\n      0x00\n        /* \"Contracts/PeerProtocol.sol\":2367:2389  borrowerAdd = borrower */\n      0x0100\n      exp\n      dup2\n      sload\n      dup2\n      0xffffffffffffffffffffffffffffffffffffffff\n      mul\n      not\n      and\n      swap1\n      dup4\n      0xffffffffffffffffffffffffffffffffffffffff\n      and\n      mul\n      or\n      swap1\n      sstore\n      pop\n        /* \"Contracts/PeerProtocol.sol\":2417:2423  amount */\n      dup5\n        /* \"Contracts/PeerProtocol.sol\":2400:2414  principalLimit */\n      0x06\n        /* \"Contracts/PeerProtocol.sol\":2400:2423  principalLimit = amount */\n      dup2\n      swap1\n      sstore\n      pop\n        /* \"Contracts/PeerProtocol.sol\":2445:2449  rate */\n      dup4\n        /* \"Contracts/PeerProtocol.sol\":2434:2442  loanRate */\n      0x09\n        /* \"Contracts/PeerProtocol.sol\":2434:2449  loanRate = rate */\n      dup2\n      swap1\n      sstore\n      pop\n        /* \"Contracts/PeerProtocol.sol\":2478:2491  originateRate */\n      dup1\n        /* \"Contracts/PeerProtocol.sol\":2460:2475  originationRate */\n      0x07\n        /* \"Contracts/PeerProtocol.sol\":2460:2491  originationRate = originateRate */\n      dup2\n      swap1\n      sstore\n      pop\n        /* \"Contracts/PeerProtocol.sol\":2513:2522  peerIRate */\n      dup2\n        /* \"Contracts/PeerProtocol.sol\":2502:2510  peerRate */\n      0x08\n        /* \"Contracts/PeerProtocol.sol\":2502:2522  peerRate = peerIRate */\n      dup2\n      swap1\n      sstore\n      pop\n        /* \"Contracts/PeerProtocol.sol\":2546:2552  period */\n      dup3\n        /* \"Contracts/PeerProtocol.sol\":2533:2543  loanPeriod */\n      0x0a\n        /* \"Contracts/PeerProtocol.sol\":2533:2552  loanPeriod = period */\n      dup2\n      swap1\n      sstore\n      pop\n        /* \"Contracts/PeerProtocol.sol\":2579:2584  false */\n      0x00\n        /* \"Contracts/PeerProtocol.sol\":2565:2576  loanDefault */\n      0x11\n      0x00\n        /* \"Contracts/PeerProtocol.sol\":2565:2584  loanDefault = false */\n      0x0100\n      exp\n      dup2\n      sload\n      dup2\n      0xff\n      mul\n      not\n      and\n      swap1\n      dup4\n      iszero\n      iszero\n      mul\n      or\n      swap1\n      sstore\n      pop\n        /* \"Contracts/PeerProtocol.sol\":2608:2612  true */\n      0x01\n        /* \"Contracts/PeerProtocol.sol\":2595:2605  loanStatus */\n      0x11\n      0x01\n        /* \"Contracts/PeerProtocol.sol\":2595:2612  loanStatus = true */\n      0x0100\n      exp\n      dup2\n      sload\n      dup2\n      0xff\n      mul\n      not\n      and\n      swap1\n      dup4\n      iszero\n      iszero\n      mul\n      or\n      swap1\n      sstore\n      pop\n        /* \"Contracts/PeerProtocol.sol\":2630:2692  createLoan(borrower, principalLimit, feePayable, rate, period) */\n      0xafd765ba31f9a5a1bdc5e1a2ce2079ecd6fcdcd9a80562b4d4002c050445178b\n        /* \"Contracts/PeerProtocol.sol\":2641:2649  borrower */\n      dup7\n        /* \"Contracts/PeerProtocol.sol\":2651:2665  principalLimit */\n      sload(0x06)\n        /* \"Contracts/PeerProtocol.sol\":2667:2677  feePayable */\n      sload(0x0e)\n        /* \"Contracts/PeerProtocol.sol\":2679:2683  rate */\n      dup8\n        /* \"Contracts/PeerProtocol.sol\":2685:2691  period */\n      dup8\n        /* \"Contracts/PeerProtocol.sol\":2630:2692  createLoan(borrower, principalLimit, feePayable, rate, period) */\n      mload(0x40)\n      tag_115\n      swap6\n      swap5\n      swap4\n      swap3\n      swap2\n      swap1\n      tag_116\n      jump\t// in\n    tag_115:\n      mload(0x40)\n      dup1\n      swap2\n      sub\n      swap1\n      log1\n        /* \"Contracts/PeerProtocol.sol\":1825:2700  function newLoan( address borrower, uint amount, uint rate, uint period, uint peerIRate, uint originateRate ) public onlyOwner {... */\n      pop\n      pop\n      pop\n      pop\n      pop\n      pop\n      jump\t// out\n        /* \"Contracts/PeerProtocol.sol\":1505:1527  uint public feePayable */\n    tag_58:\n      sload(0x0e)\n      dup2\n      jump\t// out\n        /* \"@openzeppelin/contracts/access/Ownable.sol\":1824:1925  function renounceOwnership() public virtual onlyOwner {... */\n    tag_61:\n        /* \"@openzeppelin/contracts/access/Ownable.sol\":1094:1107  _checkOwner() */\n      tag_118\n        /* \"@openzeppelin/contracts/access/Ownable.sol\":1094:1105  _checkOwner */\n      tag_100\n        /* \"@openzeppelin/contracts/access/Ownable.sol\":1094:1107  _checkOwner() */\n      jump\t// in\n    tag_118:\n        /* \"@openzeppelin/contracts/access/Ownable.sol\":1888:1918  _transferOwnership(address(0)) */\n      tag_120\n        /* \"@openzeppelin/contracts/access/Ownable.sol\":1915:1916  0 */\n      0x00\n        /* \"@openzeppelin/contracts/access/Ownable.sol\":1888:1906  _transferOwnership */\n      tag_121\n        /* \"@openzeppelin/contracts/access/Ownable.sol\":1888:1918  _transferOwnership(address(0)) */\n      jump\t// in\n    tag_120:\n        /* \"@openzeppelin/contracts/access/Ownable.sol\":1824:1925  function renounceOwnership() public virtual onlyOwner {... */\n      jump\t// out\n        /* \"Contracts/PeerProtocol.sol\":4270:4555  function repayment( address borrower, uint amount ) public {... */\n    tag_65:\n        /* \"Contracts/PeerProtocol.sol\":4389:4394  10000 */\n      0x2710\n        /* \"Contracts/PeerProtocol.sol\":4380:4384  8000 */\n      0x1f40\n        /* \"Contracts/PeerProtocol.sol\":4361:4377  monthlyRepayment */\n      sload(0x0f)\n        /* \"Contracts/PeerProtocol.sol\":4361:4384  monthlyRepayment * 8000 */\n      tag_123\n      swap2\n      swap1\n      tag_124\n      jump\t// in\n    tag_123:\n        /* \"Contracts/PeerProtocol.sol\":4359:4394  ( monthlyRepayment * 8000 ) / 10000 */\n      tag_125\n      swap2\n      swap1\n      tag_126\n      jump\t// in\n    tag_125:\n        /* \"Contracts/PeerProtocol.sol\":4349:4355  amount */\n      dup2\n        /* \"Contracts/PeerProtocol.sol\":4349:4394  amount >= ( monthlyRepayment * 8000 ) / 10000 */\n      lt\n      iszero\n        /* \"Contracts/PeerProtocol.sol\":4340:4445  require( amount >= ( monthlyRepayment * 8000 ) / 10000, \"Please pay at least 80% of the required amount\") */\n      tag_127\n      jumpi\n      mload(0x40)\n      0x08c379a000000000000000000000000000000000000000000000000000000000\n      dup2\n      mstore\n      0x04\n      add\n      tag_128\n      swap1\n      tag_129\n      jump\t// in\n    tag_128:\n      mload(0x40)\n      dup1\n      swap2\n      sub\n      swap1\n      revert\n    tag_127:\n        /* \"Contracts/PeerProtocol.sol\":4472:4478  amount */\n      dup1\n        /* \"Contracts/PeerProtocol.sol\":4456:4468  totalPayable */\n      0x0d\n      0x00\n        /* \"Contracts/PeerProtocol.sol\":4456:4478  totalPayable -= amount */\n      dup3\n      dup3\n      sload\n      tag_130\n      swap2\n      swap1\n      tag_131\n      jump\t// in\n    tag_130:\n      swap3\n      pop\n      pop\n      dup2\n      swap1\n      sstore\n      pop\n        /* \"Contracts/PeerProtocol.sol\":4503:4504  1 */\n      0x01\n        /* \"Contracts/PeerProtocol.sol\":4489:4499  loanPeriod */\n      0x0a\n      0x00\n        /* \"Contracts/PeerProtocol.sol\":4489:4504  loanPeriod -= 1 */\n      dup3\n      dup3\n      sload\n      tag_132\n      swap2\n      swap1\n      tag_131\n      jump\t// in\n    tag_132:\n      swap3\n      pop\n      pop\n      dup2\n      swap1\n      sstore\n      pop\n        /* \"Contracts/PeerProtocol.sol\":4539:4545  amount */\n      dup1\n        /* \"Contracts/PeerProtocol.sol\":4517:4525  balances */\n      0x01\n        /* \"Contracts/PeerProtocol.sol\":4517:4535  balances[borrower] */\n      0x00\n        /* \"Contracts/PeerProtocol.sol\":4526:4534  borrower */\n      dup5\n        /* \"Contracts/PeerProtocol.sol\":4517:4535  balances[borrower] */\n      0xffffffffffffffffffffffffffffffffffffffff\n      and\n      0xffffffffffffffffffffffffffffffffffffffff\n      and\n      dup2\n      mstore\n      0x20\n      add\n      swap1\n      dup2\n      mstore\n      0x20\n      add\n      0x00\n      keccak256\n      0x00\n        /* \"Contracts/PeerProtocol.sol\":4517:4545  balances[borrower] += amount */\n      dup3\n      dup3\n      sload\n      tag_133\n      swap2\n      swap1\n      tag_134\n      jump\t// in\n    tag_133:\n      swap3\n      pop\n      pop\n      dup2\n      swap1\n      sstore\n      pop\n        /* \"Contracts/PeerProtocol.sol\":4270:4555  function repayment( address borrower, uint amount ) public {... */\n      pop\n      pop\n      jump\t// out\n        /* \"Contracts/PeerProtocol.sol\":1111:1153  mapping ( address => uint ) public tokenId */\n    tag_68:\n      mstore(0x20, 0x02)\n      dup1\n      0x00\n      mstore\n      keccak256(0x00, 0x40)\n      0x00\n      swap2\n      pop\n      swap1\n      pop\n      sload\n      dup2\n      jump\t// out\n        /* \"Contracts/PeerProtocol.sol\":2708:4066  function joinLoan( uint amount ) public  {... */\n    tag_73:\n        /* \"Contracts/PeerProtocol.sol\":2768:2778  loanStatus */\n      0x11\n      0x01\n      swap1\n      sload\n      swap1\n      0x0100\n      exp\n      swap1\n      div\n      0xff\n      and\n        /* \"Contracts/PeerProtocol.sol\":2760:2806  require(loanStatus, \"The loan is not created\") */\n      tag_136\n      jumpi\n      mload(0x40)\n      0x08c379a000000000000000000000000000000000000000000000000000000000\n      dup2\n      mstore\n      0x04\n      add\n      tag_137\n      swap1\n      tag_138\n      jump\t// in\n    tag_137:\n      mload(0x40)\n      dup1\n      swap2\n      sub\n      swap1\n      revert\n    tag_136:\n        /* \"Contracts/PeerProtocol.sol\":2835:2836  0 */\n      0x00\n        /* \"Contracts/PeerProtocol.sol\":2825:2831  amount */\n      dup2\n        /* \"Contracts/PeerProtocol.sol\":2825:2836  amount >= 0 */\n      lt\n      iszero\n        /* \"Contracts/PeerProtocol.sol\":2817:2879  require(amount >= 0, \" Please invest in the loan more than 1\") */\n      tag_139\n      jumpi\n      mload(0x40)\n      0x08c379a000000000000000000000000000000000000000000000000000000000\n      dup2\n      mstore\n      0x04\n      add\n      tag_140\n      swap1\n      tag_141\n      jump\t// in\n    tag_140:\n      mload(0x40)\n      dup1\n      swap2\n      sub\n      swap1\n      revert\n    tag_139:\n        /* \"Contracts/PeerProtocol.sol\":2926:2940  principalLimit */\n      sload(0x06)\n        /* \"Contracts/PeerProtocol.sol\":2907:2922  principalAmount */\n      sload(0x0b)\n        /* \"Contracts/PeerProtocol.sol\":2898:2904  amount */\n      dup3\n        /* \"Contracts/PeerProtocol.sol\":2898:2922  amount + principalAmount */\n      tag_142\n      swap2\n      swap1\n      tag_134\n      jump\t// in\n    tag_142:\n        /* \"Contracts/PeerProtocol.sol\":2898:2940  amount + principalAmount <= principalLimit */\n      gt\n      iszero\n        /* \"Contracts/PeerProtocol.sol\":2890:2996  require(amount + principalAmount <= principalLimit, \"You have exceeded the maximum principal of the loan\") */\n      tag_143\n      jumpi\n      mload(0x40)\n      0x08c379a000000000000000000000000000000000000000000000000000000000\n      dup2\n      mstore\n      0x04\n      add\n      tag_144\n      swap1\n      tag_145\n      jump\t// in\n    tag_144:\n      mload(0x40)\n      dup1\n      swap2\n      sub\n      swap1\n      revert\n    tag_143:\n        /* \"Contracts/PeerProtocol.sol\":3017:3029  IERC20 token */\n      0x00\n        /* \"Contracts/PeerProtocol.sol\":3039:3049  msg.sender */\n      caller\n        /* \"Contracts/PeerProtocol.sol\":3017:3050  IERC20 token = IERC20(msg.sender) */\n      swap1\n      pop\n        /* \"Contracts/PeerProtocol.sol\":3100:3106  amount */\n      dup2\n        /* \"Contracts/PeerProtocol.sol\":3069:3074  token */\n      dup2\n        /* \"Contracts/PeerProtocol.sol\":3069:3084  token.balanceOf */\n      0xffffffffffffffffffffffffffffffffffffffff\n      and\n      0x70a08231\n        /* \"Contracts/PeerProtocol.sol\":3085:3095  msg.sender */\n      caller\n        /* \"Contracts/PeerProtocol.sol\":3069:3096  token.balanceOf(msg.sender) */\n      mload(0x40)\n      dup3\n      0xffffffff\n      and\n      0xe0\n      shl\n      dup2\n      mstore\n      0x04\n      add\n      tag_146\n      swap2\n      swap1\n      tag_30\n      jump\t// in\n    tag_146:\n      0x20\n      mload(0x40)\n      dup1\n      dup4\n      sub\n      dup2\n      dup7\n      gas\n      staticcall\n      iszero\n      dup1\n      iszero\n      tag_148\n      jumpi\n      returndatasize\n      0x00\n      dup1\n      returndatacopy\n      revert(0x00, returndatasize)\n    tag_148:\n      pop\n      pop\n      pop\n      pop\n      mload(0x40)\n      returndatasize\n      not(0x1f)\n      0x1f\n      dup3\n      add\n      and\n      dup3\n      add\n      dup1\n      0x40\n      mstore\n      pop\n      dup2\n      add\n      swap1\n      tag_149\n      swap2\n      swap1\n      tag_150\n      jump\t// in\n    tag_149:\n        /* \"Contracts/PeerProtocol.sol\":3069:3106  token.balanceOf(msg.sender) >= amount */\n      lt\n      iszero\n        /* \"Contracts/PeerProtocol.sol\":3061:3139  require(token.balanceOf(msg.sender) >= amount, \"You have insufficient amount\") */\n      tag_151\n      jumpi\n      mload(0x40)\n      0x08c379a000000000000000000000000000000000000000000000000000000000\n      dup2\n      mstore\n      0x04\n      add\n      tag_152\n      swap1\n      tag_153\n      jump\t// in\n    tag_152:\n      mload(0x40)\n      dup1\n      swap2\n      sub\n      swap1\n      revert\n    tag_151:\n        /* \"Contracts/PeerProtocol.sol\":3171:3177  amount */\n      dup2\n        /* \"Contracts/PeerProtocol.sol\":3152:3167  principalAmount */\n      0x0b\n      0x00\n        /* \"Contracts/PeerProtocol.sol\":3152:3177  principalAmount += amount */\n      dup3\n      dup3\n      sload\n      tag_154\n      swap2\n      swap1\n      tag_134\n      jump\t// in\n    tag_154:\n      swap3\n      pop\n      pop\n      dup2\n      swap1\n      sstore\n      pop\n        /* \"Contracts/PeerProtocol.sol\":3190:3213  uint originationNominal */\n      0x00\n        /* \"Contracts/PeerProtocol.sol\":3247:3253  tenthK */\n      sload(0x03)\n        /* \"Contracts/PeerProtocol.sol\":3227:3242  originationRate */\n      sload(0x07)\n        /* \"Contracts/PeerProtocol.sol\":3218:3224  amount */\n      dup5\n        /* \"Contracts/PeerProtocol.sol\":3218:3242  amount * originationRate */\n      tag_155\n      swap2\n      swap1\n      tag_124\n      jump\t// in\n    tag_155:\n        /* \"Contracts/PeerProtocol.sol\":3216:3253  ( amount * originationRate ) / tenthK */\n      tag_156\n      swap2\n      swap1\n      tag_126\n      jump\t// in\n    tag_156:\n        /* \"Contracts/PeerProtocol.sol\":3190:3253  uint originationNominal = ( amount * originationRate ) / tenthK */\n      swap1\n      pop\n        /* \"Contracts/PeerProtocol.sol\":3264:3283  uint originationFee */\n      0x00\n        /* \"Contracts/PeerProtocol.sol\":3364:3370  tenthK */\n      sload(0x03)\n        /* \"Contracts/PeerProtocol.sol\":3345:3358  dayConvention */\n      sload(0x04)\n        /* \"Contracts/PeerProtocol.sol\":3330:3340  loanPeriod */\n      sload(0x0a)\n        /* \"Contracts/PeerProtocol.sol\":3321:3329  loanRate */\n      sload(0x09)\n        /* \"Contracts/PeerProtocol.sol\":3321:3340  loanRate*loanPeriod */\n      tag_157\n      swap2\n      swap1\n      tag_124\n      jump\t// in\n    tag_157:\n        /* \"Contracts/PeerProtocol.sol\":3319:3358  ( loanRate*loanPeriod ) / dayConvention */\n      tag_158\n      swap2\n      swap1\n      tag_126\n      jump\t// in\n    tag_158:\n        /* \"Contracts/PeerProtocol.sol\":3311:3316  10000 */\n      0x2710\n        /* \"Contracts/PeerProtocol.sol\":3311:3358  10000 + ( loanRate*loanPeriod ) / dayConvention */\n      tag_159\n      swap2\n      swap1\n      tag_134\n      jump\t// in\n    tag_159:\n        /* \"Contracts/PeerProtocol.sol\":3288:3306  originationNominal */\n      dup4\n        /* \"Contracts/PeerProtocol.sol\":3288:3360  originationNominal * ( 10000 + ( loanRate*loanPeriod ) / dayConvention ) */\n      tag_160\n      swap2\n      swap1\n      tag_124\n      jump\t// in\n    tag_160:\n        /* \"Contracts/PeerProtocol.sol\":3286:3370  ( originationNominal * ( 10000 + ( loanRate*loanPeriod ) / dayConvention )) / tenthK */\n      tag_161\n      swap2\n      swap1\n      tag_126\n      jump\t// in\n    tag_161:\n        /* \"Contracts/PeerProtocol.sol\":3264:3370  uint originationFee = ( originationNominal * ( 10000 + ( loanRate*loanPeriod ) / dayConvention )) / tenthK */\n      swap1\n      pop\n        /* \"Contracts/PeerProtocol.sol\":3381:3393  uint peerFee */\n      0x00\n        /* \"Contracts/PeerProtocol.sol\":3449:3455  tenthK */\n      sload(0x03)\n        /* \"Contracts/PeerProtocol.sol\":3431:3444  dayConvention */\n      sload(0x04)\n        /* \"Contracts/PeerProtocol.sol\":3419:3429  loanPeriod */\n      sload(0x0a)\n        /* \"Contracts/PeerProtocol.sol\":3410:3418  peerRate */\n      sload(0x08)\n        /* \"Contracts/PeerProtocol.sol\":3410:3429  peerRate*loanPeriod */\n      tag_162\n      swap2\n      swap1\n      tag_124\n      jump\t// in\n    tag_162:\n        /* \"Contracts/PeerProtocol.sol\":3409:3444  (peerRate*loanPeriod)/dayConvention */\n      tag_163\n      swap2\n      swap1\n      tag_126\n      jump\t// in\n    tag_163:\n        /* \"Contracts/PeerProtocol.sol\":3399:3405  amount */\n      dup7\n        /* \"Contracts/PeerProtocol.sol\":3399:3445  amount * ((peerRate*loanPeriod)/dayConvention) */\n      tag_164\n      swap2\n      swap1\n      tag_124\n      jump\t// in\n    tag_164:\n        /* \"Contracts/PeerProtocol.sol\":3397:3455  ( amount * ((peerRate*loanPeriod)/dayConvention)) / tenthK */\n      tag_165\n      swap2\n      swap1\n      tag_126\n      jump\t// in\n    tag_165:\n        /* \"Contracts/PeerProtocol.sol\":3381:3455  uint peerFee =  ( amount * ((peerRate*loanPeriod)/dayConvention)) / tenthK */\n      swap1\n      pop\n        /* \"Contracts/PeerProtocol.sol\":3490:3504  originationFee */\n      dup2\n        /* \"Contracts/PeerProtocol.sol\":3480:3487  peerFee */\n      dup2\n        /* \"Contracts/PeerProtocol.sol\":3480:3504  peerFee + originationFee */\n      tag_166\n      swap2\n      swap1\n      tag_134\n      jump\t// in\n    tag_166:\n        /* \"Contracts/PeerProtocol.sol\":3466:3476  feePayable */\n      0x0e\n      0x00\n        /* \"Contracts/PeerProtocol.sol\":3466:3504  feePayable += peerFee + originationFee */\n      dup3\n      dup3\n      sload\n      tag_167\n      swap2\n      swap1\n      tag_134\n      jump\t// in\n    tag_167:\n      swap3\n      pop\n      pop\n      dup2\n      swap1\n      sstore\n      pop\n        /* \"Contracts/PeerProtocol.sol\":3517:3534  uint principalInt */\n      0x00\n        /* \"Contracts/PeerProtocol.sol\":3613:3619  tenthK */\n      sload(0x03)\n        /* \"Contracts/PeerProtocol.sol\":3596:3609  dayConvention */\n      sload(0x04)\n        /* \"Contracts/PeerProtocol.sol\":3583:3593  loanPeriod */\n      sload(0x0a)\n        /* \"Contracts/PeerProtocol.sol\":3570:3578  peerRate */\n      sload(0x08)\n        /* \"Contracts/PeerProtocol.sol\":3561:3569  loanRate */\n      sload(0x09)\n        /* \"Contracts/PeerProtocol.sol\":3561:3578  loanRate-peerRate */\n      tag_168\n      swap2\n      swap1\n      tag_131\n      jump\t// in\n    tag_168:\n        /* \"Contracts/PeerProtocol.sol\":3559:3593  ( loanRate-peerRate ) * loanPeriod */\n      tag_169\n      swap2\n      swap1\n      tag_124\n      jump\t// in\n    tag_169:\n        /* \"Contracts/PeerProtocol.sol\":3558:3609  (( loanRate-peerRate ) * loanPeriod )/dayConvention */\n      tag_170\n      swap2\n      swap1\n      tag_126\n      jump\t// in\n    tag_170:\n        /* \"Contracts/PeerProtocol.sol\":3550:3555  10000 */\n      0x2710\n        /* \"Contracts/PeerProtocol.sol\":3550:3609  10000 + (( loanRate-peerRate ) * loanPeriod )/dayConvention */\n      tag_171\n      swap2\n      swap1\n      tag_134\n      jump\t// in\n    tag_171:\n        /* \"Contracts/PeerProtocol.sol\":3539:3545  amount */\n      dup8\n        /* \"Contracts/PeerProtocol.sol\":3539:3610  amount * ( 10000 + (( loanRate-peerRate ) * loanPeriod )/dayConvention) */\n      tag_172\n      swap2\n      swap1\n      tag_124\n      jump\t// in\n    tag_172:\n        /* \"Contracts/PeerProtocol.sol\":3537:3619  ( amount * ( 10000 + (( loanRate-peerRate ) * loanPeriod )/dayConvention))/ tenthK */\n      tag_173\n      swap2\n      swap1\n      tag_126\n      jump\t// in\n    tag_173:\n        /* \"Contracts/PeerProtocol.sol\":3517:3619  uint principalInt = ( amount * ( 10000 + (( loanRate-peerRate ) * loanPeriod )/dayConvention))/ tenthK */\n      swap1\n      pop\n        /* \"Contracts/PeerProtocol.sol\":3650:3662  principalInt */\n      dup1\n        /* \"Contracts/PeerProtocol.sol\":3630:3646  principalPayable */\n      0x0c\n      0x00\n        /* \"Contracts/PeerProtocol.sol\":3630:3662  principalPayable += principalInt */\n      dup3\n      dup3\n      sload\n      tag_174\n      swap2\n      swap1\n      tag_134\n      jump\t// in\n    tag_174:\n      swap3\n      pop\n      pop\n      dup2\n      swap1\n      sstore\n      pop\n        /* \"Contracts/PeerProtocol.sol\":3703:3719  principalPayable */\n      sload(0x0c)\n        /* \"Contracts/PeerProtocol.sol\":3690:3700  feePayable */\n      sload(0x0e)\n        /* \"Contracts/PeerProtocol.sol\":3690:3719  feePayable + principalPayable */\n      tag_175\n      swap2\n      swap1\n      tag_134\n      jump\t// in\n    tag_175:\n        /* \"Contracts/PeerProtocol.sol\":3675:3687  totalPayable */\n      0x0d\n        /* \"Contracts/PeerProtocol.sol\":3675:3719  totalPayable = feePayable + principalPayable */\n      dup2\n      swap1\n      sstore\n      pop\n        /* \"Contracts/PeerProtocol.sol\":3765:3775  loanPeriod */\n      sload(0x0a)\n        /* \"Contracts/PeerProtocol.sol\":3750:3762  totalPayable */\n      sload(0x0d)\n        /* \"Contracts/PeerProtocol.sol\":3750:3775  totalPayable / loanPeriod */\n      tag_176\n      swap2\n      swap1\n      tag_126\n      jump\t// in\n    tag_176:\n        /* \"Contracts/PeerProtocol.sol\":3730:3746  monthlyRepayment */\n      0x0f\n      0x00\n        /* \"Contracts/PeerProtocol.sol\":3730:3775  monthlyRepayment += totalPayable / loanPeriod */\n      dup3\n      dup3\n      sload\n      tag_177\n      swap2\n      swap1\n      tag_134\n      jump\t// in\n    tag_177:\n      swap3\n      pop\n      pop\n      dup2\n      swap1\n      sstore\n      pop\n        /* \"Contracts/PeerProtocol.sol\":3800:3801  1 */\n      0x01\n        /* \"Contracts/PeerProtocol.sol\":3786:3796  currentTid */\n      0x10\n      0x00\n        /* \"Contracts/PeerProtocol.sol\":3786:3801  currentTid += 1 */\n      dup3\n      dup3\n      sload\n      tag_178\n      swap2\n      swap1\n      tag_134\n      jump\t// in\n    tag_178:\n      swap3\n      pop\n      pop\n      dup2\n      swap1\n      sstore\n      pop\n        /* \"Contracts/PeerProtocol.sol\":3838:3844  amount */\n      dup6\n        /* \"Contracts/PeerProtocol.sol\":3814:3822  balances */\n      0x01\n        /* \"Contracts/PeerProtocol.sol\":3814:3834  balances[msg.sender] */\n      0x00\n        /* \"Contracts/PeerProtocol.sol\":3823:3833  msg.sender */\n      caller\n        /* \"Contracts/PeerProtocol.sol\":3814:3834  balances[msg.sender] */\n      0xffffffffffffffffffffffffffffffffffffffff\n      and\n      0xffffffffffffffffffffffffffffffffffffffff\n      and\n      dup2\n      mstore\n      0x20\n      add\n      swap1\n      dup2\n      mstore\n      0x20\n      add\n      0x00\n      keccak256\n      0x00\n        /* \"Contracts/PeerProtocol.sol\":3814:3844  balances[msg.sender] += amount */\n      dup3\n      dup3\n      sload\n      tag_179\n      swap2\n      swap1\n      tag_134\n      jump\t// in\n    tag_179:\n      swap3\n      pop\n      pop\n      dup2\n      swap1\n      sstore\n      pop\n        /* \"Contracts/PeerProtocol.sol\":3877:3887  currentTid */\n      sload(0x10)\n        /* \"Contracts/PeerProtocol.sol\":3855:3862  tokenId */\n      0x02\n        /* \"Contracts/PeerProtocol.sol\":3855:3874  tokenId[msg.sender] */\n      0x00\n        /* \"Contracts/PeerProtocol.sol\":3863:3873  msg.sender */\n      caller\n        /* \"Contracts/PeerProtocol.sol\":3855:3874  tokenId[msg.sender] */\n      0xffffffffffffffffffffffffffffffffffffffff\n      and\n      0xffffffffffffffffffffffffffffffffffffffff\n      and\n      dup2\n      mstore\n      0x20\n      add\n      swap1\n      dup2\n      mstore\n      0x20\n      add\n      0x00\n      keccak256\n        /* \"Contracts/PeerProtocol.sol\":3855:3887  tokenId[msg.sender] = currentTid */\n      dup2\n      swap1\n      sstore\n      pop\n        /* \"Contracts/PeerProtocol.sol\":3900:3905  token */\n      dup5\n        /* \"Contracts/PeerProtocol.sol\":3900:3914  token.transfer */\n      0xffffffffffffffffffffffffffffffffffffffff\n      and\n      0xa9059cbb\n        /* \"Contracts/PeerProtocol.sol\":3923:3927  this */\n      address\n        /* \"Contracts/PeerProtocol.sol\":3930:3936  amount */\n      dup9\n        /* \"Contracts/PeerProtocol.sol\":3900:3937  token.transfer(address(this), amount) */\n      mload(0x40)\n      dup4\n      0xffffffff\n      and\n      0xe0\n      shl\n      dup2\n      mstore\n      0x04\n      add\n      tag_180\n      swap3\n      swap2\n      swap1\n      tag_181\n      jump\t// in\n    tag_180:\n      0x20\n      mload(0x40)\n      dup1\n      dup4\n      sub\n      dup2\n      0x00\n      dup8\n      gas\n      call\n      iszero\n      dup1\n      iszero\n      tag_183\n      jumpi\n      returndatasize\n      0x00\n      dup1\n      returndatacopy\n      revert(0x00, returndatasize)\n    tag_183:\n      pop\n      pop\n      pop\n      pop\n      mload(0x40)\n      returndatasize\n      not(0x1f)\n      0x1f\n      dup3\n      add\n      and\n      dup3\n      add\n      dup1\n      0x40\n      mstore\n      pop\n      dup2\n      add\n      swap1\n      tag_184\n      swap2\n      swap1\n      tag_185\n      jump\t// in\n    tag_184:\n      pop\n        /* \"Contracts/PeerProtocol.sol\":3958:4000  _transfer(msg.sender, borrowerAdd, amount) */\n      tag_186\n        /* \"Contracts/PeerProtocol.sol\":3968:3978  msg.sender */\n      caller\n        /* \"Contracts/PeerProtocol.sol\":3980:3991  borrowerAdd */\n      0x05\n      0x00\n      swap1\n      sload\n      swap1\n      0x0100\n      exp\n      swap1\n      div\n      0xffffffffffffffffffffffffffffffffffffffff\n      and\n        /* \"Contracts/PeerProtocol.sol\":3993:3999  amount */\n      dup9\n        /* \"Contracts/PeerProtocol.sol\":3958:3967  _transfer */\n      tag_187\n        /* \"Contracts/PeerProtocol.sol\":3958:4000  _transfer(msg.sender, borrowerAdd, amount) */\n      jump\t// in\n    tag_186:\n        /* \"Contracts/PeerProtocol.sol\":4018:4058  Transfer(address(0), msg.sender, amount) */\n      0xddf252ad1be2c89b69c2b068fc378daa952ba7f163c4a11628f55a4df523b3ef\n        /* \"Contracts/PeerProtocol.sol\":4035:4036  0 */\n      0x00\n        /* \"Contracts/PeerProtocol.sol\":4039:4049  msg.sender */\n      caller\n        /* \"Contracts/PeerProtocol.sol\":4051:4057  amount */\n      dup9\n        /* \"Contracts/PeerProtocol.sol\":4018:4058  Transfer(address(0), msg.sender, amount) */\n      mload(0x40)\n      tag_188\n      swap4\n      swap3\n      swap2\n      swap1\n      tag_189\n      jump\t// in\n    tag_188:\n      mload(0x40)\n      dup1\n      swap2\n      sub\n      swap1\n      log1\n        /* \"Contracts/PeerProtocol.sol\":2749:4066  {... */\n      pop\n      pop\n      pop\n      pop\n      pop\n        /* \"Contracts/PeerProtocol.sol\":2708:4066  function joinLoan( uint amount ) public  {... */\n      pop\n      jump\t// out\n        /* \"Contracts/PeerProtocol.sol\":1253:1279  uint public principalLimit */\n    tag_75:\n      sload(0x06)\n      dup2\n      jump\t// out\n        /* \"@openzeppelin/contracts/access/Ownable.sol\":1201:1286  function owner() public view virtual returns (address) {... */\n    tag_78:\n        /* \"@openzeppelin/contracts/access/Ownable.sol\":1247:1254  address */\n      0x00\n        /* \"@openzeppelin/contracts/access/Ownable.sol\":1273:1279  _owner */\n      dup1\n      0x02\n      swap1\n      sload\n      swap1\n      0x0100\n      exp\n      swap1\n      div\n      0xffffffffffffffffffffffffffffffffffffffff\n      and\n        /* \"@openzeppelin/contracts/access/Ownable.sol\":1266:1279  return _owner */\n      swap1\n      pop\n        /* \"@openzeppelin/contracts/access/Ownable.sol\":1201:1286  function owner() public view virtual returns (address) {... */\n      swap1\n      jump\t// out\n        /* \"Contracts/PeerProtocol.sol\":1474:1498  uint public totalPayable */\n    tag_81:\n      sload(0x0d)\n      dup2\n      jump\t// out\n        /* \"Contracts/PeerProtocol.sol\":1439:1467  uint public principalPayable */\n    tag_84:\n      sload(0x0c)\n      dup2\n      jump\t// out\n        /* \"Contracts/PeerProtocol.sol\":1610:1633  bool public loanDefault */\n    tag_87:\n      0x11\n      0x00\n      swap1\n      sload\n      swap1\n      0x0100\n      exp\n      swap1\n      div\n      0xff\n      and\n      dup2\n      jump\t// out\n        /* \"Contracts/PeerProtocol.sol\":1320:1340  uint public peerRate */\n    tag_90:\n      sload(0x08)\n      dup2\n      jump\t// out\n        /* \"Contracts/PeerProtocol.sol\":1537:1565  uint public monthlyRepayment */\n    tag_93:\n      sload(0x0f)\n      dup2\n      jump\t// out\n        /* \"@openzeppelin/contracts/access/Ownable.sol\":2074:2272  function transferOwnership(address newOwner) public virtual onlyOwner {... */\n    tag_97:\n        /* \"@openzeppelin/contracts/access/Ownable.sol\":1094:1107  _checkOwner() */\n      tag_192\n        /* \"@openzeppelin/contracts/access/Ownable.sol\":1094:1105  _checkOwner */\n      tag_100\n        /* \"@openzeppelin/contracts/access/Ownable.sol\":1094:1107  _checkOwner() */\n      jump\t// in\n    tag_192:\n        /* \"@openzeppelin/contracts/access/Ownable.sol\":2182:2183  0 */\n      0x00\n        /* \"@openzeppelin/contracts/access/Ownable.sol\":2162:2184  newOwner != address(0) */\n      0xffffffffffffffffffffffffffffffffffffffff\n      and\n        /* \"@openzeppelin/contracts/access/Ownable.sol\":2162:2170  newOwner */\n      dup2\n        /* \"@openzeppelin/contracts/access/Ownable.sol\":2162:2184  newOwner != address(0) */\n      0xffffffffffffffffffffffffffffffffffffffff\n      and\n      sub\n        /* \"@openzeppelin/contracts/access/Ownable.sol\":2154:2227  require(newOwner != address(0), \"Ownable: new owner is the zero address\") */\n      tag_194\n      jumpi\n      mload(0x40)\n      0x08c379a000000000000000000000000000000000000000000000000000000000\n      dup2\n      mstore\n      0x04\n      add\n      tag_195\n      swap1\n      tag_196\n      jump\t// in\n    tag_195:\n      mload(0x40)\n      dup1\n      swap2\n      sub\n      swap1\n      revert\n    tag_194:\n        /* \"@openzeppelin/contracts/access/Ownable.sol\":2237:2265  _transferOwnership(newOwner) */\n      tag_197\n        /* \"@openzeppelin/contracts/access/Ownable.sol\":2256:2264  newOwner */\n      dup2\n        /* \"@openzeppelin/contracts/access/Ownable.sol\":2237:2255  _transferOwnership */\n      tag_121\n        /* \"@openzeppelin/contracts/access/Ownable.sol\":2237:2265  _transferOwnership(newOwner) */\n      jump\t// in\n    tag_197:\n        /* \"@openzeppelin/contracts/access/Ownable.sol\":2074:2272  function transferOwnership(address newOwner) public virtual onlyOwner {... */\n      pop\n      jump\t// out\n        /* \"@openzeppelin/contracts/access/Ownable.sol\":1359:1489  function _checkOwner() internal view virtual {... */\n    tag_100:\n        /* \"@openzeppelin/contracts/access/Ownable.sol\":1433:1445  _msgSender() */\n      tag_199\n        /* \"@openzeppelin/contracts/access/Ownable.sol\":1433:1443  _msgSender */\n      tag_200\n        /* \"@openzeppelin/contracts/access/Ownable.sol\":1433:1445  _msgSender() */\n      jump\t// in\n    tag_199:\n        /* \"@openzeppelin/contracts/access/Ownable.sol\":1422:1445  owner() == _msgSender() */\n      0xffffffffffffffffffffffffffffffffffffffff\n      and\n        /* \"@openzeppelin/contracts/access/Ownable.sol\":1422:1429  owner() */\n      tag_201\n        /* \"@openzeppelin/contracts/access/Ownable.sol\":1422:1427  owner */\n      tag_78\n        /* \"@openzeppelin/contracts/access/Ownable.sol\":1422:1429  owner() */\n      jump\t// in\n    tag_201:\n        /* \"@openzeppelin/contracts/access/Ownable.sol\":1422:1445  owner() == _msgSender() */\n      0xffffffffffffffffffffffffffffffffffffffff\n      and\n      eq\n        /* \"@openzeppelin/contracts/access/Ownable.sol\":1414:1482  require(owner() == _msgSender(), \"Ownable: caller is not the owner\") */\n      tag_202\n      jumpi\n      mload(0x40)\n      0x08c379a000000000000000000000000000000000000000000000000000000000\n      dup2\n      mstore\n      0x04\n      add\n      tag_203\n      swap1\n      tag_204\n      jump\t// in\n    tag_203:\n      mload(0x40)\n      dup1\n      swap2\n      sub\n      swap1\n      revert\n    tag_202:\n        /* \"@openzeppelin/contracts/access/Ownable.sol\":1359:1489  function _checkOwner() internal view virtual {... */\n      jump\t// out\n        /* \"@openzeppelin/contracts/access/Ownable.sol\":2426:2613  function _transferOwnership(address newOwner) internal virtual {... */\n    tag_121:\n        /* \"@openzeppelin/contracts/access/Ownable.sol\":2499:2515  address oldOwner */\n      0x00\n        /* \"@openzeppelin/contracts/access/Ownable.sol\":2518:2524  _owner */\n      dup1\n      0x02\n      swap1\n      sload\n      swap1\n      0x0100\n      exp\n      swap1\n      div\n      0xffffffffffffffffffffffffffffffffffffffff\n      and\n        /* \"@openzeppelin/contracts/access/Ownable.sol\":2499:2524  address oldOwner = _owner */\n      swap1\n      pop\n        /* \"@openzeppelin/contracts/access/Ownable.sol\":2543:2551  newOwner */\n      dup2\n        /* \"@openzeppelin/contracts/access/Ownable.sol\":2534:2540  _owner */\n      0x00\n      0x02\n        /* \"@openzeppelin/contracts/access/Ownable.sol\":2534:2551  _owner = newOwner */\n      0x0100\n      exp\n      dup2\n      sload\n      dup2\n      0xffffffffffffffffffffffffffffffffffffffff\n      mul\n      not\n      and\n      swap1\n      dup4\n      0xffffffffffffffffffffffffffffffffffffffff\n      and\n      mul\n      or\n      swap1\n      sstore\n      pop\n        /* \"@openzeppelin/contracts/access/Ownable.sol\":2597:2605  newOwner */\n      dup2\n        /* \"@openzeppelin/contracts/access/Ownable.sol\":2566:2606  OwnershipTransferred(oldOwner, newOwner) */\n      0xffffffffffffffffffffffffffffffffffffffff\n      and\n        /* \"@openzeppelin/contracts/access/Ownable.sol\":2587:2595  oldOwner */\n      dup2\n        /* \"@openzeppelin/contracts/access/Ownable.sol\":2566:2606  OwnershipTransferred(oldOwner, newOwner) */\n      0xffffffffffffffffffffffffffffffffffffffff\n      and\n      0x8be0079c531659141344cd1fd0a4f28419497f9722a3daafe3b4186f6b6457e0\n      mload(0x40)\n      mload(0x40)\n      dup1\n      swap2\n      sub\n      swap1\n      log3\n        /* \"@openzeppelin/contracts/access/Ownable.sol\":2489:2613  {... */\n      pop\n        /* \"@openzeppelin/contracts/access/Ownable.sol\":2426:2613  function _transferOwnership(address newOwner) internal virtual {... */\n      pop\n      jump\t// out\n        /* \"Contracts/PeerProtocol.sol\":4074:4262  function _transfer(address from, address to, uint256 amount) internal {... */\n    tag_187:\n        /* \"Contracts/PeerProtocol.sol\":4173:4179  amount */\n      dup1\n        /* \"Contracts/PeerProtocol.sol\":4155:4163  balances */\n      0x01\n        /* \"Contracts/PeerProtocol.sol\":4155:4169  balances[from] */\n      0x00\n        /* \"Contracts/PeerProtocol.sol\":4164:4168  from */\n      dup6\n        /* \"Contracts/PeerProtocol.sol\":4155:4169  balances[from] */\n      0xffffffffffffffffffffffffffffffffffffffff\n      and\n      0xffffffffffffffffffffffffffffffffffffffff\n      and\n      dup2\n      mstore\n      0x20\n      add\n      swap1\n      dup2\n      mstore\n      0x20\n      add\n      0x00\n      keccak256\n      0x00\n        /* \"Contracts/PeerProtocol.sol\":4155:4179  balances[from] -= amount */\n      dup3\n      dup3\n      sload\n      tag_207\n      swap2\n      swap1\n      tag_131\n      jump\t// in\n    tag_207:\n      swap3\n      pop\n      pop\n      dup2\n      swap1\n      sstore\n      pop\n        /* \"Contracts/PeerProtocol.sol\":4206:4212  amount */\n      dup1\n        /* \"Contracts/PeerProtocol.sol\":4190:4198  balances */\n      0x01\n        /* \"Contracts/PeerProtocol.sol\":4190:4202  balances[to] */\n      0x00\n        /* \"Contracts/PeerProtocol.sol\":4199:4201  to */\n      dup5\n        /* \"Contracts/PeerProtocol.sol\":4190:4202  balances[to] */\n      0xffffffffffffffffffffffffffffffffffffffff\n      and\n      0xffffffffffffffffffffffffffffffffffffffff\n      and\n      dup2\n      mstore\n      0x20\n      add\n      swap1\n      dup2\n      mstore\n      0x20\n      add\n      0x00\n      keccak256\n      0x00\n        /* \"Contracts/PeerProtocol.sol\":4190:4212  balances[to] += amount */\n      dup3\n      dup3\n      sload\n      tag_208\n      swap2\n      swap1\n      tag_134\n      jump\t// in\n    tag_208:\n      swap3\n      pop\n      pop\n      dup2\n      swap1\n      sstore\n      pop\n        /* \"Contracts/PeerProtocol.sol\":4228:4254  Transfer(from, to, amount) */\n      0xddf252ad1be2c89b69c2b068fc378daa952ba7f163c4a11628f55a4df523b3ef\n        /* \"Contracts/PeerProtocol.sol\":4237:4241  from */\n      dup4\n        /* \"Contracts/PeerProtocol.sol\":4243:4245  to */\n      dup4\n        /* \"Contracts/PeerProtocol.sol\":4247:4253  amount */\n      dup4\n        /* \"Contracts/PeerProtocol.sol\":4228:4254  Transfer(from, to, amount) */\n      mload(0x40)\n      tag_209\n      swap4\n      swap3\n      swap2\n      swap1\n      tag_189\n      jump\t// in\n    tag_209:\n      mload(0x40)\n      dup1\n      swap2\n      sub\n      swap1\n      log1\n        /* \"Contracts/PeerProtocol.sol\":4074:4262  function _transfer(address from, address to, uint256 amount) internal {... */\n      pop\n      pop\n      pop\n      jump\t// out\n        /* \"@openzeppelin/contracts/utils/Context.sol\":640:736  function _msgSender() internal view virtual returns (address) {... */\n    tag_200:\n        /* \"@openzeppelin/contracts/utils/Context.sol\":693:700  address */\n      0x00\n        /* \"@openzeppelin/contracts/utils/Context.sol\":719:729  msg.sender */\n      caller\n        /* \"@openzeppelin/contracts/utils/Context.sol\":712:729  return msg.sender */\n      swap1\n      pop\n        /* \"@openzeppelin/contracts/utils/Context.sol\":640:736  function _msgSender() internal view virtual returns (address) {... */\n      swap1\n      jump\t// out\n        /* \"#utility.yul\":7:133   */\n    tag_211:\n        /* \"#utility.yul\":44:51   */\n      0x00\n        /* \"#utility.yul\":84:126   */\n      0xffffffffffffffffffffffffffffffffffffffff\n        /* \"#utility.yul\":77:82   */\n      dup3\n        /* \"#utility.yul\":73:127   */\n      and\n        /* \"#utility.yul\":62:127   */\n      swap1\n      pop\n        /* \"#utility.yul\":7:133   */\n      swap2\n      swap1\n      pop\n      jump\t// out\n        /* \"#utility.yul\":139:235   */\n    tag_212:\n        /* \"#utility.yul\":176:183   */\n      0x00\n        /* \"#utility.yul\":205:229   */\n      tag_256\n        /* \"#utility.yul\":223:228   */\n      dup3\n        /* \"#utility.yul\":205:229   */\n      tag_211\n      jump\t// in\n    tag_256:\n        /* \"#utility.yul\":194:229   */\n      swap1\n      pop\n        /* \"#utility.yul\":139:235   */\n      swap2\n      swap1\n      pop\n      jump\t// out\n        /* \"#utility.yul\":241:359   */\n    tag_213:\n        /* \"#utility.yul\":328:352   */\n      tag_258\n        /* \"#utility.yul\":346:351   */\n      dup2\n        /* \"#utility.yul\":328:352   */\n      tag_212\n      jump\t// in\n    tag_258:\n        /* \"#utility.yul\":323:326   */\n      dup3\n        /* \"#utility.yul\":316:353   */\n      mstore\n        /* \"#utility.yul\":241:359   */\n      pop\n      pop\n      jump\t// out\n        /* \"#utility.yul\":365:587   */\n    tag_30:\n        /* \"#utility.yul\":458:462   */\n      0x00\n        /* \"#utility.yul\":496:498   */\n      0x20\n        /* \"#utility.yul\":485:494   */\n      dup3\n        /* \"#utility.yul\":481:499   */\n      add\n        /* \"#utility.yul\":473:499   */\n      swap1\n      pop\n        /* \"#utility.yul\":509:580   */\n      tag_260\n        /* \"#utility.yul\":577:578   */\n      0x00\n        /* \"#utility.yul\":566:575   */\n      dup4\n        /* \"#utility.yul\":562:579   */\n      add\n        /* \"#utility.yul\":553:559   */\n      dup5\n        /* \"#utility.yul\":509:580   */\n      tag_213\n      jump\t// in\n    tag_260:\n        /* \"#utility.yul\":365:587   */\n      swap3\n      swap2\n      pop\n      pop\n      jump\t// out\n        /* \"#utility.yul\":593:683   */\n    tag_214:\n        /* \"#utility.yul\":627:634   */\n      0x00\n        /* \"#utility.yul\":670:675   */\n      dup2\n        /* \"#utility.yul\":663:676   */\n      iszero\n        /* \"#utility.yul\":656:677   */\n      iszero\n        /* \"#utility.yul\":645:677   */\n      swap1\n      pop\n        /* \"#utility.yul\":593:683   */\n      swap2\n      swap1\n      pop\n      jump\t// out\n        /* \"#utility.yul\":689:798   */\n    tag_215:\n        /* \"#utility.yul\":770:791   */\n      tag_263\n        /* \"#utility.yul\":785:790   */\n      dup2\n        /* \"#utility.yul\":770:791   */\n      tag_214\n      jump\t// in\n    tag_263:\n        /* \"#utility.yul\":765:768   */\n      dup3\n        /* \"#utility.yul\":758:792   */\n      mstore\n        /* \"#utility.yul\":689:798   */\n      pop\n      pop\n      jump\t// out\n        /* \"#utility.yul\":804:1014   */\n    tag_34:\n        /* \"#utility.yul\":891:895   */\n      0x00\n        /* \"#utility.yul\":929:931   */\n      0x20\n        /* \"#utility.yul\":918:927   */\n      dup3\n        /* \"#utility.yul\":914:932   */\n      add\n        /* \"#utility.yul\":906:932   */\n      swap1\n      pop\n        /* \"#utility.yul\":942:1007   */\n      tag_265\n        /* \"#utility.yul\":1004:1005   */\n      0x00\n        /* \"#utility.yul\":993:1002   */\n      dup4\n        /* \"#utility.yul\":989:1006   */\n      add\n        /* \"#utility.yul\":980:986   */\n      dup5\n        /* \"#utility.yul\":942:1007   */\n      tag_215\n      jump\t// in\n    tag_265:\n        /* \"#utility.yul\":804:1014   */\n      swap3\n      swap2\n      pop\n      pop\n      jump\t// out\n        /* \"#utility.yul\":1020:1097   */\n    tag_216:\n        /* \"#utility.yul\":1057:1064   */\n      0x00\n        /* \"#utility.yul\":1086:1091   */\n      dup2\n        /* \"#utility.yul\":1075:1091   */\n      swap1\n      pop\n        /* \"#utility.yul\":1020:1097   */\n      swap2\n      swap1\n      pop\n      jump\t// out\n        /* \"#utility.yul\":1103:1221   */\n    tag_217:\n        /* \"#utility.yul\":1190:1214   */\n      tag_268\n        /* \"#utility.yul\":1208:1213   */\n      dup2\n        /* \"#utility.yul\":1190:1214   */\n      tag_216\n      jump\t// in\n    tag_268:\n        /* \"#utility.yul\":1185:1188   */\n      dup3\n        /* \"#utility.yul\":1178:1215   */\n      mstore\n        /* \"#utility.yul\":1103:1221   */\n      pop\n      pop\n      jump\t// out\n        /* \"#utility.yul\":1227:1449   */\n    tag_38:\n        /* \"#utility.yul\":1320:1324   */\n      0x00\n        /* \"#utility.yul\":1358:1360   */\n      0x20\n        /* \"#utility.yul\":1347:1356   */\n      dup3\n        /* \"#utility.yul\":1343:1361   */\n      add\n        /* \"#utility.yul\":1335:1361   */\n      swap1\n      pop\n        /* \"#utility.yul\":1371:1442   */\n      tag_270\n        /* \"#utility.yul\":1439:1440   */\n      0x00\n        /* \"#utility.yul\":1428:1437   */\n      dup4\n        /* \"#utility.yul\":1424:1441   */\n      add\n        /* \"#utility.yul\":1415:1421   */\n      dup5\n        /* \"#utility.yul\":1371:1442   */\n      tag_217\n      jump\t// in\n    tag_270:\n        /* \"#utility.yul\":1227:1449   */\n      swap3\n      swap2\n      pop\n      pop\n      jump\t// out\n        /* \"#utility.yul\":1536:1653   */\n    tag_219:\n        /* \"#utility.yul\":1645:1646   */\n      0x00\n        /* \"#utility.yul\":1642:1643   */\n      dup1\n        /* \"#utility.yul\":1635:1647   */\n      revert\n        /* \"#utility.yul\":1782:1904   */\n    tag_221:\n        /* \"#utility.yul\":1855:1879   */\n      tag_275\n        /* \"#utility.yul\":1873:1878   */\n      dup2\n        /* \"#utility.yul\":1855:1879   */\n      tag_212\n      jump\t// in\n    tag_275:\n        /* \"#utility.yul\":1848:1853   */\n      dup2\n        /* \"#utility.yul\":1845:1880   */\n      eq\n        /* \"#utility.yul\":1835:1898   */\n      tag_276\n      jumpi\n        /* \"#utility.yul\":1894:1895   */\n      0x00\n        /* \"#utility.yul\":1891:1892   */\n      dup1\n        /* \"#utility.yul\":1884:1896   */\n      revert\n        /* \"#utility.yul\":1835:1898   */\n    tag_276:\n        /* \"#utility.yul\":1782:1904   */\n      pop\n      jump\t// out\n        /* \"#utility.yul\":1910:2049   */\n    tag_222:\n        /* \"#utility.yul\":1956:1961   */\n      0x00\n        /* \"#utility.yul\":1994:2000   */\n      dup2\n        /* \"#utility.yul\":1981:2001   */\n      calldataload\n        /* \"#utility.yul\":1972:2001   */\n      swap1\n      pop\n        /* \"#utility.yul\":2010:2043   */\n      tag_278\n        /* \"#utility.yul\":2037:2042   */\n      dup2\n        /* \"#utility.yul\":2010:2043   */\n      tag_221\n      jump\t// in\n    tag_278:\n        /* \"#utility.yul\":1910:2049   */\n      swap3\n      swap2\n      pop\n      pop\n      jump\t// out\n        /* \"#utility.yul\":2055:2384   */\n    tag_47:\n        /* \"#utility.yul\":2114:2120   */\n      0x00\n        /* \"#utility.yul\":2163:2165   */\n      0x20\n        /* \"#utility.yul\":2151:2160   */\n      dup3\n        /* \"#utility.yul\":2142:2149   */\n      dup5\n        /* \"#utility.yul\":2138:2161   */\n      sub\n        /* \"#utility.yul\":2134:2166   */\n      slt\n        /* \"#utility.yul\":2131:2250   */\n      iszero\n      tag_280\n      jumpi\n        /* \"#utility.yul\":2169:2248   */\n      tag_281\n      tag_219\n      jump\t// in\n    tag_281:\n        /* \"#utility.yul\":2131:2250   */\n    tag_280:\n        /* \"#utility.yul\":2289:2290   */\n      0x00\n        /* \"#utility.yul\":2314:2367   */\n      tag_282\n        /* \"#utility.yul\":2359:2366   */\n      dup5\n        /* \"#utility.yul\":2350:2356   */\n      dup3\n        /* \"#utility.yul\":2339:2348   */\n      dup6\n        /* \"#utility.yul\":2335:2357   */\n      add\n        /* \"#utility.yul\":2314:2367   */\n      tag_222\n      jump\t// in\n    tag_282:\n        /* \"#utility.yul\":2304:2367   */\n      swap2\n      pop\n        /* \"#utility.yul\":2260:2377   */\n      pop\n        /* \"#utility.yul\":2055:2384   */\n      swap3\n      swap2\n      pop\n      pop\n      jump\t// out\n        /* \"#utility.yul\":2390:2512   */\n    tag_223:\n        /* \"#utility.yul\":2463:2487   */\n      tag_284\n        /* \"#utility.yul\":2481:2486   */\n      dup2\n        /* \"#utility.yul\":2463:2487   */\n      tag_216\n      jump\t// in\n    tag_284:\n        /* \"#utility.yul\":2456:2461   */\n      dup2\n        /* \"#utility.yul\":2453:2488   */\n      eq\n        /* \"#utility.yul\":2443:2506   */\n      tag_285\n      jumpi\n        /* \"#utility.yul\":2502:2503   */\n      0x00\n        /* \"#utility.yul\":2499:2500   */\n      dup1\n        /* \"#utility.yul\":2492:2504   */\n      revert\n        /* \"#utility.yul\":2443:2506   */\n    tag_285:\n        /* \"#utility.yul\":2390:2512   */\n      pop\n      jump\t// out\n        /* \"#utility.yul\":2518:2657   */\n    tag_224:\n        /* \"#utility.yul\":2564:2569   */\n      0x00\n        /* \"#utility.yul\":2602:2608   */\n      dup2\n        /* \"#utility.yul\":2589:2609   */\n      calldataload\n        /* \"#utility.yul\":2580:2609   */\n      swap1\n      pop\n        /* \"#utility.yul\":2618:2651   */\n      tag_287\n        /* \"#utility.yul\":2645:2650   */\n      dup2\n        /* \"#utility.yul\":2618:2651   */\n      tag_223\n      jump\t// in\n    tag_287:\n        /* \"#utility.yul\":2518:2657   */\n      swap3\n      swap2\n      pop\n      pop\n      jump\t// out\n        /* \"#utility.yul\":2663:3720   */\n    tag_55:\n        /* \"#utility.yul\":2767:2773   */\n      0x00\n        /* \"#utility.yul\":2775:2781   */\n      dup1\n        /* \"#utility.yul\":2783:2789   */\n      0x00\n        /* \"#utility.yul\":2791:2797   */\n      dup1\n        /* \"#utility.yul\":2799:2805   */\n      0x00\n        /* \"#utility.yul\":2807:2813   */\n      dup1\n        /* \"#utility.yul\":2856:2859   */\n      0xc0\n        /* \"#utility.yul\":2844:2853   */\n      dup8\n        /* \"#utility.yul\":2835:2842   */\n      dup10\n        /* \"#utility.yul\":2831:2854   */\n      sub\n        /* \"#utility.yul\":2827:2860   */\n      slt\n        /* \"#utility.yul\":2824:2944   */\n      iszero\n      tag_289\n      jumpi\n        /* \"#utility.yul\":2863:2942   */\n      tag_290\n      tag_219\n      jump\t// in\n    tag_290:\n        /* \"#utility.yul\":2824:2944   */\n    tag_289:\n        /* \"#utility.yul\":2983:2984   */\n      0x00\n        /* \"#utility.yul\":3008:3061   */\n      tag_291\n        /* \"#utility.yul\":3053:3060   */\n      dup10\n        /* \"#utility.yul\":3044:3050   */\n      dup3\n        /* \"#utility.yul\":3033:3042   */\n      dup11\n        /* \"#utility.yul\":3029:3051   */\n      add\n        /* \"#utility.yul\":3008:3061   */\n      tag_222\n      jump\t// in\n    tag_291:\n        /* \"#utility.yul\":2998:3061   */\n      swap7\n      pop\n        /* \"#utility.yul\":2954:3071   */\n      pop\n        /* \"#utility.yul\":3110:3112   */\n      0x20\n        /* \"#utility.yul\":3136:3189   */\n      tag_292\n        /* \"#utility.yul\":3181:3188   */\n      dup10\n        /* \"#utility.yul\":3172:3178   */\n      dup3\n        /* \"#utility.yul\":3161:3170   */\n      dup11\n        /* \"#utility.yul\":3157:3179   */\n      add\n        /* \"#utility.yul\":3136:3189   */\n      tag_224\n      jump\t// in\n    tag_292:\n        /* \"#utility.yul\":3126:3189   */\n      swap6\n      pop\n        /* \"#utility.yul\":3081:3199   */\n      pop\n        /* \"#utility.yul\":3238:3240   */\n      0x40\n        /* \"#utility.yul\":3264:3317   */\n      tag_293\n        /* \"#utility.yul\":3309:3316   */\n      dup10\n        /* \"#utility.yul\":3300:3306   */\n      dup3\n        /* \"#utility.yul\":3289:3298   */\n      dup11\n        /* \"#utility.yul\":3285:3307   */\n      add\n        /* \"#utility.yul\":3264:3317   */\n      tag_224\n      jump\t// in\n    tag_293:\n        /* \"#utility.yul\":3254:3317   */\n      swap5\n      pop\n        /* \"#utility.yul\":3209:3327   */\n      pop\n        /* \"#utility.yul\":3366:3368   */\n      0x60\n        /* \"#utility.yul\":3392:3445   */\n      tag_294\n        /* \"#utility.yul\":3437:3444   */\n      dup10\n        /* \"#utility.yul\":3428:3434   */\n      dup3\n        /* \"#utility.yul\":3417:3426   */\n      dup11\n        /* \"#utility.yul\":3413:3435   */\n      add\n        /* \"#utility.yul\":3392:3445   */\n      tag_224\n      jump\t// in\n    tag_294:\n        /* \"#utility.yul\":3382:3445   */\n      swap4\n      pop\n        /* \"#utility.yul\":3337:3455   */\n      pop\n        /* \"#utility.yul\":3494:3497   */\n      0x80\n        /* \"#utility.yul\":3521:3574   */\n      tag_295\n        /* \"#utility.yul\":3566:3573   */\n      dup10\n        /* \"#utility.yul\":3557:3563   */\n      dup3\n        /* \"#utility.yul\":3546:3555   */\n      dup11\n        /* \"#utility.yul\":3542:3564   */\n      add\n        /* \"#utility.yul\":3521:3574   */\n      tag_224\n      jump\t// in\n    tag_295:\n        /* \"#utility.yul\":3511:3574   */\n      swap3\n      pop\n        /* \"#utility.yul\":3465:3584   */\n      pop\n        /* \"#utility.yul\":3623:3626   */\n      0xa0\n        /* \"#utility.yul\":3650:3703   */\n      tag_296\n        /* \"#utility.yul\":3695:3702   */\n      dup10\n        /* \"#utility.yul\":3686:3692   */\n      dup3\n        /* \"#utility.yul\":3675:3684   */\n      dup11\n        /* \"#utility.yul\":3671:3693   */\n      add\n        /* \"#utility.yul\":3650:3703   */\n      tag_224\n      jump\t// in\n    tag_296:\n        /* \"#utility.yul\":3640:3703   */\n      swap2\n      pop\n        /* \"#utility.yul\":3594:3713   */\n      pop\n        /* \"#utility.yul\":2663:3720   */\n      swap3\n      swap6\n      pop\n      swap3\n      swap6\n      pop\n      swap3\n      swap6\n      jump\t// out\n        /* \"#utility.yul\":3726:4200   */\n    tag_64:\n        /* \"#utility.yul\":3794:3800   */\n      0x00\n        /* \"#utility.yul\":3802:3808   */\n      dup1\n        /* \"#utility.yul\":3851:3853   */\n      0x40\n        /* \"#utility.yul\":3839:3848   */\n      dup4\n        /* \"#utility.yul\":3830:3837   */\n      dup6\n        /* \"#utility.yul\":3826:3849   */\n      sub\n        /* \"#utility.yul\":3822:3854   */\n      slt\n        /* \"#utility.yul\":3819:3938   */\n      iszero\n      tag_298\n      jumpi\n        /* \"#utility.yul\":3857:3936   */\n      tag_299\n      tag_219\n      jump\t// in\n    tag_299:\n        /* \"#utility.yul\":3819:3938   */\n    tag_298:\n        /* \"#utility.yul\":3977:3978   */\n      0x00\n        /* \"#utility.yul\":4002:4055   */\n      tag_300\n        /* \"#utility.yul\":4047:4054   */\n      dup6\n        /* \"#utility.yul\":4038:4044   */\n      dup3\n        /* \"#utility.yul\":4027:4036   */\n      dup7\n        /* \"#utility.yul\":4023:4045   */\n      add\n        /* \"#utility.yul\":4002:4055   */\n      tag_222\n      jump\t// in\n    tag_300:\n        /* \"#utility.yul\":3992:4055   */\n      swap3\n      pop\n        /* \"#utility.yul\":3948:4065   */\n      pop\n        /* \"#utility.yul\":4104:4106   */\n      0x20\n        /* \"#utility.yul\":4130:4183   */\n      tag_301\n        /* \"#utility.yul\":4175:4182   */\n      dup6\n        /* \"#utility.yul\":4166:4172   */\n      dup3\n        /* \"#utility.yul\":4155:4164   */\n      dup7\n        /* \"#utility.yul\":4151:4173   */\n      add\n        /* \"#utility.yul\":4130:4183   */\n      tag_224\n      jump\t// in\n    tag_301:\n        /* \"#utility.yul\":4120:4183   */\n      swap2\n      pop\n        /* \"#utility.yul\":4075:4193   */\n      pop\n        /* \"#utility.yul\":3726:4200   */\n      swap3\n      pop\n      swap3\n      swap1\n      pop\n      jump\t// out\n        /* \"#utility.yul\":4206:4535   */\n    tag_72:\n        /* \"#utility.yul\":4265:4271   */\n      0x00\n        /* \"#utility.yul\":4314:4316   */\n      0x20\n        /* \"#utility.yul\":4302:4311   */\n      dup3\n        /* \"#utility.yul\":4293:4300   */\n      dup5\n        /* \"#utility.yul\":4289:4312   */\n      sub\n        /* \"#utility.yul\":4285:4317   */\n      slt\n        /* \"#utility.yul\":4282:4401   */\n      iszero\n      tag_303\n      jumpi\n        /* \"#utility.yul\":4320:4399   */\n      tag_304\n      tag_219\n      jump\t// in\n    tag_304:\n        /* \"#utility.yul\":4282:4401   */\n    tag_303:\n        /* \"#utility.yul\":4440:4441   */\n      0x00\n        /* \"#utility.yul\":4465:4518   */\n      tag_305\n        /* \"#utility.yul\":4510:4517   */\n      dup5\n        /* \"#utility.yul\":4501:4507   */\n      dup3\n        /* \"#utility.yul\":4490:4499   */\n      dup6\n        /* \"#utility.yul\":4486:4508   */\n      add\n        /* \"#utility.yul\":4465:4518   */\n      tag_224\n      jump\t// in\n    tag_305:\n        /* \"#utility.yul\":4455:4518   */\n      swap2\n      pop\n        /* \"#utility.yul\":4411:4528   */\n      pop\n        /* \"#utility.yul\":4206:4535   */\n      swap3\n      swap2\n      pop\n      pop\n      jump\t// out\n        /* \"#utility.yul\":4541:4710   */\n    tag_225:\n        /* \"#utility.yul\":4625:4636   */\n      0x00\n        /* \"#utility.yul\":4659:4665   */\n      dup3\n        /* \"#utility.yul\":4654:4657   */\n      dup3\n        /* \"#utility.yul\":4647:4666   */\n      mstore\n        /* \"#utility.yul\":4699:4703   */\n      0x20\n        /* \"#utility.yul\":4694:4697   */\n      dup3\n        /* \"#utility.yul\":4690:4704   */\n      add\n        /* \"#utility.yul\":4675:4704   */\n      swap1\n      pop\n        /* \"#utility.yul\":4541:4710   */\n      swap3\n      swap2\n      pop\n      pop\n      jump\t// out\n        /* \"#utility.yul\":4716:4958   */\n    tag_226:\n        /* \"#utility.yul\":4856:4890   */\n      0x546865206c656e64696e672072617465206d757374206265206174206c656173\n        /* \"#utility.yul\":4852:4853   */\n      0x00\n        /* \"#utility.yul\":4844:4850   */\n      dup3\n        /* \"#utility.yul\":4840:4854   */\n      add\n        /* \"#utility.yul\":4833:4891   */\n      mstore\n        /* \"#utility.yul\":4925:4950   */\n      0x7420313020426173697320506f696e742028302e312529000000000000000000\n        /* \"#utility.yul\":4920:4922   */\n      0x20\n        /* \"#utility.yul\":4912:4918   */\n      dup3\n        /* \"#utility.yul\":4908:4923   */\n      add\n        /* \"#utility.yul\":4901:4951   */\n      mstore\n        /* \"#utility.yul\":4716:4958   */\n      pop\n      jump\t// out\n        /* \"#utility.yul\":4964:5330   */\n    tag_227:\n        /* \"#utility.yul\":5106:5109   */\n      0x00\n        /* \"#utility.yul\":5127:5194   */\n      tag_309\n        /* \"#utility.yul\":5191:5193   */\n      0x37\n        /* \"#utility.yul\":5186:5189   */\n      dup4\n        /* \"#utility.yul\":5127:5194   */\n      tag_225\n      jump\t// in\n    tag_309:\n        /* \"#utility.yul\":5120:5194   */\n      swap2\n      pop\n        /* \"#utility.yul\":5203:5296   */\n      tag_310\n        /* \"#utility.yul\":5292:5295   */\n      dup3\n        /* \"#utility.yul\":5203:5296   */\n      tag_226\n      jump\t// in\n    tag_310:\n        /* \"#utility.yul\":5321:5323   */\n      0x40\n        /* \"#utility.yul\":5316:5319   */\n      dup3\n        /* \"#utility.yul\":5312:5324   */\n      add\n        /* \"#utility.yul\":5305:5324   */\n      swap1\n      pop\n        /* \"#utility.yul\":4964:5330   */\n      swap2\n      swap1\n      pop\n      jump\t// out\n        /* \"#utility.yul\":5336:5755   */\n    tag_104:\n        /* \"#utility.yul\":5502:5506   */\n      0x00\n        /* \"#utility.yul\":5540:5542   */\n      0x20\n        /* \"#utility.yul\":5529:5538   */\n      dup3\n        /* \"#utility.yul\":5525:5543   */\n      add\n        /* \"#utility.yul\":5517:5543   */\n      swap1\n      pop\n        /* \"#utility.yul\":5589:5598   */\n      dup2\n        /* \"#utility.yul\":5583:5587   */\n      dup2\n        /* \"#utility.yul\":5579:5599   */\n      sub\n        /* \"#utility.yul\":5575:5576   */\n      0x00\n        /* \"#utility.yul\":5564:5573   */\n      dup4\n        /* \"#utility.yul\":5560:5577   */\n      add\n        /* \"#utility.yul\":5553:5600   */\n      mstore\n        /* \"#utility.yul\":5617:5748   */\n      tag_312\n        /* \"#utility.yul\":5743:5747   */\n      dup2\n        /* \"#utility.yul\":5617:5748   */\n      tag_227\n      jump\t// in\n    tag_312:\n        /* \"#utility.yul\":5609:5748   */\n      swap1\n      pop\n        /* \"#utility.yul\":5336:5755   */\n      swap2\n      swap1\n      pop\n      jump\t// out\n        /* \"#utility.yul\":5761:6074   */\n    tag_228:\n        /* \"#utility.yul\":5901:5935   */\n      0x4665652050617961626c6520666f72205065657252617465206d757374206265\n        /* \"#utility.yul\":5897:5898   */\n      0x00\n        /* \"#utility.yul\":5889:5895   */\n      dup3\n        /* \"#utility.yul\":5885:5899   */\n      add\n        /* \"#utility.yul\":5878:5936   */\n      mstore\n        /* \"#utility.yul\":5970:6004   */\n      0x206c657373207468616e206c656e64696e672072617465206f66666572656420\n        /* \"#utility.yul\":5965:5967   */\n      0x20\n        /* \"#utility.yul\":5957:5963   */\n      dup3\n        /* \"#utility.yul\":5953:5968   */\n      add\n        /* \"#utility.yul\":5946:6005   */\n      mstore\n        /* \"#utility.yul\":6039:6066   */\n      0x616e64206174206c656173742034302042502028302e34252900000000000000\n        /* \"#utility.yul\":6034:6036   */\n      0x40\n        /* \"#utility.yul\":6026:6032   */\n      dup3\n        /* \"#utility.yul\":6022:6037   */\n      add\n        /* \"#utility.yul\":6015:6067   */\n      mstore\n        /* \"#utility.yul\":5761:6074   */\n      pop\n      jump\t// out\n        /* \"#utility.yul\":6080:6446   */\n    tag_229:\n        /* \"#utility.yul\":6222:6225   */\n      0x00\n        /* \"#utility.yul\":6243:6310   */\n      tag_315\n        /* \"#utility.yul\":6307:6309   */\n      0x59\n        /* \"#utility.yul\":6302:6305   */\n      dup4\n        /* \"#utility.yul\":6243:6310   */\n      tag_225\n      jump\t// in\n    tag_315:\n        /* \"#utility.yul\":6236:6310   */\n      swap2\n      pop\n        /* \"#utility.yul\":6319:6412   */\n      tag_316\n        /* \"#utility.yul\":6408:6411   */\n      dup3\n        /* \"#utility.yul\":6319:6412   */\n      tag_228\n      jump\t// in\n    tag_316:\n        /* \"#utility.yul\":6437:6439   */\n      0x60\n        /* \"#utility.yul\":6432:6435   */\n      dup3\n        /* \"#utility.yul\":6428:6440   */\n      add\n        /* \"#utility.yul\":6421:6440   */\n      swap1\n      pop\n        /* \"#utility.yul\":6080:6446   */\n      swap2\n      swap1\n      pop\n      jump\t// out\n        /* \"#utility.yul\":6452:6871   */\n    tag_108:\n        /* \"#utility.yul\":6618:6622   */\n      0x00\n        /* \"#utility.yul\":6656:6658   */\n      0x20\n        /* \"#utility.yul\":6645:6654   */\n      dup3\n        /* \"#utility.yul\":6641:6659   */\n      add\n        /* \"#utility.yul\":6633:6659   */\n      swap1\n      pop\n        /* \"#utility.yul\":6705:6714   */\n      dup2\n        /* \"#utility.yul\":6699:6703   */\n      dup2\n        /* \"#utility.yul\":6695:6715   */\n      sub\n        /* \"#utility.yul\":6691:6692   */\n      0x00\n        /* \"#utility.yul\":6680:6689   */\n      dup4\n        /* \"#utility.yul\":6676:6693   */\n      add\n        /* \"#utility.yul\":6669:6716   */\n      mstore\n        /* \"#utility.yul\":6733:6864   */\n      tag_318\n        /* \"#utility.yul\":6859:6863   */\n      dup2\n        /* \"#utility.yul\":6733:6864   */\n      tag_229\n      jump\t// in\n    tag_318:\n        /* \"#utility.yul\":6725:6864   */\n      swap1\n      pop\n        /* \"#utility.yul\":6452:6871   */\n      swap2\n      swap1\n      pop\n      jump\t// out\n        /* \"#utility.yul\":6877:7109   */\n    tag_230:\n        /* \"#utility.yul\":7017:7051   */\n      0x4f726967696e6174696f6e20666565206d757374206265206174206c65617374\n        /* \"#utility.yul\":7013:7014   */\n      0x00\n        /* \"#utility.yul\":7005:7011   */\n      dup3\n        /* \"#utility.yul\":7001:7015   */\n      add\n        /* \"#utility.yul\":6994:7052   */\n      mstore\n        /* \"#utility.yul\":7086:7101   */\n      0x2035302042502028302e35252900000000000000000000000000000000000000\n        /* \"#utility.yul\":7081:7083   */\n      0x20\n        /* \"#utility.yul\":7073:7079   */\n      dup3\n        /* \"#utility.yul\":7069:7084   */\n      add\n        /* \"#utility.yul\":7062:7102   */\n      mstore\n        /* \"#utility.yul\":6877:7109   */\n      pop\n      jump\t// out\n        /* \"#utility.yul\":7115:7481   */\n    tag_231:\n        /* \"#utility.yul\":7257:7260   */\n      0x00\n        /* \"#utility.yul\":7278:7345   */\n      tag_321\n        /* \"#utility.yul\":7342:7344   */\n      0x2d\n        /* \"#utility.yul\":7337:7340   */\n      dup4\n        /* \"#utility.yul\":7278:7345   */\n      tag_225\n      jump\t// in\n    tag_321:\n        /* \"#utility.yul\":7271:7345   */\n      swap2\n      pop\n        /* \"#utility.yul\":7354:7447   */\n      tag_322\n        /* \"#utility.yul\":7443:7446   */\n      dup3\n        /* \"#utility.yul\":7354:7447   */\n      tag_230\n      jump\t// in\n    tag_322:\n        /* \"#utility.yul\":7472:7474   */\n      0x40\n        /* \"#utility.yul\":7467:7470   */\n      dup3\n        /* \"#utility.yul\":7463:7475   */\n      add\n        /* \"#utility.yul\":7456:7475   */\n      swap1\n      pop\n        /* \"#utility.yul\":7115:7481   */\n      swap2\n      swap1\n      pop\n      jump\t// out\n        /* \"#utility.yul\":7487:7906   */\n    tag_111:\n        /* \"#utility.yul\":7653:7657   */\n      0x00\n        /* \"#utility.yul\":7691:7693   */\n      0x20\n        /* \"#utility.yul\":7680:7689   */\n      dup3\n        /* \"#utility.yul\":7676:7694   */\n      add\n        /* \"#utility.yul\":7668:7694   */\n      swap1\n      pop\n        /* \"#utility.yul\":7740:7749   */\n      dup2\n        /* \"#utility.yul\":7734:7738   */\n      dup2\n        /* \"#utility.yul\":7730:7750   */\n      sub\n        /* \"#utility.yul\":7726:7727   */\n      0x00\n        /* \"#utility.yul\":7715:7724   */\n      dup4\n        /* \"#utility.yul\":7711:7728   */\n      add\n        /* \"#utility.yul\":7704:7751   */\n      mstore\n        /* \"#utility.yul\":7768:7899   */\n      tag_324\n        /* \"#utility.yul\":7894:7898   */\n      dup2\n        /* \"#utility.yul\":7768:7899   */\n      tag_231\n      jump\t// in\n    tag_324:\n        /* \"#utility.yul\":7760:7899   */\n      swap1\n      pop\n        /* \"#utility.yul\":7487:7906   */\n      swap2\n      swap1\n      pop\n      jump\t// out\n        /* \"#utility.yul\":7912:8139   */\n    tag_232:\n        /* \"#utility.yul\":8052:8086   */\n      0x546865206c6f616e20706572696f64206d757374206265206174206c65617374\n        /* \"#utility.yul\":8048:8049   */\n      0x00\n        /* \"#utility.yul\":8040:8046   */\n      dup3\n        /* \"#utility.yul\":8036:8050   */\n      add\n        /* \"#utility.yul\":8029:8087   */\n      mstore\n        /* \"#utility.yul\":8121:8131   */\n      0x2031204d6f6e7468000000000000000000000000000000000000000000000000\n        /* \"#utility.yul\":8116:8118   */\n      0x20\n        /* \"#utility.yul\":8108:8114   */\n      dup3\n        /* \"#utility.yul\":8104:8119   */\n      add\n        /* \"#utility.yul\":8097:8132   */\n      mstore\n        /* \"#utility.yul\":7912:8139   */\n      pop\n      jump\t// out\n        /* \"#utility.yul\":8145:8511   */\n    tag_233:\n        /* \"#utility.yul\":8287:8290   */\n      0x00\n        /* \"#utility.yul\":8308:8375   */\n      tag_327\n        /* \"#utility.yul\":8372:8374   */\n      0x28\n        /* \"#utility.yul\":8367:8370   */\n      dup4\n        /* \"#utility.yul\":8308:8375   */\n      tag_225\n      jump\t// in\n    tag_327:\n        /* \"#utility.yul\":8301:8375   */\n      swap2\n      pop\n        /* \"#utility.yul\":8384:8477   */\n      tag_328\n        /* \"#utility.yul\":8473:8476   */\n      dup3\n        /* \"#utility.yul\":8384:8477   */\n      tag_232\n      jump\t// in\n    tag_328:\n        /* \"#utility.yul\":8502:8504   */\n      0x40\n        /* \"#utility.yul\":8497:8500   */\n      dup3\n        /* \"#utility.yul\":8493:8505   */\n      add\n        /* \"#utility.yul\":8486:8505   */\n      swap1\n      pop\n        /* \"#utility.yul\":8145:8511   */\n      swap2\n      swap1\n      pop\n      jump\t// out\n        /* \"#utility.yul\":8517:8936   */\n    tag_114:\n        /* \"#utility.yul\":8683:8687   */\n      0x00\n        /* \"#utility.yul\":8721:8723   */\n      0x20\n        /* \"#utility.yul\":8710:8719   */\n      dup3\n        /* \"#utility.yul\":8706:8724   */\n      add\n        /* \"#utility.yul\":8698:8724   */\n      swap1\n      pop\n        /* \"#utility.yul\":8770:8779   */\n      dup2\n        /* \"#utility.yul\":8764:8768   */\n      dup2\n        /* \"#utility.yul\":8760:8780   */\n      sub\n        /* \"#utility.yul\":8756:8757   */\n      0x00\n        /* \"#utility.yul\":8745:8754   */\n      dup4\n        /* \"#utility.yul\":8741:8758   */\n      add\n        /* \"#utility.yul\":8734:8781   */\n      mstore\n        /* \"#utility.yul\":8798:8929   */\n      tag_330\n        /* \"#utility.yul\":8924:8928   */\n      dup2\n        /* \"#utility.yul\":8798:8929   */\n      tag_233\n      jump\t// in\n    tag_330:\n        /* \"#utility.yul\":8790:8929   */\n      swap1\n      pop\n        /* \"#utility.yul\":8517:8936   */\n      swap2\n      swap1\n      pop\n      jump\t// out\n        /* \"#utility.yul\":8942:9606   */\n    tag_116:\n        /* \"#utility.yul\":9147:9151   */\n      0x00\n        /* \"#utility.yul\":9185:9188   */\n      0xa0\n        /* \"#utility.yul\":9174:9183   */\n      dup3\n        /* \"#utility.yul\":9170:9189   */\n      add\n        /* \"#utility.yul\":9162:9189   */\n      swap1\n      pop\n        /* \"#utility.yul\":9199:9270   */\n      tag_332\n        /* \"#utility.yul\":9267:9268   */\n      0x00\n        /* \"#utility.yul\":9256:9265   */\n      dup4\n        /* \"#utility.yul\":9252:9269   */\n      add\n        /* \"#utility.yul\":9243:9249   */\n      dup9\n        /* \"#utility.yul\":9199:9270   */\n      tag_213\n      jump\t// in\n    tag_332:\n        /* \"#utility.yul\":9280:9352   */\n      tag_333\n        /* \"#utility.yul\":9348:9350   */\n      0x20\n        /* \"#utility.yul\":9337:9346   */\n      dup4\n        /* \"#utility.yul\":9333:9351   */\n      add\n        /* \"#utility.yul\":9324:9330   */\n      dup8\n        /* \"#utility.yul\":9280:9352   */\n      tag_217\n      jump\t// in\n    tag_333:\n        /* \"#utility.yul\":9362:9434   */\n      tag_334\n        /* \"#utility.yul\":9430:9432   */\n      0x40\n        /* \"#utility.yul\":9419:9428   */\n      dup4\n        /* \"#utility.yul\":9415:9433   */\n      add\n        /* \"#utility.yul\":9406:9412   */\n      dup7\n        /* \"#utility.yul\":9362:9434   */\n      tag_217\n      jump\t// in\n    tag_334:\n        /* \"#utility.yul\":9444:9516   */\n      tag_335\n        /* \"#utility.yul\":9512:9514   */\n      0x60\n        /* \"#utility.yul\":9501:9510   */\n      dup4\n        /* \"#utility.yul\":9497:9515   */\n      add\n        /* \"#utility.yul\":9488:9494   */\n      dup6\n        /* \"#utility.yul\":9444:9516   */\n      tag_217\n      jump\t// in\n    tag_335:\n        /* \"#utility.yul\":9526:9599   */\n      tag_336\n        /* \"#utility.yul\":9594:9597   */\n      0x80\n        /* \"#utility.yul\":9583:9592   */\n      dup4\n        /* \"#utility.yul\":9579:9598   */\n      add\n        /* \"#utility.yul\":9570:9576   */\n      dup5\n        /* \"#utility.yul\":9526:9599   */\n      tag_217\n      jump\t// in\n    tag_336:\n        /* \"#utility.yul\":8942:9606   */\n      swap7\n      swap6\n      pop\n      pop\n      pop\n      pop\n      pop\n      pop\n      jump\t// out\n        /* \"#utility.yul\":9612:9792   */\n    tag_234:\n        /* \"#utility.yul\":9660:9737   */\n      0x4e487b7100000000000000000000000000000000000000000000000000000000\n        /* \"#utility.yul\":9657:9658   */\n      0x00\n        /* \"#utility.yul\":9650:9738   */\n      mstore\n        /* \"#utility.yul\":9757:9761   */\n      0x11\n        /* \"#utility.yul\":9754:9755   */\n      0x04\n        /* \"#utility.yul\":9747:9762   */\n      mstore\n        /* \"#utility.yul\":9781:9785   */\n      0x24\n        /* \"#utility.yul\":9778:9779   */\n      0x00\n        /* \"#utility.yul\":9771:9786   */\n      revert\n        /* \"#utility.yul\":9798:10208   */\n    tag_124:\n        /* \"#utility.yul\":9838:9845   */\n      0x00\n        /* \"#utility.yul\":9861:9881   */\n      tag_339\n        /* \"#utility.yul\":9879:9880   */\n      dup3\n        /* \"#utility.yul\":9861:9881   */\n      tag_216\n      jump\t// in\n    tag_339:\n        /* \"#utility.yul\":9856:9881   */\n      swap2\n      pop\n        /* \"#utility.yul\":9895:9915   */\n      tag_340\n        /* \"#utility.yul\":9913:9914   */\n      dup4\n        /* \"#utility.yul\":9895:9915   */\n      tag_216\n      jump\t// in\n    tag_340:\n        /* \"#utility.yul\":9890:9915   */\n      swap3\n      pop\n        /* \"#utility.yul\":9950:9951   */\n      dup3\n        /* \"#utility.yul\":9947:9948   */\n      dup3\n        /* \"#utility.yul\":9943:9952   */\n      mul\n        /* \"#utility.yul\":9972:10002   */\n      tag_341\n        /* \"#utility.yul\":9990:10001   */\n      dup2\n        /* \"#utility.yul\":9972:10002   */\n      tag_216\n      jump\t// in\n    tag_341:\n        /* \"#utility.yul\":9961:10002   */\n      swap2\n      pop\n        /* \"#utility.yul\":10151:10152   */\n      dup3\n        /* \"#utility.yul\":10142:10149   */\n      dup3\n        /* \"#utility.yul\":10138:10153   */\n      div\n        /* \"#utility.yul\":10135:10136   */\n      dup5\n        /* \"#utility.yul\":10132:10154   */\n      eq\n        /* \"#utility.yul\":10112:10113   */\n      dup4\n        /* \"#utility.yul\":10105:10114   */\n      iszero\n        /* \"#utility.yul\":10085:10168   */\n      or\n        /* \"#utility.yul\":10062:10201   */\n      tag_342\n      jumpi\n        /* \"#utility.yul\":10181:10199   */\n      tag_343\n      tag_234\n      jump\t// in\n    tag_343:\n        /* \"#utility.yul\":10062:10201   */\n    tag_342:\n        /* \"#utility.yul\":9846:10208   */\n      pop\n        /* \"#utility.yul\":9798:10208   */\n      swap3\n      swap2\n      pop\n      pop\n      jump\t// out\n        /* \"#utility.yul\":10214:10394   */\n    tag_235:\n        /* \"#utility.yul\":10262:10339   */\n      0x4e487b7100000000000000000000000000000000000000000000000000000000\n        /* \"#utility.yul\":10259:10260   */\n      0x00\n        /* \"#utility.yul\":10252:10340   */\n      mstore\n        /* \"#utility.yul\":10359:10363   */\n      0x12\n        /* \"#utility.yul\":10356:10357   */\n      0x04\n        /* \"#utility.yul\":10349:10364   */\n      mstore\n        /* \"#utility.yul\":10383:10387   */\n      0x24\n        /* \"#utility.yul\":10380:10381   */\n      0x00\n        /* \"#utility.yul\":10373:10388   */\n      revert\n        /* \"#utility.yul\":10400:10585   */\n    tag_126:\n        /* \"#utility.yul\":10440:10441   */\n      0x00\n        /* \"#utility.yul\":10457:10477   */\n      tag_346\n        /* \"#utility.yul\":10475:10476   */\n      dup3\n        /* \"#utility.yul\":10457:10477   */\n      tag_216\n      jump\t// in\n    tag_346:\n        /* \"#utility.yul\":10452:10477   */\n      swap2\n      pop\n        /* \"#utility.yul\":10491:10511   */\n      tag_347\n        /* \"#utility.yul\":10509:10510   */\n      dup4\n        /* \"#utility.yul\":10491:10511   */\n      tag_216\n      jump\t// in\n    tag_347:\n        /* \"#utility.yul\":10486:10511   */\n      swap3\n      pop\n        /* \"#utility.yul\":10530:10531   */\n      dup3\n        /* \"#utility.yul\":10520:10555   */\n      tag_348\n      jumpi\n        /* \"#utility.yul\":10535:10553   */\n      tag_349\n      tag_235\n      jump\t// in\n    tag_349:\n        /* \"#utility.yul\":10520:10555   */\n    tag_348:\n        /* \"#utility.yul\":10577:10578   */\n      dup3\n        /* \"#utility.yul\":10574:10575   */\n      dup3\n        /* \"#utility.yul\":10570:10579   */\n      div\n        /* \"#utility.yul\":10565:10579   */\n      swap1\n      pop\n        /* \"#utility.yul\":10400:10585   */\n      swap3\n      swap2\n      pop\n      pop\n      jump\t// out\n        /* \"#utility.yul\":10591:10824   */\n    tag_236:\n        /* \"#utility.yul\":10731:10765   */\n      0x506c6561736520706179206174206c6561737420383025206f66207468652072\n        /* \"#utility.yul\":10727:10728   */\n      0x00\n        /* \"#utility.yul\":10719:10725   */\n      dup3\n        /* \"#utility.yul\":10715:10729   */\n      add\n        /* \"#utility.yul\":10708:10766   */\n      mstore\n        /* \"#utility.yul\":10800:10816   */\n      0x6571756972656420616d6f756e74000000000000000000000000000000000000\n        /* \"#utility.yul\":10795:10797   */\n      0x20\n        /* \"#utility.yul\":10787:10793   */\n      dup3\n        /* \"#utility.yul\":10783:10798   */\n      add\n        /* \"#utility.yul\":10776:10817   */\n      mstore\n        /* \"#utility.yul\":10591:10824   */\n      pop\n      jump\t// out\n        /* \"#utility.yul\":10830:11196   */\n    tag_237:\n        /* \"#utility.yul\":10972:10975   */\n      0x00\n        /* \"#utility.yul\":10993:11060   */\n      tag_352\n        /* \"#utility.yul\":11057:11059   */\n      0x2e\n        /* \"#utility.yul\":11052:11055   */\n      dup4\n        /* \"#utility.yul\":10993:11060   */\n      tag_225\n      jump\t// in\n    tag_352:\n        /* \"#utility.yul\":10986:11060   */\n      swap2\n      pop\n        /* \"#utility.yul\":11069:11162   */\n      tag_353\n        /* \"#utility.yul\":11158:11161   */\n      dup3\n        /* \"#utility.yul\":11069:11162   */\n      tag_236\n      jump\t// in\n    tag_353:\n        /* \"#utility.yul\":11187:11189   */\n      0x40\n        /* \"#utility.yul\":11182:11185   */\n      dup3\n        /* \"#utility.yul\":11178:11190   */\n      add\n        /* \"#utility.yul\":11171:11190   */\n      swap1\n      pop\n        /* \"#utility.yul\":10830:11196   */\n      swap2\n      swap1\n      pop\n      jump\t// out\n        /* \"#utility.yul\":11202:11621   */\n    tag_129:\n        /* \"#utility.yul\":11368:11372   */\n      0x00\n        /* \"#utility.yul\":11406:11408   */\n      0x20\n        /* \"#utility.yul\":11395:11404   */\n      dup3\n        /* \"#utility.yul\":11391:11409   */\n      add\n        /* \"#utility.yul\":11383:11409   */\n      swap1\n      pop\n        /* \"#utility.yul\":11455:11464   */\n      dup2\n        /* \"#utility.yul\":11449:11453   */\n      dup2\n        /* \"#utility.yul\":11445:11465   */\n      sub\n        /* \"#utility.yul\":11441:11442   */\n      0x00\n        /* \"#utility.yul\":11430:11439   */\n      dup4\n        /* \"#utility.yul\":11426:11443   */\n      add\n        /* \"#utility.yul\":11419:11466   */\n      mstore\n        /* \"#utility.yul\":11483:11614   */\n      tag_355\n        /* \"#utility.yul\":11609:11613   */\n      dup2\n        /* \"#utility.yul\":11483:11614   */\n      tag_237\n      jump\t// in\n    tag_355:\n        /* \"#utility.yul\":11475:11614   */\n      swap1\n      pop\n        /* \"#utility.yul\":11202:11621   */\n      swap2\n      swap1\n      pop\n      jump\t// out\n        /* \"#utility.yul\":11627:11821   */\n    tag_131:\n        /* \"#utility.yul\":11667:11671   */\n      0x00\n        /* \"#utility.yul\":11687:11707   */\n      tag_357\n        /* \"#utility.yul\":11705:11706   */\n      dup3\n        /* \"#utility.yul\":11687:11707   */\n      tag_216\n      jump\t// in\n    tag_357:\n        /* \"#utility.yul\":11682:11707   */\n      swap2\n      pop\n        /* \"#utility.yul\":11721:11741   */\n      tag_358\n        /* \"#utility.yul\":11739:11740   */\n      dup4\n        /* \"#utility.yul\":11721:11741   */\n      tag_216\n      jump\t// in\n    tag_358:\n        /* \"#utility.yul\":11716:11741   */\n      swap3\n      pop\n        /* \"#utility.yul\":11765:11766   */\n      dup3\n        /* \"#utility.yul\":11762:11763   */\n      dup3\n        /* \"#utility.yul\":11758:11767   */\n      sub\n        /* \"#utility.yul\":11750:11767   */\n      swap1\n      pop\n        /* \"#utility.yul\":11789:11790   */\n      dup2\n        /* \"#utility.yul\":11783:11787   */\n      dup2\n        /* \"#utility.yul\":11780:11791   */\n      gt\n        /* \"#utility.yul\":11777:11814   */\n      iszero\n      tag_359\n      jumpi\n        /* \"#utility.yul\":11794:11812   */\n      tag_360\n      tag_234\n      jump\t// in\n    tag_360:\n        /* \"#utility.yul\":11777:11814   */\n    tag_359:\n        /* \"#utility.yul\":11627:11821   */\n      swap3\n      swap2\n      pop\n      pop\n      jump\t// out\n        /* \"#utility.yul\":11827:12018   */\n    tag_134:\n        /* \"#utility.yul\":11867:11870   */\n      0x00\n        /* \"#utility.yul\":11886:11906   */\n      tag_362\n        /* \"#utility.yul\":11904:11905   */\n      dup3\n        /* \"#utility.yul\":11886:11906   */\n      tag_216\n      jump\t// in\n    tag_362:\n        /* \"#utility.yul\":11881:11906   */\n      swap2\n      pop\n        /* \"#utility.yul\":11920:11940   */\n      tag_363\n        /* \"#utility.yul\":11938:11939   */\n      dup4\n        /* \"#utility.yul\":11920:11940   */\n      tag_216\n      jump\t// in\n    tag_363:\n        /* \"#utility.yul\":11915:11940   */\n      swap3\n      pop\n        /* \"#utility.yul\":11963:11964   */\n      dup3\n        /* \"#utility.yul\":11960:11961   */\n      dup3\n        /* \"#utility.yul\":11956:11965   */\n      add\n        /* \"#utility.yul\":11949:11965   */\n      swap1\n      pop\n        /* \"#utility.yul\":11984:11987   */\n      dup1\n        /* \"#utility.yul\":11981:11982   */\n      dup3\n        /* \"#utility.yul\":11978:11988   */\n      gt\n        /* \"#utility.yul\":11975:12011   */\n      iszero\n      tag_364\n      jumpi\n        /* \"#utility.yul\":11991:12009   */\n      tag_365\n      tag_234\n      jump\t// in\n    tag_365:\n        /* \"#utility.yul\":11975:12011   */\n    tag_364:\n        /* \"#utility.yul\":11827:12018   */\n      swap3\n      swap2\n      pop\n      pop\n      jump\t// out\n        /* \"#utility.yul\":12024:12197   */\n    tag_238:\n        /* \"#utility.yul\":12164:12189   */\n      0x546865206c6f616e206973206e6f742063726561746564000000000000000000\n        /* \"#utility.yul\":12160:12161   */\n      0x00\n        /* \"#utility.yul\":12152:12158   */\n      dup3\n        /* \"#utility.yul\":12148:12162   */\n      add\n        /* \"#utility.yul\":12141:12190   */\n      mstore\n        /* \"#utility.yul\":12024:12197   */\n      pop\n      jump\t// out\n        /* \"#utility.yul\":12203:12569   */\n    tag_239:\n        /* \"#utility.yul\":12345:12348   */\n      0x00\n        /* \"#utility.yul\":12366:12433   */\n      tag_368\n        /* \"#utility.yul\":12430:12432   */\n      0x17\n        /* \"#utility.yul\":12425:12428   */\n      dup4\n        /* \"#utility.yul\":12366:12433   */\n      tag_225\n      jump\t// in\n    tag_368:\n        /* \"#utility.yul\":12359:12433   */\n      swap2\n      pop\n        /* \"#utility.yul\":12442:12535   */\n      tag_369\n        /* \"#utility.yul\":12531:12534   */\n      dup3\n        /* \"#utility.yul\":12442:12535   */\n      tag_238\n      jump\t// in\n    tag_369:\n        /* \"#utility.yul\":12560:12562   */\n      0x20\n        /* \"#utility.yul\":12555:12558   */\n      dup3\n        /* \"#utility.yul\":12551:12563   */\n      add\n        /* \"#utility.yul\":12544:12563   */\n      swap1\n      pop\n        /* \"#utility.yul\":12203:12569   */\n      swap2\n      swap1\n      pop\n      jump\t// out\n        /* \"#utility.yul\":12575:12994   */\n    tag_138:\n        /* \"#utility.yul\":12741:12745   */\n      0x00\n        /* \"#utility.yul\":12779:12781   */\n      0x20\n        /* \"#utility.yul\":12768:12777   */\n      dup3\n        /* \"#utility.yul\":12764:12782   */\n      add\n        /* \"#utility.yul\":12756:12782   */\n      swap1\n      pop\n        /* \"#utility.yul\":12828:12837   */\n      dup2\n        /* \"#utility.yul\":12822:12826   */\n      dup2\n        /* \"#utility.yul\":12818:12838   */\n      sub\n        /* \"#utility.yul\":12814:12815   */\n      0x00\n        /* \"#utility.yul\":12803:12812   */\n      dup4\n        /* \"#utility.yul\":12799:12816   */\n      add\n        /* \"#utility.yul\":12792:12839   */\n      mstore\n        /* \"#utility.yul\":12856:12987   */\n      tag_371\n        /* \"#utility.yul\":12982:12986   */\n      dup2\n        /* \"#utility.yul\":12856:12987   */\n      tag_239\n      jump\t// in\n    tag_371:\n        /* \"#utility.yul\":12848:12987   */\n      swap1\n      pop\n        /* \"#utility.yul\":12575:12994   */\n      swap2\n      swap1\n      pop\n      jump\t// out\n        /* \"#utility.yul\":13000:13225   */\n    tag_240:\n        /* \"#utility.yul\":13140:13174   */\n      0x20506c6561736520696e7665737420696e20746865206c6f616e206d6f726520\n        /* \"#utility.yul\":13136:13137   */\n      0x00\n        /* \"#utility.yul\":13128:13134   */\n      dup3\n        /* \"#utility.yul\":13124:13138   */\n      add\n        /* \"#utility.yul\":13117:13175   */\n      mstore\n        /* \"#utility.yul\":13209:13217   */\n      0x7468616e20310000000000000000000000000000000000000000000000000000\n        /* \"#utility.yul\":13204:13206   */\n      0x20\n        /* \"#utility.yul\":13196:13202   */\n      dup3\n        /* \"#utility.yul\":13192:13207   */\n      add\n        /* \"#utility.yul\":13185:13218   */\n      mstore\n        /* \"#utility.yul\":13000:13225   */\n      pop\n      jump\t// out\n        /* \"#utility.yul\":13231:13597   */\n    tag_241:\n        /* \"#utility.yul\":13373:13376   */\n      0x00\n        /* \"#utility.yul\":13394:13461   */\n      tag_374\n        /* \"#utility.yul\":13458:13460   */\n      0x26\n        /* \"#utility.yul\":13453:13456   */\n      dup4\n        /* \"#utility.yul\":13394:13461   */\n      tag_225\n      jump\t// in\n    tag_374:\n        /* \"#utility.yul\":13387:13461   */\n      swap2\n      pop\n        /* \"#utility.yul\":13470:13563   */\n      tag_375\n        /* \"#utility.yul\":13559:13562   */\n      dup3\n        /* \"#utility.yul\":13470:13563   */\n      tag_240\n      jump\t// in\n    tag_375:\n        /* \"#utility.yul\":13588:13590   */\n      0x40\n        /* \"#utility.yul\":13583:13586   */\n      dup3\n        /* \"#utility.yul\":13579:13591   */\n      add\n        /* \"#utility.yul\":13572:13591   */\n      swap1\n      pop\n        /* \"#utility.yul\":13231:13597   */\n      swap2\n      swap1\n      pop\n      jump\t// out\n        /* \"#utility.yul\":13603:14022   */\n    tag_141:\n        /* \"#utility.yul\":13769:13773   */\n      0x00\n        /* \"#utility.yul\":13807:13809   */\n      0x20\n        /* \"#utility.yul\":13796:13805   */\n      dup3\n        /* \"#utility.yul\":13792:13810   */\n      add\n        /* \"#utility.yul\":13784:13810   */\n      swap1\n      pop\n        /* \"#utility.yul\":13856:13865   */\n      dup2\n        /* \"#utility.yul\":13850:13854   */\n      dup2\n        /* \"#utility.yul\":13846:13866   */\n      sub\n        /* \"#utility.yul\":13842:13843   */\n      0x00\n        /* \"#utility.yul\":13831:13840   */\n      dup4\n        /* \"#utility.yul\":13827:13844   */\n      add\n        /* \"#utility.yul\":13820:13867   */\n      mstore\n        /* \"#utility.yul\":13884:14015   */\n      tag_377\n        /* \"#utility.yul\":14010:14014   */\n      dup2\n        /* \"#utility.yul\":13884:14015   */\n      tag_241\n      jump\t// in\n    tag_377:\n        /* \"#utility.yul\":13876:14015   */\n      swap1\n      pop\n        /* \"#utility.yul\":13603:14022   */\n      swap2\n      swap1\n      pop\n      jump\t// out\n        /* \"#utility.yul\":14028:14266   */\n    tag_242:\n        /* \"#utility.yul\":14168:14202   */\n      0x596f75206861766520657863656564656420746865206d6178696d756d207072\n        /* \"#utility.yul\":14164:14165   */\n      0x00\n        /* \"#utility.yul\":14156:14162   */\n      dup3\n        /* \"#utility.yul\":14152:14166   */\n      add\n        /* \"#utility.yul\":14145:14203   */\n      mstore\n        /* \"#utility.yul\":14237:14258   */\n      0x696e636970616c206f6620746865206c6f616e00000000000000000000000000\n        /* \"#utility.yul\":14232:14234   */\n      0x20\n        /* \"#utility.yul\":14224:14230   */\n      dup3\n        /* \"#utility.yul\":14220:14235   */\n      add\n        /* \"#utility.yul\":14213:14259   */\n      mstore\n        /* \"#utility.yul\":14028:14266   */\n      pop\n      jump\t// out\n        /* \"#utility.yul\":14272:14638   */\n    tag_243:\n        /* \"#utility.yul\":14414:14417   */\n      0x00\n        /* \"#utility.yul\":14435:14502   */\n      tag_380\n        /* \"#utility.yul\":14499:14501   */\n      0x33\n        /* \"#utility.yul\":14494:14497   */\n      dup4\n        /* \"#utility.yul\":14435:14502   */\n      tag_225\n      jump\t// in\n    tag_380:\n        /* \"#utility.yul\":14428:14502   */\n      swap2\n      pop\n        /* \"#utility.yul\":14511:14604   */\n      tag_381\n        /* \"#utility.yul\":14600:14603   */\n      dup3\n        /* \"#utility.yul\":14511:14604   */\n      tag_242\n      jump\t// in\n    tag_381:\n        /* \"#utility.yul\":14629:14631   */\n      0x40\n        /* \"#utility.yul\":14624:14627   */\n      dup3\n        /* \"#utility.yul\":14620:14632   */\n      add\n        /* \"#utility.yul\":14613:14632   */\n      swap1\n      pop\n        /* \"#utility.yul\":14272:14638   */\n      swap2\n      swap1\n      pop\n      jump\t// out\n        /* \"#utility.yul\":14644:15063   */\n    tag_145:\n        /* \"#utility.yul\":14810:14814   */\n      0x00\n        /* \"#utility.yul\":14848:14850   */\n      0x20\n        /* \"#utility.yul\":14837:14846   */\n      dup3\n        /* \"#utility.yul\":14833:14851   */\n      add\n        /* \"#utility.yul\":14825:14851   */\n      swap1\n      pop\n        /* \"#utility.yul\":14897:14906   */\n      dup2\n        /* \"#utility.yul\":14891:14895   */\n      dup2\n        /* \"#utility.yul\":14887:14907   */\n      sub\n        /* \"#utility.yul\":14883:14884   */\n      0x00\n        /* \"#utility.yul\":14872:14881   */\n      dup4\n        /* \"#utility.yul\":14868:14885   */\n      add\n        /* \"#utility.yul\":14861:14908   */\n      mstore\n        /* \"#utility.yul\":14925:15056   */\n      tag_383\n        /* \"#utility.yul\":15051:15055   */\n      dup2\n        /* \"#utility.yul\":14925:15056   */\n      tag_243\n      jump\t// in\n    tag_383:\n        /* \"#utility.yul\":14917:15056   */\n      swap1\n      pop\n        /* \"#utility.yul\":14644:15063   */\n      swap2\n      swap1\n      pop\n      jump\t// out\n        /* \"#utility.yul\":15069:15212   */\n    tag_244:\n        /* \"#utility.yul\":15126:15131   */\n      0x00\n        /* \"#utility.yul\":15157:15163   */\n      dup2\n        /* \"#utility.yul\":15151:15164   */\n      mload\n        /* \"#utility.yul\":15142:15164   */\n      swap1\n      pop\n        /* \"#utility.yul\":15173:15206   */\n      tag_385\n        /* \"#utility.yul\":15200:15205   */\n      dup2\n        /* \"#utility.yul\":15173:15206   */\n      tag_223\n      jump\t// in\n    tag_385:\n        /* \"#utility.yul\":15069:15212   */\n      swap3\n      swap2\n      pop\n      pop\n      jump\t// out\n        /* \"#utility.yul\":15218:15569   */\n    tag_150:\n        /* \"#utility.yul\":15288:15294   */\n      0x00\n        /* \"#utility.yul\":15337:15339   */\n      0x20\n        /* \"#utility.yul\":15325:15334   */\n      dup3\n        /* \"#utility.yul\":15316:15323   */\n      dup5\n        /* \"#utility.yul\":15312:15335   */\n      sub\n        /* \"#utility.yul\":15308:15340   */\n      slt\n        /* \"#utility.yul\":15305:15424   */\n      iszero\n      tag_387\n      jumpi\n        /* \"#utility.yul\":15343:15422   */\n      tag_388\n      tag_219\n      jump\t// in\n    tag_388:\n        /* \"#utility.yul\":15305:15424   */\n    tag_387:\n        /* \"#utility.yul\":15463:15464   */\n      0x00\n        /* \"#utility.yul\":15488:15552   */\n      tag_389\n        /* \"#utility.yul\":15544:15551   */\n      dup5\n        /* \"#utility.yul\":15535:15541   */\n      dup3\n        /* \"#utility.yul\":15524:15533   */\n      dup6\n        /* \"#utility.yul\":15520:15542   */\n      add\n        /* \"#utility.yul\":15488:15552   */\n      tag_244\n      jump\t// in\n    tag_389:\n        /* \"#utility.yul\":15478:15552   */\n      swap2\n      pop\n        /* \"#utility.yul\":15434:15562   */\n      pop\n        /* \"#utility.yul\":15218:15569   */\n      swap3\n      swap2\n      pop\n      pop\n      jump\t// out\n        /* \"#utility.yul\":15575:15753   */\n    tag_245:\n        /* \"#utility.yul\":15715:15745   */\n      0x596f75206861766520696e73756666696369656e7420616d6f756e7400000000\n        /* \"#utility.yul\":15711:15712   */\n      0x00\n        /* \"#utility.yul\":15703:15709   */\n      dup3\n        /* \"#utility.yul\":15699:15713   */\n      add\n        /* \"#utility.yul\":15692:15746   */\n      mstore\n        /* \"#utility.yul\":15575:15753   */\n      pop\n      jump\t// out\n        /* \"#utility.yul\":15759:16125   */\n    tag_246:\n        /* \"#utility.yul\":15901:15904   */\n      0x00\n        /* \"#utility.yul\":15922:15989   */\n      tag_392\n        /* \"#utility.yul\":15986:15988   */\n      0x1c\n        /* \"#utility.yul\":15981:15984   */\n      dup4\n        /* \"#utility.yul\":15922:15989   */\n      tag_225\n      jump\t// in\n    tag_392:\n        /* \"#utility.yul\":15915:15989   */\n      swap2\n      pop\n        /* \"#utility.yul\":15998:16091   */\n      tag_393\n        /* \"#utility.yul\":16087:16090   */\n      dup3\n        /* \"#utility.yul\":15998:16091   */\n      tag_245\n      jump\t// in\n    tag_393:\n        /* \"#utility.yul\":16116:16118   */\n      0x20\n        /* \"#utility.yul\":16111:16114   */\n      dup3\n        /* \"#utility.yul\":16107:16119   */\n      add\n        /* \"#utility.yul\":16100:16119   */\n      swap1\n      pop\n        /* \"#utility.yul\":15759:16125   */\n      swap2\n      swap1\n      pop\n      jump\t// out\n        /* \"#utility.yul\":16131:16550   */\n    tag_153:\n        /* \"#utility.yul\":16297:16301   */\n      0x00\n        /* \"#utility.yul\":16335:16337   */\n      0x20\n        /* \"#utility.yul\":16324:16333   */\n      dup3\n        /* \"#utility.yul\":16320:16338   */\n      add\n        /* \"#utility.yul\":16312:16338   */\n      swap1\n      pop\n        /* \"#utility.yul\":16384:16393   */\n      dup2\n        /* \"#utility.yul\":16378:16382   */\n      dup2\n        /* \"#utility.yul\":16374:16394   */\n      sub\n        /* \"#utility.yul\":16370:16371   */\n      0x00\n        /* \"#utility.yul\":16359:16368   */\n      dup4\n        /* \"#utility.yul\":16355:16372   */\n      add\n        /* \"#utility.yul\":16348:16395   */\n      mstore\n        /* \"#utility.yul\":16412:16543   */\n      tag_395\n        /* \"#utility.yul\":16538:16542   */\n      dup2\n        /* \"#utility.yul\":16412:16543   */\n      tag_246\n      jump\t// in\n    tag_395:\n        /* \"#utility.yul\":16404:16543   */\n      swap1\n      pop\n        /* \"#utility.yul\":16131:16550   */\n      swap2\n      swap1\n      pop\n      jump\t// out\n        /* \"#utility.yul\":16556:16888   */\n    tag_181:\n        /* \"#utility.yul\":16677:16681   */\n      0x00\n        /* \"#utility.yul\":16715:16717   */\n      0x40\n        /* \"#utility.yul\":16704:16713   */\n      dup3\n        /* \"#utility.yul\":16700:16718   */\n      add\n        /* \"#utility.yul\":16692:16718   */\n      swap1\n      pop\n        /* \"#utility.yul\":16728:16799   */\n      tag_397\n        /* \"#utility.yul\":16796:16797   */\n      0x00\n        /* \"#utility.yul\":16785:16794   */\n      dup4\n        /* \"#utility.yul\":16781:16798   */\n      add\n        /* \"#utility.yul\":16772:16778   */\n      dup6\n        /* \"#utility.yul\":16728:16799   */\n      tag_213\n      jump\t// in\n    tag_397:\n        /* \"#utility.yul\":16809:16881   */\n      tag_398\n        /* \"#utility.yul\":16877:16879   */\n      0x20\n        /* \"#utility.yul\":16866:16875   */\n      dup4\n        /* \"#utility.yul\":16862:16880   */\n      add\n        /* \"#utility.yul\":16853:16859   */\n      dup5\n        /* \"#utility.yul\":16809:16881   */\n      tag_217\n      jump\t// in\n    tag_398:\n        /* \"#utility.yul\":16556:16888   */\n      swap4\n      swap3\n      pop\n      pop\n      pop\n      jump\t// out\n        /* \"#utility.yul\":16894:17010   */\n    tag_247:\n        /* \"#utility.yul\":16964:16985   */\n      tag_400\n        /* \"#utility.yul\":16979:16984   */\n      dup2\n        /* \"#utility.yul\":16964:16985   */\n      tag_214\n      jump\t// in\n    tag_400:\n        /* \"#utility.yul\":16957:16962   */\n      dup2\n        /* \"#utility.yul\":16954:16986   */\n      eq\n        /* \"#utility.yul\":16944:17004   */\n      tag_401\n      jumpi\n        /* \"#utility.yul\":17000:17001   */\n      0x00\n        /* \"#utility.yul\":16997:16998   */\n      dup1\n        /* \"#utility.yul\":16990:17002   */\n      revert\n        /* \"#utility.yul\":16944:17004   */\n    tag_401:\n        /* \"#utility.yul\":16894:17010   */\n      pop\n      jump\t// out\n        /* \"#utility.yul\":17016:17153   */\n    tag_248:\n        /* \"#utility.yul\":17070:17075   */\n      0x00\n        /* \"#utility.yul\":17101:17107   */\n      dup2\n        /* \"#utility.yul\":17095:17108   */\n      mload\n        /* \"#utility.yul\":17086:17108   */\n      swap1\n      pop\n        /* \"#utility.yul\":17117:17147   */\n      tag_403\n        /* \"#utility.yul\":17141:17146   */\n      dup2\n        /* \"#utility.yul\":17117:17147   */\n      tag_247\n      jump\t// in\n    tag_403:\n        /* \"#utility.yul\":17016:17153   */\n      swap3\n      swap2\n      pop\n      pop\n      jump\t// out\n        /* \"#utility.yul\":17159:17504   */\n    tag_185:\n        /* \"#utility.yul\":17226:17232   */\n      0x00\n        /* \"#utility.yul\":17275:17277   */\n      0x20\n        /* \"#utility.yul\":17263:17272   */\n      dup3\n        /* \"#utility.yul\":17254:17261   */\n      dup5\n        /* \"#utility.yul\":17250:17273   */\n      sub\n        /* \"#utility.yul\":17246:17278   */\n      slt\n        /* \"#utility.yul\":17243:17362   */\n      iszero\n      tag_405\n      jumpi\n        /* \"#utility.yul\":17281:17360   */\n      tag_406\n      tag_219\n      jump\t// in\n    tag_406:\n        /* \"#utility.yul\":17243:17362   */\n    tag_405:\n        /* \"#utility.yul\":17401:17402   */\n      0x00\n        /* \"#utility.yul\":17426:17487   */\n      tag_407\n        /* \"#utility.yul\":17479:17486   */\n      dup5\n        /* \"#utility.yul\":17470:17476   */\n      dup3\n        /* \"#utility.yul\":17459:17468   */\n      dup6\n        /* \"#utility.yul\":17455:17477   */\n      add\n        /* \"#utility.yul\":17426:17487   */\n      tag_248\n      jump\t// in\n    tag_407:\n        /* \"#utility.yul\":17416:17487   */\n      swap2\n      pop\n        /* \"#utility.yul\":17372:17497   */\n      pop\n        /* \"#utility.yul\":17159:17504   */\n      swap3\n      swap2\n      pop\n      pop\n      jump\t// out\n        /* \"#utility.yul\":17510:17952   */\n    tag_189:\n        /* \"#utility.yul\":17659:17663   */\n      0x00\n        /* \"#utility.yul\":17697:17699   */\n      0x60\n        /* \"#utility.yul\":17686:17695   */\n      dup3\n        /* \"#utility.yul\":17682:17700   */\n      add\n        /* \"#utility.yul\":17674:17700   */\n      swap1\n      pop\n        /* \"#utility.yul\":17710:17781   */\n      tag_409\n        /* \"#utility.yul\":17778:17779   */\n      0x00\n        /* \"#utility.yul\":17767:17776   */\n      dup4\n        /* \"#utility.yul\":17763:17780   */\n      add\n        /* \"#utility.yul\":17754:17760   */\n      dup7\n        /* \"#utility.yul\":17710:17781   */\n      tag_213\n      jump\t// in\n    tag_409:\n        /* \"#utility.yul\":17791:17863   */\n      tag_410\n        /* \"#utility.yul\":17859:17861   */\n      0x20\n        /* \"#utility.yul\":17848:17857   */\n      dup4\n        /* \"#utility.yul\":17844:17862   */\n      add\n        /* \"#utility.yul\":17835:17841   */\n      dup6\n        /* \"#utility.yul\":17791:17863   */\n      tag_213\n      jump\t// in\n    tag_410:\n        /* \"#utility.yul\":17873:17945   */\n      tag_411\n        /* \"#utility.yul\":17941:17943   */\n      0x40\n        /* \"#utility.yul\":17930:17939   */\n      dup4\n        /* \"#utility.yul\":17926:17944   */\n      add\n        /* \"#utility.yul\":17917:17923   */\n      dup5\n        /* \"#utility.yul\":17873:17945   */\n      tag_217\n      jump\t// in\n    tag_411:\n        /* \"#utility.yul\":17510:17952   */\n      swap5\n      swap4\n      pop\n      pop\n      pop\n      pop\n      jump\t// out\n        /* \"#utility.yul\":17958:18183   */\n    tag_249:\n        /* \"#utility.yul\":18098:18132   */\n      0x4f776e61626c653a206e6577206f776e657220697320746865207a65726f2061\n        /* \"#utility.yul\":18094:18095   */\n      0x00\n        /* \"#utility.yul\":18086:18092   */\n      dup3\n        /* \"#utility.yul\":18082:18096   */\n      add\n        /* \"#utility.yul\":18075:18133   */\n      mstore\n        /* \"#utility.yul\":18167:18175   */\n      0x6464726573730000000000000000000000000000000000000000000000000000\n        /* \"#utility.yul\":18162:18164   */\n      0x20\n        /* \"#utility.yul\":18154:18160   */\n      dup3\n        /* \"#utility.yul\":18150:18165   */\n      add\n        /* \"#utility.yul\":18143:18176   */\n      mstore\n        /* \"#utility.yul\":17958:18183   */\n      pop\n      jump\t// out\n        /* \"#utility.yul\":18189:18555   */\n    tag_250:\n        /* \"#utility.yul\":18331:18334   */\n      0x00\n        /* \"#utility.yul\":18352:18419   */\n      tag_414\n        /* \"#utility.yul\":18416:18418   */\n      0x26\n        /* \"#utility.yul\":18411:18414   */\n      dup4\n        /* \"#utility.yul\":18352:18419   */\n      tag_225\n      jump\t// in\n    tag_414:\n        /* \"#utility.yul\":18345:18419   */\n      swap2\n      pop\n        /* \"#utility.yul\":18428:18521   */\n      tag_415\n        /* \"#utility.yul\":18517:18520   */\n      dup3\n        /* \"#utility.yul\":18428:18521   */\n      tag_249\n      jump\t// in\n    tag_415:\n        /* \"#utility.yul\":18546:18548   */\n      0x40\n        /* \"#utility.yul\":18541:18544   */\n      dup3\n        /* \"#utility.yul\":18537:18549   */\n      add\n        /* \"#utility.yul\":18530:18549   */\n      swap1\n      pop\n        /* \"#utility.yul\":18189:18555   */\n      swap2\n      swap1\n      pop\n      jump\t// out\n        /* \"#utility.yul\":18561:18980   */\n    tag_196:\n        /* \"#utility.yul\":18727:18731   */\n      0x00\n        /* \"#utility.yul\":18765:18767   */\n      0x20\n        /* \"#utility.yul\":18754:18763   */\n      dup3\n        /* \"#utility.yul\":18750:18768   */\n      add\n        /* \"#utility.yul\":18742:18768   */\n      swap1\n      pop\n        /* \"#utility.yul\":18814:18823   */\n      dup2\n        /* \"#utility.yul\":18808:18812   */\n      dup2\n        /* \"#utility.yul\":18804:18824   */\n      sub\n        /* \"#utility.yul\":18800:18801   */\n      0x00\n        /* \"#utility.yul\":18789:18798   */\n      dup4\n        /* \"#utility.yul\":18785:18802   */\n      add\n        /* \"#utility.yul\":18778:18825   */\n      mstore\n        /* \"#utility.yul\":18842:18973   */\n      tag_417\n        /* \"#utility.yul\":18968:18972   */\n      dup2\n        /* \"#utility.yul\":18842:18973   */\n      tag_250\n      jump\t// in\n    tag_417:\n        /* \"#utility.yul\":18834:18973   */\n      swap1\n      pop\n        /* \"#utility.yul\":18561:18980   */\n      swap2\n      swap1\n      pop\n      jump\t// out\n        /* \"#utility.yul\":18986:19168   */\n    tag_251:\n        /* \"#utility.yul\":19126:19160   */\n      0x4f776e61626c653a2063616c6c6572206973206e6f7420746865206f776e6572\n        /* \"#utility.yul\":19122:19123   */\n      0x00\n        /* \"#utility.yul\":19114:19120   */\n      dup3\n        /* \"#utility.yul\":19110:19124   */\n      add\n        /* \"#utility.yul\":19103:19161   */\n      mstore\n        /* \"#utility.yul\":18986:19168   */\n      pop\n      jump\t// out\n        /* \"#utility.yul\":19174:19540   */\n    tag_252:\n        /* \"#utility.yul\":19316:19319   */\n      0x00\n        /* \"#utility.yul\":19337:19404   */\n      tag_420\n        /* \"#utility.yul\":19401:19403   */\n      0x20\n        /* \"#utility.yul\":19396:19399   */\n      dup4\n        /* \"#utility.yul\":19337:19404   */\n      tag_225\n      jump\t// in\n    tag_420:\n        /* \"#utility.yul\":19330:19404   */\n      swap2\n      pop\n        /* \"#utility.yul\":19413:19506   */\n      tag_421\n        /* \"#utility.yul\":19502:19505   */\n      dup3\n        /* \"#utility.yul\":19413:19506   */\n      tag_251\n      jump\t// in\n    tag_421:\n        /* \"#utility.yul\":19531:19533   */\n      0x20\n        /* \"#utility.yul\":19526:19529   */\n      dup3\n        /* \"#utility.yul\":19522:19534   */\n      add\n        /* \"#utility.yul\":19515:19534   */\n      swap1\n      pop\n        /* \"#utility.yul\":19174:19540   */\n      swap2\n      swap1\n      pop\n      jump\t// out\n        /* \"#utility.yul\":19546:19965   */\n    tag_204:\n        /* \"#utility.yul\":19712:19716   */\n      0x00\n        /* \"#utility.yul\":19750:19752   */\n      0x20\n        /* \"#utility.yul\":19739:19748   */\n      dup3\n        /* \"#utility.yul\":19735:19753   */\n      add\n        /* \"#utility.yul\":19727:19753   */\n      swap1\n      pop\n        /* \"#utility.yul\":19799:19808   */\n      dup2\n        /* \"#utility.yul\":19793:19797   */\n      dup2\n        /* \"#utility.yul\":19789:19809   */\n      sub\n        /* \"#utility.yul\":19785:19786   */\n      0x00\n        /* \"#utility.yul\":19774:19783   */\n      dup4\n        /* \"#utility.yul\":19770:19787   */\n      add\n        /* \"#utility.yul\":19763:19810   */\n      mstore\n        /* \"#utility.yul\":19827:19958   */\n      tag_423\n        /* \"#utility.yul\":19953:19957   */\n      dup2\n        /* \"#utility.yul\":19827:19958   */\n      tag_252\n      jump\t// in\n    tag_423:\n        /* \"#utility.yul\":19819:19958   */\n      swap1\n      pop\n        /* \"#utility.yul\":19546:19965   */\n      swap2\n      swap1\n      pop\n      jump\t// out\n\n    auxdata: 0xa26469706673582212203fed1d91ff9fa495f41675b5dd9ede0602ae2704f467ad8acdd95ff12132f33f64736f6c63430008150033\n}\n",
				"bytecode": {
					"linkReferences": {},
					"object": "6080604052612710600355600c6004555f6010553480156200001f575f80fd5b5062000040620000346200019b60201b60201c565b620001a260201b60201c565b5f8060019054906101000a900460ff1615905080801562000070575060015f8054906101000a900460ff1660ff16105b80620000a6575062000088306200026560201b60201c565b158015620000a5575060015f8054906101000a900460ff1660ff16145b5b620000e8576040517f08c379a0000000000000000000000000000000000000000000000000000000008152600401620000df906200030b565b60405180910390fd5b60015f806101000a81548160ff021916908360ff1602179055508015620001245760015f60016101000a81548160ff0219169083151502179055505b5f600b819055505f6009819055505f600a81905550801562000194575f8060016101000a81548160ff0219169083151502179055507f7f26b83ff96e1f2b6a682f133852f6798a09c465da95921460cefb384740249860016040516200018b919062000381565b60405180910390a15b506200039c565b5f33905090565b5f8060029054906101000a900473ffffffffffffffffffffffffffffffffffffffff169050815f60026101000a81548173ffffffffffffffffffffffffffffffffffffffff021916908373ffffffffffffffffffffffffffffffffffffffff1602179055508173ffffffffffffffffffffffffffffffffffffffff168173ffffffffffffffffffffffffffffffffffffffff167f8be0079c531659141344cd1fd0a4f28419497f9722a3daafe3b4186f6b6457e060405160405180910390a35050565b5f808273ffffffffffffffffffffffffffffffffffffffff163b119050919050565b5f82825260208201905092915050565b7f496e697469616c697a61626c653a20636f6e747261637420697320616c7265615f8201527f647920696e697469616c697a6564000000000000000000000000000000000000602082015250565b5f620002f3602e8362000287565b9150620003008262000297565b604082019050919050565b5f6020820190508181035f8301526200032481620002e5565b9050919050565b5f819050919050565b5f60ff82169050919050565b5f819050919050565b5f62000369620003636200035d846200032b565b62000340565b62000334565b9050919050565b6200037b8162000349565b82525050565b5f602082019050620003965f83018462000370565b92915050565b6119af80620003aa5f395ff3fe608060405234801561000f575f80fd5b5060043610610135575f3560e01c8063752c4e56116100b6578063a2eafc811161007a578063a2eafc8114610305578063a8f8fe2214610323578063c892eada14610341578063e29f52291461035f578063ee73c90a1461037d578063f2fde38b1461039b57610135565b8063752c4e56146102615780637ca317241461027d5780637fb0556d146102ad578063808093d4146102c95780638da5cb5b146102e757610135565b806327e235e3116100fd57806327e235e3146101cf5780635ab2af51146101ff57806369e1251c1461021d5780637024795d14610239578063715018a61461025757610135565b80630648a75e14610139578063074ca96614610157578063086126d31461017557806318b4dd3c14610193578063196e74a7146101b1575b5f80fd5b6101416103b7565b60405161014e9190610f37565b60405180910390f35b61015f6103dc565b60405161016c9190610f6a565b60405180910390f35b61017d6103ef565b60405161018a9190610f9b565b60405180910390f35b61019b6103f5565b6040516101a89190610f9b565b60405180910390f35b6101b96103fb565b6040516101c69190610f9b565b60405180910390f35b6101e960048036038101906101e49190610fe2565b610401565b6040516101f69190610f9b565b60405180910390f35b610207610416565b6040516102149190610f9b565b60405180910390f35b61023760048036038101906102329190611037565b61041c565b005b610241610621565b60405161024e9190610f9b565b60405180910390f35b61025f610627565b005b61027b600480360381019061027691906110c0565b61063a565b005b61029760048036038101906102929190610fe2565b610721565b6040516102a49190610f9b565b60405180910390f35b6102c760048036038101906102c291906110fe565b610736565b005b6102d1610bf0565b6040516102de9190610f9b565b60405180910390f35b6102ef610bf6565b6040516102fc9190610f37565b60405180910390f35b61030d610c1e565b60405161031a9190610f9b565b60405180910390f35b61032b610c24565b6040516103389190610f9b565b60405180910390f35b610349610c2a565b6040516103569190610f6a565b60405180910390f35b610367610c3c565b6040516103749190610f9b565b60405180910390f35b610385610c42565b6040516103929190610f9b565b60405180910390f35b6103b560048036038101906103b09190610fe2565b610c48565b005b60055f9054906101000a900473ffffffffffffffffffffffffffffffffffffffff1681565b601160019054906101000a900460ff1681565b60095481565b600a5481565b600b5481565b6001602052805f5260405f205f915090505481565b60075481565b610424610cca565b600a841015610468576040517f08c379a000000000000000000000000000000000000000000000000000000000815260040161045f906111a9565b60405180910390fd5b8382108015610478575060288210155b6104b7576040517f08c379a00000000000000000000000000000000000000000000000000000000081526004016104ae9061125d565b60405180910390fd5b60328110156104fb576040517f08c379a00000000000000000000000000000000000000000000000000000000081526004016104f2906112eb565b60405180910390fd5b600183101561053f576040517f08c379a000000000000000000000000000000000000000000000000000000000815260040161053690611379565b60405180910390fd5b8560055f6101000a81548173ffffffffffffffffffffffffffffffffffffffff021916908373ffffffffffffffffffffffffffffffffffffffff1602179055508460068190555083600981905550806007819055508160088190555082600a819055505f60115f6101000a81548160ff0219169083151502179055506001601160016101000a81548160ff0219169083151502179055507fafd765ba31f9a5a1bdc5e1a2ce2079ecd6fcdcd9a80562b4d4002c050445178b86600654600e548787604051610611959493929190611397565b60405180910390a1505050505050565b600e5481565b61062f610cca565b6106385f610d48565b565b612710611f40600f5461064d9190611415565b6106579190611483565b811015610699576040517f08c379a000000000000000000000000000000000000000000000000000000000815260040161069090611523565b60405180910390fd5b80600d5f8282546106aa9190611541565b925050819055506001600a5f8282546106c39190611541565b925050819055508060015f8473ffffffffffffffffffffffffffffffffffffffff1673ffffffffffffffffffffffffffffffffffffffff1681526020019081526020015f205f8282546107169190611574565b925050819055505050565b6002602052805f5260405f205f915090505481565b601160019054906101000a900460ff16610785576040517f08c379a000000000000000000000000000000000000000000000000000000000815260040161077c906115f1565b60405180910390fd5b5f8110156107c8576040517f08c379a00000000000000000000000000000000000000000000000000000000081526004016107bf9061167f565b60405180910390fd5b600654600b54826107d99190611574565b111561081a576040517f08c379a00000000000000000000000000000000000000000000000000000000081526004016108119061170d565b60405180910390fd5b5f339050818173ffffffffffffffffffffffffffffffffffffffff166370a08231336040518263ffffffff1660e01b81526004016108589190610f37565b602060405180830381865afa158015610873573d5f803e3d5ffd5b505050506040513d601f19601f82011682018060405250810190610897919061173f565b10156108d8576040517f08c379a00000000000000000000000000000000000000000000000000000000081526004016108cf906117b4565b60405180910390fd5b81600b5f8282546108e99190611574565b925050819055505f600354600754846109029190611415565b61090c9190611483565b90505f600354600454600a546009546109259190611415565b61092f9190611483565b61271061093c9190611574565b836109479190611415565b6109519190611483565b90505f600354600454600a5460085461096a9190611415565b6109749190611483565b8661097f9190611415565b6109899190611483565b905081816109979190611574565b600e5f8282546109a79190611574565b925050819055505f600354600454600a546008546009546109c89190611541565b6109d29190611415565b6109dc9190611483565b6127106109e99190611574565b876109f49190611415565b6109fe9190611483565b905080600c5f828254610a119190611574565b92505081905550600c54600e54610a289190611574565b600d81905550600a54600d54610a3e9190611483565b600f5f828254610a4e9190611574565b92505081905550600160105f828254610a679190611574565b925050819055508560015f3373ffffffffffffffffffffffffffffffffffffffff1673ffffffffffffffffffffffffffffffffffffffff1681526020019081526020015f205f828254610aba9190611574565b9250508190555060105460025f3373ffffffffffffffffffffffffffffffffffffffff1673ffffffffffffffffffffffffffffffffffffffff1681526020019081526020015f20819055508473ffffffffffffffffffffffffffffffffffffffff1663a9059cbb30886040518363ffffffff1660e01b8152600401610b409291906117d2565b6020604051808303815f875af1158015610b5c573d5f803e3d5ffd5b505050506040513d601f19601f82011682018060405250810190610b809190611823565b50610bad3360055f9054906101000a900473ffffffffffffffffffffffffffffffffffffffff1688610e0b565b7fddf252ad1be2c89b69c2b068fc378daa952ba7f163c4a11628f55a4df523b3ef5f3388604051610be09392919061184e565b60405180910390a1505050505050565b60065481565b5f8060029054906101000a900473ffffffffffffffffffffffffffffffffffffffff16905090565b600d5481565b600c5481565b60115f9054906101000a900460ff1681565b60085481565b600f5481565b610c50610cca565b5f73ffffffffffffffffffffffffffffffffffffffff168173ffffffffffffffffffffffffffffffffffffffff1603610cbe576040517f08c379a0000000000000000000000000000000000000000000000000000000008152600401610cb5906118f3565b60405180910390fd5b610cc781610d48565b50565b610cd2610ef1565b73ffffffffffffffffffffffffffffffffffffffff16610cf0610bf6565b73ffffffffffffffffffffffffffffffffffffffff1614610d46576040517f08c379a0000000000000000000000000000000000000000000000000000000008152600401610d3d9061195b565b60405180910390fd5b565b5f8060029054906101000a900473ffffffffffffffffffffffffffffffffffffffff169050815f60026101000a81548173ffffffffffffffffffffffffffffffffffffffff021916908373ffffffffffffffffffffffffffffffffffffffff1602179055508173ffffffffffffffffffffffffffffffffffffffff168173ffffffffffffffffffffffffffffffffffffffff167f8be0079c531659141344cd1fd0a4f28419497f9722a3daafe3b4186f6b6457e060405160405180910390a35050565b8060015f8573ffffffffffffffffffffffffffffffffffffffff1673ffffffffffffffffffffffffffffffffffffffff1681526020019081526020015f205f828254610e579190611541565b925050819055508060015f8473ffffffffffffffffffffffffffffffffffffffff1673ffffffffffffffffffffffffffffffffffffffff1681526020019081526020015f205f828254610eaa9190611574565b925050819055507fddf252ad1be2c89b69c2b068fc378daa952ba7f163c4a11628f55a4df523b3ef838383604051610ee49392919061184e565b60405180910390a1505050565b5f33905090565b5f73ffffffffffffffffffffffffffffffffffffffff82169050919050565b5f610f2182610ef8565b9050919050565b610f3181610f17565b82525050565b5f602082019050610f4a5f830184610f28565b92915050565b5f8115159050919050565b610f6481610f50565b82525050565b5f602082019050610f7d5f830184610f5b565b92915050565b5f819050919050565b610f9581610f83565b82525050565b5f602082019050610fae5f830184610f8c565b92915050565b5f80fd5b610fc181610f17565b8114610fcb575f80fd5b50565b5f81359050610fdc81610fb8565b92915050565b5f60208284031215610ff757610ff6610fb4565b5b5f61100484828501610fce565b91505092915050565b61101681610f83565b8114611020575f80fd5b50565b5f813590506110318161100d565b92915050565b5f805f805f8060c0878903121561105157611050610fb4565b5b5f61105e89828a01610fce565b965050602061106f89828a01611023565b955050604061108089828a01611023565b945050606061109189828a01611023565b93505060806110a289828a01611023565b92505060a06110b389828a01611023565b9150509295509295509295565b5f80604083850312156110d6576110d5610fb4565b5b5f6110e385828601610fce565b92505060206110f485828601611023565b9150509250929050565b5f6020828403121561111357611112610fb4565b5b5f61112084828501611023565b91505092915050565b5f82825260208201905092915050565b7f546865206c656e64696e672072617465206d757374206265206174206c6561735f8201527f7420313020426173697320506f696e742028302e312529000000000000000000602082015250565b5f611193603783611129565b915061119e82611139565b604082019050919050565b5f6020820190508181035f8301526111c081611187565b9050919050565b7f4665652050617961626c6520666f72205065657252617465206d7573742062655f8201527f206c657373207468616e206c656e64696e672072617465206f6666657265642060208201527f616e64206174206c656173742034302042502028302e34252900000000000000604082015250565b5f611247605983611129565b9150611252826111c7565b606082019050919050565b5f6020820190508181035f8301526112748161123b565b9050919050565b7f4f726967696e6174696f6e20666565206d757374206265206174206c656173745f8201527f2035302042502028302e35252900000000000000000000000000000000000000602082015250565b5f6112d5602d83611129565b91506112e08261127b565b604082019050919050565b5f6020820190508181035f830152611302816112c9565b9050919050565b7f546865206c6f616e20706572696f64206d757374206265206174206c656173745f8201527f2031204d6f6e7468000000000000000000000000000000000000000000000000602082015250565b5f611363602883611129565b915061136e82611309565b604082019050919050565b5f6020820190508181035f83015261139081611357565b9050919050565b5f60a0820190506113aa5f830188610f28565b6113b76020830187610f8c565b6113c46040830186610f8c565b6113d16060830185610f8c565b6113de6080830184610f8c565b9695505050505050565b7f4e487b71000000000000000000000000000000000000000000000000000000005f52601160045260245ffd5b5f61141f82610f83565b915061142a83610f83565b925082820261143881610f83565b9150828204841483151761144f5761144e6113e8565b5b5092915050565b7f4e487b71000000000000000000000000000000000000000000000000000000005f52601260045260245ffd5b5f61148d82610f83565b915061149883610f83565b9250826114a8576114a7611456565b5b828204905092915050565b7f506c6561736520706179206174206c6561737420383025206f662074686520725f8201527f6571756972656420616d6f756e74000000000000000000000000000000000000602082015250565b5f61150d602e83611129565b9150611518826114b3565b604082019050919050565b5f6020820190508181035f83015261153a81611501565b9050919050565b5f61154b82610f83565b915061155683610f83565b925082820390508181111561156e5761156d6113e8565b5b92915050565b5f61157e82610f83565b915061158983610f83565b92508282019050808211156115a1576115a06113e8565b5b92915050565b7f546865206c6f616e206973206e6f7420637265617465640000000000000000005f82015250565b5f6115db601783611129565b91506115e6826115a7565b602082019050919050565b5f6020820190508181035f830152611608816115cf565b9050919050565b7f20506c6561736520696e7665737420696e20746865206c6f616e206d6f7265205f8201527f7468616e20310000000000000000000000000000000000000000000000000000602082015250565b5f611669602683611129565b91506116748261160f565b604082019050919050565b5f6020820190508181035f8301526116968161165d565b9050919050565b7f596f75206861766520657863656564656420746865206d6178696d756d2070725f8201527f696e636970616c206f6620746865206c6f616e00000000000000000000000000602082015250565b5f6116f7603383611129565b91506117028261169d565b604082019050919050565b5f6020820190508181035f830152611724816116eb565b9050919050565b5f815190506117398161100d565b92915050565b5f6020828403121561175457611753610fb4565b5b5f6117618482850161172b565b91505092915050565b7f596f75206861766520696e73756666696369656e7420616d6f756e74000000005f82015250565b5f61179e601c83611129565b91506117a98261176a565b602082019050919050565b5f6020820190508181035f8301526117cb81611792565b9050919050565b5f6040820190506117e55f830185610f28565b6117f26020830184610f8c565b9392505050565b61180281610f50565b811461180c575f80fd5b50565b5f8151905061181d816117f9565b92915050565b5f6020828403121561183857611837610fb4565b5b5f6118458482850161180f565b91505092915050565b5f6060820190506118615f830186610f28565b61186e6020830185610f28565b61187b6040830184610f8c565b949350505050565b7f4f776e61626c653a206e6577206f776e657220697320746865207a65726f20615f8201527f6464726573730000000000000000000000000000000000000000000000000000602082015250565b5f6118dd602683611129565b91506118e882611883565b604082019050919050565b5f6020820190508181035f83015261190a816118d1565b9050919050565b7f4f776e61626c653a2063616c6c6572206973206e6f7420746865206f776e65725f82015250565b5f611945602083611129565b915061195082611911565b602082019050919050565b5f6020820190508181035f83015261197281611939565b905091905056fea26469706673582212203fed1d91ff9fa495f41675b5dd9ede0602ae2704f467ad8acdd95ff12132f33f64736f6c63430008150033",
					"opcodes": "PUSH1 0x80 PUSH1 0x40 MSTORE PUSH2 0x2710 PUSH1 0x3 SSTORE PUSH1 0xC PUSH1 0x4 SSTORE PUSH0 PUSH1 0x10 SSTORE CALLVALUE DUP1 ISZERO PUSH3 0x1F JUMPI PUSH0 DUP1 REVERT JUMPDEST POP PUSH3 0x40 PUSH3 0x34 PUSH3 0x19B PUSH1 0x20 SHL PUSH1 0x20 SHR JUMP JUMPDEST PUSH3 0x1A2 PUSH1 0x20 SHL PUSH1 0x20 SHR JUMP JUMPDEST PUSH0 DUP1 PUSH1 0x1 SWAP1 SLOAD SWAP1 PUSH2 0x100 EXP SWAP1 DIV PUSH1 0xFF AND ISZERO SWAP1 POP DUP1 DUP1 ISZERO PUSH3 0x70 JUMPI POP PUSH1 0x1 PUSH0 DUP1 SLOAD SWAP1 PUSH2 0x100 EXP SWAP1 DIV PUSH1 0xFF AND PUSH1 0xFF AND LT JUMPDEST DUP1 PUSH3 0xA6 JUMPI POP PUSH3 0x88 ADDRESS PUSH3 0x265 PUSH1 0x20 SHL PUSH1 0x20 SHR JUMP JUMPDEST ISZERO DUP1 ISZERO PUSH3 0xA5 JUMPI POP PUSH1 0x1 PUSH0 DUP1 SLOAD SWAP1 PUSH2 0x100 EXP SWAP1 DIV PUSH1 0xFF AND PUSH1 0xFF AND EQ JUMPDEST JUMPDEST PUSH3 0xE8 JUMPI PUSH1 0x40 MLOAD PUSH32 0x8C379A000000000000000000000000000000000000000000000000000000000 DUP2 MSTORE PUSH1 0x4 ADD PUSH3 0xDF SWAP1 PUSH3 0x30B JUMP JUMPDEST PUSH1 0x40 MLOAD DUP1 SWAP2 SUB SWAP1 REVERT JUMPDEST PUSH1 0x1 PUSH0 DUP1 PUSH2 0x100 EXP DUP2 SLOAD DUP2 PUSH1 0xFF MUL NOT AND SWAP1 DUP4 PUSH1 0xFF AND MUL OR SWAP1 SSTORE POP DUP1 ISZERO PUSH3 0x124 JUMPI PUSH1 0x1 PUSH0 PUSH1 0x1 PUSH2 0x100 EXP DUP2 SLOAD DUP2 PUSH1 0xFF MUL NOT AND SWAP1 DUP4 ISZERO ISZERO MUL OR SWAP1 SSTORE POP JUMPDEST PUSH0 PUSH1 0xB DUP2 SWAP1 SSTORE POP PUSH0 PUSH1 0x9 DUP2 SWAP1 SSTORE POP PUSH0 PUSH1 0xA DUP2 SWAP1 SSTORE POP DUP1 ISZERO PUSH3 0x194 JUMPI PUSH0 DUP1 PUSH1 0x1 PUSH2 0x100 EXP DUP2 SLOAD DUP2 PUSH1 0xFF MUL NOT AND SWAP1 DUP4 ISZERO ISZERO MUL OR SWAP1 SSTORE POP PUSH32 0x7F26B83FF96E1F2B6A682F133852F6798A09C465DA95921460CEFB3847402498 PUSH1 0x1 PUSH1 0x40 MLOAD PUSH3 0x18B SWAP2 SWAP1 PUSH3 0x381 JUMP JUMPDEST PUSH1 0x40 MLOAD DUP1 SWAP2 SUB SWAP1 LOG1 JUMPDEST POP PUSH3 0x39C JUMP JUMPDEST PUSH0 CALLER SWAP1 POP SWAP1 JUMP JUMPDEST PUSH0 DUP1 PUSH1 0x2 SWAP1 SLOAD SWAP1 PUSH2 0x100 EXP SWAP1 DIV PUSH20 0xFFFFFFFFFFFFFFFFFFFFFFFFFFFFFFFFFFFFFFFF AND SWAP1 POP DUP2 PUSH0 PUSH1 0x2 PUSH2 0x100 EXP DUP2 SLOAD DUP2 PUSH20 0xFFFFFFFFFFFFFFFFFFFFFFFFFFFFFFFFFFFFFFFF MUL NOT AND SWAP1 DUP4 PUSH20 0xFFFFFFFFFFFFFFFFFFFFFFFFFFFFFFFFFFFFFFFF AND MUL OR SWAP1 SSTORE POP DUP2 PUSH20 0xFFFFFFFFFFFFFFFFFFFFFFFFFFFFFFFFFFFFFFFF AND DUP2 PUSH20 0xFFFFFFFFFFFFFFFFFFFFFFFFFFFFFFFFFFFFFFFF AND PUSH32 0x8BE0079C531659141344CD1FD0A4F28419497F9722A3DAAFE3B4186F6B6457E0 PUSH1 0x40 MLOAD PUSH1 0x40 MLOAD DUP1 SWAP2 SUB SWAP1 LOG3 POP POP JUMP JUMPDEST PUSH0 DUP1 DUP3 PUSH20 0xFFFFFFFFFFFFFFFFFFFFFFFFFFFFFFFFFFFFFFFF AND EXTCODESIZE GT SWAP1 POP SWAP2 SWAP1 POP JUMP JUMPDEST PUSH0 DUP3 DUP3 MSTORE PUSH1 0x20 DUP3 ADD SWAP1 POP SWAP3 SWAP2 POP POP JUMP JUMPDEST PUSH32 0x496E697469616C697A61626C653A20636F6E747261637420697320616C726561 PUSH0 DUP3 ADD MSTORE PUSH32 0x647920696E697469616C697A6564000000000000000000000000000000000000 PUSH1 0x20 DUP3 ADD MSTORE POP JUMP JUMPDEST PUSH0 PUSH3 0x2F3 PUSH1 0x2E DUP4 PUSH3 0x287 JUMP JUMPDEST SWAP2 POP PUSH3 0x300 DUP3 PUSH3 0x297 JUMP JUMPDEST PUSH1 0x40 DUP3 ADD SWAP1 POP SWAP2 SWAP1 POP JUMP JUMPDEST PUSH0 PUSH1 0x20 DUP3 ADD SWAP1 POP DUP2 DUP2 SUB PUSH0 DUP4 ADD MSTORE PUSH3 0x324 DUP2 PUSH3 0x2E5 JUMP JUMPDEST SWAP1 POP SWAP2 SWAP1 POP JUMP JUMPDEST PUSH0 DUP2 SWAP1 POP SWAP2 SWAP1 POP JUMP JUMPDEST PUSH0 PUSH1 0xFF DUP3 AND SWAP1 POP SWAP2 SWAP1 POP JUMP JUMPDEST PUSH0 DUP2 SWAP1 POP SWAP2 SWAP1 POP JUMP JUMPDEST PUSH0 PUSH3 0x369 PUSH3 0x363 PUSH3 0x35D DUP5 PUSH3 0x32B JUMP JUMPDEST PUSH3 0x340 JUMP JUMPDEST PUSH3 0x334 JUMP JUMPDEST SWAP1 POP SWAP2 SWAP1 POP JUMP JUMPDEST PUSH3 0x37B DUP2 PUSH3 0x349 JUMP JUMPDEST DUP3 MSTORE POP POP JUMP JUMPDEST PUSH0 PUSH1 0x20 DUP3 ADD SWAP1 POP PUSH3 0x396 PUSH0 DUP4 ADD DUP5 PUSH3 0x370 JUMP JUMPDEST SWAP3 SWAP2 POP POP JUMP JUMPDEST PUSH2 0x19AF DUP1 PUSH3 0x3AA PUSH0 CODECOPY PUSH0 RETURN INVALID PUSH1 0x80 PUSH1 0x40 MSTORE CALLVALUE DUP1 ISZERO PUSH2 0xF JUMPI PUSH0 DUP1 REVERT JUMPDEST POP PUSH1 0x4 CALLDATASIZE LT PUSH2 0x135 JUMPI PUSH0 CALLDATALOAD PUSH1 0xE0 SHR DUP1 PUSH4 0x752C4E56 GT PUSH2 0xB6 JUMPI DUP1 PUSH4 0xA2EAFC81 GT PUSH2 0x7A JUMPI DUP1 PUSH4 0xA2EAFC81 EQ PUSH2 0x305 JUMPI DUP1 PUSH4 0xA8F8FE22 EQ PUSH2 0x323 JUMPI DUP1 PUSH4 0xC892EADA EQ PUSH2 0x341 JUMPI DUP1 PUSH4 0xE29F5229 EQ PUSH2 0x35F JUMPI DUP1 PUSH4 0xEE73C90A EQ PUSH2 0x37D JUMPI DUP1 PUSH4 0xF2FDE38B EQ PUSH2 0x39B JUMPI PUSH2 0x135 JUMP JUMPDEST DUP1 PUSH4 0x752C4E56 EQ PUSH2 0x261 JUMPI DUP1 PUSH4 0x7CA31724 EQ PUSH2 0x27D JUMPI DUP1 PUSH4 0x7FB0556D EQ PUSH2 0x2AD JUMPI DUP1 PUSH4 0x808093D4 EQ PUSH2 0x2C9 JUMPI DUP1 PUSH4 0x8DA5CB5B EQ PUSH2 0x2E7 JUMPI PUSH2 0x135 JUMP JUMPDEST DUP1 PUSH4 0x27E235E3 GT PUSH2 0xFD JUMPI DUP1 PUSH4 0x27E235E3 EQ PUSH2 0x1CF JUMPI DUP1 PUSH4 0x5AB2AF51 EQ PUSH2 0x1FF JUMPI DUP1 PUSH4 0x69E1251C EQ PUSH2 0x21D JUMPI DUP1 PUSH4 0x7024795D EQ PUSH2 0x239 JUMPI DUP1 PUSH4 0x715018A6 EQ PUSH2 0x257 JUMPI PUSH2 0x135 JUMP JUMPDEST DUP1 PUSH4 0x648A75E EQ PUSH2 0x139 JUMPI DUP1 PUSH4 0x74CA966 EQ PUSH2 0x157 JUMPI DUP1 PUSH4 0x86126D3 EQ PUSH2 0x175 JUMPI DUP1 PUSH4 0x18B4DD3C EQ PUSH2 0x193 JUMPI DUP1 PUSH4 0x196E74A7 EQ PUSH2 0x1B1 JUMPI JUMPDEST PUSH0 DUP1 REVERT JUMPDEST PUSH2 0x141 PUSH2 0x3B7 JUMP JUMPDEST PUSH1 0x40 MLOAD PUSH2 0x14E SWAP2 SWAP1 PUSH2 0xF37 JUMP JUMPDEST PUSH1 0x40 MLOAD DUP1 SWAP2 SUB SWAP1 RETURN JUMPDEST PUSH2 0x15F PUSH2 0x3DC JUMP JUMPDEST PUSH1 0x40 MLOAD PUSH2 0x16C SWAP2 SWAP1 PUSH2 0xF6A JUMP JUMPDEST PUSH1 0x40 MLOAD DUP1 SWAP2 SUB SWAP1 RETURN JUMPDEST PUSH2 0x17D PUSH2 0x3EF JUMP JUMPDEST PUSH1 0x40 MLOAD PUSH2 0x18A SWAP2 SWAP1 PUSH2 0xF9B JUMP JUMPDEST PUSH1 0x40 MLOAD DUP1 SWAP2 SUB SWAP1 RETURN JUMPDEST PUSH2 0x19B PUSH2 0x3F5 JUMP JUMPDEST PUSH1 0x40 MLOAD PUSH2 0x1A8 SWAP2 SWAP1 PUSH2 0xF9B JUMP JUMPDEST PUSH1 0x40 MLOAD DUP1 SWAP2 SUB SWAP1 RETURN JUMPDEST PUSH2 0x1B9 PUSH2 0x3FB JUMP JUMPDEST PUSH1 0x40 MLOAD PUSH2 0x1C6 SWAP2 SWAP1 PUSH2 0xF9B JUMP JUMPDEST PUSH1 0x40 MLOAD DUP1 SWAP2 SUB SWAP1 RETURN JUMPDEST PUSH2 0x1E9 PUSH1 0x4 DUP1 CALLDATASIZE SUB DUP2 ADD SWAP1 PUSH2 0x1E4 SWAP2 SWAP1 PUSH2 0xFE2 JUMP JUMPDEST PUSH2 0x401 JUMP JUMPDEST PUSH1 0x40 MLOAD PUSH2 0x1F6 SWAP2 SWAP1 PUSH2 0xF9B JUMP JUMPDEST PUSH1 0x40 MLOAD DUP1 SWAP2 SUB SWAP1 RETURN JUMPDEST PUSH2 0x207 PUSH2 0x416 JUMP JUMPDEST PUSH1 0x40 MLOAD PUSH2 0x214 SWAP2 SWAP1 PUSH2 0xF9B JUMP JUMPDEST PUSH1 0x40 MLOAD DUP1 SWAP2 SUB SWAP1 RETURN JUMPDEST PUSH2 0x237 PUSH1 0x4 DUP1 CALLDATASIZE SUB DUP2 ADD SWAP1 PUSH2 0x232 SWAP2 SWAP1 PUSH2 0x1037 JUMP JUMPDEST PUSH2 0x41C JUMP JUMPDEST STOP JUMPDEST PUSH2 0x241 PUSH2 0x621 JUMP JUMPDEST PUSH1 0x40 MLOAD PUSH2 0x24E SWAP2 SWAP1 PUSH2 0xF9B JUMP JUMPDEST PUSH1 0x40 MLOAD DUP1 SWAP2 SUB SWAP1 RETURN JUMPDEST PUSH2 0x25F PUSH2 0x627 JUMP JUMPDEST STOP JUMPDEST PUSH2 0x27B PUSH1 0x4 DUP1 CALLDATASIZE SUB DUP2 ADD SWAP1 PUSH2 0x276 SWAP2 SWAP1 PUSH2 0x10C0 JUMP JUMPDEST PUSH2 0x63A JUMP JUMPDEST STOP JUMPDEST PUSH2 0x297 PUSH1 0x4 DUP1 CALLDATASIZE SUB DUP2 ADD SWAP1 PUSH2 0x292 SWAP2 SWAP1 PUSH2 0xFE2 JUMP JUMPDEST PUSH2 0x721 JUMP JUMPDEST PUSH1 0x40 MLOAD PUSH2 0x2A4 SWAP2 SWAP1 PUSH2 0xF9B JUMP JUMPDEST PUSH1 0x40 MLOAD DUP1 SWAP2 SUB SWAP1 RETURN JUMPDEST PUSH2 0x2C7 PUSH1 0x4 DUP1 CALLDATASIZE SUB DUP2 ADD SWAP1 PUSH2 0x2C2 SWAP2 SWAP1 PUSH2 0x10FE JUMP JUMPDEST PUSH2 0x736 JUMP JUMPDEST STOP JUMPDEST PUSH2 0x2D1 PUSH2 0xBF0 JUMP JUMPDEST PUSH1 0x40 MLOAD PUSH2 0x2DE SWAP2 SWAP1 PUSH2 0xF9B JUMP JUMPDEST PUSH1 0x40 MLOAD DUP1 SWAP2 SUB SWAP1 RETURN JUMPDEST PUSH2 0x2EF PUSH2 0xBF6 JUMP JUMPDEST PUSH1 0x40 MLOAD PUSH2 0x2FC SWAP2 SWAP1 PUSH2 0xF37 JUMP JUMPDEST PUSH1 0x40 MLOAD DUP1 SWAP2 SUB SWAP1 RETURN JUMPDEST PUSH2 0x30D PUSH2 0xC1E JUMP JUMPDEST PUSH1 0x40 MLOAD PUSH2 0x31A SWAP2 SWAP1 PUSH2 0xF9B JUMP JUMPDEST PUSH1 0x40 MLOAD DUP1 SWAP2 SUB SWAP1 RETURN JUMPDEST PUSH2 0x32B PUSH2 0xC24 JUMP JUMPDEST PUSH1 0x40 MLOAD PUSH2 0x338 SWAP2 SWAP1 PUSH2 0xF9B JUMP JUMPDEST PUSH1 0x40 MLOAD DUP1 SWAP2 SUB SWAP1 RETURN JUMPDEST PUSH2 0x349 PUSH2 0xC2A JUMP JUMPDEST PUSH1 0x40 MLOAD PUSH2 0x356 SWAP2 SWAP1 PUSH2 0xF6A JUMP JUMPDEST PUSH1 0x40 MLOAD DUP1 SWAP2 SUB SWAP1 RETURN JUMPDEST PUSH2 0x367 PUSH2 0xC3C JUMP JUMPDEST PUSH1 0x40 MLOAD PUSH2 0x374 SWAP2 SWAP1 PUSH2 0xF9B JUMP JUMPDEST PUSH1 0x40 MLOAD DUP1 SWAP2 SUB SWAP1 RETURN JUMPDEST PUSH2 0x385 PUSH2 0xC42 JUMP JUMPDEST PUSH1 0x40 MLOAD PUSH2 0x392 SWAP2 SWAP1 PUSH2 0xF9B JUMP JUMPDEST PUSH1 0x40 MLOAD DUP1 SWAP2 SUB SWAP1 RETURN JUMPDEST PUSH2 0x3B5 PUSH1 0x4 DUP1 CALLDATASIZE SUB DUP2 ADD SWAP1 PUSH2 0x3B0 SWAP2 SWAP1 PUSH2 0xFE2 JUMP JUMPDEST PUSH2 0xC48 JUMP JUMPDEST STOP JUMPDEST PUSH1 0x5 PUSH0 SWAP1 SLOAD SWAP1 PUSH2 0x100 EXP SWAP1 DIV PUSH20 0xFFFFFFFFFFFFFFFFFFFFFFFFFFFFFFFFFFFFFFFF AND DUP2 JUMP JUMPDEST PUSH1 0x11 PUSH1 0x1 SWAP1 SLOAD SWAP1 PUSH2 0x100 EXP SWAP1 DIV PUSH1 0xFF AND DUP2 JUMP JUMPDEST PUSH1 0x9 SLOAD DUP2 JUMP JUMPDEST PUSH1 0xA SLOAD DUP2 JUMP JUMPDEST PUSH1 0xB SLOAD DUP2 JUMP JUMPDEST PUSH1 0x1 PUSH1 0x20 MSTORE DUP1 PUSH0 MSTORE PUSH1 0x40 PUSH0 KECCAK256 PUSH0 SWAP2 POP SWAP1 POP SLOAD DUP2 JUMP JUMPDEST PUSH1 0x7 SLOAD DUP2 JUMP JUMPDEST PUSH2 0x424 PUSH2 0xCCA JUMP JUMPDEST PUSH1 0xA DUP5 LT ISZERO PUSH2 0x468 JUMPI PUSH1 0x40 MLOAD PUSH32 0x8C379A000000000000000000000000000000000000000000000000000000000 DUP2 MSTORE PUSH1 0x4 ADD PUSH2 0x45F SWAP1 PUSH2 0x11A9 JUMP JUMPDEST PUSH1 0x40 MLOAD DUP1 SWAP2 SUB SWAP1 REVERT JUMPDEST DUP4 DUP3 LT DUP1 ISZERO PUSH2 0x478 JUMPI POP PUSH1 0x28 DUP3 LT ISZERO JUMPDEST PUSH2 0x4B7 JUMPI PUSH1 0x40 MLOAD PUSH32 0x8C379A000000000000000000000000000000000000000000000000000000000 DUP2 MSTORE PUSH1 0x4 ADD PUSH2 0x4AE SWAP1 PUSH2 0x125D JUMP JUMPDEST PUSH1 0x40 MLOAD DUP1 SWAP2 SUB SWAP1 REVERT JUMPDEST PUSH1 0x32 DUP2 LT ISZERO PUSH2 0x4FB JUMPI PUSH1 0x40 MLOAD PUSH32 0x8C379A000000000000000000000000000000000000000000000000000000000 DUP2 MSTORE PUSH1 0x4 ADD PUSH2 0x4F2 SWAP1 PUSH2 0x12EB JUMP JUMPDEST PUSH1 0x40 MLOAD DUP1 SWAP2 SUB SWAP1 REVERT JUMPDEST PUSH1 0x1 DUP4 LT ISZERO PUSH2 0x53F JUMPI PUSH1 0x40 MLOAD PUSH32 0x8C379A000000000000000000000000000000000000000000000000000000000 DUP2 MSTORE PUSH1 0x4 ADD PUSH2 0x536 SWAP1 PUSH2 0x1379 JUMP JUMPDEST PUSH1 0x40 MLOAD DUP1 SWAP2 SUB SWAP1 REVERT JUMPDEST DUP6 PUSH1 0x5 PUSH0 PUSH2 0x100 EXP DUP2 SLOAD DUP2 PUSH20 0xFFFFFFFFFFFFFFFFFFFFFFFFFFFFFFFFFFFFFFFF MUL NOT AND SWAP1 DUP4 PUSH20 0xFFFFFFFFFFFFFFFFFFFFFFFFFFFFFFFFFFFFFFFF AND MUL OR SWAP1 SSTORE POP DUP5 PUSH1 0x6 DUP2 SWAP1 SSTORE POP DUP4 PUSH1 0x9 DUP2 SWAP1 SSTORE POP DUP1 PUSH1 0x7 DUP2 SWAP1 SSTORE POP DUP2 PUSH1 0x8 DUP2 SWAP1 SSTORE POP DUP3 PUSH1 0xA DUP2 SWAP1 SSTORE POP PUSH0 PUSH1 0x11 PUSH0 PUSH2 0x100 EXP DUP2 SLOAD DUP2 PUSH1 0xFF MUL NOT AND SWAP1 DUP4 ISZERO ISZERO MUL OR SWAP1 SSTORE POP PUSH1 0x1 PUSH1 0x11 PUSH1 0x1 PUSH2 0x100 EXP DUP2 SLOAD DUP2 PUSH1 0xFF MUL NOT AND SWAP1 DUP4 ISZERO ISZERO MUL OR SWAP1 SSTORE POP PUSH32 0xAFD765BA31F9A5A1BDC5E1A2CE2079ECD6FCDCD9A80562B4D4002C050445178B DUP7 PUSH1 0x6 SLOAD PUSH1 0xE SLOAD DUP8 DUP8 PUSH1 0x40 MLOAD PUSH2 0x611 SWAP6 SWAP5 SWAP4 SWAP3 SWAP2 SWAP1 PUSH2 0x1397 JUMP JUMPDEST PUSH1 0x40 MLOAD DUP1 SWAP2 SUB SWAP1 LOG1 POP POP POP POP POP POP JUMP JUMPDEST PUSH1 0xE SLOAD DUP2 JUMP JUMPDEST PUSH2 0x62F PUSH2 0xCCA JUMP JUMPDEST PUSH2 0x638 PUSH0 PUSH2 0xD48 JUMP JUMPDEST JUMP JUMPDEST PUSH2 0x2710 PUSH2 0x1F40 PUSH1 0xF SLOAD PUSH2 0x64D SWAP2 SWAP1 PUSH2 0x1415 JUMP JUMPDEST PUSH2 0x657 SWAP2 SWAP1 PUSH2 0x1483 JUMP JUMPDEST DUP2 LT ISZERO PUSH2 0x699 JUMPI PUSH1 0x40 MLOAD PUSH32 0x8C379A000000000000000000000000000000000000000000000000000000000 DUP2 MSTORE PUSH1 0x4 ADD PUSH2 0x690 SWAP1 PUSH2 0x1523 JUMP JUMPDEST PUSH1 0x40 MLOAD DUP1 SWAP2 SUB SWAP1 REVERT JUMPDEST DUP1 PUSH1 0xD PUSH0 DUP3 DUP3 SLOAD PUSH2 0x6AA SWAP2 SWAP1 PUSH2 0x1541 JUMP JUMPDEST SWAP3 POP POP DUP2 SWAP1 SSTORE POP PUSH1 0x1 PUSH1 0xA PUSH0 DUP3 DUP3 SLOAD PUSH2 0x6C3 SWAP2 SWAP1 PUSH2 0x1541 JUMP JUMPDEST SWAP3 POP POP DUP2 SWAP1 SSTORE POP DUP1 PUSH1 0x1 PUSH0 DUP5 PUSH20 0xFFFFFFFFFFFFFFFFFFFFFFFFFFFFFFFFFFFFFFFF AND PUSH20 0xFFFFFFFFFFFFFFFFFFFFFFFFFFFFFFFFFFFFFFFF AND DUP2 MSTORE PUSH1 0x20 ADD SWAP1 DUP2 MSTORE PUSH1 0x20 ADD PUSH0 KECCAK256 PUSH0 DUP3 DUP3 SLOAD PUSH2 0x716 SWAP2 SWAP1 PUSH2 0x1574 JUMP JUMPDEST SWAP3 POP POP DUP2 SWAP1 SSTORE POP POP POP JUMP JUMPDEST PUSH1 0x2 PUSH1 0x20 MSTORE DUP1 PUSH0 MSTORE PUSH1 0x40 PUSH0 KECCAK256 PUSH0 SWAP2 POP SWAP1 POP SLOAD DUP2 JUMP JUMPDEST PUSH1 0x11 PUSH1 0x1 SWAP1 SLOAD SWAP1 PUSH2 0x100 EXP SWAP1 DIV PUSH1 0xFF AND PUSH2 0x785 JUMPI PUSH1 0x40 MLOAD PUSH32 0x8C379A000000000000000000000000000000000000000000000000000000000 DUP2 MSTORE PUSH1 0x4 ADD PUSH2 0x77C SWAP1 PUSH2 0x15F1 JUMP JUMPDEST PUSH1 0x40 MLOAD DUP1 SWAP2 SUB SWAP1 REVERT JUMPDEST PUSH0 DUP2 LT ISZERO PUSH2 0x7C8 JUMPI PUSH1 0x40 MLOAD PUSH32 0x8C379A000000000000000000000000000000000000000000000000000000000 DUP2 MSTORE PUSH1 0x4 ADD PUSH2 0x7BF SWAP1 PUSH2 0x167F JUMP JUMPDEST PUSH1 0x40 MLOAD DUP1 SWAP2 SUB SWAP1 REVERT JUMPDEST PUSH1 0x6 SLOAD PUSH1 0xB SLOAD DUP3 PUSH2 0x7D9 SWAP2 SWAP1 PUSH2 0x1574 JUMP JUMPDEST GT ISZERO PUSH2 0x81A JUMPI PUSH1 0x40 MLOAD PUSH32 0x8C379A000000000000000000000000000000000000000000000000000000000 DUP2 MSTORE PUSH1 0x4 ADD PUSH2 0x811 SWAP1 PUSH2 0x170D JUMP JUMPDEST PUSH1 0x40 MLOAD DUP1 SWAP2 SUB SWAP1 REVERT JUMPDEST PUSH0 CALLER SWAP1 POP DUP2 DUP2 PUSH20 0xFFFFFFFFFFFFFFFFFFFFFFFFFFFFFFFFFFFFFFFF AND PUSH4 0x70A08231 CALLER PUSH1 0x40 MLOAD DUP3 PUSH4 0xFFFFFFFF AND PUSH1 0xE0 SHL DUP2 MSTORE PUSH1 0x4 ADD PUSH2 0x858 SWAP2 SWAP1 PUSH2 0xF37 JUMP JUMPDEST PUSH1 0x20 PUSH1 0x40 MLOAD DUP1 DUP4 SUB DUP2 DUP7 GAS STATICCALL ISZERO DUP1 ISZERO PUSH2 0x873 JUMPI RETURNDATASIZE PUSH0 DUP1 RETURNDATACOPY RETURNDATASIZE PUSH0 REVERT JUMPDEST POP POP POP POP PUSH1 0x40 MLOAD RETURNDATASIZE PUSH1 0x1F NOT PUSH1 0x1F DUP3 ADD AND DUP3 ADD DUP1 PUSH1 0x40 MSTORE POP DUP2 ADD SWAP1 PUSH2 0x897 SWAP2 SWAP1 PUSH2 0x173F JUMP JUMPDEST LT ISZERO PUSH2 0x8D8 JUMPI PUSH1 0x40 MLOAD PUSH32 0x8C379A000000000000000000000000000000000000000000000000000000000 DUP2 MSTORE PUSH1 0x4 ADD PUSH2 0x8CF SWAP1 PUSH2 0x17B4 JUMP JUMPDEST PUSH1 0x40 MLOAD DUP1 SWAP2 SUB SWAP1 REVERT JUMPDEST DUP2 PUSH1 0xB PUSH0 DUP3 DUP3 SLOAD PUSH2 0x8E9 SWAP2 SWAP1 PUSH2 0x1574 JUMP JUMPDEST SWAP3 POP POP DUP2 SWAP1 SSTORE POP PUSH0 PUSH1 0x3 SLOAD PUSH1 0x7 SLOAD DUP5 PUSH2 0x902 SWAP2 SWAP1 PUSH2 0x1415 JUMP JUMPDEST PUSH2 0x90C SWAP2 SWAP1 PUSH2 0x1483 JUMP JUMPDEST SWAP1 POP PUSH0 PUSH1 0x3 SLOAD PUSH1 0x4 SLOAD PUSH1 0xA SLOAD PUSH1 0x9 SLOAD PUSH2 0x925 SWAP2 SWAP1 PUSH2 0x1415 JUMP JUMPDEST PUSH2 0x92F SWAP2 SWAP1 PUSH2 0x1483 JUMP JUMPDEST PUSH2 0x2710 PUSH2 0x93C SWAP2 SWAP1 PUSH2 0x1574 JUMP JUMPDEST DUP4 PUSH2 0x947 SWAP2 SWAP1 PUSH2 0x1415 JUMP JUMPDEST PUSH2 0x951 SWAP2 SWAP1 PUSH2 0x1483 JUMP JUMPDEST SWAP1 POP PUSH0 PUSH1 0x3 SLOAD PUSH1 0x4 SLOAD PUSH1 0xA SLOAD PUSH1 0x8 SLOAD PUSH2 0x96A SWAP2 SWAP1 PUSH2 0x1415 JUMP JUMPDEST PUSH2 0x974 SWAP2 SWAP1 PUSH2 0x1483 JUMP JUMPDEST DUP7 PUSH2 0x97F SWAP2 SWAP1 PUSH2 0x1415 JUMP JUMPDEST PUSH2 0x989 SWAP2 SWAP1 PUSH2 0x1483 JUMP JUMPDEST SWAP1 POP DUP2 DUP2 PUSH2 0x997 SWAP2 SWAP1 PUSH2 0x1574 JUMP JUMPDEST PUSH1 0xE PUSH0 DUP3 DUP3 SLOAD PUSH2 0x9A7 SWAP2 SWAP1 PUSH2 0x1574 JUMP JUMPDEST SWAP3 POP POP DUP2 SWAP1 SSTORE POP PUSH0 PUSH1 0x3 SLOAD PUSH1 0x4 SLOAD PUSH1 0xA SLOAD PUSH1 0x8 SLOAD PUSH1 0x9 SLOAD PUSH2 0x9C8 SWAP2 SWAP1 PUSH2 0x1541 JUMP JUMPDEST PUSH2 0x9D2 SWAP2 SWAP1 PUSH2 0x1415 JUMP JUMPDEST PUSH2 0x9DC SWAP2 SWAP1 PUSH2 0x1483 JUMP JUMPDEST PUSH2 0x2710 PUSH2 0x9E9 SWAP2 SWAP1 PUSH2 0x1574 JUMP JUMPDEST DUP8 PUSH2 0x9F4 SWAP2 SWAP1 PUSH2 0x1415 JUMP JUMPDEST PUSH2 0x9FE SWAP2 SWAP1 PUSH2 0x1483 JUMP JUMPDEST SWAP1 POP DUP1 PUSH1 0xC PUSH0 DUP3 DUP3 SLOAD PUSH2 0xA11 SWAP2 SWAP1 PUSH2 0x1574 JUMP JUMPDEST SWAP3 POP POP DUP2 SWAP1 SSTORE POP PUSH1 0xC SLOAD PUSH1 0xE SLOAD PUSH2 0xA28 SWAP2 SWAP1 PUSH2 0x1574 JUMP JUMPDEST PUSH1 0xD DUP2 SWAP1 SSTORE POP PUSH1 0xA SLOAD PUSH1 0xD SLOAD PUSH2 0xA3E SWAP2 SWAP1 PUSH2 0x1483 JUMP JUMPDEST PUSH1 0xF PUSH0 DUP3 DUP3 SLOAD PUSH2 0xA4E SWAP2 SWAP1 PUSH2 0x1574 JUMP JUMPDEST SWAP3 POP POP DUP2 SWAP1 SSTORE POP PUSH1 0x1 PUSH1 0x10 PUSH0 DUP3 DUP3 SLOAD PUSH2 0xA67 SWAP2 SWAP1 PUSH2 0x1574 JUMP JUMPDEST SWAP3 POP POP DUP2 SWAP1 SSTORE POP DUP6 PUSH1 0x1 PUSH0 CALLER PUSH20 0xFFFFFFFFFFFFFFFFFFFFFFFFFFFFFFFFFFFFFFFF AND PUSH20 0xFFFFFFFFFFFFFFFFFFFFFFFFFFFFFFFFFFFFFFFF AND DUP2 MSTORE PUSH1 0x20 ADD SWAP1 DUP2 MSTORE PUSH1 0x20 ADD PUSH0 KECCAK256 PUSH0 DUP3 DUP3 SLOAD PUSH2 0xABA SWAP2 SWAP1 PUSH2 0x1574 JUMP JUMPDEST SWAP3 POP POP DUP2 SWAP1 SSTORE POP PUSH1 0x10 SLOAD PUSH1 0x2 PUSH0 CALLER PUSH20 0xFFFFFFFFFFFFFFFFFFFFFFFFFFFFFFFFFFFFFFFF AND PUSH20 0xFFFFFFFFFFFFFFFFFFFFFFFFFFFFFFFFFFFFFFFF AND DUP2 MSTORE PUSH1 0x20 ADD SWAP1 DUP2 MSTORE PUSH1 0x20 ADD PUSH0 KECCAK256 DUP2 SWAP1 SSTORE POP DUP5 PUSH20 0xFFFFFFFFFFFFFFFFFFFFFFFFFFFFFFFFFFFFFFFF AND PUSH4 0xA9059CBB ADDRESS DUP9 PUSH1 0x40 MLOAD DUP4 PUSH4 0xFFFFFFFF AND PUSH1 0xE0 SHL DUP2 MSTORE PUSH1 0x4 ADD PUSH2 0xB40 SWAP3 SWAP2 SWAP1 PUSH2 0x17D2 JUMP JUMPDEST PUSH1 0x20 PUSH1 0x40 MLOAD DUP1 DUP4 SUB DUP2 PUSH0 DUP8 GAS CALL ISZERO DUP1 ISZERO PUSH2 0xB5C JUMPI RETURNDATASIZE PUSH0 DUP1 RETURNDATACOPY RETURNDATASIZE PUSH0 REVERT JUMPDEST POP POP POP POP PUSH1 0x40 MLOAD RETURNDATASIZE PUSH1 0x1F NOT PUSH1 0x1F DUP3 ADD AND DUP3 ADD DUP1 PUSH1 0x40 MSTORE POP DUP2 ADD SWAP1 PUSH2 0xB80 SWAP2 SWAP1 PUSH2 0x1823 JUMP JUMPDEST POP PUSH2 0xBAD CALLER PUSH1 0x5 PUSH0 SWAP1 SLOAD SWAP1 PUSH2 0x100 EXP SWAP1 DIV PUSH20 0xFFFFFFFFFFFFFFFFFFFFFFFFFFFFFFFFFFFFFFFF AND DUP9 PUSH2 0xE0B JUMP JUMPDEST PUSH32 0xDDF252AD1BE2C89B69C2B068FC378DAA952BA7F163C4A11628F55A4DF523B3EF PUSH0 CALLER DUP9 PUSH1 0x40 MLOAD PUSH2 0xBE0 SWAP4 SWAP3 SWAP2 SWAP1 PUSH2 0x184E JUMP JUMPDEST PUSH1 0x40 MLOAD DUP1 SWAP2 SUB SWAP1 LOG1 POP POP POP POP POP POP JUMP JUMPDEST PUSH1 0x6 SLOAD DUP2 JUMP JUMPDEST PUSH0 DUP1 PUSH1 0x2 SWAP1 SLOAD SWAP1 PUSH2 0x100 EXP SWAP1 DIV PUSH20 0xFFFFFFFFFFFFFFFFFFFFFFFFFFFFFFFFFFFFFFFF AND SWAP1 POP SWAP1 JUMP JUMPDEST PUSH1 0xD SLOAD DUP2 JUMP JUMPDEST PUSH1 0xC SLOAD DUP2 JUMP JUMPDEST PUSH1 0x11 PUSH0 SWAP1 SLOAD SWAP1 PUSH2 0x100 EXP SWAP1 DIV PUSH1 0xFF AND DUP2 JUMP JUMPDEST PUSH1 0x8 SLOAD DUP2 JUMP JUMPDEST PUSH1 0xF SLOAD DUP2 JUMP JUMPDEST PUSH2 0xC50 PUSH2 0xCCA JUMP JUMPDEST PUSH0 PUSH20 0xFFFFFFFFFFFFFFFFFFFFFFFFFFFFFFFFFFFFFFFF AND DUP2 PUSH20 0xFFFFFFFFFFFFFFFFFFFFFFFFFFFFFFFFFFFFFFFF AND SUB PUSH2 0xCBE JUMPI PUSH1 0x40 MLOAD PUSH32 0x8C379A000000000000000000000000000000000000000000000000000000000 DUP2 MSTORE PUSH1 0x4 ADD PUSH2 0xCB5 SWAP1 PUSH2 0x18F3 JUMP JUMPDEST PUSH1 0x40 MLOAD DUP1 SWAP2 SUB SWAP1 REVERT JUMPDEST PUSH2 0xCC7 DUP2 PUSH2 0xD48 JUMP JUMPDEST POP JUMP JUMPDEST PUSH2 0xCD2 PUSH2 0xEF1 JUMP JUMPDEST PUSH20 0xFFFFFFFFFFFFFFFFFFFFFFFFFFFFFFFFFFFFFFFF AND PUSH2 0xCF0 PUSH2 0xBF6 JUMP JUMPDEST PUSH20 0xFFFFFFFFFFFFFFFFFFFFFFFFFFFFFFFFFFFFFFFF AND EQ PUSH2 0xD46 JUMPI PUSH1 0x40 MLOAD PUSH32 0x8C379A000000000000000000000000000000000000000000000000000000000 DUP2 MSTORE PUSH1 0x4 ADD PUSH2 0xD3D SWAP1 PUSH2 0x195B JUMP JUMPDEST PUSH1 0x40 MLOAD DUP1 SWAP2 SUB SWAP1 REVERT JUMPDEST JUMP JUMPDEST PUSH0 DUP1 PUSH1 0x2 SWAP1 SLOAD SWAP1 PUSH2 0x100 EXP SWAP1 DIV PUSH20 0xFFFFFFFFFFFFFFFFFFFFFFFFFFFFFFFFFFFFFFFF AND SWAP1 POP DUP2 PUSH0 PUSH1 0x2 PUSH2 0x100 EXP DUP2 SLOAD DUP2 PUSH20 0xFFFFFFFFFFFFFFFFFFFFFFFFFFFFFFFFFFFFFFFF MUL NOT AND SWAP1 DUP4 PUSH20 0xFFFFFFFFFFFFFFFFFFFFFFFFFFFFFFFFFFFFFFFF AND MUL OR SWAP1 SSTORE POP DUP2 PUSH20 0xFFFFFFFFFFFFFFFFFFFFFFFFFFFFFFFFFFFFFFFF AND DUP2 PUSH20 0xFFFFFFFFFFFFFFFFFFFFFFFFFFFFFFFFFFFFFFFF AND PUSH32 0x8BE0079C531659141344CD1FD0A4F28419497F9722A3DAAFE3B4186F6B6457E0 PUSH1 0x40 MLOAD PUSH1 0x40 MLOAD DUP1 SWAP2 SUB SWAP1 LOG3 POP POP JUMP JUMPDEST DUP1 PUSH1 0x1 PUSH0 DUP6 PUSH20 0xFFFFFFFFFFFFFFFFFFFFFFFFFFFFFFFFFFFFFFFF AND PUSH20 0xFFFFFFFFFFFFFFFFFFFFFFFFFFFFFFFFFFFFFFFF AND DUP2 MSTORE PUSH1 0x20 ADD SWAP1 DUP2 MSTORE PUSH1 0x20 ADD PUSH0 KECCAK256 PUSH0 DUP3 DUP3 SLOAD PUSH2 0xE57 SWAP2 SWAP1 PUSH2 0x1541 JUMP JUMPDEST SWAP3 POP POP DUP2 SWAP1 SSTORE POP DUP1 PUSH1 0x1 PUSH0 DUP5 PUSH20 0xFFFFFFFFFFFFFFFFFFFFFFFFFFFFFFFFFFFFFFFF AND PUSH20 0xFFFFFFFFFFFFFFFFFFFFFFFFFFFFFFFFFFFFFFFF AND DUP2 MSTORE PUSH1 0x20 ADD SWAP1 DUP2 MSTORE PUSH1 0x20 ADD PUSH0 KECCAK256 PUSH0 DUP3 DUP3 SLOAD PUSH2 0xEAA SWAP2 SWAP1 PUSH2 0x1574 JUMP JUMPDEST SWAP3 POP POP DUP2 SWAP1 SSTORE POP PUSH32 0xDDF252AD1BE2C89B69C2B068FC378DAA952BA7F163C4A11628F55A4DF523B3EF DUP4 DUP4 DUP4 PUSH1 0x40 MLOAD PUSH2 0xEE4 SWAP4 SWAP3 SWAP2 SWAP1 PUSH2 0x184E JUMP JUMPDEST PUSH1 0x40 MLOAD DUP1 SWAP2 SUB SWAP1 LOG1 POP POP POP JUMP JUMPDEST PUSH0 CALLER SWAP1 POP SWAP1 JUMP JUMPDEST PUSH0 PUSH20 0xFFFFFFFFFFFFFFFFFFFFFFFFFFFFFFFFFFFFFFFF DUP3 AND SWAP1 POP SWAP2 SWAP1 POP JUMP JUMPDEST PUSH0 PUSH2 0xF21 DUP3 PUSH2 0xEF8 JUMP JUMPDEST SWAP1 POP SWAP2 SWAP1 POP JUMP JUMPDEST PUSH2 0xF31 DUP2 PUSH2 0xF17 JUMP JUMPDEST DUP3 MSTORE POP POP JUMP JUMPDEST PUSH0 PUSH1 0x20 DUP3 ADD SWAP1 POP PUSH2 0xF4A PUSH0 DUP4 ADD DUP5 PUSH2 0xF28 JUMP JUMPDEST SWAP3 SWAP2 POP POP JUMP JUMPDEST PUSH0 DUP2 ISZERO ISZERO SWAP1 POP SWAP2 SWAP1 POP JUMP JUMPDEST PUSH2 0xF64 DUP2 PUSH2 0xF50 JUMP JUMPDEST DUP3 MSTORE POP POP JUMP JUMPDEST PUSH0 PUSH1 0x20 DUP3 ADD SWAP1 POP PUSH2 0xF7D PUSH0 DUP4 ADD DUP5 PUSH2 0xF5B JUMP JUMPDEST SWAP3 SWAP2 POP POP JUMP JUMPDEST PUSH0 DUP2 SWAP1 POP SWAP2 SWAP1 POP JUMP JUMPDEST PUSH2 0xF95 DUP2 PUSH2 0xF83 JUMP JUMPDEST DUP3 MSTORE POP POP JUMP JUMPDEST PUSH0 PUSH1 0x20 DUP3 ADD SWAP1 POP PUSH2 0xFAE PUSH0 DUP4 ADD DUP5 PUSH2 0xF8C JUMP JUMPDEST SWAP3 SWAP2 POP POP JUMP JUMPDEST PUSH0 DUP1 REVERT JUMPDEST PUSH2 0xFC1 DUP2 PUSH2 0xF17 JUMP JUMPDEST DUP2 EQ PUSH2 0xFCB JUMPI PUSH0 DUP1 REVERT JUMPDEST POP JUMP JUMPDEST PUSH0 DUP2 CALLDATALOAD SWAP1 POP PUSH2 0xFDC DUP2 PUSH2 0xFB8 JUMP JUMPDEST SWAP3 SWAP2 POP POP JUMP JUMPDEST PUSH0 PUSH1 0x20 DUP3 DUP5 SUB SLT ISZERO PUSH2 0xFF7 JUMPI PUSH2 0xFF6 PUSH2 0xFB4 JUMP JUMPDEST JUMPDEST PUSH0 PUSH2 0x1004 DUP5 DUP3 DUP6 ADD PUSH2 0xFCE JUMP JUMPDEST SWAP2 POP POP SWAP3 SWAP2 POP POP JUMP JUMPDEST PUSH2 0x1016 DUP2 PUSH2 0xF83 JUMP JUMPDEST DUP2 EQ PUSH2 0x1020 JUMPI PUSH0 DUP1 REVERT JUMPDEST POP JUMP JUMPDEST PUSH0 DUP2 CALLDATALOAD SWAP1 POP PUSH2 0x1031 DUP2 PUSH2 0x100D JUMP JUMPDEST SWAP3 SWAP2 POP POP JUMP JUMPDEST PUSH0 DUP1 PUSH0 DUP1 PUSH0 DUP1 PUSH1 0xC0 DUP8 DUP10 SUB SLT ISZERO PUSH2 0x1051 JUMPI PUSH2 0x1050 PUSH2 0xFB4 JUMP JUMPDEST JUMPDEST PUSH0 PUSH2 0x105E DUP10 DUP3 DUP11 ADD PUSH2 0xFCE JUMP JUMPDEST SWAP7 POP POP PUSH1 0x20 PUSH2 0x106F DUP10 DUP3 DUP11 ADD PUSH2 0x1023 JUMP JUMPDEST SWAP6 POP POP PUSH1 0x40 PUSH2 0x1080 DUP10 DUP3 DUP11 ADD PUSH2 0x1023 JUMP JUMPDEST SWAP5 POP POP PUSH1 0x60 PUSH2 0x1091 DUP10 DUP3 DUP11 ADD PUSH2 0x1023 JUMP JUMPDEST SWAP4 POP POP PUSH1 0x80 PUSH2 0x10A2 DUP10 DUP3 DUP11 ADD PUSH2 0x1023 JUMP JUMPDEST SWAP3 POP POP PUSH1 0xA0 PUSH2 0x10B3 DUP10 DUP3 DUP11 ADD PUSH2 0x1023 JUMP JUMPDEST SWAP2 POP POP SWAP3 SWAP6 POP SWAP3 SWAP6 POP SWAP3 SWAP6 JUMP JUMPDEST PUSH0 DUP1 PUSH1 0x40 DUP4 DUP6 SUB SLT ISZERO PUSH2 0x10D6 JUMPI PUSH2 0x10D5 PUSH2 0xFB4 JUMP JUMPDEST JUMPDEST PUSH0 PUSH2 0x10E3 DUP6 DUP3 DUP7 ADD PUSH2 0xFCE JUMP JUMPDEST SWAP3 POP POP PUSH1 0x20 PUSH2 0x10F4 DUP6 DUP3 DUP7 ADD PUSH2 0x1023 JUMP JUMPDEST SWAP2 POP POP SWAP3 POP SWAP3 SWAP1 POP JUMP JUMPDEST PUSH0 PUSH1 0x20 DUP3 DUP5 SUB SLT ISZERO PUSH2 0x1113 JUMPI PUSH2 0x1112 PUSH2 0xFB4 JUMP JUMPDEST JUMPDEST PUSH0 PUSH2 0x1120 DUP5 DUP3 DUP6 ADD PUSH2 0x1023 JUMP JUMPDEST SWAP2 POP POP SWAP3 SWAP2 POP POP JUMP JUMPDEST PUSH0 DUP3 DUP3 MSTORE PUSH1 0x20 DUP3 ADD SWAP1 POP SWAP3 SWAP2 POP POP JUMP JUMPDEST PUSH32 0x546865206C656E64696E672072617465206D757374206265206174206C656173 PUSH0 DUP3 ADD MSTORE PUSH32 0x7420313020426173697320506F696E742028302E312529000000000000000000 PUSH1 0x20 DUP3 ADD MSTORE POP JUMP JUMPDEST PUSH0 PUSH2 0x1193 PUSH1 0x37 DUP4 PUSH2 0x1129 JUMP JUMPDEST SWAP2 POP PUSH2 0x119E DUP3 PUSH2 0x1139 JUMP JUMPDEST PUSH1 0x40 DUP3 ADD SWAP1 POP SWAP2 SWAP1 POP JUMP JUMPDEST PUSH0 PUSH1 0x20 DUP3 ADD SWAP1 POP DUP2 DUP2 SUB PUSH0 DUP4 ADD MSTORE PUSH2 0x11C0 DUP2 PUSH2 0x1187 JUMP JUMPDEST SWAP1 POP SWAP2 SWAP1 POP JUMP JUMPDEST PUSH32 0x4665652050617961626C6520666F72205065657252617465206D757374206265 PUSH0 DUP3 ADD MSTORE PUSH32 0x206C657373207468616E206C656E64696E672072617465206F66666572656420 PUSH1 0x20 DUP3 ADD MSTORE PUSH32 0x616E64206174206C656173742034302042502028302E34252900000000000000 PUSH1 0x40 DUP3 ADD MSTORE POP JUMP JUMPDEST PUSH0 PUSH2 0x1247 PUSH1 0x59 DUP4 PUSH2 0x1129 JUMP JUMPDEST SWAP2 POP PUSH2 0x1252 DUP3 PUSH2 0x11C7 JUMP JUMPDEST PUSH1 0x60 DUP3 ADD SWAP1 POP SWAP2 SWAP1 POP JUMP JUMPDEST PUSH0 PUSH1 0x20 DUP3 ADD SWAP1 POP DUP2 DUP2 SUB PUSH0 DUP4 ADD MSTORE PUSH2 0x1274 DUP2 PUSH2 0x123B JUMP JUMPDEST SWAP1 POP SWAP2 SWAP1 POP JUMP JUMPDEST PUSH32 0x4F726967696E6174696F6E20666565206D757374206265206174206C65617374 PUSH0 DUP3 ADD MSTORE PUSH32 0x2035302042502028302E35252900000000000000000000000000000000000000 PUSH1 0x20 DUP3 ADD MSTORE POP JUMP JUMPDEST PUSH0 PUSH2 0x12D5 PUSH1 0x2D DUP4 PUSH2 0x1129 JUMP JUMPDEST SWAP2 POP PUSH2 0x12E0 DUP3 PUSH2 0x127B JUMP JUMPDEST PUSH1 0x40 DUP3 ADD SWAP1 POP SWAP2 SWAP1 POP JUMP JUMPDEST PUSH0 PUSH1 0x20 DUP3 ADD SWAP1 POP DUP2 DUP2 SUB PUSH0 DUP4 ADD MSTORE PUSH2 0x1302 DUP2 PUSH2 0x12C9 JUMP JUMPDEST SWAP1 POP SWAP2 SWAP1 POP JUMP JUMPDEST PUSH32 0x546865206C6F616E20706572696F64206D757374206265206174206C65617374 PUSH0 DUP3 ADD MSTORE PUSH32 0x2031204D6F6E7468000000000000000000000000000000000000000000000000 PUSH1 0x20 DUP3 ADD MSTORE POP JUMP JUMPDEST PUSH0 PUSH2 0x1363 PUSH1 0x28 DUP4 PUSH2 0x1129 JUMP JUMPDEST SWAP2 POP PUSH2 0x136E DUP3 PUSH2 0x1309 JUMP JUMPDEST PUSH1 0x40 DUP3 ADD SWAP1 POP SWAP2 SWAP1 POP JUMP JUMPDEST PUSH0 PUSH1 0x20 DUP3 ADD SWAP1 POP DUP2 DUP2 SUB PUSH0 DUP4 ADD MSTORE PUSH2 0x1390 DUP2 PUSH2 0x1357 JUMP JUMPDEST SWAP1 POP SWAP2 SWAP1 POP JUMP JUMPDEST PUSH0 PUSH1 0xA0 DUP3 ADD SWAP1 POP PUSH2 0x13AA PUSH0 DUP4 ADD DUP9 PUSH2 0xF28 JUMP JUMPDEST PUSH2 0x13B7 PUSH1 0x20 DUP4 ADD DUP8 PUSH2 0xF8C JUMP JUMPDEST PUSH2 0x13C4 PUSH1 0x40 DUP4 ADD DUP7 PUSH2 0xF8C JUMP JUMPDEST PUSH2 0x13D1 PUSH1 0x60 DUP4 ADD DUP6 PUSH2 0xF8C JUMP JUMPDEST PUSH2 0x13DE PUSH1 0x80 DUP4 ADD DUP5 PUSH2 0xF8C JUMP JUMPDEST SWAP7 SWAP6 POP POP POP POP POP POP JUMP JUMPDEST PUSH32 0x4E487B7100000000000000000000000000000000000000000000000000000000 PUSH0 MSTORE PUSH1 0x11 PUSH1 0x4 MSTORE PUSH1 0x24 PUSH0 REVERT JUMPDEST PUSH0 PUSH2 0x141F DUP3 PUSH2 0xF83 JUMP JUMPDEST SWAP2 POP PUSH2 0x142A DUP4 PUSH2 0xF83 JUMP JUMPDEST SWAP3 POP DUP3 DUP3 MUL PUSH2 0x1438 DUP2 PUSH2 0xF83 JUMP JUMPDEST SWAP2 POP DUP3 DUP3 DIV DUP5 EQ DUP4 ISZERO OR PUSH2 0x144F JUMPI PUSH2 0x144E PUSH2 0x13E8 JUMP JUMPDEST JUMPDEST POP SWAP3 SWAP2 POP POP JUMP JUMPDEST PUSH32 0x4E487B7100000000000000000000000000000000000000000000000000000000 PUSH0 MSTORE PUSH1 0x12 PUSH1 0x4 MSTORE PUSH1 0x24 PUSH0 REVERT JUMPDEST PUSH0 PUSH2 0x148D DUP3 PUSH2 0xF83 JUMP JUMPDEST SWAP2 POP PUSH2 0x1498 DUP4 PUSH2 0xF83 JUMP JUMPDEST SWAP3 POP DUP3 PUSH2 0x14A8 JUMPI PUSH2 0x14A7 PUSH2 0x1456 JUMP JUMPDEST JUMPDEST DUP3 DUP3 DIV SWAP1 POP SWAP3 SWAP2 POP POP JUMP JUMPDEST PUSH32 0x506C6561736520706179206174206C6561737420383025206F66207468652072 PUSH0 DUP3 ADD MSTORE PUSH32 0x6571756972656420616D6F756E74000000000000000000000000000000000000 PUSH1 0x20 DUP3 ADD MSTORE POP JUMP JUMPDEST PUSH0 PUSH2 0x150D PUSH1 0x2E DUP4 PUSH2 0x1129 JUMP JUMPDEST SWAP2 POP PUSH2 0x1518 DUP3 PUSH2 0x14B3 JUMP JUMPDEST PUSH1 0x40 DUP3 ADD SWAP1 POP SWAP2 SWAP1 POP JUMP JUMPDEST PUSH0 PUSH1 0x20 DUP3 ADD SWAP1 POP DUP2 DUP2 SUB PUSH0 DUP4 ADD MSTORE PUSH2 0x153A DUP2 PUSH2 0x1501 JUMP JUMPDEST SWAP1 POP SWAP2 SWAP1 POP JUMP JUMPDEST PUSH0 PUSH2 0x154B DUP3 PUSH2 0xF83 JUMP JUMPDEST SWAP2 POP PUSH2 0x1556 DUP4 PUSH2 0xF83 JUMP JUMPDEST SWAP3 POP DUP3 DUP3 SUB SWAP1 POP DUP2 DUP2 GT ISZERO PUSH2 0x156E JUMPI PUSH2 0x156D PUSH2 0x13E8 JUMP JUMPDEST JUMPDEST SWAP3 SWAP2 POP POP JUMP JUMPDEST PUSH0 PUSH2 0x157E DUP3 PUSH2 0xF83 JUMP JUMPDEST SWAP2 POP PUSH2 0x1589 DUP4 PUSH2 0xF83 JUMP JUMPDEST SWAP3 POP DUP3 DUP3 ADD SWAP1 POP DUP1 DUP3 GT ISZERO PUSH2 0x15A1 JUMPI PUSH2 0x15A0 PUSH2 0x13E8 JUMP JUMPDEST JUMPDEST SWAP3 SWAP2 POP POP JUMP JUMPDEST PUSH32 0x546865206C6F616E206973206E6F742063726561746564000000000000000000 PUSH0 DUP3 ADD MSTORE POP JUMP JUMPDEST PUSH0 PUSH2 0x15DB PUSH1 0x17 DUP4 PUSH2 0x1129 JUMP JUMPDEST SWAP2 POP PUSH2 0x15E6 DUP3 PUSH2 0x15A7 JUMP JUMPDEST PUSH1 0x20 DUP3 ADD SWAP1 POP SWAP2 SWAP1 POP JUMP JUMPDEST PUSH0 PUSH1 0x20 DUP3 ADD SWAP1 POP DUP2 DUP2 SUB PUSH0 DUP4 ADD MSTORE PUSH2 0x1608 DUP2 PUSH2 0x15CF JUMP JUMPDEST SWAP1 POP SWAP2 SWAP1 POP JUMP JUMPDEST PUSH32 0x20506C6561736520696E7665737420696E20746865206C6F616E206D6F726520 PUSH0 DUP3 ADD MSTORE PUSH32 0x7468616E20310000000000000000000000000000000000000000000000000000 PUSH1 0x20 DUP3 ADD MSTORE POP JUMP JUMPDEST PUSH0 PUSH2 0x1669 PUSH1 0x26 DUP4 PUSH2 0x1129 JUMP JUMPDEST SWAP2 POP PUSH2 0x1674 DUP3 PUSH2 0x160F JUMP JUMPDEST PUSH1 0x40 DUP3 ADD SWAP1 POP SWAP2 SWAP1 POP JUMP JUMPDEST PUSH0 PUSH1 0x20 DUP3 ADD SWAP1 POP DUP2 DUP2 SUB PUSH0 DUP4 ADD MSTORE PUSH2 0x1696 DUP2 PUSH2 0x165D JUMP JUMPDEST SWAP1 POP SWAP2 SWAP1 POP JUMP JUMPDEST PUSH32 0x596F75206861766520657863656564656420746865206D6178696D756D207072 PUSH0 DUP3 ADD MSTORE PUSH32 0x696E636970616C206F6620746865206C6F616E00000000000000000000000000 PUSH1 0x20 DUP3 ADD MSTORE POP JUMP JUMPDEST PUSH0 PUSH2 0x16F7 PUSH1 0x33 DUP4 PUSH2 0x1129 JUMP JUMPDEST SWAP2 POP PUSH2 0x1702 DUP3 PUSH2 0x169D JUMP JUMPDEST PUSH1 0x40 DUP3 ADD SWAP1 POP SWAP2 SWAP1 POP JUMP JUMPDEST PUSH0 PUSH1 0x20 DUP3 ADD SWAP1 POP DUP2 DUP2 SUB PUSH0 DUP4 ADD MSTORE PUSH2 0x1724 DUP2 PUSH2 0x16EB JUMP JUMPDEST SWAP1 POP SWAP2 SWAP1 POP JUMP JUMPDEST PUSH0 DUP2 MLOAD SWAP1 POP PUSH2 0x1739 DUP2 PUSH2 0x100D JUMP JUMPDEST SWAP3 SWAP2 POP POP JUMP JUMPDEST PUSH0 PUSH1 0x20 DUP3 DUP5 SUB SLT ISZERO PUSH2 0x1754 JUMPI PUSH2 0x1753 PUSH2 0xFB4 JUMP JUMPDEST JUMPDEST PUSH0 PUSH2 0x1761 DUP5 DUP3 DUP6 ADD PUSH2 0x172B JUMP JUMPDEST SWAP2 POP POP SWAP3 SWAP2 POP POP JUMP JUMPDEST PUSH32 0x596F75206861766520696E73756666696369656E7420616D6F756E7400000000 PUSH0 DUP3 ADD MSTORE POP JUMP JUMPDEST PUSH0 PUSH2 0x179E PUSH1 0x1C DUP4 PUSH2 0x1129 JUMP JUMPDEST SWAP2 POP PUSH2 0x17A9 DUP3 PUSH2 0x176A JUMP JUMPDEST PUSH1 0x20 DUP3 ADD SWAP1 POP SWAP2 SWAP1 POP JUMP JUMPDEST PUSH0 PUSH1 0x20 DUP3 ADD SWAP1 POP DUP2 DUP2 SUB PUSH0 DUP4 ADD MSTORE PUSH2 0x17CB DUP2 PUSH2 0x1792 JUMP JUMPDEST SWAP1 POP SWAP2 SWAP1 POP JUMP JUMPDEST PUSH0 PUSH1 0x40 DUP3 ADD SWAP1 POP PUSH2 0x17E5 PUSH0 DUP4 ADD DUP6 PUSH2 0xF28 JUMP JUMPDEST PUSH2 0x17F2 PUSH1 0x20 DUP4 ADD DUP5 PUSH2 0xF8C JUMP JUMPDEST SWAP4 SWAP3 POP POP POP JUMP JUMPDEST PUSH2 0x1802 DUP2 PUSH2 0xF50 JUMP JUMPDEST DUP2 EQ PUSH2 0x180C JUMPI PUSH0 DUP1 REVERT JUMPDEST POP JUMP JUMPDEST PUSH0 DUP2 MLOAD SWAP1 POP PUSH2 0x181D DUP2 PUSH2 0x17F9 JUMP JUMPDEST SWAP3 SWAP2 POP POP JUMP JUMPDEST PUSH0 PUSH1 0x20 DUP3 DUP5 SUB SLT ISZERO PUSH2 0x1838 JUMPI PUSH2 0x1837 PUSH2 0xFB4 JUMP JUMPDEST JUMPDEST PUSH0 PUSH2 0x1845 DUP5 DUP3 DUP6 ADD PUSH2 0x180F JUMP JUMPDEST SWAP2 POP POP SWAP3 SWAP2 POP POP JUMP JUMPDEST PUSH0 PUSH1 0x60 DUP3 ADD SWAP1 POP PUSH2 0x1861 PUSH0 DUP4 ADD DUP7 PUSH2 0xF28 JUMP JUMPDEST PUSH2 0x186E PUSH1 0x20 DUP4 ADD DUP6 PUSH2 0xF28 JUMP JUMPDEST PUSH2 0x187B PUSH1 0x40 DUP4 ADD DUP5 PUSH2 0xF8C JUMP JUMPDEST SWAP5 SWAP4 POP POP POP POP JUMP JUMPDEST PUSH32 0x4F776E61626C653A206E6577206F776E657220697320746865207A65726F2061 PUSH0 DUP3 ADD MSTORE PUSH32 0x6464726573730000000000000000000000000000000000000000000000000000 PUSH1 0x20 DUP3 ADD MSTORE POP JUMP JUMPDEST PUSH0 PUSH2 0x18DD PUSH1 0x26 DUP4 PUSH2 0x1129 JUMP JUMPDEST SWAP2 POP PUSH2 0x18E8 DUP3 PUSH2 0x1883 JUMP JUMPDEST PUSH1 0x40 DUP3 ADD SWAP1 POP SWAP2 SWAP1 POP JUMP JUMPDEST PUSH0 PUSH1 0x20 DUP3 ADD SWAP1 POP DUP2 DUP2 SUB PUSH0 DUP4 ADD MSTORE PUSH2 0x190A DUP2 PUSH2 0x18D1 JUMP JUMPDEST SWAP1 POP SWAP2 SWAP1 POP JUMP JUMPDEST PUSH32 0x4F776E61626C653A2063616C6C6572206973206E6F7420746865206F776E6572 PUSH0 DUP3 ADD MSTORE POP JUMP JUMPDEST PUSH0 PUSH2 0x1945 PUSH1 0x20 DUP4 PUSH2 0x1129 JUMP JUMPDEST SWAP2 POP PUSH2 0x1950 DUP3 PUSH2 0x1911 JUMP JUMPDEST PUSH1 0x20 DUP3 ADD SWAP1 POP SWAP2 SWAP1 POP JUMP JUMPDEST PUSH0 PUSH1 0x20 DUP3 ADD SWAP1 POP DUP2 DUP2 SUB PUSH0 DUP4 ADD MSTORE PUSH2 0x1972 DUP2 PUSH2 0x1939 JUMP JUMPDEST SWAP1 POP SWAP2 SWAP1 POP JUMP INVALID LOG2 PUSH5 0x6970667358 0x22 SLT KECCAK256 EXTCODEHASH 0xED SAR SWAP2 SELFDESTRUCT SWAP16 LOG4 SWAP6 DELEGATECALL AND PUSH22 0xB5DD9EDE0602AE2704F467AD8ACDD95FF12132F33F64 PUSH20 0x6F6C634300081500330000000000000000000000 "
				},
				"gasEstimates": {
					"creation": {
						"codeDepositCost": "1315000",
						"executionCost": "infinite",
						"totalCost": "infinite"
					},
					"external": {
						"balances(address)": "2825",
						"borrowerAdd()": "2532",
						"feePayable()": "2514",
						"joinLoan(uint256)": "infinite",
						"loanDefault()": "2532",
						"loanPeriod()": "2515",
						"loanRate()": "2493",
						"loanStatus()": "2563",
						"monthlyRepayment()": "2535",
						"newLoan(address,uint256,uint256,uint256,uint256,uint256)": "infinite",
						"originationRate()": "2470",
						"owner()": "2677",
						"peerRate()": "2513",
						"principalAmount()": "2537",
						"principalLimit()": "2514",
						"principalPayable()": "2469",
						"renounceOwnership()": "30653",
						"repayment(address,uint256)": "infinite",
						"tokenId(address)": "2847",
						"totalPayable()": "2447",
						"transferOwnership(address)": "31015"
					},
					"internal": {
						"_transfer(address,address,uint256)": "infinite"
					}
				},
				"methodIdentifiers": {
					"balances(address)": "27e235e3",
					"borrowerAdd()": "0648a75e",
					"feePayable()": "7024795d",
					"joinLoan(uint256)": "7fb0556d",
					"loanDefault()": "c892eada",
					"loanPeriod()": "18b4dd3c",
					"loanRate()": "086126d3",
					"loanStatus()": "074ca966",
					"monthlyRepayment()": "ee73c90a",
					"newLoan(address,uint256,uint256,uint256,uint256,uint256)": "69e1251c",
					"originationRate()": "5ab2af51",
					"owner()": "8da5cb5b",
					"peerRate()": "e29f5229",
					"principalAmount()": "196e74a7",
					"principalLimit()": "808093d4",
					"principalPayable()": "a8f8fe22",
					"renounceOwnership()": "715018a6",
					"repayment(address,uint256)": "752c4e56",
					"tokenId(address)": "7ca31724",
					"totalPayable()": "a2eafc81",
					"transferOwnership(address)": "f2fde38b"
				}
			},
			"storageLayout": {
				"storage": [
					{
						"astId": 6,
						"contract": "Contracts/PeerProtocol.sol:PeerProtocol",
						"label": "_initialized",
						"offset": 0,
						"slot": "0",
						"type": "t_uint8"
					},
					{
						"astId": 9,
						"contract": "Contracts/PeerProtocol.sol:PeerProtocol",
						"label": "_initializing",
						"offset": 1,
						"slot": "0",
						"type": "t_bool"
					},
					{
						"astId": 506,
						"contract": "Contracts/PeerProtocol.sol:PeerProtocol",
						"label": "_owner",
						"offset": 2,
						"slot": "0",
						"type": "t_address"
					},
					{
						"astId": 730,
						"contract": "Contracts/PeerProtocol.sol:PeerProtocol",
						"label": "balances",
						"offset": 0,
						"slot": "1",
						"type": "t_mapping(t_address,t_uint256)"
					},
					{
						"astId": 734,
						"contract": "Contracts/PeerProtocol.sol:PeerProtocol",
						"label": "tokenId",
						"offset": 0,
						"slot": "2",
						"type": "t_mapping(t_address,t_uint256)"
					},
					{
						"astId": 737,
						"contract": "Contracts/PeerProtocol.sol:PeerProtocol",
						"label": "tenthK",
						"offset": 0,
						"slot": "3",
						"type": "t_uint256"
					},
					{
						"astId": 740,
						"contract": "Contracts/PeerProtocol.sol:PeerProtocol",
						"label": "dayConvention",
						"offset": 0,
						"slot": "4",
						"type": "t_uint256"
					},
					{
						"astId": 742,
						"contract": "Contracts/PeerProtocol.sol:PeerProtocol",
						"label": "borrowerAdd",
						"offset": 0,
						"slot": "5",
						"type": "t_address"
					},
					{
						"astId": 744,
						"contract": "Contracts/PeerProtocol.sol:PeerProtocol",
						"label": "principalLimit",
						"offset": 0,
						"slot": "6",
						"type": "t_uint256"
					},
					{
						"astId": 746,
						"contract": "Contracts/PeerProtocol.sol:PeerProtocol",
						"label": "originationRate",
						"offset": 0,
						"slot": "7",
						"type": "t_uint256"
					},
					{
						"astId": 748,
						"contract": "Contracts/PeerProtocol.sol:PeerProtocol",
						"label": "peerRate",
						"offset": 0,
						"slot": "8",
						"type": "t_uint256"
					},
					{
						"astId": 750,
						"contract": "Contracts/PeerProtocol.sol:PeerProtocol",
						"label": "loanRate",
						"offset": 0,
						"slot": "9",
						"type": "t_uint256"
					},
					{
						"astId": 752,
						"contract": "Contracts/PeerProtocol.sol:PeerProtocol",
						"label": "loanPeriod",
						"offset": 0,
						"slot": "10",
						"type": "t_uint256"
					},
					{
						"astId": 754,
						"contract": "Contracts/PeerProtocol.sol:PeerProtocol",
						"label": "principalAmount",
						"offset": 0,
						"slot": "11",
						"type": "t_uint256"
					},
					{
						"astId": 756,
						"contract": "Contracts/PeerProtocol.sol:PeerProtocol",
						"label": "principalPayable",
						"offset": 0,
						"slot": "12",
						"type": "t_uint256"
					},
					{
						"astId": 758,
						"contract": "Contracts/PeerProtocol.sol:PeerProtocol",
						"label": "totalPayable",
						"offset": 0,
						"slot": "13",
						"type": "t_uint256"
					},
					{
						"astId": 760,
						"contract": "Contracts/PeerProtocol.sol:PeerProtocol",
						"label": "feePayable",
						"offset": 0,
						"slot": "14",
						"type": "t_uint256"
					},
					{
						"astId": 762,
						"contract": "Contracts/PeerProtocol.sol:PeerProtocol",
						"label": "monthlyRepayment",
						"offset": 0,
						"slot": "15",
						"type": "t_uint256"
					},
					{
						"astId": 765,
						"contract": "Contracts/PeerProtocol.sol:PeerProtocol",
						"label": "currentTid",
						"offset": 0,
						"slot": "16",
						"type": "t_uint256"
					},
					{
						"astId": 767,
						"contract": "Contracts/PeerProtocol.sol:PeerProtocol",
						"label": "loanDefault",
						"offset": 0,
						"slot": "17",
						"type": "t_bool"
					},
					{
						"astId": 769,
						"contract": "Contracts/PeerProtocol.sol:PeerProtocol",
						"label": "loanStatus",
						"offset": 1,
						"slot": "17",
						"type": "t_bool"
					}
				],
				"types": {
					"t_address": {
						"encoding": "inplace",
						"label": "address",
						"numberOfBytes": "20"
					},
					"t_bool": {
						"encoding": "inplace",
						"label": "bool",
						"numberOfBytes": "1"
					},
					"t_mapping(t_address,t_uint256)": {
						"encoding": "mapping",
						"key": "t_address",
						"label": "mapping(address => uint256)",
						"numberOfBytes": "32",
						"value": "t_uint256"
					},
					"t_uint256": {
						"encoding": "inplace",
						"label": "uint256",
						"numberOfBytes": "32"
					},
					"t_uint8": {
						"encoding": "inplace",
						"label": "uint8",
						"numberOfBytes": "1"
					}
				}
			},
			"userdoc": {
				"kind": "user",
				"methods": {},
				"version": 1
			}
		}
	}
}