{
	"data": {
		"bytecode": {
			"linkReferences": {},
			"object": "6080604052612710600755600c600855670de0b6b3a7640000600955731bd7b233b054ad4d1fbb767eea628f28fde314c6600a60006101000a81548173ffffffffffffffffffffffffffffffffffffffff021916908373ffffffffffffffffffffffffffffffffffffffff16021790555060006018553480156200008257600080fd5b506040518060c001604052806082815260200162004fe960829139620000bd620000b16200023360201b60201c565b6200023b60201b60201c565b620000ce816200030060201b60201c565b5060008060019054906101000a900460ff16159050808015620001015750600160008054906101000a900460ff1660ff16105b8062000138575062000119306200031560201b60201c565b158015620001375750600160008054906101000a900460ff1660ff16145b5b6200017a576040517f08c379a00000000000000000000000000000000000000000000000000000000081526004016200017190620003bf565b60405180910390fd5b60016000806101000a81548160ff021916908360ff1602179055508015620001b8576001600060016101000a81548160ff0219169083151502179055505b60006012819055506000601081905550600060118190555080156200022c5760008060016101000a81548160ff0219169083151502179055507f7f26b83ff96e1f2b6a682f133852f6798a09c465da95921460cefb384740249860016040516200022391906200043b565b60405180910390a15b50620007af565b600033905090565b60008060029054906101000a900473ffffffffffffffffffffffffffffffffffffffff16905081600060026101000a81548173ffffffffffffffffffffffffffffffffffffffff021916908373ffffffffffffffffffffffffffffffffffffffff1602179055508173ffffffffffffffffffffffffffffffffffffffff168173ffffffffffffffffffffffffffffffffffffffff167f8be0079c531659141344cd1fd0a4f28419497f9722a3daafe3b4186f6b6457e060405160405180910390a35050565b8060039081620003119190620006c8565b5050565b6000808273ffffffffffffffffffffffffffffffffffffffff163b119050919050565b600082825260208201905092915050565b7f496e697469616c697a61626c653a20636f6e747261637420697320616c72656160008201527f647920696e697469616c697a6564000000000000000000000000000000000000602082015250565b6000620003a7602e8362000338565b9150620003b48262000349565b604082019050919050565b60006020820190508181036000830152620003da8162000398565b9050919050565b6000819050919050565b600060ff82169050919050565b6000819050919050565b6000620004236200041d6200041784620003e1565b620003f8565b620003eb565b9050919050565b620004358162000402565b82525050565b60006020820190506200045260008301846200042a565b92915050565b600081519050919050565b7f4e487b7100000000000000000000000000000000000000000000000000000000600052604160045260246000fd5b7f4e487b7100000000000000000000000000000000000000000000000000000000600052602260045260246000fd5b60006002820490506001821680620004da57607f821691505b602082108103620004f057620004ef62000492565b5b50919050565b60008190508160005260206000209050919050565b60006020601f8301049050919050565b600082821b905092915050565b6000600883026200055a7fffffffffffffffffffffffffffffffffffffffffffffffffffffffffffffffff826200051b565b6200056686836200051b565b95508019841693508086168417925050509392505050565b6000819050919050565b6000620005a9620005a36200059d846200057e565b620003f8565b6200057e565b9050919050565b6000819050919050565b620005c58362000588565b620005dd620005d482620005b0565b84845462000528565b825550505050565b600090565b620005f4620005e5565b62000601818484620005ba565b505050565b5b8181101562000629576200061d600082620005ea565b60018101905062000607565b5050565b601f82111562000678576200064281620004f6565b6200064d846200050b565b810160208510156200065d578190505b620006756200066c856200050b565b83018262000606565b50505b505050565b600082821c905092915050565b60006200069d600019846008026200067d565b1980831691505092915050565b6000620006b883836200068a565b9150826002028217905092915050565b620006d38262000458565b67ffffffffffffffff811115620006ef57620006ee62000463565b5b620006fb8254620004c1565b620007088282856200062d565b600060209050601f8311600181146200074057600084156200072b578287015190505b620007378582620006aa565b865550620007a7565b601f1984166200075086620004f6565b60005b828110156200077a5784890151825560018201915060208501945060208101905062000753565b868310156200079a578489015162000796601f8916826200068a565b8355505b6001600288020188555050505b505050505050565b61482a80620007bf6000396000f3fe608060405234801561001057600080fd5b50600436106102105760003560e01c80637ca3172411610125578063b759f954116100ad578063ec0dc3e41161007c578063ec0dc3e41461060b578063ee73c90a14610627578063f242432a14610645578063f2fde38b14610661578063fc22a6a31461067d57610210565b8063b759f9541461056f578063c892eada1461059f578063e29f5229146105bd578063e985e9c5146105db57610210565b80638da5cb5b116100f45780638da5cb5b146104dd578063906816a6146104fb578063a22cb46514610517578063a2eafc8114610533578063a8f8fe221461055157610210565b80637ca31724146104555780637fb0556d14610485578063808093d4146104a15780638cfd3e40146104bf57610210565b8063217fca6e116101a85780634e1273f4116101775780634e1273f4146103c35780635ab2af51146103f357806369e1251c146104115780637024795d1461042d578063715018a61461044b57610210565b8063217fca6e1461033b57806327e235e3146103595780632eb2c2d614610389578063419e2191146103a557610210565b8063086126d3116101e4578063086126d3146102b15780630e89341c146102cf57806318b4dd3c146102ff578063196e74a71461031d57610210565b8062fdd58e1461021557806301ffc9a7146102455780630648a75e14610275578063074ca96614610293575b600080fd5b61022f600480360381019061022a9190612abe565b6106ad565b60405161023c9190612b0d565b60405180910390f35b61025f600480360381019061025a9190612b80565b610776565b60405161026c9190612bc8565b60405180910390f35b61027d610858565b60405161028a9190612bf2565b60405180910390f35b61029b61087e565b6040516102a89190612bc8565b60405180910390f35b6102b9610891565b6040516102c69190612b0d565b60405180910390f35b6102e960048036038101906102e49190612c0d565b610897565b6040516102f69190612cca565b60405180910390f35b61030761092b565b6040516103149190612b0d565b60405180910390f35b610325610931565b6040516103329190612b0d565b60405180910390f35b610343610937565b6040516103509190612b0d565b60405180910390f35b610373600480360381019061036e9190612cec565b61093d565b6040516103809190612b0d565b60405180910390f35b6103a3600480360381019061039e9190612f16565b610955565b005b6103ad6109f6565b6040516103ba9190612b0d565b60405180910390f35b6103dd60048036038101906103d891906130a8565b6109fc565b6040516103ea91906131de565b60405180910390f35b6103fb610b15565b6040516104089190612b0d565b60405180910390f35b61042b60048036038101906104269190613200565b610b1b565b005b610435610d23565b6040516104429190612b0d565b60405180910390f35b610453610d29565b005b61046f600480360381019061046a9190612cec565b610d3d565b60405161047c9190612b0d565b60405180910390f35b61049f600480360381019061049a9190612c0d565b610d55565b005b6104a96112d7565b6040516104b69190612b0d565b60405180910390f35b6104c76112dd565b6040516104d49190612b0d565b60405180910390f35b6104e56112e3565b6040516104f29190612bf2565b60405180910390f35b61051560048036038101906105109190612c0d565b61130c565b005b610531600480360381019061052c91906132b9565b611678565b005b61053b61168e565b6040516105489190612b0d565b60405180910390f35b610559611694565b6040516105669190612b0d565b60405180910390f35b61058960048036038101906105849190612c0d565b61169a565b6040516105969190612bc8565b60405180910390f35b6105a7611753565b6040516105b49190612bc8565b60405180910390f35b6105c5611766565b6040516105d29190612b0d565b60405180910390f35b6105f560048036038101906105f091906132f9565b61176c565b6040516106029190612bc8565b60405180910390f35b61062560048036038101906106209190612c0d565b611800565b005b61062f611aaa565b60405161063c9190612b0d565b60405180910390f35b61065f600480360381019061065a9190613339565b611ab0565b005b61067b60048036038101906106769190612cec565b611b51565b005b61069760048036038101906106929190612cec565b611bd4565b6040516106a49190612b0d565b60405180910390f35b60008073ffffffffffffffffffffffffffffffffffffffff168373ffffffffffffffffffffffffffffffffffffffff160361071d576040517f08c379a000000000000000000000000000000000000000000000000000000000815260040161071490613442565b60405180910390fd5b6001600083815260200190815260200160002060008473ffffffffffffffffffffffffffffffffffffffff1673ffffffffffffffffffffffffffffffffffffffff16815260200190815260200160002054905092915050565b60007fd9b67a26000000000000000000000000000000000000000000000000000000007bffffffffffffffffffffffffffffffffffffffffffffffffffffffff1916827bffffffffffffffffffffffffffffffffffffffffffffffffffffffff1916148061084157507f0e89341c000000000000000000000000000000000000000000000000000000007bffffffffffffffffffffffffffffffffffffffffffffffffffffffff1916827bffffffffffffffffffffffffffffffffffffffffffffffffffffffff1916145b80610851575061085082611bec565b5b9050919050565b600b60009054906101000a900473ffffffffffffffffffffffffffffffffffffffff1681565b601960019054906101000a900460ff1681565b60105481565b6060600380546108a690613491565b80601f01602080910402602001604051908101604052809291908181526020018280546108d290613491565b801561091f5780601f106108f45761010080835404028352916020019161091f565b820191906000526020600020905b81548152906001019060200180831161090257829003601f168201915b50505050509050919050565b60115481565b60125481565b601a5481565b60046020528060005260406000206000915090505481565b61095d611c56565b73ffffffffffffffffffffffffffffffffffffffff168573ffffffffffffffffffffffffffffffffffffffff1614806109a357506109a28561099d611c56565b61176c565b5b6109e2576040517f08c379a00000000000000000000000000000000000000000000000000000000081526004016109d990613534565b60405180910390fd5b6109ef8585858585611c5e565b5050505050565b600d5481565b60608151835114610a42576040517f08c379a0000000000000000000000000000000000000000000000000000000008152600401610a39906135c6565b60405180910390fd5b6000835167ffffffffffffffff811115610a5f57610a5e612d1e565b5b604051908082528060200260200182016040528015610a8d5781602001602082028036833780820191505090505b50905060005b8451811015610b0a57610ada858281518110610ab257610ab16135e6565b5b6020026020010151858381518110610acd57610acc6135e6565b5b60200260200101516106ad565b828281518110610aed57610aec6135e6565b5b60200260200101818152505080610b0390613644565b9050610a93565b508091505092915050565b600e5481565b610b23611f82565b600a841015610b67576040517f08c379a0000000000000000000000000000000000000000000000000000000008152600401610b5e906136fe565b60405180910390fd5b8382108015610b77575060288210155b610bb6576040517f08c379a0000000000000000000000000000000000000000000000000000000008152600401610bad906137b6565b60405180910390fd5b6032811015610bfa576040517f08c379a0000000000000000000000000000000000000000000000000000000008152600401610bf190613848565b60405180910390fd5b6001831015610c3e576040517f08c379a0000000000000000000000000000000000000000000000000000000008152600401610c35906138da565b60405180910390fd5b85600b60006101000a81548173ffffffffffffffffffffffffffffffffffffffff021916908373ffffffffffffffffffffffffffffffffffffffff16021790555084600c819055508360108190555080600e8190555081600f81905550826011819055506000601960006101000a81548160ff0219169083151502179055506001601960016101000a81548160ff0219169083151502179055507fafd765ba31f9a5a1bdc5e1a2ce2079ecd6fcdcd9a80562b4d4002c050445178b86600c546015548787604051610d139594939291906138fa565b60405180910390a1505050505050565b60155481565b610d31611f82565b610d3b6000612000565b565b60056020528060005260406000206000915090505481565b601960019054906101000a900460ff16610da4576040517f08c379a0000000000000000000000000000000000000000000000000000000008152600401610d9b90613999565b60405180910390fd5b6001811015610de8576040517f08c379a0000000000000000000000000000000000000000000000000000000008152600401610ddf90613a2b565b60405180910390fd5b600c5460125482610df99190613a4b565b1115610e3a576040517f08c379a0000000000000000000000000000000000000000000000000000000008152600401610e3190613af1565b60405180910390fd5b80600954600a60009054906101000a900473ffffffffffffffffffffffffffffffffffffffff1673ffffffffffffffffffffffffffffffffffffffff166370a08231336040518263ffffffff1660e01b8152600401610e999190612bf2565b602060405180830381865afa158015610eb6573d6000803e3d6000fd5b505050506040513d601f19601f82011682018060405250810190610eda9190613b26565b610ee49190613b82565b1015610f25576040517f08c379a0000000000000000000000000000000000000000000000000000000008152600401610f1c90613bff565b60405180910390fd5b8060126000828254610f379190613a4b565b92505081905550600754600e5482610f4f9190613c1f565b610f599190613b82565b601a819055506000600754600854601154601054610f779190613c1f565b610f819190613b82565b612710610f8e9190613a4b565b601a54610f9b9190613c1f565b610fa59190613b82565b90506000600754600854601154600f54610fbf9190613c1f565b610fc99190613b82565b84610fd49190613c1f565b610fde9190613b82565b90508181610fec9190613a4b565b60156000828254610ffd9190613a4b565b925050819055506000600754600854601154600f5460105461101f9190613c61565b6110299190613c1f565b6110339190613b82565b6127106110409190613a4b565b8561104b9190613c1f565b6110559190613b82565b905080601360008282546110699190613a4b565b925050819055506013546015546110809190613a4b565b6014819055506011546014546110969190613b82565b6017819055506001601860008282546110af9190613a4b565b9250508190555083600460003373ffffffffffffffffffffffffffffffffffffffff1673ffffffffffffffffffffffffffffffffffffffff16815260200190815260200160002060008282546111059190613a4b565b92505081905550601854600560003373ffffffffffffffffffffffffffffffffffffffff1673ffffffffffffffffffffffffffffffffffffffff16815260200190815260200160002081905550601154816111609190613b82565b600660003373ffffffffffffffffffffffffffffffffffffffff1673ffffffffffffffffffffffffffffffffffffffff168152602001908152602001600020819055506011546015546111b39190613b82565b601681905550600a60009054906101000a900473ffffffffffffffffffffffffffffffffffffffff1673ffffffffffffffffffffffffffffffffffffffff166323b872dd3330600954886112079190613c1f565b6040518463ffffffff1660e01b815260040161122593929190613c95565b6020604051808303816000875af1158015611244573d6000803e3d6000fd5b505050506040513d601f19601f820116820180604052508101906112689190613ce1565b5061129633600b60009054906101000a900473ffffffffffffffffffffffffffffffffffffffff16866120c5565b7fddf252ad1be2c89b69c2b068fc378daa952ba7f163c4a11628f55a4df523b3ef3330866040516112c993929190613c95565b60405180910390a150505050565b600c5481565b60165481565b60008060029054906101000a900473ffffffffffffffffffffffffffffffffffffffff16905090565b611314611f82565b601960019054906101000a900460ff16611363576040517f08c379a000000000000000000000000000000000000000000000000000000000815260040161135a90613d5a565b60405180910390fd5b60018110156113a7576040517f08c379a000000000000000000000000000000000000000000000000000000000815260040161139e90613dec565b60405180910390fd5b80600460003373ffffffffffffffffffffffffffffffffffffffff1673ffffffffffffffffffffffffffffffffffffffff168152602001908152602001600020541115611429576040517f08c379a000000000000000000000000000000000000000000000000000000000815260040161142090613e7e565b60405180910390fd5b80600954600a60009054906101000a900473ffffffffffffffffffffffffffffffffffffffff1673ffffffffffffffffffffffffffffffffffffffff166370a08231306040518263ffffffff1660e01b81526004016114889190612bf2565b602060405180830381865afa1580156114a5573d6000803e3d6000fd5b505050506040513d601f19601f820116820180604052508101906114c99190613b26565b6114d39190613b82565b1015611514576040517f08c379a000000000000000000000000000000000000000000000000000000000815260040161150b90613eea565b60405180910390fd5b611f40600c5460075460125461152a9190613c1f565b6115349190613b82565b1015611575576040517f08c379a000000000000000000000000000000000000000000000000000000000815260040161156c90613f7c565b60405180910390fd5b80600d60008282546115879190613a4b565b92505081905550600a60009054906101000a900473ffffffffffffffffffffffffffffffffffffffff1673ffffffffffffffffffffffffffffffffffffffff1663a9059cbb33600954846115db9190613c1f565b6040518363ffffffff1660e01b81526004016115f8929190613f9c565b6020604051808303816000875af1158015611617573d6000803e3d6000fd5b505050506040513d601f19601f8201168201806040525081019061163b9190613ce1565b507f3973d4bd22c2360ee4f00cc5cb2030c4a16bf89e66e2ef7c04f59be0f24f7316338260405161166d929190613f9c565b60405180910390a150565b61168a611683611c56565b83836121b1565b5050565b60145481565b60135481565b6000600a60009054906101000a900473ffffffffffffffffffffffffffffffffffffffff1673ffffffffffffffffffffffffffffffffffffffff1663095ea7b333600954856116e99190613c1f565b6040518363ffffffff1660e01b8152600401611706929190613f9c565b6020604051808303816000875af1158015611725573d6000803e3d6000fd5b505050506040513d601f19601f820116820180604052508101906117499190613ce1565b5060019050919050565b601960009054906101000a900460ff1681565b600f5481565b6000600260008473ffffffffffffffffffffffffffffffffffffffff1673ffffffffffffffffffffffffffffffffffffffff16815260200190815260200160002060008373ffffffffffffffffffffffffffffffffffffffff1673ffffffffffffffffffffffffffffffffffffffff16815260200190815260200160002060009054906101000a900460ff16905092915050565b80600a60009054906101000a900473ffffffffffffffffffffffffffffffffffffffff1673ffffffffffffffffffffffffffffffffffffffff1663dd62ed3e33306040518363ffffffff1660e01b815260040161185e929190613fc5565b602060405180830381865afa15801561187b573d6000803e3d6000fd5b505050506040513d601f19601f8201168201806040525081019061189f9190613b26565b10156118e0576040517f08c379a00000000000000000000000000000000000000000000000000000000081526004016118d790614060565b60405180910390fd5b80600a60009054906101000a900473ffffffffffffffffffffffffffffffffffffffff1673ffffffffffffffffffffffffffffffffffffffff166370a08231336040518263ffffffff1660e01b815260040161193c9190612bf2565b602060405180830381865afa158015611959573d6000803e3d6000fd5b505050506040513d601f19601f8201168201806040525081019061197d9190613b26565b10156119be576040517f08c379a00000000000000000000000000000000000000000000000000000000081526004016119b5906140f2565b60405180910390fd5b600a60009054906101000a900473ffffffffffffffffffffffffffffffffffffffff1673ffffffffffffffffffffffffffffffffffffffff166323b872dd333060095485611a0c9190613c1f565b6040518463ffffffff1660e01b8152600401611a2a93929190613c95565b6020604051808303816000875af1158015611a49573d6000803e3d6000fd5b505050506040513d601f19601f82011682018060405250810190611a6d9190613ce1565b507f93a595f58492964046c6d91b0bcc0f3d4cdcb01f76f28104f60c4b505d3f3aed3382604051611a9f929190613f9c565b60405180910390a150565b60175481565b611ab8611c56565b73ffffffffffffffffffffffffffffffffffffffff168573ffffffffffffffffffffffffffffffffffffffff161480611afe5750611afd85611af8611c56565b61176c565b5b611b3d576040517f08c379a0000000000000000000000000000000000000000000000000000000008152600401611b3490613534565b60405180910390fd5b611b4a858585858561231d565b5050505050565b611b59611f82565b600073ffffffffffffffffffffffffffffffffffffffff168173ffffffffffffffffffffffffffffffffffffffff1603611bc8576040517f08c379a0000000000000000000000000000000000000000000000000000000008152600401611bbf90614184565b60405180910390fd5b611bd181612000565b50565b60066020528060005260406000206000915090505481565b60007f01ffc9a7000000000000000000000000000000000000000000000000000000007bffffffffffffffffffffffffffffffffffffffffffffffffffffffff1916827bffffffffffffffffffffffffffffffffffffffffffffffffffffffff1916149050919050565b600033905090565b8151835114611ca2576040517f08c379a0000000000000000000000000000000000000000000000000000000008152600401611c9990614216565b60405180910390fd5b600073ffffffffffffffffffffffffffffffffffffffff168473ffffffffffffffffffffffffffffffffffffffff1603611d11576040517f08c379a0000000000000000000000000000000000000000000000000000000008152600401611d08906142a8565b60405180910390fd5b6000611d1b611c56565b9050611d2b8187878787876125bb565b60005b8451811015611edf576000858281518110611d4c57611d4b6135e6565b5b602002602001015190506000858381518110611d6b57611d6a6135e6565b5b6020026020010151905060006001600084815260200190815260200160002060008b73ffffffffffffffffffffffffffffffffffffffff1673ffffffffffffffffffffffffffffffffffffffff16815260200190815260200160002054905081811015611e0d576040517f08c379a0000000000000000000000000000000000000000000000000000000008152600401611e049061433a565b60405180910390fd5b8181036001600085815260200190815260200160002060008c73ffffffffffffffffffffffffffffffffffffffff1673ffffffffffffffffffffffffffffffffffffffff16815260200190815260200160002081905550816001600085815260200190815260200160002060008b73ffffffffffffffffffffffffffffffffffffffff1673ffffffffffffffffffffffffffffffffffffffff1681526020019081526020016000206000828254611ec49190613a4b565b9250508190555050505080611ed890613644565b9050611d2e565b508473ffffffffffffffffffffffffffffffffffffffff168673ffffffffffffffffffffffffffffffffffffffff168273ffffffffffffffffffffffffffffffffffffffff167f4a39dc06d4c0dbc64b70af90fd698a233a518aa5d07e595d983b8c0526c8f7fb8787604051611f5692919061435a565b60405180910390a4611f6c8187878787876125c3565b611f7a8187878787876125cb565b505050505050565b611f8a611c56565b73ffffffffffffffffffffffffffffffffffffffff16611fa86112e3565b73ffffffffffffffffffffffffffffffffffffffff1614611ffe576040517f08c379a0000000000000000000000000000000000000000000000000000000008152600401611ff5906143dd565b60405180910390fd5b565b60008060029054906101000a900473ffffffffffffffffffffffffffffffffffffffff16905081600060026101000a81548173ffffffffffffffffffffffffffffffffffffffff021916908373ffffffffffffffffffffffffffffffffffffffff1602179055508173ffffffffffffffffffffffffffffffffffffffff168173ffffffffffffffffffffffffffffffffffffffff167f8be0079c531659141344cd1fd0a4f28419497f9722a3daafe3b4186f6b6457e060405160405180910390a35050565b80600460008573ffffffffffffffffffffffffffffffffffffffff1673ffffffffffffffffffffffffffffffffffffffff16815260200190815260200160002060008282546121149190613c61565b9250508190555080600460008473ffffffffffffffffffffffffffffffffffffffff1673ffffffffffffffffffffffffffffffffffffffff168152602001908152602001600020600082825461216a9190613a4b565b925050819055507fddf252ad1be2c89b69c2b068fc378daa952ba7f163c4a11628f55a4df523b3ef8383836040516121a493929190613c95565b60405180910390a1505050565b8173ffffffffffffffffffffffffffffffffffffffff168373ffffffffffffffffffffffffffffffffffffffff160361221f576040517f08c379a00000000000000000000000000000000000000000000000000000000081526004016122169061446f565b60405180910390fd5b80600260008573ffffffffffffffffffffffffffffffffffffffff1673ffffffffffffffffffffffffffffffffffffffff16815260200190815260200160002060008473ffffffffffffffffffffffffffffffffffffffff1673ffffffffffffffffffffffffffffffffffffffff16815260200190815260200160002060006101000a81548160ff0219169083151502179055508173ffffffffffffffffffffffffffffffffffffffff168373ffffffffffffffffffffffffffffffffffffffff167f17307eab39ab6107e8899845ad3d59bd9653f200f220920489ca2b5937696c31836040516123109190612bc8565b60405180910390a3505050565b600073ffffffffffffffffffffffffffffffffffffffff168473ffffffffffffffffffffffffffffffffffffffff160361238c576040517f08c379a0000000000000000000000000000000000000000000000000000000008152600401612383906142a8565b60405180910390fd5b6000612396611c56565b905060006123a3856127a2565b905060006123b0856127a2565b90506123c08389898585896125bb565b60006001600088815260200190815260200160002060008a73ffffffffffffffffffffffffffffffffffffffff1673ffffffffffffffffffffffffffffffffffffffff16815260200190815260200160002054905085811015612458576040517f08c379a000000000000000000000000000000000000000000000000000000000815260040161244f9061433a565b60405180910390fd5b8581036001600089815260200190815260200160002060008b73ffffffffffffffffffffffffffffffffffffffff1673ffffffffffffffffffffffffffffffffffffffff16815260200190815260200160002081905550856001600089815260200190815260200160002060008a73ffffffffffffffffffffffffffffffffffffffff1673ffffffffffffffffffffffffffffffffffffffff168152602001908152602001600020600082825461250f9190613a4b565b925050819055508773ffffffffffffffffffffffffffffffffffffffff168973ffffffffffffffffffffffffffffffffffffffff168573ffffffffffffffffffffffffffffffffffffffff167fc3d58168c5ae7397731d063d5bbf3d657854427343f4c083240f7aacaa2d0f628a8a60405161258c92919061448f565b60405180910390a46125a2848a8a86868a6125c3565b6125b0848a8a8a8a8a61281c565b505050505050505050565b505050505050565b505050505050565b6125ea8473ffffffffffffffffffffffffffffffffffffffff166129f3565b1561279a578373ffffffffffffffffffffffffffffffffffffffff1663bc197c8187878686866040518663ffffffff1660e01b815260040161263095949392919061450d565b6020604051808303816000875af192505050801561266c57506040513d601f19601f82011682018060405250810190612669919061458a565b60015b612711576126786145c4565b806308c379a0036126d4575061268c6145e6565b8061269757506126d6565b806040517f08c379a00000000000000000000000000000000000000000000000000000000081526004016126cb9190612cca565b60405180910390fd5b505b6040517f08c379a0000000000000000000000000000000000000000000000000000000008152600401612708906146e8565b60405180910390fd5b63bc197c8160e01b7bffffffffffffffffffffffffffffffffffffffffffffffffffffffff1916817bffffffffffffffffffffffffffffffffffffffffffffffffffffffff191614612798576040517f08c379a000000000000000000000000000000000000000000000000000000000815260040161278f9061477a565b60405180910390fd5b505b505050505050565b60606000600167ffffffffffffffff8111156127c1576127c0612d1e565b5b6040519080825280602002602001820160405280156127ef5781602001602082028036833780820191505090505b5090508281600081518110612807576128066135e6565b5b60200260200101818152505080915050919050565b61283b8473ffffffffffffffffffffffffffffffffffffffff166129f3565b156129eb578373ffffffffffffffffffffffffffffffffffffffff1663f23a6e6187878686866040518663ffffffff1660e01b815260040161288195949392919061479a565b6020604051808303816000875af19250505080156128bd57506040513d601f19601f820116820180604052508101906128ba919061458a565b60015b612962576128c96145c4565b806308c379a00361292557506128dd6145e6565b806128e85750612927565b806040517f08c379a000000000000000000000000000000000000000000000000000000000815260040161291c9190612cca565b60405180910390fd5b505b6040517f08c379a0000000000000000000000000000000000000000000000000000000008152600401612959906146e8565b60405180910390fd5b63f23a6e6160e01b7bffffffffffffffffffffffffffffffffffffffffffffffffffffffff1916817bffffffffffffffffffffffffffffffffffffffffffffffffffffffff1916146129e9576040517f08c379a00000000000000000000000000000000000000000000000000000000081526004016129e09061477a565b60405180910390fd5b505b505050505050565b6000808273ffffffffffffffffffffffffffffffffffffffff163b119050919050565b6000604051905090565b600080fd5b600080fd5b600073ffffffffffffffffffffffffffffffffffffffff82169050919050565b6000612a5582612a2a565b9050919050565b612a6581612a4a565b8114612a7057600080fd5b50565b600081359050612a8281612a5c565b92915050565b6000819050919050565b612a9b81612a88565b8114612aa657600080fd5b50565b600081359050612ab881612a92565b92915050565b60008060408385031215612ad557612ad4612a20565b5b6000612ae385828601612a73565b9250506020612af485828601612aa9565b9150509250929050565b612b0781612a88565b82525050565b6000602082019050612b226000830184612afe565b92915050565b60007fffffffff0000000000000000000000000000000000000000000000000000000082169050919050565b612b5d81612b28565b8114612b6857600080fd5b50565b600081359050612b7a81612b54565b92915050565b600060208284031215612b9657612b95612a20565b5b6000612ba484828501612b6b565b91505092915050565b60008115159050919050565b612bc281612bad565b82525050565b6000602082019050612bdd6000830184612bb9565b92915050565b612bec81612a4a565b82525050565b6000602082019050612c076000830184612be3565b92915050565b600060208284031215612c2357612c22612a20565b5b6000612c3184828501612aa9565b91505092915050565b600081519050919050565b600082825260208201905092915050565b60005b83811015612c74578082015181840152602081019050612c59565b60008484015250505050565b6000601f19601f8301169050919050565b6000612c9c82612c3a565b612ca68185612c45565b9350612cb6818560208601612c56565b612cbf81612c80565b840191505092915050565b60006020820190508181036000830152612ce48184612c91565b905092915050565b600060208284031215612d0257612d01612a20565b5b6000612d1084828501612a73565b91505092915050565b600080fd5b7f4e487b7100000000000000000000000000000000000000000000000000000000600052604160045260246000fd5b612d5682612c80565b810181811067ffffffffffffffff82111715612d7557612d74612d1e565b5b80604052505050565b6000612d88612a16565b9050612d948282612d4d565b919050565b600067ffffffffffffffff821115612db457612db3612d1e565b5b602082029050602081019050919050565b600080fd5b6000612ddd612dd884612d99565b612d7e565b90508083825260208201905060208402830185811115612e0057612dff612dc5565b5b835b81811015612e295780612e158882612aa9565b845260208401935050602081019050612e02565b5050509392505050565b600082601f830112612e4857612e47612d19565b5b8135612e58848260208601612dca565b91505092915050565b600080fd5b600067ffffffffffffffff821115612e8157612e80612d1e565b5b612e8a82612c80565b9050602081019050919050565b82818337600083830152505050565b6000612eb9612eb484612e66565b612d7e565b905082815260208101848484011115612ed557612ed4612e61565b5b612ee0848285612e97565b509392505050565b600082601f830112612efd57612efc612d19565b5b8135612f0d848260208601612ea6565b91505092915050565b600080600080600060a08688031215612f3257612f31612a20565b5b6000612f4088828901612a73565b9550506020612f5188828901612a73565b945050604086013567ffffffffffffffff811115612f7257612f71612a25565b5b612f7e88828901612e33565b935050606086013567ffffffffffffffff811115612f9f57612f9e612a25565b5b612fab88828901612e33565b925050608086013567ffffffffffffffff811115612fcc57612fcb612a25565b5b612fd888828901612ee8565b9150509295509295909350565b600067ffffffffffffffff82111561300057612fff612d1e565b5b602082029050602081019050919050565b600061302461301f84612fe5565b612d7e565b9050808382526020820190506020840283018581111561304757613046612dc5565b5b835b81811015613070578061305c8882612a73565b845260208401935050602081019050613049565b5050509392505050565b600082601f83011261308f5761308e612d19565b5b813561309f848260208601613011565b91505092915050565b600080604083850312156130bf576130be612a20565b5b600083013567ffffffffffffffff8111156130dd576130dc612a25565b5b6130e98582860161307a565b925050602083013567ffffffffffffffff81111561310a57613109612a25565b5b61311685828601612e33565b9150509250929050565b600081519050919050565b600082825260208201905092915050565b6000819050602082019050919050565b61315581612a88565b82525050565b6000613167838361314c565b60208301905092915050565b6000602082019050919050565b600061318b82613120565b613195818561312b565b93506131a08361313c565b8060005b838110156131d15781516131b8888261315b565b97506131c383613173565b9250506001810190506131a4565b5085935050505092915050565b600060208201905081810360008301526131f88184613180565b905092915050565b60008060008060008060c0878903121561321d5761321c612a20565b5b600061322b89828a01612a73565b965050602061323c89828a01612aa9565b955050604061324d89828a01612aa9565b945050606061325e89828a01612aa9565b935050608061326f89828a01612aa9565b92505060a061328089828a01612aa9565b9150509295509295509295565b61329681612bad565b81146132a157600080fd5b50565b6000813590506132b38161328d565b92915050565b600080604083850312156132d0576132cf612a20565b5b60006132de85828601612a73565b92505060206132ef858286016132a4565b9150509250929050565b600080604083850312156133105761330f612a20565b5b600061331e85828601612a73565b925050602061332f85828601612a73565b9150509250929050565b600080600080600060a0868803121561335557613354612a20565b5b600061336388828901612a73565b955050602061337488828901612a73565b945050604061338588828901612aa9565b935050606061339688828901612aa9565b925050608086013567ffffffffffffffff8111156133b7576133b6612a25565b5b6133c388828901612ee8565b9150509295509295909350565b7f455243313135353a2061646472657373207a65726f206973206e6f742061207660008201527f616c6964206f776e657200000000000000000000000000000000000000000000602082015250565b600061342c602a83612c45565b9150613437826133d0565b604082019050919050565b6000602082019050818103600083015261345b8161341f565b9050919050565b7f4e487b7100000000000000000000000000000000000000000000000000000000600052602260045260246000fd5b600060028204905060018216806134a957607f821691505b6020821081036134bc576134bb613462565b5b50919050565b7f455243313135353a2063616c6c6572206973206e6f7420746f6b656e206f776e60008201527f6572206f7220617070726f766564000000000000000000000000000000000000602082015250565b600061351e602e83612c45565b9150613529826134c2565b604082019050919050565b6000602082019050818103600083015261354d81613511565b9050919050565b7f455243313135353a206163636f756e747320616e6420696473206c656e67746860008201527f206d69736d617463680000000000000000000000000000000000000000000000602082015250565b60006135b0602983612c45565b91506135bb82613554565b604082019050919050565b600060208201905081810360008301526135df816135a3565b9050919050565b7f4e487b7100000000000000000000000000000000000000000000000000000000600052603260045260246000fd5b7f4e487b7100000000000000000000000000000000000000000000000000000000600052601160045260246000fd5b600061364f82612a88565b91507fffffffffffffffffffffffffffffffffffffffffffffffffffffffffffffffff820361368157613680613615565b5b600182019050919050565b7f546865206c656e64696e672072617465206d757374206265206174206c65617360008201527f7420313020426173697320506f696e742028302e312529000000000000000000602082015250565b60006136e8603783612c45565b91506136f38261368c565b604082019050919050565b60006020820190508181036000830152613717816136db565b9050919050565b7f4665652050617961626c6520666f72205065657252617465206d75737420626560008201527f206c657373207468616e206c656e64696e672072617465206f6666657265642060208201527f616e64206174206c656173742034302042502028302e34252900000000000000604082015250565b60006137a0605983612c45565b91506137ab8261371e565b606082019050919050565b600060208201905081810360008301526137cf81613793565b9050919050565b7f4f726967696e6174696f6e20666565206d757374206265206174206c6561737460008201527f2035302042502028302e35252900000000000000000000000000000000000000602082015250565b6000613832602d83612c45565b915061383d826137d6565b604082019050919050565b6000602082019050818103600083015261386181613825565b9050919050565b7f546865206c6f616e20706572696f64206d757374206265206174206c6561737460008201527f2031204d6f6e7468000000000000000000000000000000000000000000000000602082015250565b60006138c4602883612c45565b91506138cf82613868565b604082019050919050565b600060208201905081810360008301526138f3816138b7565b9050919050565b600060a08201905061390f6000830188612be3565b61391c6020830187612afe565b6139296040830186612afe565b6139366060830185612afe565b6139436080830184612afe565b9695505050505050565b7f546865206c6f616e206973206e6f742063726561746564000000000000000000600082015250565b6000613983601783612c45565b915061398e8261394d565b602082019050919050565b600060208201905081810360008301526139b281613976565b9050919050565b7f20506c6561736520696e7665737420696e20746865206c6f616e206d6f72652060008201527f7468616e20310000000000000000000000000000000000000000000000000000602082015250565b6000613a15602683612c45565b9150613a20826139b9565b604082019050919050565b60006020820190508181036000830152613a4481613a08565b9050919050565b6000613a5682612a88565b9150613a6183612a88565b9250828201905080821115613a7957613a78613615565b5b92915050565b7f596f75206861766520657863656564656420746865206d6178696d756d20707260008201527f696e636970616c206f6620746865206c6f616e00000000000000000000000000602082015250565b6000613adb603383612c45565b9150613ae682613a7f565b604082019050919050565b60006020820190508181036000830152613b0a81613ace565b9050919050565b600081519050613b2081612a92565b92915050565b600060208284031215613b3c57613b3b612a20565b5b6000613b4a84828501613b11565b91505092915050565b7f4e487b7100000000000000000000000000000000000000000000000000000000600052601260045260246000fd5b6000613b8d82612a88565b9150613b9883612a88565b925082613ba857613ba7613b53565b5b828204905092915050565b7f496e73756666696369656e7420616d6f756e7400000000000000000000000000600082015250565b6000613be9601383612c45565b9150613bf482613bb3565b602082019050919050565b60006020820190508181036000830152613c1881613bdc565b9050919050565b6000613c2a82612a88565b9150613c3583612a88565b9250828202613c4381612a88565b91508282048414831517613c5a57613c59613615565b5b5092915050565b6000613c6c82612a88565b9150613c7783612a88565b9250828203905081811115613c8f57613c8e613615565b5b92915050565b6000606082019050613caa6000830186612be3565b613cb76020830185612be3565b613cc46040830184612afe565b949350505050565b600081519050613cdb8161328d565b92915050565b600060208284031215613cf757613cf6612a20565b5b6000613d0584828501613ccc565b91505092915050565b7f546865206c6f616e206973206163746976650000000000000000000000000000600082015250565b6000613d44601283612c45565b9150613d4f82613d0e565b602082019050919050565b60006020820190508181036000830152613d7381613d37565b9050919050565b7f506c6561736520776974686472617720616d6f756e74206d6f7265207468616e60008201527f2031000000000000000000000000000000000000000000000000000000000000602082015250565b6000613dd6602283612c45565b9150613de182613d7a565b604082019050919050565b60006020820190508181036000830152613e0581613dc9565b9050919050565b7f596f75206861766520656e746572656420616e20616d6f756e74206d6f72652060008201527f7468616e20796f75722062616c616e6365000000000000000000000000000000602082015250565b6000613e68603183612c45565b9150613e7382613e0c565b604082019050919050565b60006020820190508181036000830152613e9781613e5b565b9050919050565b7f496e73756666696369656e74207769746864726177616c20616d6f756e740000600082015250565b6000613ed4601e83612c45565b9150613edf82613e9e565b602082019050919050565b60006020820190508181036000830152613f0381613ec7565b9050919050565b7f4c6f616e2070617274696369706174696f6e206973206c657373207468616e2060008201527f3830250000000000000000000000000000000000000000000000000000000000602082015250565b6000613f66602383612c45565b9150613f7182613f0a565b604082019050919050565b60006020820190508181036000830152613f9581613f59565b9050919050565b6000604082019050613fb16000830185612be3565b613fbe6020830184612afe565b9392505050565b6000604082019050613fda6000830185612be3565b613fe76020830184612be3565b9392505050565b7f596f752068617665206e6f7420617070726f76656420746865206e656365737360008201527f61727920616d6f756e7420666f72207061796d656e7400000000000000000000602082015250565b600061404a603683612c45565b915061405582613fee565b604082019050919050565b600060208201905081810360008301526140798161403d565b9050919050565b7f596f7520646f6e277420686176652073756666696369656e7420616d6f756e7460008201527f20696e20796f757220737461626c65636f696e00000000000000000000000000602082015250565b60006140dc603383612c45565b91506140e782614080565b604082019050919050565b6000602082019050818103600083015261410b816140cf565b9050919050565b7f4f776e61626c653a206e6577206f776e657220697320746865207a65726f206160008201527f6464726573730000000000000000000000000000000000000000000000000000602082015250565b600061416e602683612c45565b915061417982614112565b604082019050919050565b6000602082019050818103600083015261419d81614161565b9050919050565b7f455243313135353a2069647320616e6420616d6f756e7473206c656e6774682060008201527f6d69736d61746368000000000000000000000000000000000000000000000000602082015250565b6000614200602883612c45565b915061420b826141a4565b604082019050919050565b6000602082019050818103600083015261422f816141f3565b9050919050565b7f455243313135353a207472616e7366657220746f20746865207a65726f20616460008201527f6472657373000000000000000000000000000000000000000000000000000000602082015250565b6000614292602583612c45565b915061429d82614236565b604082019050919050565b600060208201905081810360008301526142c181614285565b9050919050565b7f455243313135353a20696e73756666696369656e742062616c616e636520666f60008201527f72207472616e7366657200000000000000000000000000000000000000000000602082015250565b6000614324602a83612c45565b915061432f826142c8565b604082019050919050565b6000602082019050818103600083015261435381614317565b9050919050565b600060408201905081810360008301526143748185613180565b905081810360208301526143888184613180565b90509392505050565b7f4f776e61626c653a2063616c6c6572206973206e6f7420746865206f776e6572600082015250565b60006143c7602083612c45565b91506143d282614391565b602082019050919050565b600060208201905081810360008301526143f6816143ba565b9050919050565b7f455243313135353a2073657474696e6720617070726f76616c2073746174757360008201527f20666f722073656c660000000000000000000000000000000000000000000000602082015250565b6000614459602983612c45565b9150614464826143fd565b604082019050919050565b600060208201905081810360008301526144888161444c565b9050919050565b60006040820190506144a46000830185612afe565b6144b16020830184612afe565b9392505050565b600081519050919050565b600082825260208201905092915050565b60006144df826144b8565b6144e981856144c3565b93506144f9818560208601612c56565b61450281612c80565b840191505092915050565b600060a0820190506145226000830188612be3565b61452f6020830187612be3565b81810360408301526145418186613180565b905081810360608301526145558185613180565b9050818103608083015261456981846144d4565b90509695505050505050565b60008151905061458481612b54565b92915050565b6000602082840312156145a05761459f612a20565b5b60006145ae84828501614575565b91505092915050565b60008160e01c9050919050565b600060033d11156145e35760046000803e6145e06000516145b7565b90505b90565b600060443d10614673576145f8612a16565b60043d036004823e80513d602482011167ffffffffffffffff82111715614620575050614673565b808201805167ffffffffffffffff81111561463e5750505050614673565b80602083010160043d03850181111561465b575050505050614673565b61466a82602001850186612d4d565b82955050505050505b90565b7f455243313135353a207472616e7366657220746f206e6f6e2d4552433131353560008201527f526563656976657220696d706c656d656e746572000000000000000000000000602082015250565b60006146d2603483612c45565b91506146dd82614676565b604082019050919050565b60006020820190508181036000830152614701816146c5565b9050919050565b7f455243313135353a204552433131353552656365697665722072656a6563746560008201527f6420746f6b656e73000000000000000000000000000000000000000000000000602082015250565b6000614764602883612c45565b915061476f82614708565b604082019050919050565b6000602082019050818103600083015261479381614757565b9050919050565b600060a0820190506147af6000830188612be3565b6147bc6020830187612be3565b6147c96040830186612afe565b6147d66060830185612afe565b81810360808301526147e881846144d4565b9050969550505050505056fea264697066735822122007b8e5cdfcbd014c55b13f81d92f15d2be04e656fe9c2bc15b67037a457a960064736f6c6343000815003368747470733a2f2f70656572686976652d6d792e7368617265706f696e742e636f6d2f3a763a2f672f706572736f6e616c2f76696e63656e745f79656f5f70656572686976655f6170702f45626458574343522d38464d715032456c6a65723641304273316d4668524d387851363279785a4b685a395237773f653d7876624d6f6e",
			"opcodes": "PUSH1 0x80 PUSH1 0x40 MSTORE PUSH2 0x2710 PUSH1 0x7 SSTORE PUSH1 0xC PUSH1 0x8 SSTORE PUSH8 0xDE0B6B3A7640000 PUSH1 0x9 SSTORE PUSH20 0x1BD7B233B054AD4D1FBB767EEA628F28FDE314C6 PUSH1 0xA PUSH1 0x0 PUSH2 0x100 EXP DUP2 SLOAD DUP2 PUSH20 0xFFFFFFFFFFFFFFFFFFFFFFFFFFFFFFFFFFFFFFFF MUL NOT AND SWAP1 DUP4 PUSH20 0xFFFFFFFFFFFFFFFFFFFFFFFFFFFFFFFFFFFFFFFF AND MUL OR SWAP1 SSTORE POP PUSH1 0x0 PUSH1 0x18 SSTORE CALLVALUE DUP1 ISZERO PUSH3 0x82 JUMPI PUSH1 0x0 DUP1 REVERT JUMPDEST POP PUSH1 0x40 MLOAD DUP1 PUSH1 0xC0 ADD PUSH1 0x40 MSTORE DUP1 PUSH1 0x82 DUP2 MSTORE PUSH1 0x20 ADD PUSH3 0x4FE9 PUSH1 0x82 SWAP2 CODECOPY PUSH3 0xBD PUSH3 0xB1 PUSH3 0x233 PUSH1 0x20 SHL PUSH1 0x20 SHR JUMP JUMPDEST PUSH3 0x23B PUSH1 0x20 SHL PUSH1 0x20 SHR JUMP JUMPDEST PUSH3 0xCE DUP2 PUSH3 0x300 PUSH1 0x20 SHL PUSH1 0x20 SHR JUMP JUMPDEST POP PUSH1 0x0 DUP1 PUSH1 0x1 SWAP1 SLOAD SWAP1 PUSH2 0x100 EXP SWAP1 DIV PUSH1 0xFF AND ISZERO SWAP1 POP DUP1 DUP1 ISZERO PUSH3 0x101 JUMPI POP PUSH1 0x1 PUSH1 0x0 DUP1 SLOAD SWAP1 PUSH2 0x100 EXP SWAP1 DIV PUSH1 0xFF AND PUSH1 0xFF AND LT JUMPDEST DUP1 PUSH3 0x138 JUMPI POP PUSH3 0x119 ADDRESS PUSH3 0x315 PUSH1 0x20 SHL PUSH1 0x20 SHR JUMP JUMPDEST ISZERO DUP1 ISZERO PUSH3 0x137 JUMPI POP PUSH1 0x1 PUSH1 0x0 DUP1 SLOAD SWAP1 PUSH2 0x100 EXP SWAP1 DIV PUSH1 0xFF AND PUSH1 0xFF AND EQ JUMPDEST JUMPDEST PUSH3 0x17A JUMPI PUSH1 0x40 MLOAD PUSH32 0x8C379A000000000000000000000000000000000000000000000000000000000 DUP2 MSTORE PUSH1 0x4 ADD PUSH3 0x171 SWAP1 PUSH3 0x3BF JUMP JUMPDEST PUSH1 0x40 MLOAD DUP1 SWAP2 SUB SWAP1 REVERT JUMPDEST PUSH1 0x1 PUSH1 0x0 DUP1 PUSH2 0x100 EXP DUP2 SLOAD DUP2 PUSH1 0xFF MUL NOT AND SWAP1 DUP4 PUSH1 0xFF AND MUL OR SWAP1 SSTORE POP DUP1 ISZERO PUSH3 0x1B8 JUMPI PUSH1 0x1 PUSH1 0x0 PUSH1 0x1 PUSH2 0x100 EXP DUP2 SLOAD DUP2 PUSH1 0xFF MUL NOT AND SWAP1 DUP4 ISZERO ISZERO MUL OR SWAP1 SSTORE POP JUMPDEST PUSH1 0x0 PUSH1 0x12 DUP2 SWAP1 SSTORE POP PUSH1 0x0 PUSH1 0x10 DUP2 SWAP1 SSTORE POP PUSH1 0x0 PUSH1 0x11 DUP2 SWAP1 SSTORE POP DUP1 ISZERO PUSH3 0x22C JUMPI PUSH1 0x0 DUP1 PUSH1 0x1 PUSH2 0x100 EXP DUP2 SLOAD DUP2 PUSH1 0xFF MUL NOT AND SWAP1 DUP4 ISZERO ISZERO MUL OR SWAP1 SSTORE POP PUSH32 0x7F26B83FF96E1F2B6A682F133852F6798A09C465DA95921460CEFB3847402498 PUSH1 0x1 PUSH1 0x40 MLOAD PUSH3 0x223 SWAP2 SWAP1 PUSH3 0x43B JUMP JUMPDEST PUSH1 0x40 MLOAD DUP1 SWAP2 SUB SWAP1 LOG1 JUMPDEST POP PUSH3 0x7AF JUMP JUMPDEST PUSH1 0x0 CALLER SWAP1 POP SWAP1 JUMP JUMPDEST PUSH1 0x0 DUP1 PUSH1 0x2 SWAP1 SLOAD SWAP1 PUSH2 0x100 EXP SWAP1 DIV PUSH20 0xFFFFFFFFFFFFFFFFFFFFFFFFFFFFFFFFFFFFFFFF AND SWAP1 POP DUP2 PUSH1 0x0 PUSH1 0x2 PUSH2 0x100 EXP DUP2 SLOAD DUP2 PUSH20 0xFFFFFFFFFFFFFFFFFFFFFFFFFFFFFFFFFFFFFFFF MUL NOT AND SWAP1 DUP4 PUSH20 0xFFFFFFFFFFFFFFFFFFFFFFFFFFFFFFFFFFFFFFFF AND MUL OR SWAP1 SSTORE POP DUP2 PUSH20 0xFFFFFFFFFFFFFFFFFFFFFFFFFFFFFFFFFFFFFFFF AND DUP2 PUSH20 0xFFFFFFFFFFFFFFFFFFFFFFFFFFFFFFFFFFFFFFFF AND PUSH32 0x8BE0079C531659141344CD1FD0A4F28419497F9722A3DAAFE3B4186F6B6457E0 PUSH1 0x40 MLOAD PUSH1 0x40 MLOAD DUP1 SWAP2 SUB SWAP1 LOG3 POP POP JUMP JUMPDEST DUP1 PUSH1 0x3 SWAP1 DUP2 PUSH3 0x311 SWAP2 SWAP1 PUSH3 0x6C8 JUMP JUMPDEST POP POP JUMP JUMPDEST PUSH1 0x0 DUP1 DUP3 PUSH20 0xFFFFFFFFFFFFFFFFFFFFFFFFFFFFFFFFFFFFFFFF AND EXTCODESIZE GT SWAP1 POP SWAP2 SWAP1 POP JUMP JUMPDEST PUSH1 0x0 DUP3 DUP3 MSTORE PUSH1 0x20 DUP3 ADD SWAP1 POP SWAP3 SWAP2 POP POP JUMP JUMPDEST PUSH32 0x496E697469616C697A61626C653A20636F6E747261637420697320616C726561 PUSH1 0x0 DUP3 ADD MSTORE PUSH32 0x647920696E697469616C697A6564000000000000000000000000000000000000 PUSH1 0x20 DUP3 ADD MSTORE POP JUMP JUMPDEST PUSH1 0x0 PUSH3 0x3A7 PUSH1 0x2E DUP4 PUSH3 0x338 JUMP JUMPDEST SWAP2 POP PUSH3 0x3B4 DUP3 PUSH3 0x349 JUMP JUMPDEST PUSH1 0x40 DUP3 ADD SWAP1 POP SWAP2 SWAP1 POP JUMP JUMPDEST PUSH1 0x0 PUSH1 0x20 DUP3 ADD SWAP1 POP DUP2 DUP2 SUB PUSH1 0x0 DUP4 ADD MSTORE PUSH3 0x3DA DUP2 PUSH3 0x398 JUMP JUMPDEST SWAP1 POP SWAP2 SWAP1 POP JUMP JUMPDEST PUSH1 0x0 DUP2 SWAP1 POP SWAP2 SWAP1 POP JUMP JUMPDEST PUSH1 0x0 PUSH1 0xFF DUP3 AND SWAP1 POP SWAP2 SWAP1 POP JUMP JUMPDEST PUSH1 0x0 DUP2 SWAP1 POP SWAP2 SWAP1 POP JUMP JUMPDEST PUSH1 0x0 PUSH3 0x423 PUSH3 0x41D PUSH3 0x417 DUP5 PUSH3 0x3E1 JUMP JUMPDEST PUSH3 0x3F8 JUMP JUMPDEST PUSH3 0x3EB JUMP JUMPDEST SWAP1 POP SWAP2 SWAP1 POP JUMP JUMPDEST PUSH3 0x435 DUP2 PUSH3 0x402 JUMP JUMPDEST DUP3 MSTORE POP POP JUMP JUMPDEST PUSH1 0x0 PUSH1 0x20 DUP3 ADD SWAP1 POP PUSH3 0x452 PUSH1 0x0 DUP4 ADD DUP5 PUSH3 0x42A JUMP JUMPDEST SWAP3 SWAP2 POP POP JUMP JUMPDEST PUSH1 0x0 DUP2 MLOAD SWAP1 POP SWAP2 SWAP1 POP JUMP JUMPDEST PUSH32 0x4E487B7100000000000000000000000000000000000000000000000000000000 PUSH1 0x0 MSTORE PUSH1 0x41 PUSH1 0x4 MSTORE PUSH1 0x24 PUSH1 0x0 REVERT JUMPDEST PUSH32 0x4E487B7100000000000000000000000000000000000000000000000000000000 PUSH1 0x0 MSTORE PUSH1 0x22 PUSH1 0x4 MSTORE PUSH1 0x24 PUSH1 0x0 REVERT JUMPDEST PUSH1 0x0 PUSH1 0x2 DUP3 DIV SWAP1 POP PUSH1 0x1 DUP3 AND DUP1 PUSH3 0x4DA JUMPI PUSH1 0x7F DUP3 AND SWAP2 POP JUMPDEST PUSH1 0x20 DUP3 LT DUP2 SUB PUSH3 0x4F0 JUMPI PUSH3 0x4EF PUSH3 0x492 JUMP JUMPDEST JUMPDEST POP SWAP2 SWAP1 POP JUMP JUMPDEST PUSH1 0x0 DUP2 SWAP1 POP DUP2 PUSH1 0x0 MSTORE PUSH1 0x20 PUSH1 0x0 KECCAK256 SWAP1 POP SWAP2 SWAP1 POP JUMP JUMPDEST PUSH1 0x0 PUSH1 0x20 PUSH1 0x1F DUP4 ADD DIV SWAP1 POP SWAP2 SWAP1 POP JUMP JUMPDEST PUSH1 0x0 DUP3 DUP3 SHL SWAP1 POP SWAP3 SWAP2 POP POP JUMP JUMPDEST PUSH1 0x0 PUSH1 0x8 DUP4 MUL PUSH3 0x55A PUSH32 0xFFFFFFFFFFFFFFFFFFFFFFFFFFFFFFFFFFFFFFFFFFFFFFFFFFFFFFFFFFFFFFFF DUP3 PUSH3 0x51B JUMP JUMPDEST PUSH3 0x566 DUP7 DUP4 PUSH3 0x51B JUMP JUMPDEST SWAP6 POP DUP1 NOT DUP5 AND SWAP4 POP DUP1 DUP7 AND DUP5 OR SWAP3 POP POP POP SWAP4 SWAP3 POP POP POP JUMP JUMPDEST PUSH1 0x0 DUP2 SWAP1 POP SWAP2 SWAP1 POP JUMP JUMPDEST PUSH1 0x0 PUSH3 0x5A9 PUSH3 0x5A3 PUSH3 0x59D DUP5 PUSH3 0x57E JUMP JUMPDEST PUSH3 0x3F8 JUMP JUMPDEST PUSH3 0x57E JUMP JUMPDEST SWAP1 POP SWAP2 SWAP1 POP JUMP JUMPDEST PUSH1 0x0 DUP2 SWAP1 POP SWAP2 SWAP1 POP JUMP JUMPDEST PUSH3 0x5C5 DUP4 PUSH3 0x588 JUMP JUMPDEST PUSH3 0x5DD PUSH3 0x5D4 DUP3 PUSH3 0x5B0 JUMP JUMPDEST DUP5 DUP5 SLOAD PUSH3 0x528 JUMP JUMPDEST DUP3 SSTORE POP POP POP POP JUMP JUMPDEST PUSH1 0x0 SWAP1 JUMP JUMPDEST PUSH3 0x5F4 PUSH3 0x5E5 JUMP JUMPDEST PUSH3 0x601 DUP2 DUP5 DUP5 PUSH3 0x5BA JUMP JUMPDEST POP POP POP JUMP JUMPDEST JUMPDEST DUP2 DUP2 LT ISZERO PUSH3 0x629 JUMPI PUSH3 0x61D PUSH1 0x0 DUP3 PUSH3 0x5EA JUMP JUMPDEST PUSH1 0x1 DUP2 ADD SWAP1 POP PUSH3 0x607 JUMP JUMPDEST POP POP JUMP JUMPDEST PUSH1 0x1F DUP3 GT ISZERO PUSH3 0x678 JUMPI PUSH3 0x642 DUP2 PUSH3 0x4F6 JUMP JUMPDEST PUSH3 0x64D DUP5 PUSH3 0x50B JUMP JUMPDEST DUP2 ADD PUSH1 0x20 DUP6 LT ISZERO PUSH3 0x65D JUMPI DUP2 SWAP1 POP JUMPDEST PUSH3 0x675 PUSH3 0x66C DUP6 PUSH3 0x50B JUMP JUMPDEST DUP4 ADD DUP3 PUSH3 0x606 JUMP JUMPDEST POP POP JUMPDEST POP POP POP JUMP JUMPDEST PUSH1 0x0 DUP3 DUP3 SHR SWAP1 POP SWAP3 SWAP2 POP POP JUMP JUMPDEST PUSH1 0x0 PUSH3 0x69D PUSH1 0x0 NOT DUP5 PUSH1 0x8 MUL PUSH3 0x67D JUMP JUMPDEST NOT DUP1 DUP4 AND SWAP2 POP POP SWAP3 SWAP2 POP POP JUMP JUMPDEST PUSH1 0x0 PUSH3 0x6B8 DUP4 DUP4 PUSH3 0x68A JUMP JUMPDEST SWAP2 POP DUP3 PUSH1 0x2 MUL DUP3 OR SWAP1 POP SWAP3 SWAP2 POP POP JUMP JUMPDEST PUSH3 0x6D3 DUP3 PUSH3 0x458 JUMP JUMPDEST PUSH8 0xFFFFFFFFFFFFFFFF DUP2 GT ISZERO PUSH3 0x6EF JUMPI PUSH3 0x6EE PUSH3 0x463 JUMP JUMPDEST JUMPDEST PUSH3 0x6FB DUP3 SLOAD PUSH3 0x4C1 JUMP JUMPDEST PUSH3 0x708 DUP3 DUP3 DUP6 PUSH3 0x62D JUMP JUMPDEST PUSH1 0x0 PUSH1 0x20 SWAP1 POP PUSH1 0x1F DUP4 GT PUSH1 0x1 DUP2 EQ PUSH3 0x740 JUMPI PUSH1 0x0 DUP5 ISZERO PUSH3 0x72B JUMPI DUP3 DUP8 ADD MLOAD SWAP1 POP JUMPDEST PUSH3 0x737 DUP6 DUP3 PUSH3 0x6AA JUMP JUMPDEST DUP7 SSTORE POP PUSH3 0x7A7 JUMP JUMPDEST PUSH1 0x1F NOT DUP5 AND PUSH3 0x750 DUP7 PUSH3 0x4F6 JUMP JUMPDEST PUSH1 0x0 JUMPDEST DUP3 DUP2 LT ISZERO PUSH3 0x77A JUMPI DUP5 DUP10 ADD MLOAD DUP3 SSTORE PUSH1 0x1 DUP3 ADD SWAP2 POP PUSH1 0x20 DUP6 ADD SWAP5 POP PUSH1 0x20 DUP2 ADD SWAP1 POP PUSH3 0x753 JUMP JUMPDEST DUP7 DUP4 LT ISZERO PUSH3 0x79A JUMPI DUP5 DUP10 ADD MLOAD PUSH3 0x796 PUSH1 0x1F DUP10 AND DUP3 PUSH3 0x68A JUMP JUMPDEST DUP4 SSTORE POP JUMPDEST PUSH1 0x1 PUSH1 0x2 DUP9 MUL ADD DUP9 SSTORE POP POP POP JUMPDEST POP POP POP POP POP POP JUMP JUMPDEST PUSH2 0x482A DUP1 PUSH3 0x7BF PUSH1 0x0 CODECOPY PUSH1 0x0 RETURN INVALID PUSH1 0x80 PUSH1 0x40 MSTORE CALLVALUE DUP1 ISZERO PUSH2 0x10 JUMPI PUSH1 0x0 DUP1 REVERT JUMPDEST POP PUSH1 0x4 CALLDATASIZE LT PUSH2 0x210 JUMPI PUSH1 0x0 CALLDATALOAD PUSH1 0xE0 SHR DUP1 PUSH4 0x7CA31724 GT PUSH2 0x125 JUMPI DUP1 PUSH4 0xB759F954 GT PUSH2 0xAD JUMPI DUP1 PUSH4 0xEC0DC3E4 GT PUSH2 0x7C JUMPI DUP1 PUSH4 0xEC0DC3E4 EQ PUSH2 0x60B JUMPI DUP1 PUSH4 0xEE73C90A EQ PUSH2 0x627 JUMPI DUP1 PUSH4 0xF242432A EQ PUSH2 0x645 JUMPI DUP1 PUSH4 0xF2FDE38B EQ PUSH2 0x661 JUMPI DUP1 PUSH4 0xFC22A6A3 EQ PUSH2 0x67D JUMPI PUSH2 0x210 JUMP JUMPDEST DUP1 PUSH4 0xB759F954 EQ PUSH2 0x56F JUMPI DUP1 PUSH4 0xC892EADA EQ PUSH2 0x59F JUMPI DUP1 PUSH4 0xE29F5229 EQ PUSH2 0x5BD JUMPI DUP1 PUSH4 0xE985E9C5 EQ PUSH2 0x5DB JUMPI PUSH2 0x210 JUMP JUMPDEST DUP1 PUSH4 0x8DA5CB5B GT PUSH2 0xF4 JUMPI DUP1 PUSH4 0x8DA5CB5B EQ PUSH2 0x4DD JUMPI DUP1 PUSH4 0x906816A6 EQ PUSH2 0x4FB JUMPI DUP1 PUSH4 0xA22CB465 EQ PUSH2 0x517 JUMPI DUP1 PUSH4 0xA2EAFC81 EQ PUSH2 0x533 JUMPI DUP1 PUSH4 0xA8F8FE22 EQ PUSH2 0x551 JUMPI PUSH2 0x210 JUMP JUMPDEST DUP1 PUSH4 0x7CA31724 EQ PUSH2 0x455 JUMPI DUP1 PUSH4 0x7FB0556D EQ PUSH2 0x485 JUMPI DUP1 PUSH4 0x808093D4 EQ PUSH2 0x4A1 JUMPI DUP1 PUSH4 0x8CFD3E40 EQ PUSH2 0x4BF JUMPI PUSH2 0x210 JUMP JUMPDEST DUP1 PUSH4 0x217FCA6E GT PUSH2 0x1A8 JUMPI DUP1 PUSH4 0x4E1273F4 GT PUSH2 0x177 JUMPI DUP1 PUSH4 0x4E1273F4 EQ PUSH2 0x3C3 JUMPI DUP1 PUSH4 0x5AB2AF51 EQ PUSH2 0x3F3 JUMPI DUP1 PUSH4 0x69E1251C EQ PUSH2 0x411 JUMPI DUP1 PUSH4 0x7024795D EQ PUSH2 0x42D JUMPI DUP1 PUSH4 0x715018A6 EQ PUSH2 0x44B JUMPI PUSH2 0x210 JUMP JUMPDEST DUP1 PUSH4 0x217FCA6E EQ PUSH2 0x33B JUMPI DUP1 PUSH4 0x27E235E3 EQ PUSH2 0x359 JUMPI DUP1 PUSH4 0x2EB2C2D6 EQ PUSH2 0x389 JUMPI DUP1 PUSH4 0x419E2191 EQ PUSH2 0x3A5 JUMPI PUSH2 0x210 JUMP JUMPDEST DUP1 PUSH4 0x86126D3 GT PUSH2 0x1E4 JUMPI DUP1 PUSH4 0x86126D3 EQ PUSH2 0x2B1 JUMPI DUP1 PUSH4 0xE89341C EQ PUSH2 0x2CF JUMPI DUP1 PUSH4 0x18B4DD3C EQ PUSH2 0x2FF JUMPI DUP1 PUSH4 0x196E74A7 EQ PUSH2 0x31D JUMPI PUSH2 0x210 JUMP JUMPDEST DUP1 PUSH3 0xFDD58E EQ PUSH2 0x215 JUMPI DUP1 PUSH4 0x1FFC9A7 EQ PUSH2 0x245 JUMPI DUP1 PUSH4 0x648A75E EQ PUSH2 0x275 JUMPI DUP1 PUSH4 0x74CA966 EQ PUSH2 0x293 JUMPI JUMPDEST PUSH1 0x0 DUP1 REVERT JUMPDEST PUSH2 0x22F PUSH1 0x4 DUP1 CALLDATASIZE SUB DUP2 ADD SWAP1 PUSH2 0x22A SWAP2 SWAP1 PUSH2 0x2ABE JUMP JUMPDEST PUSH2 0x6AD JUMP JUMPDEST PUSH1 0x40 MLOAD PUSH2 0x23C SWAP2 SWAP1 PUSH2 0x2B0D JUMP JUMPDEST PUSH1 0x40 MLOAD DUP1 SWAP2 SUB SWAP1 RETURN JUMPDEST PUSH2 0x25F PUSH1 0x4 DUP1 CALLDATASIZE SUB DUP2 ADD SWAP1 PUSH2 0x25A SWAP2 SWAP1 PUSH2 0x2B80 JUMP JUMPDEST PUSH2 0x776 JUMP JUMPDEST PUSH1 0x40 MLOAD PUSH2 0x26C SWAP2 SWAP1 PUSH2 0x2BC8 JUMP JUMPDEST PUSH1 0x40 MLOAD DUP1 SWAP2 SUB SWAP1 RETURN JUMPDEST PUSH2 0x27D PUSH2 0x858 JUMP JUMPDEST PUSH1 0x40 MLOAD PUSH2 0x28A SWAP2 SWAP1 PUSH2 0x2BF2 JUMP JUMPDEST PUSH1 0x40 MLOAD DUP1 SWAP2 SUB SWAP1 RETURN JUMPDEST PUSH2 0x29B PUSH2 0x87E JUMP JUMPDEST PUSH1 0x40 MLOAD PUSH2 0x2A8 SWAP2 SWAP1 PUSH2 0x2BC8 JUMP JUMPDEST PUSH1 0x40 MLOAD DUP1 SWAP2 SUB SWAP1 RETURN JUMPDEST PUSH2 0x2B9 PUSH2 0x891 JUMP JUMPDEST PUSH1 0x40 MLOAD PUSH2 0x2C6 SWAP2 SWAP1 PUSH2 0x2B0D JUMP JUMPDEST PUSH1 0x40 MLOAD DUP1 SWAP2 SUB SWAP1 RETURN JUMPDEST PUSH2 0x2E9 PUSH1 0x4 DUP1 CALLDATASIZE SUB DUP2 ADD SWAP1 PUSH2 0x2E4 SWAP2 SWAP1 PUSH2 0x2C0D JUMP JUMPDEST PUSH2 0x897 JUMP JUMPDEST PUSH1 0x40 MLOAD PUSH2 0x2F6 SWAP2 SWAP1 PUSH2 0x2CCA JUMP JUMPDEST PUSH1 0x40 MLOAD DUP1 SWAP2 SUB SWAP1 RETURN JUMPDEST PUSH2 0x307 PUSH2 0x92B JUMP JUMPDEST PUSH1 0x40 MLOAD PUSH2 0x314 SWAP2 SWAP1 PUSH2 0x2B0D JUMP JUMPDEST PUSH1 0x40 MLOAD DUP1 SWAP2 SUB SWAP1 RETURN JUMPDEST PUSH2 0x325 PUSH2 0x931 JUMP JUMPDEST PUSH1 0x40 MLOAD PUSH2 0x332 SWAP2 SWAP1 PUSH2 0x2B0D JUMP JUMPDEST PUSH1 0x40 MLOAD DUP1 SWAP2 SUB SWAP1 RETURN JUMPDEST PUSH2 0x343 PUSH2 0x937 JUMP JUMPDEST PUSH1 0x40 MLOAD PUSH2 0x350 SWAP2 SWAP1 PUSH2 0x2B0D JUMP JUMPDEST PUSH1 0x40 MLOAD DUP1 SWAP2 SUB SWAP1 RETURN JUMPDEST PUSH2 0x373 PUSH1 0x4 DUP1 CALLDATASIZE SUB DUP2 ADD SWAP1 PUSH2 0x36E SWAP2 SWAP1 PUSH2 0x2CEC JUMP JUMPDEST PUSH2 0x93D JUMP JUMPDEST PUSH1 0x40 MLOAD PUSH2 0x380 SWAP2 SWAP1 PUSH2 0x2B0D JUMP JUMPDEST PUSH1 0x40 MLOAD DUP1 SWAP2 SUB SWAP1 RETURN JUMPDEST PUSH2 0x3A3 PUSH1 0x4 DUP1 CALLDATASIZE SUB DUP2 ADD SWAP1 PUSH2 0x39E SWAP2 SWAP1 PUSH2 0x2F16 JUMP JUMPDEST PUSH2 0x955 JUMP JUMPDEST STOP JUMPDEST PUSH2 0x3AD PUSH2 0x9F6 JUMP JUMPDEST PUSH1 0x40 MLOAD PUSH2 0x3BA SWAP2 SWAP1 PUSH2 0x2B0D JUMP JUMPDEST PUSH1 0x40 MLOAD DUP1 SWAP2 SUB SWAP1 RETURN JUMPDEST PUSH2 0x3DD PUSH1 0x4 DUP1 CALLDATASIZE SUB DUP2 ADD SWAP1 PUSH2 0x3D8 SWAP2 SWAP1 PUSH2 0x30A8 JUMP JUMPDEST PUSH2 0x9FC JUMP JUMPDEST PUSH1 0x40 MLOAD PUSH2 0x3EA SWAP2 SWAP1 PUSH2 0x31DE JUMP JUMPDEST PUSH1 0x40 MLOAD DUP1 SWAP2 SUB SWAP1 RETURN JUMPDEST PUSH2 0x3FB PUSH2 0xB15 JUMP JUMPDEST PUSH1 0x40 MLOAD PUSH2 0x408 SWAP2 SWAP1 PUSH2 0x2B0D JUMP JUMPDEST PUSH1 0x40 MLOAD DUP1 SWAP2 SUB SWAP1 RETURN JUMPDEST PUSH2 0x42B PUSH1 0x4 DUP1 CALLDATASIZE SUB DUP2 ADD SWAP1 PUSH2 0x426 SWAP2 SWAP1 PUSH2 0x3200 JUMP JUMPDEST PUSH2 0xB1B JUMP JUMPDEST STOP JUMPDEST PUSH2 0x435 PUSH2 0xD23 JUMP JUMPDEST PUSH1 0x40 MLOAD PUSH2 0x442 SWAP2 SWAP1 PUSH2 0x2B0D JUMP JUMPDEST PUSH1 0x40 MLOAD DUP1 SWAP2 SUB SWAP1 RETURN JUMPDEST PUSH2 0x453 PUSH2 0xD29 JUMP JUMPDEST STOP JUMPDEST PUSH2 0x46F PUSH1 0x4 DUP1 CALLDATASIZE SUB DUP2 ADD SWAP1 PUSH2 0x46A SWAP2 SWAP1 PUSH2 0x2CEC JUMP JUMPDEST PUSH2 0xD3D JUMP JUMPDEST PUSH1 0x40 MLOAD PUSH2 0x47C SWAP2 SWAP1 PUSH2 0x2B0D JUMP JUMPDEST PUSH1 0x40 MLOAD DUP1 SWAP2 SUB SWAP1 RETURN JUMPDEST PUSH2 0x49F PUSH1 0x4 DUP1 CALLDATASIZE SUB DUP2 ADD SWAP1 PUSH2 0x49A SWAP2 SWAP1 PUSH2 0x2C0D JUMP JUMPDEST PUSH2 0xD55 JUMP JUMPDEST STOP JUMPDEST PUSH2 0x4A9 PUSH2 0x12D7 JUMP JUMPDEST PUSH1 0x40 MLOAD PUSH2 0x4B6 SWAP2 SWAP1 PUSH2 0x2B0D JUMP JUMPDEST PUSH1 0x40 MLOAD DUP1 SWAP2 SUB SWAP1 RETURN JUMPDEST PUSH2 0x4C7 PUSH2 0x12DD JUMP JUMPDEST PUSH1 0x40 MLOAD PUSH2 0x4D4 SWAP2 SWAP1 PUSH2 0x2B0D JUMP JUMPDEST PUSH1 0x40 MLOAD DUP1 SWAP2 SUB SWAP1 RETURN JUMPDEST PUSH2 0x4E5 PUSH2 0x12E3 JUMP JUMPDEST PUSH1 0x40 MLOAD PUSH2 0x4F2 SWAP2 SWAP1 PUSH2 0x2BF2 JUMP JUMPDEST PUSH1 0x40 MLOAD DUP1 SWAP2 SUB SWAP1 RETURN JUMPDEST PUSH2 0x515 PUSH1 0x4 DUP1 CALLDATASIZE SUB DUP2 ADD SWAP1 PUSH2 0x510 SWAP2 SWAP1 PUSH2 0x2C0D JUMP JUMPDEST PUSH2 0x130C JUMP JUMPDEST STOP JUMPDEST PUSH2 0x531 PUSH1 0x4 DUP1 CALLDATASIZE SUB DUP2 ADD SWAP1 PUSH2 0x52C SWAP2 SWAP1 PUSH2 0x32B9 JUMP JUMPDEST PUSH2 0x1678 JUMP JUMPDEST STOP JUMPDEST PUSH2 0x53B PUSH2 0x168E JUMP JUMPDEST PUSH1 0x40 MLOAD PUSH2 0x548 SWAP2 SWAP1 PUSH2 0x2B0D JUMP JUMPDEST PUSH1 0x40 MLOAD DUP1 SWAP2 SUB SWAP1 RETURN JUMPDEST PUSH2 0x559 PUSH2 0x1694 JUMP JUMPDEST PUSH1 0x40 MLOAD PUSH2 0x566 SWAP2 SWAP1 PUSH2 0x2B0D JUMP JUMPDEST PUSH1 0x40 MLOAD DUP1 SWAP2 SUB SWAP1 RETURN JUMPDEST PUSH2 0x589 PUSH1 0x4 DUP1 CALLDATASIZE SUB DUP2 ADD SWAP1 PUSH2 0x584 SWAP2 SWAP1 PUSH2 0x2C0D JUMP JUMPDEST PUSH2 0x169A JUMP JUMPDEST PUSH1 0x40 MLOAD PUSH2 0x596 SWAP2 SWAP1 PUSH2 0x2BC8 JUMP JUMPDEST PUSH1 0x40 MLOAD DUP1 SWAP2 SUB SWAP1 RETURN JUMPDEST PUSH2 0x5A7 PUSH2 0x1753 JUMP JUMPDEST PUSH1 0x40 MLOAD PUSH2 0x5B4 SWAP2 SWAP1 PUSH2 0x2BC8 JUMP JUMPDEST PUSH1 0x40 MLOAD DUP1 SWAP2 SUB SWAP1 RETURN JUMPDEST PUSH2 0x5C5 PUSH2 0x1766 JUMP JUMPDEST PUSH1 0x40 MLOAD PUSH2 0x5D2 SWAP2 SWAP1 PUSH2 0x2B0D JUMP JUMPDEST PUSH1 0x40 MLOAD DUP1 SWAP2 SUB SWAP1 RETURN JUMPDEST PUSH2 0x5F5 PUSH1 0x4 DUP1 CALLDATASIZE SUB DUP2 ADD SWAP1 PUSH2 0x5F0 SWAP2 SWAP1 PUSH2 0x32F9 JUMP JUMPDEST PUSH2 0x176C JUMP JUMPDEST PUSH1 0x40 MLOAD PUSH2 0x602 SWAP2 SWAP1 PUSH2 0x2BC8 JUMP JUMPDEST PUSH1 0x40 MLOAD DUP1 SWAP2 SUB SWAP1 RETURN JUMPDEST PUSH2 0x625 PUSH1 0x4 DUP1 CALLDATASIZE SUB DUP2 ADD SWAP1 PUSH2 0x620 SWAP2 SWAP1 PUSH2 0x2C0D JUMP JUMPDEST PUSH2 0x1800 JUMP JUMPDEST STOP JUMPDEST PUSH2 0x62F PUSH2 0x1AAA JUMP JUMPDEST PUSH1 0x40 MLOAD PUSH2 0x63C SWAP2 SWAP1 PUSH2 0x2B0D JUMP JUMPDEST PUSH1 0x40 MLOAD DUP1 SWAP2 SUB SWAP1 RETURN JUMPDEST PUSH2 0x65F PUSH1 0x4 DUP1 CALLDATASIZE SUB DUP2 ADD SWAP1 PUSH2 0x65A SWAP2 SWAP1 PUSH2 0x3339 JUMP JUMPDEST PUSH2 0x1AB0 JUMP JUMPDEST STOP JUMPDEST PUSH2 0x67B PUSH1 0x4 DUP1 CALLDATASIZE SUB DUP2 ADD SWAP1 PUSH2 0x676 SWAP2 SWAP1 PUSH2 0x2CEC JUMP JUMPDEST PUSH2 0x1B51 JUMP JUMPDEST STOP JUMPDEST PUSH2 0x697 PUSH1 0x4 DUP1 CALLDATASIZE SUB DUP2 ADD SWAP1 PUSH2 0x692 SWAP2 SWAP1 PUSH2 0x2CEC JUMP JUMPDEST PUSH2 0x1BD4 JUMP JUMPDEST PUSH1 0x40 MLOAD PUSH2 0x6A4 SWAP2 SWAP1 PUSH2 0x2B0D JUMP JUMPDEST PUSH1 0x40 MLOAD DUP1 SWAP2 SUB SWAP1 RETURN JUMPDEST PUSH1 0x0 DUP1 PUSH20 0xFFFFFFFFFFFFFFFFFFFFFFFFFFFFFFFFFFFFFFFF AND DUP4 PUSH20 0xFFFFFFFFFFFFFFFFFFFFFFFFFFFFFFFFFFFFFFFF AND SUB PUSH2 0x71D JUMPI PUSH1 0x40 MLOAD PUSH32 0x8C379A000000000000000000000000000000000000000000000000000000000 DUP2 MSTORE PUSH1 0x4 ADD PUSH2 0x714 SWAP1 PUSH2 0x3442 JUMP JUMPDEST PUSH1 0x40 MLOAD DUP1 SWAP2 SUB SWAP1 REVERT JUMPDEST PUSH1 0x1 PUSH1 0x0 DUP4 DUP2 MSTORE PUSH1 0x20 ADD SWAP1 DUP2 MSTORE PUSH1 0x20 ADD PUSH1 0x0 KECCAK256 PUSH1 0x0 DUP5 PUSH20 0xFFFFFFFFFFFFFFFFFFFFFFFFFFFFFFFFFFFFFFFF AND PUSH20 0xFFFFFFFFFFFFFFFFFFFFFFFFFFFFFFFFFFFFFFFF AND DUP2 MSTORE PUSH1 0x20 ADD SWAP1 DUP2 MSTORE PUSH1 0x20 ADD PUSH1 0x0 KECCAK256 SLOAD SWAP1 POP SWAP3 SWAP2 POP POP JUMP JUMPDEST PUSH1 0x0 PUSH32 0xD9B67A2600000000000000000000000000000000000000000000000000000000 PUSH28 0xFFFFFFFFFFFFFFFFFFFFFFFFFFFFFFFFFFFFFFFFFFFFFFFFFFFFFFFF NOT AND DUP3 PUSH28 0xFFFFFFFFFFFFFFFFFFFFFFFFFFFFFFFFFFFFFFFFFFFFFFFFFFFFFFFF NOT AND EQ DUP1 PUSH2 0x841 JUMPI POP PUSH32 0xE89341C00000000000000000000000000000000000000000000000000000000 PUSH28 0xFFFFFFFFFFFFFFFFFFFFFFFFFFFFFFFFFFFFFFFFFFFFFFFFFFFFFFFF NOT AND DUP3 PUSH28 0xFFFFFFFFFFFFFFFFFFFFFFFFFFFFFFFFFFFFFFFFFFFFFFFFFFFFFFFF NOT AND EQ JUMPDEST DUP1 PUSH2 0x851 JUMPI POP PUSH2 0x850 DUP3 PUSH2 0x1BEC JUMP JUMPDEST JUMPDEST SWAP1 POP SWAP2 SWAP1 POP JUMP JUMPDEST PUSH1 0xB PUSH1 0x0 SWAP1 SLOAD SWAP1 PUSH2 0x100 EXP SWAP1 DIV PUSH20 0xFFFFFFFFFFFFFFFFFFFFFFFFFFFFFFFFFFFFFFFF AND DUP2 JUMP JUMPDEST PUSH1 0x19 PUSH1 0x1 SWAP1 SLOAD SWAP1 PUSH2 0x100 EXP SWAP1 DIV PUSH1 0xFF AND DUP2 JUMP JUMPDEST PUSH1 0x10 SLOAD DUP2 JUMP JUMPDEST PUSH1 0x60 PUSH1 0x3 DUP1 SLOAD PUSH2 0x8A6 SWAP1 PUSH2 0x3491 JUMP JUMPDEST DUP1 PUSH1 0x1F ADD PUSH1 0x20 DUP1 SWAP2 DIV MUL PUSH1 0x20 ADD PUSH1 0x40 MLOAD SWAP1 DUP2 ADD PUSH1 0x40 MSTORE DUP1 SWAP3 SWAP2 SWAP1 DUP2 DUP2 MSTORE PUSH1 0x20 ADD DUP3 DUP1 SLOAD PUSH2 0x8D2 SWAP1 PUSH2 0x3491 JUMP JUMPDEST DUP1 ISZERO PUSH2 0x91F JUMPI DUP1 PUSH1 0x1F LT PUSH2 0x8F4 JUMPI PUSH2 0x100 DUP1 DUP4 SLOAD DIV MUL DUP4 MSTORE SWAP2 PUSH1 0x20 ADD SWAP2 PUSH2 0x91F JUMP JUMPDEST DUP3 ADD SWAP2 SWAP1 PUSH1 0x0 MSTORE PUSH1 0x20 PUSH1 0x0 KECCAK256 SWAP1 JUMPDEST DUP2 SLOAD DUP2 MSTORE SWAP1 PUSH1 0x1 ADD SWAP1 PUSH1 0x20 ADD DUP1 DUP4 GT PUSH2 0x902 JUMPI DUP3 SWAP1 SUB PUSH1 0x1F AND DUP3 ADD SWAP2 JUMPDEST POP POP POP POP POP SWAP1 POP SWAP2 SWAP1 POP JUMP JUMPDEST PUSH1 0x11 SLOAD DUP2 JUMP JUMPDEST PUSH1 0x12 SLOAD DUP2 JUMP JUMPDEST PUSH1 0x1A SLOAD DUP2 JUMP JUMPDEST PUSH1 0x4 PUSH1 0x20 MSTORE DUP1 PUSH1 0x0 MSTORE PUSH1 0x40 PUSH1 0x0 KECCAK256 PUSH1 0x0 SWAP2 POP SWAP1 POP SLOAD DUP2 JUMP JUMPDEST PUSH2 0x95D PUSH2 0x1C56 JUMP JUMPDEST PUSH20 0xFFFFFFFFFFFFFFFFFFFFFFFFFFFFFFFFFFFFFFFF AND DUP6 PUSH20 0xFFFFFFFFFFFFFFFFFFFFFFFFFFFFFFFFFFFFFFFF AND EQ DUP1 PUSH2 0x9A3 JUMPI POP PUSH2 0x9A2 DUP6 PUSH2 0x99D PUSH2 0x1C56 JUMP JUMPDEST PUSH2 0x176C JUMP JUMPDEST JUMPDEST PUSH2 0x9E2 JUMPI PUSH1 0x40 MLOAD PUSH32 0x8C379A000000000000000000000000000000000000000000000000000000000 DUP2 MSTORE PUSH1 0x4 ADD PUSH2 0x9D9 SWAP1 PUSH2 0x3534 JUMP JUMPDEST PUSH1 0x40 MLOAD DUP1 SWAP2 SUB SWAP1 REVERT JUMPDEST PUSH2 0x9EF DUP6 DUP6 DUP6 DUP6 DUP6 PUSH2 0x1C5E JUMP JUMPDEST POP POP POP POP POP JUMP JUMPDEST PUSH1 0xD SLOAD DUP2 JUMP JUMPDEST PUSH1 0x60 DUP2 MLOAD DUP4 MLOAD EQ PUSH2 0xA42 JUMPI PUSH1 0x40 MLOAD PUSH32 0x8C379A000000000000000000000000000000000000000000000000000000000 DUP2 MSTORE PUSH1 0x4 ADD PUSH2 0xA39 SWAP1 PUSH2 0x35C6 JUMP JUMPDEST PUSH1 0x40 MLOAD DUP1 SWAP2 SUB SWAP1 REVERT JUMPDEST PUSH1 0x0 DUP4 MLOAD PUSH8 0xFFFFFFFFFFFFFFFF DUP2 GT ISZERO PUSH2 0xA5F JUMPI PUSH2 0xA5E PUSH2 0x2D1E JUMP JUMPDEST JUMPDEST PUSH1 0x40 MLOAD SWAP1 DUP1 DUP3 MSTORE DUP1 PUSH1 0x20 MUL PUSH1 0x20 ADD DUP3 ADD PUSH1 0x40 MSTORE DUP1 ISZERO PUSH2 0xA8D JUMPI DUP2 PUSH1 0x20 ADD PUSH1 0x20 DUP3 MUL DUP1 CALLDATASIZE DUP4 CALLDATACOPY DUP1 DUP3 ADD SWAP2 POP POP SWAP1 POP JUMPDEST POP SWAP1 POP PUSH1 0x0 JUMPDEST DUP5 MLOAD DUP2 LT ISZERO PUSH2 0xB0A JUMPI PUSH2 0xADA DUP6 DUP3 DUP2 MLOAD DUP2 LT PUSH2 0xAB2 JUMPI PUSH2 0xAB1 PUSH2 0x35E6 JUMP JUMPDEST JUMPDEST PUSH1 0x20 MUL PUSH1 0x20 ADD ADD MLOAD DUP6 DUP4 DUP2 MLOAD DUP2 LT PUSH2 0xACD JUMPI PUSH2 0xACC PUSH2 0x35E6 JUMP JUMPDEST JUMPDEST PUSH1 0x20 MUL PUSH1 0x20 ADD ADD MLOAD PUSH2 0x6AD JUMP JUMPDEST DUP3 DUP3 DUP2 MLOAD DUP2 LT PUSH2 0xAED JUMPI PUSH2 0xAEC PUSH2 0x35E6 JUMP JUMPDEST JUMPDEST PUSH1 0x20 MUL PUSH1 0x20 ADD ADD DUP2 DUP2 MSTORE POP POP DUP1 PUSH2 0xB03 SWAP1 PUSH2 0x3644 JUMP JUMPDEST SWAP1 POP PUSH2 0xA93 JUMP JUMPDEST POP DUP1 SWAP2 POP POP SWAP3 SWAP2 POP POP JUMP JUMPDEST PUSH1 0xE SLOAD DUP2 JUMP JUMPDEST PUSH2 0xB23 PUSH2 0x1F82 JUMP JUMPDEST PUSH1 0xA DUP5 LT ISZERO PUSH2 0xB67 JUMPI PUSH1 0x40 MLOAD PUSH32 0x8C379A000000000000000000000000000000000000000000000000000000000 DUP2 MSTORE PUSH1 0x4 ADD PUSH2 0xB5E SWAP1 PUSH2 0x36FE JUMP JUMPDEST PUSH1 0x40 MLOAD DUP1 SWAP2 SUB SWAP1 REVERT JUMPDEST DUP4 DUP3 LT DUP1 ISZERO PUSH2 0xB77 JUMPI POP PUSH1 0x28 DUP3 LT ISZERO JUMPDEST PUSH2 0xBB6 JUMPI PUSH1 0x40 MLOAD PUSH32 0x8C379A000000000000000000000000000000000000000000000000000000000 DUP2 MSTORE PUSH1 0x4 ADD PUSH2 0xBAD SWAP1 PUSH2 0x37B6 JUMP JUMPDEST PUSH1 0x40 MLOAD DUP1 SWAP2 SUB SWAP1 REVERT JUMPDEST PUSH1 0x32 DUP2 LT ISZERO PUSH2 0xBFA JUMPI PUSH1 0x40 MLOAD PUSH32 0x8C379A000000000000000000000000000000000000000000000000000000000 DUP2 MSTORE PUSH1 0x4 ADD PUSH2 0xBF1 SWAP1 PUSH2 0x3848 JUMP JUMPDEST PUSH1 0x40 MLOAD DUP1 SWAP2 SUB SWAP1 REVERT JUMPDEST PUSH1 0x1 DUP4 LT ISZERO PUSH2 0xC3E JUMPI PUSH1 0x40 MLOAD PUSH32 0x8C379A000000000000000000000000000000000000000000000000000000000 DUP2 MSTORE PUSH1 0x4 ADD PUSH2 0xC35 SWAP1 PUSH2 0x38DA JUMP JUMPDEST PUSH1 0x40 MLOAD DUP1 SWAP2 SUB SWAP1 REVERT JUMPDEST DUP6 PUSH1 0xB PUSH1 0x0 PUSH2 0x100 EXP DUP2 SLOAD DUP2 PUSH20 0xFFFFFFFFFFFFFFFFFFFFFFFFFFFFFFFFFFFFFFFF MUL NOT AND SWAP1 DUP4 PUSH20 0xFFFFFFFFFFFFFFFFFFFFFFFFFFFFFFFFFFFFFFFF AND MUL OR SWAP1 SSTORE POP DUP5 PUSH1 0xC DUP2 SWAP1 SSTORE POP DUP4 PUSH1 0x10 DUP2 SWAP1 SSTORE POP DUP1 PUSH1 0xE DUP2 SWAP1 SSTORE POP DUP2 PUSH1 0xF DUP2 SWAP1 SSTORE POP DUP3 PUSH1 0x11 DUP2 SWAP1 SSTORE POP PUSH1 0x0 PUSH1 0x19 PUSH1 0x0 PUSH2 0x100 EXP DUP2 SLOAD DUP2 PUSH1 0xFF MUL NOT AND SWAP1 DUP4 ISZERO ISZERO MUL OR SWAP1 SSTORE POP PUSH1 0x1 PUSH1 0x19 PUSH1 0x1 PUSH2 0x100 EXP DUP2 SLOAD DUP2 PUSH1 0xFF MUL NOT AND SWAP1 DUP4 ISZERO ISZERO MUL OR SWAP1 SSTORE POP PUSH32 0xAFD765BA31F9A5A1BDC5E1A2CE2079ECD6FCDCD9A80562B4D4002C050445178B DUP7 PUSH1 0xC SLOAD PUSH1 0x15 SLOAD DUP8 DUP8 PUSH1 0x40 MLOAD PUSH2 0xD13 SWAP6 SWAP5 SWAP4 SWAP3 SWAP2 SWAP1 PUSH2 0x38FA JUMP JUMPDEST PUSH1 0x40 MLOAD DUP1 SWAP2 SUB SWAP1 LOG1 POP POP POP POP POP POP JUMP JUMPDEST PUSH1 0x15 SLOAD DUP2 JUMP JUMPDEST PUSH2 0xD31 PUSH2 0x1F82 JUMP JUMPDEST PUSH2 0xD3B PUSH1 0x0 PUSH2 0x2000 JUMP JUMPDEST JUMP JUMPDEST PUSH1 0x5 PUSH1 0x20 MSTORE DUP1 PUSH1 0x0 MSTORE PUSH1 0x40 PUSH1 0x0 KECCAK256 PUSH1 0x0 SWAP2 POP SWAP1 POP SLOAD DUP2 JUMP JUMPDEST PUSH1 0x19 PUSH1 0x1 SWAP1 SLOAD SWAP1 PUSH2 0x100 EXP SWAP1 DIV PUSH1 0xFF AND PUSH2 0xDA4 JUMPI PUSH1 0x40 MLOAD PUSH32 0x8C379A000000000000000000000000000000000000000000000000000000000 DUP2 MSTORE PUSH1 0x4 ADD PUSH2 0xD9B SWAP1 PUSH2 0x3999 JUMP JUMPDEST PUSH1 0x40 MLOAD DUP1 SWAP2 SUB SWAP1 REVERT JUMPDEST PUSH1 0x1 DUP2 LT ISZERO PUSH2 0xDE8 JUMPI PUSH1 0x40 MLOAD PUSH32 0x8C379A000000000000000000000000000000000000000000000000000000000 DUP2 MSTORE PUSH1 0x4 ADD PUSH2 0xDDF SWAP1 PUSH2 0x3A2B JUMP JUMPDEST PUSH1 0x40 MLOAD DUP1 SWAP2 SUB SWAP1 REVERT JUMPDEST PUSH1 0xC SLOAD PUSH1 0x12 SLOAD DUP3 PUSH2 0xDF9 SWAP2 SWAP1 PUSH2 0x3A4B JUMP JUMPDEST GT ISZERO PUSH2 0xE3A JUMPI PUSH1 0x40 MLOAD PUSH32 0x8C379A000000000000000000000000000000000000000000000000000000000 DUP2 MSTORE PUSH1 0x4 ADD PUSH2 0xE31 SWAP1 PUSH2 0x3AF1 JUMP JUMPDEST PUSH1 0x40 MLOAD DUP1 SWAP2 SUB SWAP1 REVERT JUMPDEST DUP1 PUSH1 0x9 SLOAD PUSH1 0xA PUSH1 0x0 SWAP1 SLOAD SWAP1 PUSH2 0x100 EXP SWAP1 DIV PUSH20 0xFFFFFFFFFFFFFFFFFFFFFFFFFFFFFFFFFFFFFFFF AND PUSH20 0xFFFFFFFFFFFFFFFFFFFFFFFFFFFFFFFFFFFFFFFF AND PUSH4 0x70A08231 CALLER PUSH1 0x40 MLOAD DUP3 PUSH4 0xFFFFFFFF AND PUSH1 0xE0 SHL DUP2 MSTORE PUSH1 0x4 ADD PUSH2 0xE99 SWAP2 SWAP1 PUSH2 0x2BF2 JUMP JUMPDEST PUSH1 0x20 PUSH1 0x40 MLOAD DUP1 DUP4 SUB DUP2 DUP7 GAS STATICCALL ISZERO DUP1 ISZERO PUSH2 0xEB6 JUMPI RETURNDATASIZE PUSH1 0x0 DUP1 RETURNDATACOPY RETURNDATASIZE PUSH1 0x0 REVERT JUMPDEST POP POP POP POP PUSH1 0x40 MLOAD RETURNDATASIZE PUSH1 0x1F NOT PUSH1 0x1F DUP3 ADD AND DUP3 ADD DUP1 PUSH1 0x40 MSTORE POP DUP2 ADD SWAP1 PUSH2 0xEDA SWAP2 SWAP1 PUSH2 0x3B26 JUMP JUMPDEST PUSH2 0xEE4 SWAP2 SWAP1 PUSH2 0x3B82 JUMP JUMPDEST LT ISZERO PUSH2 0xF25 JUMPI PUSH1 0x40 MLOAD PUSH32 0x8C379A000000000000000000000000000000000000000000000000000000000 DUP2 MSTORE PUSH1 0x4 ADD PUSH2 0xF1C SWAP1 PUSH2 0x3BFF JUMP JUMPDEST PUSH1 0x40 MLOAD DUP1 SWAP2 SUB SWAP1 REVERT JUMPDEST DUP1 PUSH1 0x12 PUSH1 0x0 DUP3 DUP3 SLOAD PUSH2 0xF37 SWAP2 SWAP1 PUSH2 0x3A4B JUMP JUMPDEST SWAP3 POP POP DUP2 SWAP1 SSTORE POP PUSH1 0x7 SLOAD PUSH1 0xE SLOAD DUP3 PUSH2 0xF4F SWAP2 SWAP1 PUSH2 0x3C1F JUMP JUMPDEST PUSH2 0xF59 SWAP2 SWAP1 PUSH2 0x3B82 JUMP JUMPDEST PUSH1 0x1A DUP2 SWAP1 SSTORE POP PUSH1 0x0 PUSH1 0x7 SLOAD PUSH1 0x8 SLOAD PUSH1 0x11 SLOAD PUSH1 0x10 SLOAD PUSH2 0xF77 SWAP2 SWAP1 PUSH2 0x3C1F JUMP JUMPDEST PUSH2 0xF81 SWAP2 SWAP1 PUSH2 0x3B82 JUMP JUMPDEST PUSH2 0x2710 PUSH2 0xF8E SWAP2 SWAP1 PUSH2 0x3A4B JUMP JUMPDEST PUSH1 0x1A SLOAD PUSH2 0xF9B SWAP2 SWAP1 PUSH2 0x3C1F JUMP JUMPDEST PUSH2 0xFA5 SWAP2 SWAP1 PUSH2 0x3B82 JUMP JUMPDEST SWAP1 POP PUSH1 0x0 PUSH1 0x7 SLOAD PUSH1 0x8 SLOAD PUSH1 0x11 SLOAD PUSH1 0xF SLOAD PUSH2 0xFBF SWAP2 SWAP1 PUSH2 0x3C1F JUMP JUMPDEST PUSH2 0xFC9 SWAP2 SWAP1 PUSH2 0x3B82 JUMP JUMPDEST DUP5 PUSH2 0xFD4 SWAP2 SWAP1 PUSH2 0x3C1F JUMP JUMPDEST PUSH2 0xFDE SWAP2 SWAP1 PUSH2 0x3B82 JUMP JUMPDEST SWAP1 POP DUP2 DUP2 PUSH2 0xFEC SWAP2 SWAP1 PUSH2 0x3A4B JUMP JUMPDEST PUSH1 0x15 PUSH1 0x0 DUP3 DUP3 SLOAD PUSH2 0xFFD SWAP2 SWAP1 PUSH2 0x3A4B JUMP JUMPDEST SWAP3 POP POP DUP2 SWAP1 SSTORE POP PUSH1 0x0 PUSH1 0x7 SLOAD PUSH1 0x8 SLOAD PUSH1 0x11 SLOAD PUSH1 0xF SLOAD PUSH1 0x10 SLOAD PUSH2 0x101F SWAP2 SWAP1 PUSH2 0x3C61 JUMP JUMPDEST PUSH2 0x1029 SWAP2 SWAP1 PUSH2 0x3C1F JUMP JUMPDEST PUSH2 0x1033 SWAP2 SWAP1 PUSH2 0x3B82 JUMP JUMPDEST PUSH2 0x2710 PUSH2 0x1040 SWAP2 SWAP1 PUSH2 0x3A4B JUMP JUMPDEST DUP6 PUSH2 0x104B SWAP2 SWAP1 PUSH2 0x3C1F JUMP JUMPDEST PUSH2 0x1055 SWAP2 SWAP1 PUSH2 0x3B82 JUMP JUMPDEST SWAP1 POP DUP1 PUSH1 0x13 PUSH1 0x0 DUP3 DUP3 SLOAD PUSH2 0x1069 SWAP2 SWAP1 PUSH2 0x3A4B JUMP JUMPDEST SWAP3 POP POP DUP2 SWAP1 SSTORE POP PUSH1 0x13 SLOAD PUSH1 0x15 SLOAD PUSH2 0x1080 SWAP2 SWAP1 PUSH2 0x3A4B JUMP JUMPDEST PUSH1 0x14 DUP2 SWAP1 SSTORE POP PUSH1 0x11 SLOAD PUSH1 0x14 SLOAD PUSH2 0x1096 SWAP2 SWAP1 PUSH2 0x3B82 JUMP JUMPDEST PUSH1 0x17 DUP2 SWAP1 SSTORE POP PUSH1 0x1 PUSH1 0x18 PUSH1 0x0 DUP3 DUP3 SLOAD PUSH2 0x10AF SWAP2 SWAP1 PUSH2 0x3A4B JUMP JUMPDEST SWAP3 POP POP DUP2 SWAP1 SSTORE POP DUP4 PUSH1 0x4 PUSH1 0x0 CALLER PUSH20 0xFFFFFFFFFFFFFFFFFFFFFFFFFFFFFFFFFFFFFFFF AND PUSH20 0xFFFFFFFFFFFFFFFFFFFFFFFFFFFFFFFFFFFFFFFF AND DUP2 MSTORE PUSH1 0x20 ADD SWAP1 DUP2 MSTORE PUSH1 0x20 ADD PUSH1 0x0 KECCAK256 PUSH1 0x0 DUP3 DUP3 SLOAD PUSH2 0x1105 SWAP2 SWAP1 PUSH2 0x3A4B JUMP JUMPDEST SWAP3 POP POP DUP2 SWAP1 SSTORE POP PUSH1 0x18 SLOAD PUSH1 0x5 PUSH1 0x0 CALLER PUSH20 0xFFFFFFFFFFFFFFFFFFFFFFFFFFFFFFFFFFFFFFFF AND PUSH20 0xFFFFFFFFFFFFFFFFFFFFFFFFFFFFFFFFFFFFFFFF AND DUP2 MSTORE PUSH1 0x20 ADD SWAP1 DUP2 MSTORE PUSH1 0x20 ADD PUSH1 0x0 KECCAK256 DUP2 SWAP1 SSTORE POP PUSH1 0x11 SLOAD DUP2 PUSH2 0x1160 SWAP2 SWAP1 PUSH2 0x3B82 JUMP JUMPDEST PUSH1 0x6 PUSH1 0x0 CALLER PUSH20 0xFFFFFFFFFFFFFFFFFFFFFFFFFFFFFFFFFFFFFFFF AND PUSH20 0xFFFFFFFFFFFFFFFFFFFFFFFFFFFFFFFFFFFFFFFF AND DUP2 MSTORE PUSH1 0x20 ADD SWAP1 DUP2 MSTORE PUSH1 0x20 ADD PUSH1 0x0 KECCAK256 DUP2 SWAP1 SSTORE POP PUSH1 0x11 SLOAD PUSH1 0x15 SLOAD PUSH2 0x11B3 SWAP2 SWAP1 PUSH2 0x3B82 JUMP JUMPDEST PUSH1 0x16 DUP2 SWAP1 SSTORE POP PUSH1 0xA PUSH1 0x0 SWAP1 SLOAD SWAP1 PUSH2 0x100 EXP SWAP1 DIV PUSH20 0xFFFFFFFFFFFFFFFFFFFFFFFFFFFFFFFFFFFFFFFF AND PUSH20 0xFFFFFFFFFFFFFFFFFFFFFFFFFFFFFFFFFFFFFFFF AND PUSH4 0x23B872DD CALLER ADDRESS PUSH1 0x9 SLOAD DUP9 PUSH2 0x1207 SWAP2 SWAP1 PUSH2 0x3C1F JUMP JUMPDEST PUSH1 0x40 MLOAD DUP5 PUSH4 0xFFFFFFFF AND PUSH1 0xE0 SHL DUP2 MSTORE PUSH1 0x4 ADD PUSH2 0x1225 SWAP4 SWAP3 SWAP2 SWAP1 PUSH2 0x3C95 JUMP JUMPDEST PUSH1 0x20 PUSH1 0x40 MLOAD DUP1 DUP4 SUB DUP2 PUSH1 0x0 DUP8 GAS CALL ISZERO DUP1 ISZERO PUSH2 0x1244 JUMPI RETURNDATASIZE PUSH1 0x0 DUP1 RETURNDATACOPY RETURNDATASIZE PUSH1 0x0 REVERT JUMPDEST POP POP POP POP PUSH1 0x40 MLOAD RETURNDATASIZE PUSH1 0x1F NOT PUSH1 0x1F DUP3 ADD AND DUP3 ADD DUP1 PUSH1 0x40 MSTORE POP DUP2 ADD SWAP1 PUSH2 0x1268 SWAP2 SWAP1 PUSH2 0x3CE1 JUMP JUMPDEST POP PUSH2 0x1296 CALLER PUSH1 0xB PUSH1 0x0 SWAP1 SLOAD SWAP1 PUSH2 0x100 EXP SWAP1 DIV PUSH20 0xFFFFFFFFFFFFFFFFFFFFFFFFFFFFFFFFFFFFFFFF AND DUP7 PUSH2 0x20C5 JUMP JUMPDEST PUSH32 0xDDF252AD1BE2C89B69C2B068FC378DAA952BA7F163C4A11628F55A4DF523B3EF CALLER ADDRESS DUP7 PUSH1 0x40 MLOAD PUSH2 0x12C9 SWAP4 SWAP3 SWAP2 SWAP1 PUSH2 0x3C95 JUMP JUMPDEST PUSH1 0x40 MLOAD DUP1 SWAP2 SUB SWAP1 LOG1 POP POP POP POP JUMP JUMPDEST PUSH1 0xC SLOAD DUP2 JUMP JUMPDEST PUSH1 0x16 SLOAD DUP2 JUMP JUMPDEST PUSH1 0x0 DUP1 PUSH1 0x2 SWAP1 SLOAD SWAP1 PUSH2 0x100 EXP SWAP1 DIV PUSH20 0xFFFFFFFFFFFFFFFFFFFFFFFFFFFFFFFFFFFFFFFF AND SWAP1 POP SWAP1 JUMP JUMPDEST PUSH2 0x1314 PUSH2 0x1F82 JUMP JUMPDEST PUSH1 0x19 PUSH1 0x1 SWAP1 SLOAD SWAP1 PUSH2 0x100 EXP SWAP1 DIV PUSH1 0xFF AND PUSH2 0x1363 JUMPI PUSH1 0x40 MLOAD PUSH32 0x8C379A000000000000000000000000000000000000000000000000000000000 DUP2 MSTORE PUSH1 0x4 ADD PUSH2 0x135A SWAP1 PUSH2 0x3D5A JUMP JUMPDEST PUSH1 0x40 MLOAD DUP1 SWAP2 SUB SWAP1 REVERT JUMPDEST PUSH1 0x1 DUP2 LT ISZERO PUSH2 0x13A7 JUMPI PUSH1 0x40 MLOAD PUSH32 0x8C379A000000000000000000000000000000000000000000000000000000000 DUP2 MSTORE PUSH1 0x4 ADD PUSH2 0x139E SWAP1 PUSH2 0x3DEC JUMP JUMPDEST PUSH1 0x40 MLOAD DUP1 SWAP2 SUB SWAP1 REVERT JUMPDEST DUP1 PUSH1 0x4 PUSH1 0x0 CALLER PUSH20 0xFFFFFFFFFFFFFFFFFFFFFFFFFFFFFFFFFFFFFFFF AND PUSH20 0xFFFFFFFFFFFFFFFFFFFFFFFFFFFFFFFFFFFFFFFF AND DUP2 MSTORE PUSH1 0x20 ADD SWAP1 DUP2 MSTORE PUSH1 0x20 ADD PUSH1 0x0 KECCAK256 SLOAD GT ISZERO PUSH2 0x1429 JUMPI PUSH1 0x40 MLOAD PUSH32 0x8C379A000000000000000000000000000000000000000000000000000000000 DUP2 MSTORE PUSH1 0x4 ADD PUSH2 0x1420 SWAP1 PUSH2 0x3E7E JUMP JUMPDEST PUSH1 0x40 MLOAD DUP1 SWAP2 SUB SWAP1 REVERT JUMPDEST DUP1 PUSH1 0x9 SLOAD PUSH1 0xA PUSH1 0x0 SWAP1 SLOAD SWAP1 PUSH2 0x100 EXP SWAP1 DIV PUSH20 0xFFFFFFFFFFFFFFFFFFFFFFFFFFFFFFFFFFFFFFFF AND PUSH20 0xFFFFFFFFFFFFFFFFFFFFFFFFFFFFFFFFFFFFFFFF AND PUSH4 0x70A08231 ADDRESS PUSH1 0x40 MLOAD DUP3 PUSH4 0xFFFFFFFF AND PUSH1 0xE0 SHL DUP2 MSTORE PUSH1 0x4 ADD PUSH2 0x1488 SWAP2 SWAP1 PUSH2 0x2BF2 JUMP JUMPDEST PUSH1 0x20 PUSH1 0x40 MLOAD DUP1 DUP4 SUB DUP2 DUP7 GAS STATICCALL ISZERO DUP1 ISZERO PUSH2 0x14A5 JUMPI RETURNDATASIZE PUSH1 0x0 DUP1 RETURNDATACOPY RETURNDATASIZE PUSH1 0x0 REVERT JUMPDEST POP POP POP POP PUSH1 0x40 MLOAD RETURNDATASIZE PUSH1 0x1F NOT PUSH1 0x1F DUP3 ADD AND DUP3 ADD DUP1 PUSH1 0x40 MSTORE POP DUP2 ADD SWAP1 PUSH2 0x14C9 SWAP2 SWAP1 PUSH2 0x3B26 JUMP JUMPDEST PUSH2 0x14D3 SWAP2 SWAP1 PUSH2 0x3B82 JUMP JUMPDEST LT ISZERO PUSH2 0x1514 JUMPI PUSH1 0x40 MLOAD PUSH32 0x8C379A000000000000000000000000000000000000000000000000000000000 DUP2 MSTORE PUSH1 0x4 ADD PUSH2 0x150B SWAP1 PUSH2 0x3EEA JUMP JUMPDEST PUSH1 0x40 MLOAD DUP1 SWAP2 SUB SWAP1 REVERT JUMPDEST PUSH2 0x1F40 PUSH1 0xC SLOAD PUSH1 0x7 SLOAD PUSH1 0x12 SLOAD PUSH2 0x152A SWAP2 SWAP1 PUSH2 0x3C1F JUMP JUMPDEST PUSH2 0x1534 SWAP2 SWAP1 PUSH2 0x3B82 JUMP JUMPDEST LT ISZERO PUSH2 0x1575 JUMPI PUSH1 0x40 MLOAD PUSH32 0x8C379A000000000000000000000000000000000000000000000000000000000 DUP2 MSTORE PUSH1 0x4 ADD PUSH2 0x156C SWAP1 PUSH2 0x3F7C JUMP JUMPDEST PUSH1 0x40 MLOAD DUP1 SWAP2 SUB SWAP1 REVERT JUMPDEST DUP1 PUSH1 0xD PUSH1 0x0 DUP3 DUP3 SLOAD PUSH2 0x1587 SWAP2 SWAP1 PUSH2 0x3A4B JUMP JUMPDEST SWAP3 POP POP DUP2 SWAP1 SSTORE POP PUSH1 0xA PUSH1 0x0 SWAP1 SLOAD SWAP1 PUSH2 0x100 EXP SWAP1 DIV PUSH20 0xFFFFFFFFFFFFFFFFFFFFFFFFFFFFFFFFFFFFFFFF AND PUSH20 0xFFFFFFFFFFFFFFFFFFFFFFFFFFFFFFFFFFFFFFFF AND PUSH4 0xA9059CBB CALLER PUSH1 0x9 SLOAD DUP5 PUSH2 0x15DB SWAP2 SWAP1 PUSH2 0x3C1F JUMP JUMPDEST PUSH1 0x40 MLOAD DUP4 PUSH4 0xFFFFFFFF AND PUSH1 0xE0 SHL DUP2 MSTORE PUSH1 0x4 ADD PUSH2 0x15F8 SWAP3 SWAP2 SWAP1 PUSH2 0x3F9C JUMP JUMPDEST PUSH1 0x20 PUSH1 0x40 MLOAD DUP1 DUP4 SUB DUP2 PUSH1 0x0 DUP8 GAS CALL ISZERO DUP1 ISZERO PUSH2 0x1617 JUMPI RETURNDATASIZE PUSH1 0x0 DUP1 RETURNDATACOPY RETURNDATASIZE PUSH1 0x0 REVERT JUMPDEST POP POP POP POP PUSH1 0x40 MLOAD RETURNDATASIZE PUSH1 0x1F NOT PUSH1 0x1F DUP3 ADD AND DUP3 ADD DUP1 PUSH1 0x40 MSTORE POP DUP2 ADD SWAP1 PUSH2 0x163B SWAP2 SWAP1 PUSH2 0x3CE1 JUMP JUMPDEST POP PUSH32 0x3973D4BD22C2360EE4F00CC5CB2030C4A16BF89E66E2EF7C04F59BE0F24F7316 CALLER DUP3 PUSH1 0x40 MLOAD PUSH2 0x166D SWAP3 SWAP2 SWAP1 PUSH2 0x3F9C JUMP JUMPDEST PUSH1 0x40 MLOAD DUP1 SWAP2 SUB SWAP1 LOG1 POP JUMP JUMPDEST PUSH2 0x168A PUSH2 0x1683 PUSH2 0x1C56 JUMP JUMPDEST DUP4 DUP4 PUSH2 0x21B1 JUMP JUMPDEST POP POP JUMP JUMPDEST PUSH1 0x14 SLOAD DUP2 JUMP JUMPDEST PUSH1 0x13 SLOAD DUP2 JUMP JUMPDEST PUSH1 0x0 PUSH1 0xA PUSH1 0x0 SWAP1 SLOAD SWAP1 PUSH2 0x100 EXP SWAP1 DIV PUSH20 0xFFFFFFFFFFFFFFFFFFFFFFFFFFFFFFFFFFFFFFFF AND PUSH20 0xFFFFFFFFFFFFFFFFFFFFFFFFFFFFFFFFFFFFFFFF AND PUSH4 0x95EA7B3 CALLER PUSH1 0x9 SLOAD DUP6 PUSH2 0x16E9 SWAP2 SWAP1 PUSH2 0x3C1F JUMP JUMPDEST PUSH1 0x40 MLOAD DUP4 PUSH4 0xFFFFFFFF AND PUSH1 0xE0 SHL DUP2 MSTORE PUSH1 0x4 ADD PUSH2 0x1706 SWAP3 SWAP2 SWAP1 PUSH2 0x3F9C JUMP JUMPDEST PUSH1 0x20 PUSH1 0x40 MLOAD DUP1 DUP4 SUB DUP2 PUSH1 0x0 DUP8 GAS CALL ISZERO DUP1 ISZERO PUSH2 0x1725 JUMPI RETURNDATASIZE PUSH1 0x0 DUP1 RETURNDATACOPY RETURNDATASIZE PUSH1 0x0 REVERT JUMPDEST POP POP POP POP PUSH1 0x40 MLOAD RETURNDATASIZE PUSH1 0x1F NOT PUSH1 0x1F DUP3 ADD AND DUP3 ADD DUP1 PUSH1 0x40 MSTORE POP DUP2 ADD SWAP1 PUSH2 0x1749 SWAP2 SWAP1 PUSH2 0x3CE1 JUMP JUMPDEST POP PUSH1 0x1 SWAP1 POP SWAP2 SWAP1 POP JUMP JUMPDEST PUSH1 0x19 PUSH1 0x0 SWAP1 SLOAD SWAP1 PUSH2 0x100 EXP SWAP1 DIV PUSH1 0xFF AND DUP2 JUMP JUMPDEST PUSH1 0xF SLOAD DUP2 JUMP JUMPDEST PUSH1 0x0 PUSH1 0x2 PUSH1 0x0 DUP5 PUSH20 0xFFFFFFFFFFFFFFFFFFFFFFFFFFFFFFFFFFFFFFFF AND PUSH20 0xFFFFFFFFFFFFFFFFFFFFFFFFFFFFFFFFFFFFFFFF AND DUP2 MSTORE PUSH1 0x20 ADD SWAP1 DUP2 MSTORE PUSH1 0x20 ADD PUSH1 0x0 KECCAK256 PUSH1 0x0 DUP4 PUSH20 0xFFFFFFFFFFFFFFFFFFFFFFFFFFFFFFFFFFFFFFFF AND PUSH20 0xFFFFFFFFFFFFFFFFFFFFFFFFFFFFFFFFFFFFFFFF AND DUP2 MSTORE PUSH1 0x20 ADD SWAP1 DUP2 MSTORE PUSH1 0x20 ADD PUSH1 0x0 KECCAK256 PUSH1 0x0 SWAP1 SLOAD SWAP1 PUSH2 0x100 EXP SWAP1 DIV PUSH1 0xFF AND SWAP1 POP SWAP3 SWAP2 POP POP JUMP JUMPDEST DUP1 PUSH1 0xA PUSH1 0x0 SWAP1 SLOAD SWAP1 PUSH2 0x100 EXP SWAP1 DIV PUSH20 0xFFFFFFFFFFFFFFFFFFFFFFFFFFFFFFFFFFFFFFFF AND PUSH20 0xFFFFFFFFFFFFFFFFFFFFFFFFFFFFFFFFFFFFFFFF AND PUSH4 0xDD62ED3E CALLER ADDRESS PUSH1 0x40 MLOAD DUP4 PUSH4 0xFFFFFFFF AND PUSH1 0xE0 SHL DUP2 MSTORE PUSH1 0x4 ADD PUSH2 0x185E SWAP3 SWAP2 SWAP1 PUSH2 0x3FC5 JUMP JUMPDEST PUSH1 0x20 PUSH1 0x40 MLOAD DUP1 DUP4 SUB DUP2 DUP7 GAS STATICCALL ISZERO DUP1 ISZERO PUSH2 0x187B JUMPI RETURNDATASIZE PUSH1 0x0 DUP1 RETURNDATACOPY RETURNDATASIZE PUSH1 0x0 REVERT JUMPDEST POP POP POP POP PUSH1 0x40 MLOAD RETURNDATASIZE PUSH1 0x1F NOT PUSH1 0x1F DUP3 ADD AND DUP3 ADD DUP1 PUSH1 0x40 MSTORE POP DUP2 ADD SWAP1 PUSH2 0x189F SWAP2 SWAP1 PUSH2 0x3B26 JUMP JUMPDEST LT ISZERO PUSH2 0x18E0 JUMPI PUSH1 0x40 MLOAD PUSH32 0x8C379A000000000000000000000000000000000000000000000000000000000 DUP2 MSTORE PUSH1 0x4 ADD PUSH2 0x18D7 SWAP1 PUSH2 0x4060 JUMP JUMPDEST PUSH1 0x40 MLOAD DUP1 SWAP2 SUB SWAP1 REVERT JUMPDEST DUP1 PUSH1 0xA PUSH1 0x0 SWAP1 SLOAD SWAP1 PUSH2 0x100 EXP SWAP1 DIV PUSH20 0xFFFFFFFFFFFFFFFFFFFFFFFFFFFFFFFFFFFFFFFF AND PUSH20 0xFFFFFFFFFFFFFFFFFFFFFFFFFFFFFFFFFFFFFFFF AND PUSH4 0x70A08231 CALLER PUSH1 0x40 MLOAD DUP3 PUSH4 0xFFFFFFFF AND PUSH1 0xE0 SHL DUP2 MSTORE PUSH1 0x4 ADD PUSH2 0x193C SWAP2 SWAP1 PUSH2 0x2BF2 JUMP JUMPDEST PUSH1 0x20 PUSH1 0x40 MLOAD DUP1 DUP4 SUB DUP2 DUP7 GAS STATICCALL ISZERO DUP1 ISZERO PUSH2 0x1959 JUMPI RETURNDATASIZE PUSH1 0x0 DUP1 RETURNDATACOPY RETURNDATASIZE PUSH1 0x0 REVERT JUMPDEST POP POP POP POP PUSH1 0x40 MLOAD RETURNDATASIZE PUSH1 0x1F NOT PUSH1 0x1F DUP3 ADD AND DUP3 ADD DUP1 PUSH1 0x40 MSTORE POP DUP2 ADD SWAP1 PUSH2 0x197D SWAP2 SWAP1 PUSH2 0x3B26 JUMP JUMPDEST LT ISZERO PUSH2 0x19BE JUMPI PUSH1 0x40 MLOAD PUSH32 0x8C379A000000000000000000000000000000000000000000000000000000000 DUP2 MSTORE PUSH1 0x4 ADD PUSH2 0x19B5 SWAP1 PUSH2 0x40F2 JUMP JUMPDEST PUSH1 0x40 MLOAD DUP1 SWAP2 SUB SWAP1 REVERT JUMPDEST PUSH1 0xA PUSH1 0x0 SWAP1 SLOAD SWAP1 PUSH2 0x100 EXP SWAP1 DIV PUSH20 0xFFFFFFFFFFFFFFFFFFFFFFFFFFFFFFFFFFFFFFFF AND PUSH20 0xFFFFFFFFFFFFFFFFFFFFFFFFFFFFFFFFFFFFFFFF AND PUSH4 0x23B872DD CALLER ADDRESS PUSH1 0x9 SLOAD DUP6 PUSH2 0x1A0C SWAP2 SWAP1 PUSH2 0x3C1F JUMP JUMPDEST PUSH1 0x40 MLOAD DUP5 PUSH4 0xFFFFFFFF AND PUSH1 0xE0 SHL DUP2 MSTORE PUSH1 0x4 ADD PUSH2 0x1A2A SWAP4 SWAP3 SWAP2 SWAP1 PUSH2 0x3C95 JUMP JUMPDEST PUSH1 0x20 PUSH1 0x40 MLOAD DUP1 DUP4 SUB DUP2 PUSH1 0x0 DUP8 GAS CALL ISZERO DUP1 ISZERO PUSH2 0x1A49 JUMPI RETURNDATASIZE PUSH1 0x0 DUP1 RETURNDATACOPY RETURNDATASIZE PUSH1 0x0 REVERT JUMPDEST POP POP POP POP PUSH1 0x40 MLOAD RETURNDATASIZE PUSH1 0x1F NOT PUSH1 0x1F DUP3 ADD AND DUP3 ADD DUP1 PUSH1 0x40 MSTORE POP DUP2 ADD SWAP1 PUSH2 0x1A6D SWAP2 SWAP1 PUSH2 0x3CE1 JUMP JUMPDEST POP PUSH32 0x93A595F58492964046C6D91B0BCC0F3D4CDCB01F76F28104F60C4B505D3F3AED CALLER DUP3 PUSH1 0x40 MLOAD PUSH2 0x1A9F SWAP3 SWAP2 SWAP1 PUSH2 0x3F9C JUMP JUMPDEST PUSH1 0x40 MLOAD DUP1 SWAP2 SUB SWAP1 LOG1 POP JUMP JUMPDEST PUSH1 0x17 SLOAD DUP2 JUMP JUMPDEST PUSH2 0x1AB8 PUSH2 0x1C56 JUMP JUMPDEST PUSH20 0xFFFFFFFFFFFFFFFFFFFFFFFFFFFFFFFFFFFFFFFF AND DUP6 PUSH20 0xFFFFFFFFFFFFFFFFFFFFFFFFFFFFFFFFFFFFFFFF AND EQ DUP1 PUSH2 0x1AFE JUMPI POP PUSH2 0x1AFD DUP6 PUSH2 0x1AF8 PUSH2 0x1C56 JUMP JUMPDEST PUSH2 0x176C JUMP JUMPDEST JUMPDEST PUSH2 0x1B3D JUMPI PUSH1 0x40 MLOAD PUSH32 0x8C379A000000000000000000000000000000000000000000000000000000000 DUP2 MSTORE PUSH1 0x4 ADD PUSH2 0x1B34 SWAP1 PUSH2 0x3534 JUMP JUMPDEST PUSH1 0x40 MLOAD DUP1 SWAP2 SUB SWAP1 REVERT JUMPDEST PUSH2 0x1B4A DUP6 DUP6 DUP6 DUP6 DUP6 PUSH2 0x231D JUMP JUMPDEST POP POP POP POP POP JUMP JUMPDEST PUSH2 0x1B59 PUSH2 0x1F82 JUMP JUMPDEST PUSH1 0x0 PUSH20 0xFFFFFFFFFFFFFFFFFFFFFFFFFFFFFFFFFFFFFFFF AND DUP2 PUSH20 0xFFFFFFFFFFFFFFFFFFFFFFFFFFFFFFFFFFFFFFFF AND SUB PUSH2 0x1BC8 JUMPI PUSH1 0x40 MLOAD PUSH32 0x8C379A000000000000000000000000000000000000000000000000000000000 DUP2 MSTORE PUSH1 0x4 ADD PUSH2 0x1BBF SWAP1 PUSH2 0x4184 JUMP JUMPDEST PUSH1 0x40 MLOAD DUP1 SWAP2 SUB SWAP1 REVERT JUMPDEST PUSH2 0x1BD1 DUP2 PUSH2 0x2000 JUMP JUMPDEST POP JUMP JUMPDEST PUSH1 0x6 PUSH1 0x20 MSTORE DUP1 PUSH1 0x0 MSTORE PUSH1 0x40 PUSH1 0x0 KECCAK256 PUSH1 0x0 SWAP2 POP SWAP1 POP SLOAD DUP2 JUMP JUMPDEST PUSH1 0x0 PUSH32 0x1FFC9A700000000000000000000000000000000000000000000000000000000 PUSH28 0xFFFFFFFFFFFFFFFFFFFFFFFFFFFFFFFFFFFFFFFFFFFFFFFFFFFFFFFF NOT AND DUP3 PUSH28 0xFFFFFFFFFFFFFFFFFFFFFFFFFFFFFFFFFFFFFFFFFFFFFFFFFFFFFFFF NOT AND EQ SWAP1 POP SWAP2 SWAP1 POP JUMP JUMPDEST PUSH1 0x0 CALLER SWAP1 POP SWAP1 JUMP JUMPDEST DUP2 MLOAD DUP4 MLOAD EQ PUSH2 0x1CA2 JUMPI PUSH1 0x40 MLOAD PUSH32 0x8C379A000000000000000000000000000000000000000000000000000000000 DUP2 MSTORE PUSH1 0x4 ADD PUSH2 0x1C99 SWAP1 PUSH2 0x4216 JUMP JUMPDEST PUSH1 0x40 MLOAD DUP1 SWAP2 SUB SWAP1 REVERT JUMPDEST PUSH1 0x0 PUSH20 0xFFFFFFFFFFFFFFFFFFFFFFFFFFFFFFFFFFFFFFFF AND DUP5 PUSH20 0xFFFFFFFFFFFFFFFFFFFFFFFFFFFFFFFFFFFFFFFF AND SUB PUSH2 0x1D11 JUMPI PUSH1 0x40 MLOAD PUSH32 0x8C379A000000000000000000000000000000000000000000000000000000000 DUP2 MSTORE PUSH1 0x4 ADD PUSH2 0x1D08 SWAP1 PUSH2 0x42A8 JUMP JUMPDEST PUSH1 0x40 MLOAD DUP1 SWAP2 SUB SWAP1 REVERT JUMPDEST PUSH1 0x0 PUSH2 0x1D1B PUSH2 0x1C56 JUMP JUMPDEST SWAP1 POP PUSH2 0x1D2B DUP2 DUP8 DUP8 DUP8 DUP8 DUP8 PUSH2 0x25BB JUMP JUMPDEST PUSH1 0x0 JUMPDEST DUP5 MLOAD DUP2 LT ISZERO PUSH2 0x1EDF JUMPI PUSH1 0x0 DUP6 DUP3 DUP2 MLOAD DUP2 LT PUSH2 0x1D4C JUMPI PUSH2 0x1D4B PUSH2 0x35E6 JUMP JUMPDEST JUMPDEST PUSH1 0x20 MUL PUSH1 0x20 ADD ADD MLOAD SWAP1 POP PUSH1 0x0 DUP6 DUP4 DUP2 MLOAD DUP2 LT PUSH2 0x1D6B JUMPI PUSH2 0x1D6A PUSH2 0x35E6 JUMP JUMPDEST JUMPDEST PUSH1 0x20 MUL PUSH1 0x20 ADD ADD MLOAD SWAP1 POP PUSH1 0x0 PUSH1 0x1 PUSH1 0x0 DUP5 DUP2 MSTORE PUSH1 0x20 ADD SWAP1 DUP2 MSTORE PUSH1 0x20 ADD PUSH1 0x0 KECCAK256 PUSH1 0x0 DUP12 PUSH20 0xFFFFFFFFFFFFFFFFFFFFFFFFFFFFFFFFFFFFFFFF AND PUSH20 0xFFFFFFFFFFFFFFFFFFFFFFFFFFFFFFFFFFFFFFFF AND DUP2 MSTORE PUSH1 0x20 ADD SWAP1 DUP2 MSTORE PUSH1 0x20 ADD PUSH1 0x0 KECCAK256 SLOAD SWAP1 POP DUP2 DUP2 LT ISZERO PUSH2 0x1E0D JUMPI PUSH1 0x40 MLOAD PUSH32 0x8C379A000000000000000000000000000000000000000000000000000000000 DUP2 MSTORE PUSH1 0x4 ADD PUSH2 0x1E04 SWAP1 PUSH2 0x433A JUMP JUMPDEST PUSH1 0x40 MLOAD DUP1 SWAP2 SUB SWAP1 REVERT JUMPDEST DUP2 DUP2 SUB PUSH1 0x1 PUSH1 0x0 DUP6 DUP2 MSTORE PUSH1 0x20 ADD SWAP1 DUP2 MSTORE PUSH1 0x20 ADD PUSH1 0x0 KECCAK256 PUSH1 0x0 DUP13 PUSH20 0xFFFFFFFFFFFFFFFFFFFFFFFFFFFFFFFFFFFFFFFF AND PUSH20 0xFFFFFFFFFFFFFFFFFFFFFFFFFFFFFFFFFFFFFFFF AND DUP2 MSTORE PUSH1 0x20 ADD SWAP1 DUP2 MSTORE PUSH1 0x20 ADD PUSH1 0x0 KECCAK256 DUP2 SWAP1 SSTORE POP DUP2 PUSH1 0x1 PUSH1 0x0 DUP6 DUP2 MSTORE PUSH1 0x20 ADD SWAP1 DUP2 MSTORE PUSH1 0x20 ADD PUSH1 0x0 KECCAK256 PUSH1 0x0 DUP12 PUSH20 0xFFFFFFFFFFFFFFFFFFFFFFFFFFFFFFFFFFFFFFFF AND PUSH20 0xFFFFFFFFFFFFFFFFFFFFFFFFFFFFFFFFFFFFFFFF AND DUP2 MSTORE PUSH1 0x20 ADD SWAP1 DUP2 MSTORE PUSH1 0x20 ADD PUSH1 0x0 KECCAK256 PUSH1 0x0 DUP3 DUP3 SLOAD PUSH2 0x1EC4 SWAP2 SWAP1 PUSH2 0x3A4B JUMP JUMPDEST SWAP3 POP POP DUP2 SWAP1 SSTORE POP POP POP POP DUP1 PUSH2 0x1ED8 SWAP1 PUSH2 0x3644 JUMP JUMPDEST SWAP1 POP PUSH2 0x1D2E JUMP JUMPDEST POP DUP5 PUSH20 0xFFFFFFFFFFFFFFFFFFFFFFFFFFFFFFFFFFFFFFFF AND DUP7 PUSH20 0xFFFFFFFFFFFFFFFFFFFFFFFFFFFFFFFFFFFFFFFF AND DUP3 PUSH20 0xFFFFFFFFFFFFFFFFFFFFFFFFFFFFFFFFFFFFFFFF AND PUSH32 0x4A39DC06D4C0DBC64B70AF90FD698A233A518AA5D07E595D983B8C0526C8F7FB DUP8 DUP8 PUSH1 0x40 MLOAD PUSH2 0x1F56 SWAP3 SWAP2 SWAP1 PUSH2 0x435A JUMP JUMPDEST PUSH1 0x40 MLOAD DUP1 SWAP2 SUB SWAP1 LOG4 PUSH2 0x1F6C DUP2 DUP8 DUP8 DUP8 DUP8 DUP8 PUSH2 0x25C3 JUMP JUMPDEST PUSH2 0x1F7A DUP2 DUP8 DUP8 DUP8 DUP8 DUP8 PUSH2 0x25CB JUMP JUMPDEST POP POP POP POP POP POP JUMP JUMPDEST PUSH2 0x1F8A PUSH2 0x1C56 JUMP JUMPDEST PUSH20 0xFFFFFFFFFFFFFFFFFFFFFFFFFFFFFFFFFFFFFFFF AND PUSH2 0x1FA8 PUSH2 0x12E3 JUMP JUMPDEST PUSH20 0xFFFFFFFFFFFFFFFFFFFFFFFFFFFFFFFFFFFFFFFF AND EQ PUSH2 0x1FFE JUMPI PUSH1 0x40 MLOAD PUSH32 0x8C379A000000000000000000000000000000000000000000000000000000000 DUP2 MSTORE PUSH1 0x4 ADD PUSH2 0x1FF5 SWAP1 PUSH2 0x43DD JUMP JUMPDEST PUSH1 0x40 MLOAD DUP1 SWAP2 SUB SWAP1 REVERT JUMPDEST JUMP JUMPDEST PUSH1 0x0 DUP1 PUSH1 0x2 SWAP1 SLOAD SWAP1 PUSH2 0x100 EXP SWAP1 DIV PUSH20 0xFFFFFFFFFFFFFFFFFFFFFFFFFFFFFFFFFFFFFFFF AND SWAP1 POP DUP2 PUSH1 0x0 PUSH1 0x2 PUSH2 0x100 EXP DUP2 SLOAD DUP2 PUSH20 0xFFFFFFFFFFFFFFFFFFFFFFFFFFFFFFFFFFFFFFFF MUL NOT AND SWAP1 DUP4 PUSH20 0xFFFFFFFFFFFFFFFFFFFFFFFFFFFFFFFFFFFFFFFF AND MUL OR SWAP1 SSTORE POP DUP2 PUSH20 0xFFFFFFFFFFFFFFFFFFFFFFFFFFFFFFFFFFFFFFFF AND DUP2 PUSH20 0xFFFFFFFFFFFFFFFFFFFFFFFFFFFFFFFFFFFFFFFF AND PUSH32 0x8BE0079C531659141344CD1FD0A4F28419497F9722A3DAAFE3B4186F6B6457E0 PUSH1 0x40 MLOAD PUSH1 0x40 MLOAD DUP1 SWAP2 SUB SWAP1 LOG3 POP POP JUMP JUMPDEST DUP1 PUSH1 0x4 PUSH1 0x0 DUP6 PUSH20 0xFFFFFFFFFFFFFFFFFFFFFFFFFFFFFFFFFFFFFFFF AND PUSH20 0xFFFFFFFFFFFFFFFFFFFFFFFFFFFFFFFFFFFFFFFF AND DUP2 MSTORE PUSH1 0x20 ADD SWAP1 DUP2 MSTORE PUSH1 0x20 ADD PUSH1 0x0 KECCAK256 PUSH1 0x0 DUP3 DUP3 SLOAD PUSH2 0x2114 SWAP2 SWAP1 PUSH2 0x3C61 JUMP JUMPDEST SWAP3 POP POP DUP2 SWAP1 SSTORE POP DUP1 PUSH1 0x4 PUSH1 0x0 DUP5 PUSH20 0xFFFFFFFFFFFFFFFFFFFFFFFFFFFFFFFFFFFFFFFF AND PUSH20 0xFFFFFFFFFFFFFFFFFFFFFFFFFFFFFFFFFFFFFFFF AND DUP2 MSTORE PUSH1 0x20 ADD SWAP1 DUP2 MSTORE PUSH1 0x20 ADD PUSH1 0x0 KECCAK256 PUSH1 0x0 DUP3 DUP3 SLOAD PUSH2 0x216A SWAP2 SWAP1 PUSH2 0x3A4B JUMP JUMPDEST SWAP3 POP POP DUP2 SWAP1 SSTORE POP PUSH32 0xDDF252AD1BE2C89B69C2B068FC378DAA952BA7F163C4A11628F55A4DF523B3EF DUP4 DUP4 DUP4 PUSH1 0x40 MLOAD PUSH2 0x21A4 SWAP4 SWAP3 SWAP2 SWAP1 PUSH2 0x3C95 JUMP JUMPDEST PUSH1 0x40 MLOAD DUP1 SWAP2 SUB SWAP1 LOG1 POP POP POP JUMP JUMPDEST DUP2 PUSH20 0xFFFFFFFFFFFFFFFFFFFFFFFFFFFFFFFFFFFFFFFF AND DUP4 PUSH20 0xFFFFFFFFFFFFFFFFFFFFFFFFFFFFFFFFFFFFFFFF AND SUB PUSH2 0x221F JUMPI PUSH1 0x40 MLOAD PUSH32 0x8C379A000000000000000000000000000000000000000000000000000000000 DUP2 MSTORE PUSH1 0x4 ADD PUSH2 0x2216 SWAP1 PUSH2 0x446F JUMP JUMPDEST PUSH1 0x40 MLOAD DUP1 SWAP2 SUB SWAP1 REVERT JUMPDEST DUP1 PUSH1 0x2 PUSH1 0x0 DUP6 PUSH20 0xFFFFFFFFFFFFFFFFFFFFFFFFFFFFFFFFFFFFFFFF AND PUSH20 0xFFFFFFFFFFFFFFFFFFFFFFFFFFFFFFFFFFFFFFFF AND DUP2 MSTORE PUSH1 0x20 ADD SWAP1 DUP2 MSTORE PUSH1 0x20 ADD PUSH1 0x0 KECCAK256 PUSH1 0x0 DUP5 PUSH20 0xFFFFFFFFFFFFFFFFFFFFFFFFFFFFFFFFFFFFFFFF AND PUSH20 0xFFFFFFFFFFFFFFFFFFFFFFFFFFFFFFFFFFFFFFFF AND DUP2 MSTORE PUSH1 0x20 ADD SWAP1 DUP2 MSTORE PUSH1 0x20 ADD PUSH1 0x0 KECCAK256 PUSH1 0x0 PUSH2 0x100 EXP DUP2 SLOAD DUP2 PUSH1 0xFF MUL NOT AND SWAP1 DUP4 ISZERO ISZERO MUL OR SWAP1 SSTORE POP DUP2 PUSH20 0xFFFFFFFFFFFFFFFFFFFFFFFFFFFFFFFFFFFFFFFF AND DUP4 PUSH20 0xFFFFFFFFFFFFFFFFFFFFFFFFFFFFFFFFFFFFFFFF AND PUSH32 0x17307EAB39AB6107E8899845AD3D59BD9653F200F220920489CA2B5937696C31 DUP4 PUSH1 0x40 MLOAD PUSH2 0x2310 SWAP2 SWAP1 PUSH2 0x2BC8 JUMP JUMPDEST PUSH1 0x40 MLOAD DUP1 SWAP2 SUB SWAP1 LOG3 POP POP POP JUMP JUMPDEST PUSH1 0x0 PUSH20 0xFFFFFFFFFFFFFFFFFFFFFFFFFFFFFFFFFFFFFFFF AND DUP5 PUSH20 0xFFFFFFFFFFFFFFFFFFFFFFFFFFFFFFFFFFFFFFFF AND SUB PUSH2 0x238C JUMPI PUSH1 0x40 MLOAD PUSH32 0x8C379A000000000000000000000000000000000000000000000000000000000 DUP2 MSTORE PUSH1 0x4 ADD PUSH2 0x2383 SWAP1 PUSH2 0x42A8 JUMP JUMPDEST PUSH1 0x40 MLOAD DUP1 SWAP2 SUB SWAP1 REVERT JUMPDEST PUSH1 0x0 PUSH2 0x2396 PUSH2 0x1C56 JUMP JUMPDEST SWAP1 POP PUSH1 0x0 PUSH2 0x23A3 DUP6 PUSH2 0x27A2 JUMP JUMPDEST SWAP1 POP PUSH1 0x0 PUSH2 0x23B0 DUP6 PUSH2 0x27A2 JUMP JUMPDEST SWAP1 POP PUSH2 0x23C0 DUP4 DUP10 DUP10 DUP6 DUP6 DUP10 PUSH2 0x25BB JUMP JUMPDEST PUSH1 0x0 PUSH1 0x1 PUSH1 0x0 DUP9 DUP2 MSTORE PUSH1 0x20 ADD SWAP1 DUP2 MSTORE PUSH1 0x20 ADD PUSH1 0x0 KECCAK256 PUSH1 0x0 DUP11 PUSH20 0xFFFFFFFFFFFFFFFFFFFFFFFFFFFFFFFFFFFFFFFF AND PUSH20 0xFFFFFFFFFFFFFFFFFFFFFFFFFFFFFFFFFFFFFFFF AND DUP2 MSTORE PUSH1 0x20 ADD SWAP1 DUP2 MSTORE PUSH1 0x20 ADD PUSH1 0x0 KECCAK256 SLOAD SWAP1 POP DUP6 DUP2 LT ISZERO PUSH2 0x2458 JUMPI PUSH1 0x40 MLOAD PUSH32 0x8C379A000000000000000000000000000000000000000000000000000000000 DUP2 MSTORE PUSH1 0x4 ADD PUSH2 0x244F SWAP1 PUSH2 0x433A JUMP JUMPDEST PUSH1 0x40 MLOAD DUP1 SWAP2 SUB SWAP1 REVERT JUMPDEST DUP6 DUP2 SUB PUSH1 0x1 PUSH1 0x0 DUP10 DUP2 MSTORE PUSH1 0x20 ADD SWAP1 DUP2 MSTORE PUSH1 0x20 ADD PUSH1 0x0 KECCAK256 PUSH1 0x0 DUP12 PUSH20 0xFFFFFFFFFFFFFFFFFFFFFFFFFFFFFFFFFFFFFFFF AND PUSH20 0xFFFFFFFFFFFFFFFFFFFFFFFFFFFFFFFFFFFFFFFF AND DUP2 MSTORE PUSH1 0x20 ADD SWAP1 DUP2 MSTORE PUSH1 0x20 ADD PUSH1 0x0 KECCAK256 DUP2 SWAP1 SSTORE POP DUP6 PUSH1 0x1 PUSH1 0x0 DUP10 DUP2 MSTORE PUSH1 0x20 ADD SWAP1 DUP2 MSTORE PUSH1 0x20 ADD PUSH1 0x0 KECCAK256 PUSH1 0x0 DUP11 PUSH20 0xFFFFFFFFFFFFFFFFFFFFFFFFFFFFFFFFFFFFFFFF AND PUSH20 0xFFFFFFFFFFFFFFFFFFFFFFFFFFFFFFFFFFFFFFFF AND DUP2 MSTORE PUSH1 0x20 ADD SWAP1 DUP2 MSTORE PUSH1 0x20 ADD PUSH1 0x0 KECCAK256 PUSH1 0x0 DUP3 DUP3 SLOAD PUSH2 0x250F SWAP2 SWAP1 PUSH2 0x3A4B JUMP JUMPDEST SWAP3 POP POP DUP2 SWAP1 SSTORE POP DUP8 PUSH20 0xFFFFFFFFFFFFFFFFFFFFFFFFFFFFFFFFFFFFFFFF AND DUP10 PUSH20 0xFFFFFFFFFFFFFFFFFFFFFFFFFFFFFFFFFFFFFFFF AND DUP6 PUSH20 0xFFFFFFFFFFFFFFFFFFFFFFFFFFFFFFFFFFFFFFFF AND PUSH32 0xC3D58168C5AE7397731D063D5BBF3D657854427343F4C083240F7AACAA2D0F62 DUP11 DUP11 PUSH1 0x40 MLOAD PUSH2 0x258C SWAP3 SWAP2 SWAP1 PUSH2 0x448F JUMP JUMPDEST PUSH1 0x40 MLOAD DUP1 SWAP2 SUB SWAP1 LOG4 PUSH2 0x25A2 DUP5 DUP11 DUP11 DUP7 DUP7 DUP11 PUSH2 0x25C3 JUMP JUMPDEST PUSH2 0x25B0 DUP5 DUP11 DUP11 DUP11 DUP11 DUP11 PUSH2 0x281C JUMP JUMPDEST POP POP POP POP POP POP POP POP POP JUMP JUMPDEST POP POP POP POP POP POP JUMP JUMPDEST POP POP POP POP POP POP JUMP JUMPDEST PUSH2 0x25EA DUP5 PUSH20 0xFFFFFFFFFFFFFFFFFFFFFFFFFFFFFFFFFFFFFFFF AND PUSH2 0x29F3 JUMP JUMPDEST ISZERO PUSH2 0x279A JUMPI DUP4 PUSH20 0xFFFFFFFFFFFFFFFFFFFFFFFFFFFFFFFFFFFFFFFF AND PUSH4 0xBC197C81 DUP8 DUP8 DUP7 DUP7 DUP7 PUSH1 0x40 MLOAD DUP7 PUSH4 0xFFFFFFFF AND PUSH1 0xE0 SHL DUP2 MSTORE PUSH1 0x4 ADD PUSH2 0x2630 SWAP6 SWAP5 SWAP4 SWAP3 SWAP2 SWAP1 PUSH2 0x450D JUMP JUMPDEST PUSH1 0x20 PUSH1 0x40 MLOAD DUP1 DUP4 SUB DUP2 PUSH1 0x0 DUP8 GAS CALL SWAP3 POP POP POP DUP1 ISZERO PUSH2 0x266C JUMPI POP PUSH1 0x40 MLOAD RETURNDATASIZE PUSH1 0x1F NOT PUSH1 0x1F DUP3 ADD AND DUP3 ADD DUP1 PUSH1 0x40 MSTORE POP DUP2 ADD SWAP1 PUSH2 0x2669 SWAP2 SWAP1 PUSH2 0x458A JUMP JUMPDEST PUSH1 0x1 JUMPDEST PUSH2 0x2711 JUMPI PUSH2 0x2678 PUSH2 0x45C4 JUMP JUMPDEST DUP1 PUSH4 0x8C379A0 SUB PUSH2 0x26D4 JUMPI POP PUSH2 0x268C PUSH2 0x45E6 JUMP JUMPDEST DUP1 PUSH2 0x2697 JUMPI POP PUSH2 0x26D6 JUMP JUMPDEST DUP1 PUSH1 0x40 MLOAD PUSH32 0x8C379A000000000000000000000000000000000000000000000000000000000 DUP2 MSTORE PUSH1 0x4 ADD PUSH2 0x26CB SWAP2 SWAP1 PUSH2 0x2CCA JUMP JUMPDEST PUSH1 0x40 MLOAD DUP1 SWAP2 SUB SWAP1 REVERT JUMPDEST POP JUMPDEST PUSH1 0x40 MLOAD PUSH32 0x8C379A000000000000000000000000000000000000000000000000000000000 DUP2 MSTORE PUSH1 0x4 ADD PUSH2 0x2708 SWAP1 PUSH2 0x46E8 JUMP JUMPDEST PUSH1 0x40 MLOAD DUP1 SWAP2 SUB SWAP1 REVERT JUMPDEST PUSH4 0xBC197C81 PUSH1 0xE0 SHL PUSH28 0xFFFFFFFFFFFFFFFFFFFFFFFFFFFFFFFFFFFFFFFFFFFFFFFFFFFFFFFF NOT AND DUP2 PUSH28 0xFFFFFFFFFFFFFFFFFFFFFFFFFFFFFFFFFFFFFFFFFFFFFFFFFFFFFFFF NOT AND EQ PUSH2 0x2798 JUMPI PUSH1 0x40 MLOAD PUSH32 0x8C379A000000000000000000000000000000000000000000000000000000000 DUP2 MSTORE PUSH1 0x4 ADD PUSH2 0x278F SWAP1 PUSH2 0x477A JUMP JUMPDEST PUSH1 0x40 MLOAD DUP1 SWAP2 SUB SWAP1 REVERT JUMPDEST POP JUMPDEST POP POP POP POP POP POP JUMP JUMPDEST PUSH1 0x60 PUSH1 0x0 PUSH1 0x1 PUSH8 0xFFFFFFFFFFFFFFFF DUP2 GT ISZERO PUSH2 0x27C1 JUMPI PUSH2 0x27C0 PUSH2 0x2D1E JUMP JUMPDEST JUMPDEST PUSH1 0x40 MLOAD SWAP1 DUP1 DUP3 MSTORE DUP1 PUSH1 0x20 MUL PUSH1 0x20 ADD DUP3 ADD PUSH1 0x40 MSTORE DUP1 ISZERO PUSH2 0x27EF JUMPI DUP2 PUSH1 0x20 ADD PUSH1 0x20 DUP3 MUL DUP1 CALLDATASIZE DUP4 CALLDATACOPY DUP1 DUP3 ADD SWAP2 POP POP SWAP1 POP JUMPDEST POP SWAP1 POP DUP3 DUP2 PUSH1 0x0 DUP2 MLOAD DUP2 LT PUSH2 0x2807 JUMPI PUSH2 0x2806 PUSH2 0x35E6 JUMP JUMPDEST JUMPDEST PUSH1 0x20 MUL PUSH1 0x20 ADD ADD DUP2 DUP2 MSTORE POP POP DUP1 SWAP2 POP POP SWAP2 SWAP1 POP JUMP JUMPDEST PUSH2 0x283B DUP5 PUSH20 0xFFFFFFFFFFFFFFFFFFFFFFFFFFFFFFFFFFFFFFFF AND PUSH2 0x29F3 JUMP JUMPDEST ISZERO PUSH2 0x29EB JUMPI DUP4 PUSH20 0xFFFFFFFFFFFFFFFFFFFFFFFFFFFFFFFFFFFFFFFF AND PUSH4 0xF23A6E61 DUP8 DUP8 DUP7 DUP7 DUP7 PUSH1 0x40 MLOAD DUP7 PUSH4 0xFFFFFFFF AND PUSH1 0xE0 SHL DUP2 MSTORE PUSH1 0x4 ADD PUSH2 0x2881 SWAP6 SWAP5 SWAP4 SWAP3 SWAP2 SWAP1 PUSH2 0x479A JUMP JUMPDEST PUSH1 0x20 PUSH1 0x40 MLOAD DUP1 DUP4 SUB DUP2 PUSH1 0x0 DUP8 GAS CALL SWAP3 POP POP POP DUP1 ISZERO PUSH2 0x28BD JUMPI POP PUSH1 0x40 MLOAD RETURNDATASIZE PUSH1 0x1F NOT PUSH1 0x1F DUP3 ADD AND DUP3 ADD DUP1 PUSH1 0x40 MSTORE POP DUP2 ADD SWAP1 PUSH2 0x28BA SWAP2 SWAP1 PUSH2 0x458A JUMP JUMPDEST PUSH1 0x1 JUMPDEST PUSH2 0x2962 JUMPI PUSH2 0x28C9 PUSH2 0x45C4 JUMP JUMPDEST DUP1 PUSH4 0x8C379A0 SUB PUSH2 0x2925 JUMPI POP PUSH2 0x28DD PUSH2 0x45E6 JUMP JUMPDEST DUP1 PUSH2 0x28E8 JUMPI POP PUSH2 0x2927 JUMP JUMPDEST DUP1 PUSH1 0x40 MLOAD PUSH32 0x8C379A000000000000000000000000000000000000000000000000000000000 DUP2 MSTORE PUSH1 0x4 ADD PUSH2 0x291C SWAP2 SWAP1 PUSH2 0x2CCA JUMP JUMPDEST PUSH1 0x40 MLOAD DUP1 SWAP2 SUB SWAP1 REVERT JUMPDEST POP JUMPDEST PUSH1 0x40 MLOAD PUSH32 0x8C379A000000000000000000000000000000000000000000000000000000000 DUP2 MSTORE PUSH1 0x4 ADD PUSH2 0x2959 SWAP1 PUSH2 0x46E8 JUMP JUMPDEST PUSH1 0x40 MLOAD DUP1 SWAP2 SUB SWAP1 REVERT JUMPDEST PUSH4 0xF23A6E61 PUSH1 0xE0 SHL PUSH28 0xFFFFFFFFFFFFFFFFFFFFFFFFFFFFFFFFFFFFFFFFFFFFFFFFFFFFFFFF NOT AND DUP2 PUSH28 0xFFFFFFFFFFFFFFFFFFFFFFFFFFFFFFFFFFFFFFFFFFFFFFFFFFFFFFFF NOT AND EQ PUSH2 0x29E9 JUMPI PUSH1 0x40 MLOAD PUSH32 0x8C379A000000000000000000000000000000000000000000000000000000000 DUP2 MSTORE PUSH1 0x4 ADD PUSH2 0x29E0 SWAP1 PUSH2 0x477A JUMP JUMPDEST PUSH1 0x40 MLOAD DUP1 SWAP2 SUB SWAP1 REVERT JUMPDEST POP JUMPDEST POP POP POP POP POP POP JUMP JUMPDEST PUSH1 0x0 DUP1 DUP3 PUSH20 0xFFFFFFFFFFFFFFFFFFFFFFFFFFFFFFFFFFFFFFFF AND EXTCODESIZE GT SWAP1 POP SWAP2 SWAP1 POP JUMP JUMPDEST PUSH1 0x0 PUSH1 0x40 MLOAD SWAP1 POP SWAP1 JUMP JUMPDEST PUSH1 0x0 DUP1 REVERT JUMPDEST PUSH1 0x0 DUP1 REVERT JUMPDEST PUSH1 0x0 PUSH20 0xFFFFFFFFFFFFFFFFFFFFFFFFFFFFFFFFFFFFFFFF DUP3 AND SWAP1 POP SWAP2 SWAP1 POP JUMP JUMPDEST PUSH1 0x0 PUSH2 0x2A55 DUP3 PUSH2 0x2A2A JUMP JUMPDEST SWAP1 POP SWAP2 SWAP1 POP JUMP JUMPDEST PUSH2 0x2A65 DUP2 PUSH2 0x2A4A JUMP JUMPDEST DUP2 EQ PUSH2 0x2A70 JUMPI PUSH1 0x0 DUP1 REVERT JUMPDEST POP JUMP JUMPDEST PUSH1 0x0 DUP2 CALLDATALOAD SWAP1 POP PUSH2 0x2A82 DUP2 PUSH2 0x2A5C JUMP JUMPDEST SWAP3 SWAP2 POP POP JUMP JUMPDEST PUSH1 0x0 DUP2 SWAP1 POP SWAP2 SWAP1 POP JUMP JUMPDEST PUSH2 0x2A9B DUP2 PUSH2 0x2A88 JUMP JUMPDEST DUP2 EQ PUSH2 0x2AA6 JUMPI PUSH1 0x0 DUP1 REVERT JUMPDEST POP JUMP JUMPDEST PUSH1 0x0 DUP2 CALLDATALOAD SWAP1 POP PUSH2 0x2AB8 DUP2 PUSH2 0x2A92 JUMP JUMPDEST SWAP3 SWAP2 POP POP JUMP JUMPDEST PUSH1 0x0 DUP1 PUSH1 0x40 DUP4 DUP6 SUB SLT ISZERO PUSH2 0x2AD5 JUMPI PUSH2 0x2AD4 PUSH2 0x2A20 JUMP JUMPDEST JUMPDEST PUSH1 0x0 PUSH2 0x2AE3 DUP6 DUP3 DUP7 ADD PUSH2 0x2A73 JUMP JUMPDEST SWAP3 POP POP PUSH1 0x20 PUSH2 0x2AF4 DUP6 DUP3 DUP7 ADD PUSH2 0x2AA9 JUMP JUMPDEST SWAP2 POP POP SWAP3 POP SWAP3 SWAP1 POP JUMP JUMPDEST PUSH2 0x2B07 DUP2 PUSH2 0x2A88 JUMP JUMPDEST DUP3 MSTORE POP POP JUMP JUMPDEST PUSH1 0x0 PUSH1 0x20 DUP3 ADD SWAP1 POP PUSH2 0x2B22 PUSH1 0x0 DUP4 ADD DUP5 PUSH2 0x2AFE JUMP JUMPDEST SWAP3 SWAP2 POP POP JUMP JUMPDEST PUSH1 0x0 PUSH32 0xFFFFFFFF00000000000000000000000000000000000000000000000000000000 DUP3 AND SWAP1 POP SWAP2 SWAP1 POP JUMP JUMPDEST PUSH2 0x2B5D DUP2 PUSH2 0x2B28 JUMP JUMPDEST DUP2 EQ PUSH2 0x2B68 JUMPI PUSH1 0x0 DUP1 REVERT JUMPDEST POP JUMP JUMPDEST PUSH1 0x0 DUP2 CALLDATALOAD SWAP1 POP PUSH2 0x2B7A DUP2 PUSH2 0x2B54 JUMP JUMPDEST SWAP3 SWAP2 POP POP JUMP JUMPDEST PUSH1 0x0 PUSH1 0x20 DUP3 DUP5 SUB SLT ISZERO PUSH2 0x2B96 JUMPI PUSH2 0x2B95 PUSH2 0x2A20 JUMP JUMPDEST JUMPDEST PUSH1 0x0 PUSH2 0x2BA4 DUP5 DUP3 DUP6 ADD PUSH2 0x2B6B JUMP JUMPDEST SWAP2 POP POP SWAP3 SWAP2 POP POP JUMP JUMPDEST PUSH1 0x0 DUP2 ISZERO ISZERO SWAP1 POP SWAP2 SWAP1 POP JUMP JUMPDEST PUSH2 0x2BC2 DUP2 PUSH2 0x2BAD JUMP JUMPDEST DUP3 MSTORE POP POP JUMP JUMPDEST PUSH1 0x0 PUSH1 0x20 DUP3 ADD SWAP1 POP PUSH2 0x2BDD PUSH1 0x0 DUP4 ADD DUP5 PUSH2 0x2BB9 JUMP JUMPDEST SWAP3 SWAP2 POP POP JUMP JUMPDEST PUSH2 0x2BEC DUP2 PUSH2 0x2A4A JUMP JUMPDEST DUP3 MSTORE POP POP JUMP JUMPDEST PUSH1 0x0 PUSH1 0x20 DUP3 ADD SWAP1 POP PUSH2 0x2C07 PUSH1 0x0 DUP4 ADD DUP5 PUSH2 0x2BE3 JUMP JUMPDEST SWAP3 SWAP2 POP POP JUMP JUMPDEST PUSH1 0x0 PUSH1 0x20 DUP3 DUP5 SUB SLT ISZERO PUSH2 0x2C23 JUMPI PUSH2 0x2C22 PUSH2 0x2A20 JUMP JUMPDEST JUMPDEST PUSH1 0x0 PUSH2 0x2C31 DUP5 DUP3 DUP6 ADD PUSH2 0x2AA9 JUMP JUMPDEST SWAP2 POP POP SWAP3 SWAP2 POP POP JUMP JUMPDEST PUSH1 0x0 DUP2 MLOAD SWAP1 POP SWAP2 SWAP1 POP JUMP JUMPDEST PUSH1 0x0 DUP3 DUP3 MSTORE PUSH1 0x20 DUP3 ADD SWAP1 POP SWAP3 SWAP2 POP POP JUMP JUMPDEST PUSH1 0x0 JUMPDEST DUP4 DUP2 LT ISZERO PUSH2 0x2C74 JUMPI DUP1 DUP3 ADD MLOAD DUP2 DUP5 ADD MSTORE PUSH1 0x20 DUP2 ADD SWAP1 POP PUSH2 0x2C59 JUMP JUMPDEST PUSH1 0x0 DUP5 DUP5 ADD MSTORE POP POP POP POP JUMP JUMPDEST PUSH1 0x0 PUSH1 0x1F NOT PUSH1 0x1F DUP4 ADD AND SWAP1 POP SWAP2 SWAP1 POP JUMP JUMPDEST PUSH1 0x0 PUSH2 0x2C9C DUP3 PUSH2 0x2C3A JUMP JUMPDEST PUSH2 0x2CA6 DUP2 DUP6 PUSH2 0x2C45 JUMP JUMPDEST SWAP4 POP PUSH2 0x2CB6 DUP2 DUP6 PUSH1 0x20 DUP7 ADD PUSH2 0x2C56 JUMP JUMPDEST PUSH2 0x2CBF DUP2 PUSH2 0x2C80 JUMP JUMPDEST DUP5 ADD SWAP2 POP POP SWAP3 SWAP2 POP POP JUMP JUMPDEST PUSH1 0x0 PUSH1 0x20 DUP3 ADD SWAP1 POP DUP2 DUP2 SUB PUSH1 0x0 DUP4 ADD MSTORE PUSH2 0x2CE4 DUP2 DUP5 PUSH2 0x2C91 JUMP JUMPDEST SWAP1 POP SWAP3 SWAP2 POP POP JUMP JUMPDEST PUSH1 0x0 PUSH1 0x20 DUP3 DUP5 SUB SLT ISZERO PUSH2 0x2D02 JUMPI PUSH2 0x2D01 PUSH2 0x2A20 JUMP JUMPDEST JUMPDEST PUSH1 0x0 PUSH2 0x2D10 DUP5 DUP3 DUP6 ADD PUSH2 0x2A73 JUMP JUMPDEST SWAP2 POP POP SWAP3 SWAP2 POP POP JUMP JUMPDEST PUSH1 0x0 DUP1 REVERT JUMPDEST PUSH32 0x4E487B7100000000000000000000000000000000000000000000000000000000 PUSH1 0x0 MSTORE PUSH1 0x41 PUSH1 0x4 MSTORE PUSH1 0x24 PUSH1 0x0 REVERT JUMPDEST PUSH2 0x2D56 DUP3 PUSH2 0x2C80 JUMP JUMPDEST DUP2 ADD DUP2 DUP2 LT PUSH8 0xFFFFFFFFFFFFFFFF DUP3 GT OR ISZERO PUSH2 0x2D75 JUMPI PUSH2 0x2D74 PUSH2 0x2D1E JUMP JUMPDEST JUMPDEST DUP1 PUSH1 0x40 MSTORE POP POP POP JUMP JUMPDEST PUSH1 0x0 PUSH2 0x2D88 PUSH2 0x2A16 JUMP JUMPDEST SWAP1 POP PUSH2 0x2D94 DUP3 DUP3 PUSH2 0x2D4D JUMP JUMPDEST SWAP2 SWAP1 POP JUMP JUMPDEST PUSH1 0x0 PUSH8 0xFFFFFFFFFFFFFFFF DUP3 GT ISZERO PUSH2 0x2DB4 JUMPI PUSH2 0x2DB3 PUSH2 0x2D1E JUMP JUMPDEST JUMPDEST PUSH1 0x20 DUP3 MUL SWAP1 POP PUSH1 0x20 DUP2 ADD SWAP1 POP SWAP2 SWAP1 POP JUMP JUMPDEST PUSH1 0x0 DUP1 REVERT JUMPDEST PUSH1 0x0 PUSH2 0x2DDD PUSH2 0x2DD8 DUP5 PUSH2 0x2D99 JUMP JUMPDEST PUSH2 0x2D7E JUMP JUMPDEST SWAP1 POP DUP1 DUP4 DUP3 MSTORE PUSH1 0x20 DUP3 ADD SWAP1 POP PUSH1 0x20 DUP5 MUL DUP4 ADD DUP6 DUP2 GT ISZERO PUSH2 0x2E00 JUMPI PUSH2 0x2DFF PUSH2 0x2DC5 JUMP JUMPDEST JUMPDEST DUP4 JUMPDEST DUP2 DUP2 LT ISZERO PUSH2 0x2E29 JUMPI DUP1 PUSH2 0x2E15 DUP9 DUP3 PUSH2 0x2AA9 JUMP JUMPDEST DUP5 MSTORE PUSH1 0x20 DUP5 ADD SWAP4 POP POP PUSH1 0x20 DUP2 ADD SWAP1 POP PUSH2 0x2E02 JUMP JUMPDEST POP POP POP SWAP4 SWAP3 POP POP POP JUMP JUMPDEST PUSH1 0x0 DUP3 PUSH1 0x1F DUP4 ADD SLT PUSH2 0x2E48 JUMPI PUSH2 0x2E47 PUSH2 0x2D19 JUMP JUMPDEST JUMPDEST DUP2 CALLDATALOAD PUSH2 0x2E58 DUP5 DUP3 PUSH1 0x20 DUP7 ADD PUSH2 0x2DCA JUMP JUMPDEST SWAP2 POP POP SWAP3 SWAP2 POP POP JUMP JUMPDEST PUSH1 0x0 DUP1 REVERT JUMPDEST PUSH1 0x0 PUSH8 0xFFFFFFFFFFFFFFFF DUP3 GT ISZERO PUSH2 0x2E81 JUMPI PUSH2 0x2E80 PUSH2 0x2D1E JUMP JUMPDEST JUMPDEST PUSH2 0x2E8A DUP3 PUSH2 0x2C80 JUMP JUMPDEST SWAP1 POP PUSH1 0x20 DUP2 ADD SWAP1 POP SWAP2 SWAP1 POP JUMP JUMPDEST DUP3 DUP2 DUP4 CALLDATACOPY PUSH1 0x0 DUP4 DUP4 ADD MSTORE POP POP POP JUMP JUMPDEST PUSH1 0x0 PUSH2 0x2EB9 PUSH2 0x2EB4 DUP5 PUSH2 0x2E66 JUMP JUMPDEST PUSH2 0x2D7E JUMP JUMPDEST SWAP1 POP DUP3 DUP2 MSTORE PUSH1 0x20 DUP2 ADD DUP5 DUP5 DUP5 ADD GT ISZERO PUSH2 0x2ED5 JUMPI PUSH2 0x2ED4 PUSH2 0x2E61 JUMP JUMPDEST JUMPDEST PUSH2 0x2EE0 DUP5 DUP3 DUP6 PUSH2 0x2E97 JUMP JUMPDEST POP SWAP4 SWAP3 POP POP POP JUMP JUMPDEST PUSH1 0x0 DUP3 PUSH1 0x1F DUP4 ADD SLT PUSH2 0x2EFD JUMPI PUSH2 0x2EFC PUSH2 0x2D19 JUMP JUMPDEST JUMPDEST DUP2 CALLDATALOAD PUSH2 0x2F0D DUP5 DUP3 PUSH1 0x20 DUP7 ADD PUSH2 0x2EA6 JUMP JUMPDEST SWAP2 POP POP SWAP3 SWAP2 POP POP JUMP JUMPDEST PUSH1 0x0 DUP1 PUSH1 0x0 DUP1 PUSH1 0x0 PUSH1 0xA0 DUP7 DUP9 SUB SLT ISZERO PUSH2 0x2F32 JUMPI PUSH2 0x2F31 PUSH2 0x2A20 JUMP JUMPDEST JUMPDEST PUSH1 0x0 PUSH2 0x2F40 DUP9 DUP3 DUP10 ADD PUSH2 0x2A73 JUMP JUMPDEST SWAP6 POP POP PUSH1 0x20 PUSH2 0x2F51 DUP9 DUP3 DUP10 ADD PUSH2 0x2A73 JUMP JUMPDEST SWAP5 POP POP PUSH1 0x40 DUP7 ADD CALLDATALOAD PUSH8 0xFFFFFFFFFFFFFFFF DUP2 GT ISZERO PUSH2 0x2F72 JUMPI PUSH2 0x2F71 PUSH2 0x2A25 JUMP JUMPDEST JUMPDEST PUSH2 0x2F7E DUP9 DUP3 DUP10 ADD PUSH2 0x2E33 JUMP JUMPDEST SWAP4 POP POP PUSH1 0x60 DUP7 ADD CALLDATALOAD PUSH8 0xFFFFFFFFFFFFFFFF DUP2 GT ISZERO PUSH2 0x2F9F JUMPI PUSH2 0x2F9E PUSH2 0x2A25 JUMP JUMPDEST JUMPDEST PUSH2 0x2FAB DUP9 DUP3 DUP10 ADD PUSH2 0x2E33 JUMP JUMPDEST SWAP3 POP POP PUSH1 0x80 DUP7 ADD CALLDATALOAD PUSH8 0xFFFFFFFFFFFFFFFF DUP2 GT ISZERO PUSH2 0x2FCC JUMPI PUSH2 0x2FCB PUSH2 0x2A25 JUMP JUMPDEST JUMPDEST PUSH2 0x2FD8 DUP9 DUP3 DUP10 ADD PUSH2 0x2EE8 JUMP JUMPDEST SWAP2 POP POP SWAP3 SWAP6 POP SWAP3 SWAP6 SWAP1 SWAP4 POP JUMP JUMPDEST PUSH1 0x0 PUSH8 0xFFFFFFFFFFFFFFFF DUP3 GT ISZERO PUSH2 0x3000 JUMPI PUSH2 0x2FFF PUSH2 0x2D1E JUMP JUMPDEST JUMPDEST PUSH1 0x20 DUP3 MUL SWAP1 POP PUSH1 0x20 DUP2 ADD SWAP1 POP SWAP2 SWAP1 POP JUMP JUMPDEST PUSH1 0x0 PUSH2 0x3024 PUSH2 0x301F DUP5 PUSH2 0x2FE5 JUMP JUMPDEST PUSH2 0x2D7E JUMP JUMPDEST SWAP1 POP DUP1 DUP4 DUP3 MSTORE PUSH1 0x20 DUP3 ADD SWAP1 POP PUSH1 0x20 DUP5 MUL DUP4 ADD DUP6 DUP2 GT ISZERO PUSH2 0x3047 JUMPI PUSH2 0x3046 PUSH2 0x2DC5 JUMP JUMPDEST JUMPDEST DUP4 JUMPDEST DUP2 DUP2 LT ISZERO PUSH2 0x3070 JUMPI DUP1 PUSH2 0x305C DUP9 DUP3 PUSH2 0x2A73 JUMP JUMPDEST DUP5 MSTORE PUSH1 0x20 DUP5 ADD SWAP4 POP POP PUSH1 0x20 DUP2 ADD SWAP1 POP PUSH2 0x3049 JUMP JUMPDEST POP POP POP SWAP4 SWAP3 POP POP POP JUMP JUMPDEST PUSH1 0x0 DUP3 PUSH1 0x1F DUP4 ADD SLT PUSH2 0x308F JUMPI PUSH2 0x308E PUSH2 0x2D19 JUMP JUMPDEST JUMPDEST DUP2 CALLDATALOAD PUSH2 0x309F DUP5 DUP3 PUSH1 0x20 DUP7 ADD PUSH2 0x3011 JUMP JUMPDEST SWAP2 POP POP SWAP3 SWAP2 POP POP JUMP JUMPDEST PUSH1 0x0 DUP1 PUSH1 0x40 DUP4 DUP6 SUB SLT ISZERO PUSH2 0x30BF JUMPI PUSH2 0x30BE PUSH2 0x2A20 JUMP JUMPDEST JUMPDEST PUSH1 0x0 DUP4 ADD CALLDATALOAD PUSH8 0xFFFFFFFFFFFFFFFF DUP2 GT ISZERO PUSH2 0x30DD JUMPI PUSH2 0x30DC PUSH2 0x2A25 JUMP JUMPDEST JUMPDEST PUSH2 0x30E9 DUP6 DUP3 DUP7 ADD PUSH2 0x307A JUMP JUMPDEST SWAP3 POP POP PUSH1 0x20 DUP4 ADD CALLDATALOAD PUSH8 0xFFFFFFFFFFFFFFFF DUP2 GT ISZERO PUSH2 0x310A JUMPI PUSH2 0x3109 PUSH2 0x2A25 JUMP JUMPDEST JUMPDEST PUSH2 0x3116 DUP6 DUP3 DUP7 ADD PUSH2 0x2E33 JUMP JUMPDEST SWAP2 POP POP SWAP3 POP SWAP3 SWAP1 POP JUMP JUMPDEST PUSH1 0x0 DUP2 MLOAD SWAP1 POP SWAP2 SWAP1 POP JUMP JUMPDEST PUSH1 0x0 DUP3 DUP3 MSTORE PUSH1 0x20 DUP3 ADD SWAP1 POP SWAP3 SWAP2 POP POP JUMP JUMPDEST PUSH1 0x0 DUP2 SWAP1 POP PUSH1 0x20 DUP3 ADD SWAP1 POP SWAP2 SWAP1 POP JUMP JUMPDEST PUSH2 0x3155 DUP2 PUSH2 0x2A88 JUMP JUMPDEST DUP3 MSTORE POP POP JUMP JUMPDEST PUSH1 0x0 PUSH2 0x3167 DUP4 DUP4 PUSH2 0x314C JUMP JUMPDEST PUSH1 0x20 DUP4 ADD SWAP1 POP SWAP3 SWAP2 POP POP JUMP JUMPDEST PUSH1 0x0 PUSH1 0x20 DUP3 ADD SWAP1 POP SWAP2 SWAP1 POP JUMP JUMPDEST PUSH1 0x0 PUSH2 0x318B DUP3 PUSH2 0x3120 JUMP JUMPDEST PUSH2 0x3195 DUP2 DUP6 PUSH2 0x312B JUMP JUMPDEST SWAP4 POP PUSH2 0x31A0 DUP4 PUSH2 0x313C JUMP JUMPDEST DUP1 PUSH1 0x0 JUMPDEST DUP4 DUP2 LT ISZERO PUSH2 0x31D1 JUMPI DUP2 MLOAD PUSH2 0x31B8 DUP9 DUP3 PUSH2 0x315B JUMP JUMPDEST SWAP8 POP PUSH2 0x31C3 DUP4 PUSH2 0x3173 JUMP JUMPDEST SWAP3 POP POP PUSH1 0x1 DUP2 ADD SWAP1 POP PUSH2 0x31A4 JUMP JUMPDEST POP DUP6 SWAP4 POP POP POP POP SWAP3 SWAP2 POP POP JUMP JUMPDEST PUSH1 0x0 PUSH1 0x20 DUP3 ADD SWAP1 POP DUP2 DUP2 SUB PUSH1 0x0 DUP4 ADD MSTORE PUSH2 0x31F8 DUP2 DUP5 PUSH2 0x3180 JUMP JUMPDEST SWAP1 POP SWAP3 SWAP2 POP POP JUMP JUMPDEST PUSH1 0x0 DUP1 PUSH1 0x0 DUP1 PUSH1 0x0 DUP1 PUSH1 0xC0 DUP8 DUP10 SUB SLT ISZERO PUSH2 0x321D JUMPI PUSH2 0x321C PUSH2 0x2A20 JUMP JUMPDEST JUMPDEST PUSH1 0x0 PUSH2 0x322B DUP10 DUP3 DUP11 ADD PUSH2 0x2A73 JUMP JUMPDEST SWAP7 POP POP PUSH1 0x20 PUSH2 0x323C DUP10 DUP3 DUP11 ADD PUSH2 0x2AA9 JUMP JUMPDEST SWAP6 POP POP PUSH1 0x40 PUSH2 0x324D DUP10 DUP3 DUP11 ADD PUSH2 0x2AA9 JUMP JUMPDEST SWAP5 POP POP PUSH1 0x60 PUSH2 0x325E DUP10 DUP3 DUP11 ADD PUSH2 0x2AA9 JUMP JUMPDEST SWAP4 POP POP PUSH1 0x80 PUSH2 0x326F DUP10 DUP3 DUP11 ADD PUSH2 0x2AA9 JUMP JUMPDEST SWAP3 POP POP PUSH1 0xA0 PUSH2 0x3280 DUP10 DUP3 DUP11 ADD PUSH2 0x2AA9 JUMP JUMPDEST SWAP2 POP POP SWAP3 SWAP6 POP SWAP3 SWAP6 POP SWAP3 SWAP6 JUMP JUMPDEST PUSH2 0x3296 DUP2 PUSH2 0x2BAD JUMP JUMPDEST DUP2 EQ PUSH2 0x32A1 JUMPI PUSH1 0x0 DUP1 REVERT JUMPDEST POP JUMP JUMPDEST PUSH1 0x0 DUP2 CALLDATALOAD SWAP1 POP PUSH2 0x32B3 DUP2 PUSH2 0x328D JUMP JUMPDEST SWAP3 SWAP2 POP POP JUMP JUMPDEST PUSH1 0x0 DUP1 PUSH1 0x40 DUP4 DUP6 SUB SLT ISZERO PUSH2 0x32D0 JUMPI PUSH2 0x32CF PUSH2 0x2A20 JUMP JUMPDEST JUMPDEST PUSH1 0x0 PUSH2 0x32DE DUP6 DUP3 DUP7 ADD PUSH2 0x2A73 JUMP JUMPDEST SWAP3 POP POP PUSH1 0x20 PUSH2 0x32EF DUP6 DUP3 DUP7 ADD PUSH2 0x32A4 JUMP JUMPDEST SWAP2 POP POP SWAP3 POP SWAP3 SWAP1 POP JUMP JUMPDEST PUSH1 0x0 DUP1 PUSH1 0x40 DUP4 DUP6 SUB SLT ISZERO PUSH2 0x3310 JUMPI PUSH2 0x330F PUSH2 0x2A20 JUMP JUMPDEST JUMPDEST PUSH1 0x0 PUSH2 0x331E DUP6 DUP3 DUP7 ADD PUSH2 0x2A73 JUMP JUMPDEST SWAP3 POP POP PUSH1 0x20 PUSH2 0x332F DUP6 DUP3 DUP7 ADD PUSH2 0x2A73 JUMP JUMPDEST SWAP2 POP POP SWAP3 POP SWAP3 SWAP1 POP JUMP JUMPDEST PUSH1 0x0 DUP1 PUSH1 0x0 DUP1 PUSH1 0x0 PUSH1 0xA0 DUP7 DUP9 SUB SLT ISZERO PUSH2 0x3355 JUMPI PUSH2 0x3354 PUSH2 0x2A20 JUMP JUMPDEST JUMPDEST PUSH1 0x0 PUSH2 0x3363 DUP9 DUP3 DUP10 ADD PUSH2 0x2A73 JUMP JUMPDEST SWAP6 POP POP PUSH1 0x20 PUSH2 0x3374 DUP9 DUP3 DUP10 ADD PUSH2 0x2A73 JUMP JUMPDEST SWAP5 POP POP PUSH1 0x40 PUSH2 0x3385 DUP9 DUP3 DUP10 ADD PUSH2 0x2AA9 JUMP JUMPDEST SWAP4 POP POP PUSH1 0x60 PUSH2 0x3396 DUP9 DUP3 DUP10 ADD PUSH2 0x2AA9 JUMP JUMPDEST SWAP3 POP POP PUSH1 0x80 DUP7 ADD CALLDATALOAD PUSH8 0xFFFFFFFFFFFFFFFF DUP2 GT ISZERO PUSH2 0x33B7 JUMPI PUSH2 0x33B6 PUSH2 0x2A25 JUMP JUMPDEST JUMPDEST PUSH2 0x33C3 DUP9 DUP3 DUP10 ADD PUSH2 0x2EE8 JUMP JUMPDEST SWAP2 POP POP SWAP3 SWAP6 POP SWAP3 SWAP6 SWAP1 SWAP4 POP JUMP JUMPDEST PUSH32 0x455243313135353A2061646472657373207A65726F206973206E6F7420612076 PUSH1 0x0 DUP3 ADD MSTORE PUSH32 0x616C6964206F776E657200000000000000000000000000000000000000000000 PUSH1 0x20 DUP3 ADD MSTORE POP JUMP JUMPDEST PUSH1 0x0 PUSH2 0x342C PUSH1 0x2A DUP4 PUSH2 0x2C45 JUMP JUMPDEST SWAP2 POP PUSH2 0x3437 DUP3 PUSH2 0x33D0 JUMP JUMPDEST PUSH1 0x40 DUP3 ADD SWAP1 POP SWAP2 SWAP1 POP JUMP JUMPDEST PUSH1 0x0 PUSH1 0x20 DUP3 ADD SWAP1 POP DUP2 DUP2 SUB PUSH1 0x0 DUP4 ADD MSTORE PUSH2 0x345B DUP2 PUSH2 0x341F JUMP JUMPDEST SWAP1 POP SWAP2 SWAP1 POP JUMP JUMPDEST PUSH32 0x4E487B7100000000000000000000000000000000000000000000000000000000 PUSH1 0x0 MSTORE PUSH1 0x22 PUSH1 0x4 MSTORE PUSH1 0x24 PUSH1 0x0 REVERT JUMPDEST PUSH1 0x0 PUSH1 0x2 DUP3 DIV SWAP1 POP PUSH1 0x1 DUP3 AND DUP1 PUSH2 0x34A9 JUMPI PUSH1 0x7F DUP3 AND SWAP2 POP JUMPDEST PUSH1 0x20 DUP3 LT DUP2 SUB PUSH2 0x34BC JUMPI PUSH2 0x34BB PUSH2 0x3462 JUMP JUMPDEST JUMPDEST POP SWAP2 SWAP1 POP JUMP JUMPDEST PUSH32 0x455243313135353A2063616C6C6572206973206E6F7420746F6B656E206F776E PUSH1 0x0 DUP3 ADD MSTORE PUSH32 0x6572206F7220617070726F766564000000000000000000000000000000000000 PUSH1 0x20 DUP3 ADD MSTORE POP JUMP JUMPDEST PUSH1 0x0 PUSH2 0x351E PUSH1 0x2E DUP4 PUSH2 0x2C45 JUMP JUMPDEST SWAP2 POP PUSH2 0x3529 DUP3 PUSH2 0x34C2 JUMP JUMPDEST PUSH1 0x40 DUP3 ADD SWAP1 POP SWAP2 SWAP1 POP JUMP JUMPDEST PUSH1 0x0 PUSH1 0x20 DUP3 ADD SWAP1 POP DUP2 DUP2 SUB PUSH1 0x0 DUP4 ADD MSTORE PUSH2 0x354D DUP2 PUSH2 0x3511 JUMP JUMPDEST SWAP1 POP SWAP2 SWAP1 POP JUMP JUMPDEST PUSH32 0x455243313135353A206163636F756E747320616E6420696473206C656E677468 PUSH1 0x0 DUP3 ADD MSTORE PUSH32 0x206D69736D617463680000000000000000000000000000000000000000000000 PUSH1 0x20 DUP3 ADD MSTORE POP JUMP JUMPDEST PUSH1 0x0 PUSH2 0x35B0 PUSH1 0x29 DUP4 PUSH2 0x2C45 JUMP JUMPDEST SWAP2 POP PUSH2 0x35BB DUP3 PUSH2 0x3554 JUMP JUMPDEST PUSH1 0x40 DUP3 ADD SWAP1 POP SWAP2 SWAP1 POP JUMP JUMPDEST PUSH1 0x0 PUSH1 0x20 DUP3 ADD SWAP1 POP DUP2 DUP2 SUB PUSH1 0x0 DUP4 ADD MSTORE PUSH2 0x35DF DUP2 PUSH2 0x35A3 JUMP JUMPDEST SWAP1 POP SWAP2 SWAP1 POP JUMP JUMPDEST PUSH32 0x4E487B7100000000000000000000000000000000000000000000000000000000 PUSH1 0x0 MSTORE PUSH1 0x32 PUSH1 0x4 MSTORE PUSH1 0x24 PUSH1 0x0 REVERT JUMPDEST PUSH32 0x4E487B7100000000000000000000000000000000000000000000000000000000 PUSH1 0x0 MSTORE PUSH1 0x11 PUSH1 0x4 MSTORE PUSH1 0x24 PUSH1 0x0 REVERT JUMPDEST PUSH1 0x0 PUSH2 0x364F DUP3 PUSH2 0x2A88 JUMP JUMPDEST SWAP2 POP PUSH32 0xFFFFFFFFFFFFFFFFFFFFFFFFFFFFFFFFFFFFFFFFFFFFFFFFFFFFFFFFFFFFFFFF DUP3 SUB PUSH2 0x3681 JUMPI PUSH2 0x3680 PUSH2 0x3615 JUMP JUMPDEST JUMPDEST PUSH1 0x1 DUP3 ADD SWAP1 POP SWAP2 SWAP1 POP JUMP JUMPDEST PUSH32 0x546865206C656E64696E672072617465206D757374206265206174206C656173 PUSH1 0x0 DUP3 ADD MSTORE PUSH32 0x7420313020426173697320506F696E742028302E312529000000000000000000 PUSH1 0x20 DUP3 ADD MSTORE POP JUMP JUMPDEST PUSH1 0x0 PUSH2 0x36E8 PUSH1 0x37 DUP4 PUSH2 0x2C45 JUMP JUMPDEST SWAP2 POP PUSH2 0x36F3 DUP3 PUSH2 0x368C JUMP JUMPDEST PUSH1 0x40 DUP3 ADD SWAP1 POP SWAP2 SWAP1 POP JUMP JUMPDEST PUSH1 0x0 PUSH1 0x20 DUP3 ADD SWAP1 POP DUP2 DUP2 SUB PUSH1 0x0 DUP4 ADD MSTORE PUSH2 0x3717 DUP2 PUSH2 0x36DB JUMP JUMPDEST SWAP1 POP SWAP2 SWAP1 POP JUMP JUMPDEST PUSH32 0x4665652050617961626C6520666F72205065657252617465206D757374206265 PUSH1 0x0 DUP3 ADD MSTORE PUSH32 0x206C657373207468616E206C656E64696E672072617465206F66666572656420 PUSH1 0x20 DUP3 ADD MSTORE PUSH32 0x616E64206174206C656173742034302042502028302E34252900000000000000 PUSH1 0x40 DUP3 ADD MSTORE POP JUMP JUMPDEST PUSH1 0x0 PUSH2 0x37A0 PUSH1 0x59 DUP4 PUSH2 0x2C45 JUMP JUMPDEST SWAP2 POP PUSH2 0x37AB DUP3 PUSH2 0x371E JUMP JUMPDEST PUSH1 0x60 DUP3 ADD SWAP1 POP SWAP2 SWAP1 POP JUMP JUMPDEST PUSH1 0x0 PUSH1 0x20 DUP3 ADD SWAP1 POP DUP2 DUP2 SUB PUSH1 0x0 DUP4 ADD MSTORE PUSH2 0x37CF DUP2 PUSH2 0x3793 JUMP JUMPDEST SWAP1 POP SWAP2 SWAP1 POP JUMP JUMPDEST PUSH32 0x4F726967696E6174696F6E20666565206D757374206265206174206C65617374 PUSH1 0x0 DUP3 ADD MSTORE PUSH32 0x2035302042502028302E35252900000000000000000000000000000000000000 PUSH1 0x20 DUP3 ADD MSTORE POP JUMP JUMPDEST PUSH1 0x0 PUSH2 0x3832 PUSH1 0x2D DUP4 PUSH2 0x2C45 JUMP JUMPDEST SWAP2 POP PUSH2 0x383D DUP3 PUSH2 0x37D6 JUMP JUMPDEST PUSH1 0x40 DUP3 ADD SWAP1 POP SWAP2 SWAP1 POP JUMP JUMPDEST PUSH1 0x0 PUSH1 0x20 DUP3 ADD SWAP1 POP DUP2 DUP2 SUB PUSH1 0x0 DUP4 ADD MSTORE PUSH2 0x3861 DUP2 PUSH2 0x3825 JUMP JUMPDEST SWAP1 POP SWAP2 SWAP1 POP JUMP JUMPDEST PUSH32 0x546865206C6F616E20706572696F64206D757374206265206174206C65617374 PUSH1 0x0 DUP3 ADD MSTORE PUSH32 0x2031204D6F6E7468000000000000000000000000000000000000000000000000 PUSH1 0x20 DUP3 ADD MSTORE POP JUMP JUMPDEST PUSH1 0x0 PUSH2 0x38C4 PUSH1 0x28 DUP4 PUSH2 0x2C45 JUMP JUMPDEST SWAP2 POP PUSH2 0x38CF DUP3 PUSH2 0x3868 JUMP JUMPDEST PUSH1 0x40 DUP3 ADD SWAP1 POP SWAP2 SWAP1 POP JUMP JUMPDEST PUSH1 0x0 PUSH1 0x20 DUP3 ADD SWAP1 POP DUP2 DUP2 SUB PUSH1 0x0 DUP4 ADD MSTORE PUSH2 0x38F3 DUP2 PUSH2 0x38B7 JUMP JUMPDEST SWAP1 POP SWAP2 SWAP1 POP JUMP JUMPDEST PUSH1 0x0 PUSH1 0xA0 DUP3 ADD SWAP1 POP PUSH2 0x390F PUSH1 0x0 DUP4 ADD DUP9 PUSH2 0x2BE3 JUMP JUMPDEST PUSH2 0x391C PUSH1 0x20 DUP4 ADD DUP8 PUSH2 0x2AFE JUMP JUMPDEST PUSH2 0x3929 PUSH1 0x40 DUP4 ADD DUP7 PUSH2 0x2AFE JUMP JUMPDEST PUSH2 0x3936 PUSH1 0x60 DUP4 ADD DUP6 PUSH2 0x2AFE JUMP JUMPDEST PUSH2 0x3943 PUSH1 0x80 DUP4 ADD DUP5 PUSH2 0x2AFE JUMP JUMPDEST SWAP7 SWAP6 POP POP POP POP POP POP JUMP JUMPDEST PUSH32 0x546865206C6F616E206973206E6F742063726561746564000000000000000000 PUSH1 0x0 DUP3 ADD MSTORE POP JUMP JUMPDEST PUSH1 0x0 PUSH2 0x3983 PUSH1 0x17 DUP4 PUSH2 0x2C45 JUMP JUMPDEST SWAP2 POP PUSH2 0x398E DUP3 PUSH2 0x394D JUMP JUMPDEST PUSH1 0x20 DUP3 ADD SWAP1 POP SWAP2 SWAP1 POP JUMP JUMPDEST PUSH1 0x0 PUSH1 0x20 DUP3 ADD SWAP1 POP DUP2 DUP2 SUB PUSH1 0x0 DUP4 ADD MSTORE PUSH2 0x39B2 DUP2 PUSH2 0x3976 JUMP JUMPDEST SWAP1 POP SWAP2 SWAP1 POP JUMP JUMPDEST PUSH32 0x20506C6561736520696E7665737420696E20746865206C6F616E206D6F726520 PUSH1 0x0 DUP3 ADD MSTORE PUSH32 0x7468616E20310000000000000000000000000000000000000000000000000000 PUSH1 0x20 DUP3 ADD MSTORE POP JUMP JUMPDEST PUSH1 0x0 PUSH2 0x3A15 PUSH1 0x26 DUP4 PUSH2 0x2C45 JUMP JUMPDEST SWAP2 POP PUSH2 0x3A20 DUP3 PUSH2 0x39B9 JUMP JUMPDEST PUSH1 0x40 DUP3 ADD SWAP1 POP SWAP2 SWAP1 POP JUMP JUMPDEST PUSH1 0x0 PUSH1 0x20 DUP3 ADD SWAP1 POP DUP2 DUP2 SUB PUSH1 0x0 DUP4 ADD MSTORE PUSH2 0x3A44 DUP2 PUSH2 0x3A08 JUMP JUMPDEST SWAP1 POP SWAP2 SWAP1 POP JUMP JUMPDEST PUSH1 0x0 PUSH2 0x3A56 DUP3 PUSH2 0x2A88 JUMP JUMPDEST SWAP2 POP PUSH2 0x3A61 DUP4 PUSH2 0x2A88 JUMP JUMPDEST SWAP3 POP DUP3 DUP3 ADD SWAP1 POP DUP1 DUP3 GT ISZERO PUSH2 0x3A79 JUMPI PUSH2 0x3A78 PUSH2 0x3615 JUMP JUMPDEST JUMPDEST SWAP3 SWAP2 POP POP JUMP JUMPDEST PUSH32 0x596F75206861766520657863656564656420746865206D6178696D756D207072 PUSH1 0x0 DUP3 ADD MSTORE PUSH32 0x696E636970616C206F6620746865206C6F616E00000000000000000000000000 PUSH1 0x20 DUP3 ADD MSTORE POP JUMP JUMPDEST PUSH1 0x0 PUSH2 0x3ADB PUSH1 0x33 DUP4 PUSH2 0x2C45 JUMP JUMPDEST SWAP2 POP PUSH2 0x3AE6 DUP3 PUSH2 0x3A7F JUMP JUMPDEST PUSH1 0x40 DUP3 ADD SWAP1 POP SWAP2 SWAP1 POP JUMP JUMPDEST PUSH1 0x0 PUSH1 0x20 DUP3 ADD SWAP1 POP DUP2 DUP2 SUB PUSH1 0x0 DUP4 ADD MSTORE PUSH2 0x3B0A DUP2 PUSH2 0x3ACE JUMP JUMPDEST SWAP1 POP SWAP2 SWAP1 POP JUMP JUMPDEST PUSH1 0x0 DUP2 MLOAD SWAP1 POP PUSH2 0x3B20 DUP2 PUSH2 0x2A92 JUMP JUMPDEST SWAP3 SWAP2 POP POP JUMP JUMPDEST PUSH1 0x0 PUSH1 0x20 DUP3 DUP5 SUB SLT ISZERO PUSH2 0x3B3C JUMPI PUSH2 0x3B3B PUSH2 0x2A20 JUMP JUMPDEST JUMPDEST PUSH1 0x0 PUSH2 0x3B4A DUP5 DUP3 DUP6 ADD PUSH2 0x3B11 JUMP JUMPDEST SWAP2 POP POP SWAP3 SWAP2 POP POP JUMP JUMPDEST PUSH32 0x4E487B7100000000000000000000000000000000000000000000000000000000 PUSH1 0x0 MSTORE PUSH1 0x12 PUSH1 0x4 MSTORE PUSH1 0x24 PUSH1 0x0 REVERT JUMPDEST PUSH1 0x0 PUSH2 0x3B8D DUP3 PUSH2 0x2A88 JUMP JUMPDEST SWAP2 POP PUSH2 0x3B98 DUP4 PUSH2 0x2A88 JUMP JUMPDEST SWAP3 POP DUP3 PUSH2 0x3BA8 JUMPI PUSH2 0x3BA7 PUSH2 0x3B53 JUMP JUMPDEST JUMPDEST DUP3 DUP3 DIV SWAP1 POP SWAP3 SWAP2 POP POP JUMP JUMPDEST PUSH32 0x496E73756666696369656E7420616D6F756E7400000000000000000000000000 PUSH1 0x0 DUP3 ADD MSTORE POP JUMP JUMPDEST PUSH1 0x0 PUSH2 0x3BE9 PUSH1 0x13 DUP4 PUSH2 0x2C45 JUMP JUMPDEST SWAP2 POP PUSH2 0x3BF4 DUP3 PUSH2 0x3BB3 JUMP JUMPDEST PUSH1 0x20 DUP3 ADD SWAP1 POP SWAP2 SWAP1 POP JUMP JUMPDEST PUSH1 0x0 PUSH1 0x20 DUP3 ADD SWAP1 POP DUP2 DUP2 SUB PUSH1 0x0 DUP4 ADD MSTORE PUSH2 0x3C18 DUP2 PUSH2 0x3BDC JUMP JUMPDEST SWAP1 POP SWAP2 SWAP1 POP JUMP JUMPDEST PUSH1 0x0 PUSH2 0x3C2A DUP3 PUSH2 0x2A88 JUMP JUMPDEST SWAP2 POP PUSH2 0x3C35 DUP4 PUSH2 0x2A88 JUMP JUMPDEST SWAP3 POP DUP3 DUP3 MUL PUSH2 0x3C43 DUP2 PUSH2 0x2A88 JUMP JUMPDEST SWAP2 POP DUP3 DUP3 DIV DUP5 EQ DUP4 ISZERO OR PUSH2 0x3C5A JUMPI PUSH2 0x3C59 PUSH2 0x3615 JUMP JUMPDEST JUMPDEST POP SWAP3 SWAP2 POP POP JUMP JUMPDEST PUSH1 0x0 PUSH2 0x3C6C DUP3 PUSH2 0x2A88 JUMP JUMPDEST SWAP2 POP PUSH2 0x3C77 DUP4 PUSH2 0x2A88 JUMP JUMPDEST SWAP3 POP DUP3 DUP3 SUB SWAP1 POP DUP2 DUP2 GT ISZERO PUSH2 0x3C8F JUMPI PUSH2 0x3C8E PUSH2 0x3615 JUMP JUMPDEST JUMPDEST SWAP3 SWAP2 POP POP JUMP JUMPDEST PUSH1 0x0 PUSH1 0x60 DUP3 ADD SWAP1 POP PUSH2 0x3CAA PUSH1 0x0 DUP4 ADD DUP7 PUSH2 0x2BE3 JUMP JUMPDEST PUSH2 0x3CB7 PUSH1 0x20 DUP4 ADD DUP6 PUSH2 0x2BE3 JUMP JUMPDEST PUSH2 0x3CC4 PUSH1 0x40 DUP4 ADD DUP5 PUSH2 0x2AFE JUMP JUMPDEST SWAP5 SWAP4 POP POP POP POP JUMP JUMPDEST PUSH1 0x0 DUP2 MLOAD SWAP1 POP PUSH2 0x3CDB DUP2 PUSH2 0x328D JUMP JUMPDEST SWAP3 SWAP2 POP POP JUMP JUMPDEST PUSH1 0x0 PUSH1 0x20 DUP3 DUP5 SUB SLT ISZERO PUSH2 0x3CF7 JUMPI PUSH2 0x3CF6 PUSH2 0x2A20 JUMP JUMPDEST JUMPDEST PUSH1 0x0 PUSH2 0x3D05 DUP5 DUP3 DUP6 ADD PUSH2 0x3CCC JUMP JUMPDEST SWAP2 POP POP SWAP3 SWAP2 POP POP JUMP JUMPDEST PUSH32 0x546865206C6F616E206973206163746976650000000000000000000000000000 PUSH1 0x0 DUP3 ADD MSTORE POP JUMP JUMPDEST PUSH1 0x0 PUSH2 0x3D44 PUSH1 0x12 DUP4 PUSH2 0x2C45 JUMP JUMPDEST SWAP2 POP PUSH2 0x3D4F DUP3 PUSH2 0x3D0E JUMP JUMPDEST PUSH1 0x20 DUP3 ADD SWAP1 POP SWAP2 SWAP1 POP JUMP JUMPDEST PUSH1 0x0 PUSH1 0x20 DUP3 ADD SWAP1 POP DUP2 DUP2 SUB PUSH1 0x0 DUP4 ADD MSTORE PUSH2 0x3D73 DUP2 PUSH2 0x3D37 JUMP JUMPDEST SWAP1 POP SWAP2 SWAP1 POP JUMP JUMPDEST PUSH32 0x506C6561736520776974686472617720616D6F756E74206D6F7265207468616E PUSH1 0x0 DUP3 ADD MSTORE PUSH32 0x2031000000000000000000000000000000000000000000000000000000000000 PUSH1 0x20 DUP3 ADD MSTORE POP JUMP JUMPDEST PUSH1 0x0 PUSH2 0x3DD6 PUSH1 0x22 DUP4 PUSH2 0x2C45 JUMP JUMPDEST SWAP2 POP PUSH2 0x3DE1 DUP3 PUSH2 0x3D7A JUMP JUMPDEST PUSH1 0x40 DUP3 ADD SWAP1 POP SWAP2 SWAP1 POP JUMP JUMPDEST PUSH1 0x0 PUSH1 0x20 DUP3 ADD SWAP1 POP DUP2 DUP2 SUB PUSH1 0x0 DUP4 ADD MSTORE PUSH2 0x3E05 DUP2 PUSH2 0x3DC9 JUMP JUMPDEST SWAP1 POP SWAP2 SWAP1 POP JUMP JUMPDEST PUSH32 0x596F75206861766520656E746572656420616E20616D6F756E74206D6F726520 PUSH1 0x0 DUP3 ADD MSTORE PUSH32 0x7468616E20796F75722062616C616E6365000000000000000000000000000000 PUSH1 0x20 DUP3 ADD MSTORE POP JUMP JUMPDEST PUSH1 0x0 PUSH2 0x3E68 PUSH1 0x31 DUP4 PUSH2 0x2C45 JUMP JUMPDEST SWAP2 POP PUSH2 0x3E73 DUP3 PUSH2 0x3E0C JUMP JUMPDEST PUSH1 0x40 DUP3 ADD SWAP1 POP SWAP2 SWAP1 POP JUMP JUMPDEST PUSH1 0x0 PUSH1 0x20 DUP3 ADD SWAP1 POP DUP2 DUP2 SUB PUSH1 0x0 DUP4 ADD MSTORE PUSH2 0x3E97 DUP2 PUSH2 0x3E5B JUMP JUMPDEST SWAP1 POP SWAP2 SWAP1 POP JUMP JUMPDEST PUSH32 0x496E73756666696369656E74207769746864726177616C20616D6F756E740000 PUSH1 0x0 DUP3 ADD MSTORE POP JUMP JUMPDEST PUSH1 0x0 PUSH2 0x3ED4 PUSH1 0x1E DUP4 PUSH2 0x2C45 JUMP JUMPDEST SWAP2 POP PUSH2 0x3EDF DUP3 PUSH2 0x3E9E JUMP JUMPDEST PUSH1 0x20 DUP3 ADD SWAP1 POP SWAP2 SWAP1 POP JUMP JUMPDEST PUSH1 0x0 PUSH1 0x20 DUP3 ADD SWAP1 POP DUP2 DUP2 SUB PUSH1 0x0 DUP4 ADD MSTORE PUSH2 0x3F03 DUP2 PUSH2 0x3EC7 JUMP JUMPDEST SWAP1 POP SWAP2 SWAP1 POP JUMP JUMPDEST PUSH32 0x4C6F616E2070617274696369706174696F6E206973206C657373207468616E20 PUSH1 0x0 DUP3 ADD MSTORE PUSH32 0x3830250000000000000000000000000000000000000000000000000000000000 PUSH1 0x20 DUP3 ADD MSTORE POP JUMP JUMPDEST PUSH1 0x0 PUSH2 0x3F66 PUSH1 0x23 DUP4 PUSH2 0x2C45 JUMP JUMPDEST SWAP2 POP PUSH2 0x3F71 DUP3 PUSH2 0x3F0A JUMP JUMPDEST PUSH1 0x40 DUP3 ADD SWAP1 POP SWAP2 SWAP1 POP JUMP JUMPDEST PUSH1 0x0 PUSH1 0x20 DUP3 ADD SWAP1 POP DUP2 DUP2 SUB PUSH1 0x0 DUP4 ADD MSTORE PUSH2 0x3F95 DUP2 PUSH2 0x3F59 JUMP JUMPDEST SWAP1 POP SWAP2 SWAP1 POP JUMP JUMPDEST PUSH1 0x0 PUSH1 0x40 DUP3 ADD SWAP1 POP PUSH2 0x3FB1 PUSH1 0x0 DUP4 ADD DUP6 PUSH2 0x2BE3 JUMP JUMPDEST PUSH2 0x3FBE PUSH1 0x20 DUP4 ADD DUP5 PUSH2 0x2AFE JUMP JUMPDEST SWAP4 SWAP3 POP POP POP JUMP JUMPDEST PUSH1 0x0 PUSH1 0x40 DUP3 ADD SWAP1 POP PUSH2 0x3FDA PUSH1 0x0 DUP4 ADD DUP6 PUSH2 0x2BE3 JUMP JUMPDEST PUSH2 0x3FE7 PUSH1 0x20 DUP4 ADD DUP5 PUSH2 0x2BE3 JUMP JUMPDEST SWAP4 SWAP3 POP POP POP JUMP JUMPDEST PUSH32 0x596F752068617665206E6F7420617070726F76656420746865206E6563657373 PUSH1 0x0 DUP3 ADD MSTORE PUSH32 0x61727920616D6F756E7420666F72207061796D656E7400000000000000000000 PUSH1 0x20 DUP3 ADD MSTORE POP JUMP JUMPDEST PUSH1 0x0 PUSH2 0x404A PUSH1 0x36 DUP4 PUSH2 0x2C45 JUMP JUMPDEST SWAP2 POP PUSH2 0x4055 DUP3 PUSH2 0x3FEE JUMP JUMPDEST PUSH1 0x40 DUP3 ADD SWAP1 POP SWAP2 SWAP1 POP JUMP JUMPDEST PUSH1 0x0 PUSH1 0x20 DUP3 ADD SWAP1 POP DUP2 DUP2 SUB PUSH1 0x0 DUP4 ADD MSTORE PUSH2 0x4079 DUP2 PUSH2 0x403D JUMP JUMPDEST SWAP1 POP SWAP2 SWAP1 POP JUMP JUMPDEST PUSH32 0x596F7520646F6E277420686176652073756666696369656E7420616D6F756E74 PUSH1 0x0 DUP3 ADD MSTORE PUSH32 0x20696E20796F757220737461626C65636F696E00000000000000000000000000 PUSH1 0x20 DUP3 ADD MSTORE POP JUMP JUMPDEST PUSH1 0x0 PUSH2 0x40DC PUSH1 0x33 DUP4 PUSH2 0x2C45 JUMP JUMPDEST SWAP2 POP PUSH2 0x40E7 DUP3 PUSH2 0x4080 JUMP JUMPDEST PUSH1 0x40 DUP3 ADD SWAP1 POP SWAP2 SWAP1 POP JUMP JUMPDEST PUSH1 0x0 PUSH1 0x20 DUP3 ADD SWAP1 POP DUP2 DUP2 SUB PUSH1 0x0 DUP4 ADD MSTORE PUSH2 0x410B DUP2 PUSH2 0x40CF JUMP JUMPDEST SWAP1 POP SWAP2 SWAP1 POP JUMP JUMPDEST PUSH32 0x4F776E61626C653A206E6577206F776E657220697320746865207A65726F2061 PUSH1 0x0 DUP3 ADD MSTORE PUSH32 0x6464726573730000000000000000000000000000000000000000000000000000 PUSH1 0x20 DUP3 ADD MSTORE POP JUMP JUMPDEST PUSH1 0x0 PUSH2 0x416E PUSH1 0x26 DUP4 PUSH2 0x2C45 JUMP JUMPDEST SWAP2 POP PUSH2 0x4179 DUP3 PUSH2 0x4112 JUMP JUMPDEST PUSH1 0x40 DUP3 ADD SWAP1 POP SWAP2 SWAP1 POP JUMP JUMPDEST PUSH1 0x0 PUSH1 0x20 DUP3 ADD SWAP1 POP DUP2 DUP2 SUB PUSH1 0x0 DUP4 ADD MSTORE PUSH2 0x419D DUP2 PUSH2 0x4161 JUMP JUMPDEST SWAP1 POP SWAP2 SWAP1 POP JUMP JUMPDEST PUSH32 0x455243313135353A2069647320616E6420616D6F756E7473206C656E67746820 PUSH1 0x0 DUP3 ADD MSTORE PUSH32 0x6D69736D61746368000000000000000000000000000000000000000000000000 PUSH1 0x20 DUP3 ADD MSTORE POP JUMP JUMPDEST PUSH1 0x0 PUSH2 0x4200 PUSH1 0x28 DUP4 PUSH2 0x2C45 JUMP JUMPDEST SWAP2 POP PUSH2 0x420B DUP3 PUSH2 0x41A4 JUMP JUMPDEST PUSH1 0x40 DUP3 ADD SWAP1 POP SWAP2 SWAP1 POP JUMP JUMPDEST PUSH1 0x0 PUSH1 0x20 DUP3 ADD SWAP1 POP DUP2 DUP2 SUB PUSH1 0x0 DUP4 ADD MSTORE PUSH2 0x422F DUP2 PUSH2 0x41F3 JUMP JUMPDEST SWAP1 POP SWAP2 SWAP1 POP JUMP JUMPDEST PUSH32 0x455243313135353A207472616E7366657220746F20746865207A65726F206164 PUSH1 0x0 DUP3 ADD MSTORE PUSH32 0x6472657373000000000000000000000000000000000000000000000000000000 PUSH1 0x20 DUP3 ADD MSTORE POP JUMP JUMPDEST PUSH1 0x0 PUSH2 0x4292 PUSH1 0x25 DUP4 PUSH2 0x2C45 JUMP JUMPDEST SWAP2 POP PUSH2 0x429D DUP3 PUSH2 0x4236 JUMP JUMPDEST PUSH1 0x40 DUP3 ADD SWAP1 POP SWAP2 SWAP1 POP JUMP JUMPDEST PUSH1 0x0 PUSH1 0x20 DUP3 ADD SWAP1 POP DUP2 DUP2 SUB PUSH1 0x0 DUP4 ADD MSTORE PUSH2 0x42C1 DUP2 PUSH2 0x4285 JUMP JUMPDEST SWAP1 POP SWAP2 SWAP1 POP JUMP JUMPDEST PUSH32 0x455243313135353A20696E73756666696369656E742062616C616E636520666F PUSH1 0x0 DUP3 ADD MSTORE PUSH32 0x72207472616E7366657200000000000000000000000000000000000000000000 PUSH1 0x20 DUP3 ADD MSTORE POP JUMP JUMPDEST PUSH1 0x0 PUSH2 0x4324 PUSH1 0x2A DUP4 PUSH2 0x2C45 JUMP JUMPDEST SWAP2 POP PUSH2 0x432F DUP3 PUSH2 0x42C8 JUMP JUMPDEST PUSH1 0x40 DUP3 ADD SWAP1 POP SWAP2 SWAP1 POP JUMP JUMPDEST PUSH1 0x0 PUSH1 0x20 DUP3 ADD SWAP1 POP DUP2 DUP2 SUB PUSH1 0x0 DUP4 ADD MSTORE PUSH2 0x4353 DUP2 PUSH2 0x4317 JUMP JUMPDEST SWAP1 POP SWAP2 SWAP1 POP JUMP JUMPDEST PUSH1 0x0 PUSH1 0x40 DUP3 ADD SWAP1 POP DUP2 DUP2 SUB PUSH1 0x0 DUP4 ADD MSTORE PUSH2 0x4374 DUP2 DUP6 PUSH2 0x3180 JUMP JUMPDEST SWAP1 POP DUP2 DUP2 SUB PUSH1 0x20 DUP4 ADD MSTORE PUSH2 0x4388 DUP2 DUP5 PUSH2 0x3180 JUMP JUMPDEST SWAP1 POP SWAP4 SWAP3 POP POP POP JUMP JUMPDEST PUSH32 0x4F776E61626C653A2063616C6C6572206973206E6F7420746865206F776E6572 PUSH1 0x0 DUP3 ADD MSTORE POP JUMP JUMPDEST PUSH1 0x0 PUSH2 0x43C7 PUSH1 0x20 DUP4 PUSH2 0x2C45 JUMP JUMPDEST SWAP2 POP PUSH2 0x43D2 DUP3 PUSH2 0x4391 JUMP JUMPDEST PUSH1 0x20 DUP3 ADD SWAP1 POP SWAP2 SWAP1 POP JUMP JUMPDEST PUSH1 0x0 PUSH1 0x20 DUP3 ADD SWAP1 POP DUP2 DUP2 SUB PUSH1 0x0 DUP4 ADD MSTORE PUSH2 0x43F6 DUP2 PUSH2 0x43BA JUMP JUMPDEST SWAP1 POP SWAP2 SWAP1 POP JUMP JUMPDEST PUSH32 0x455243313135353A2073657474696E6720617070726F76616C20737461747573 PUSH1 0x0 DUP3 ADD MSTORE PUSH32 0x20666F722073656C660000000000000000000000000000000000000000000000 PUSH1 0x20 DUP3 ADD MSTORE POP JUMP JUMPDEST PUSH1 0x0 PUSH2 0x4459 PUSH1 0x29 DUP4 PUSH2 0x2C45 JUMP JUMPDEST SWAP2 POP PUSH2 0x4464 DUP3 PUSH2 0x43FD JUMP JUMPDEST PUSH1 0x40 DUP3 ADD SWAP1 POP SWAP2 SWAP1 POP JUMP JUMPDEST PUSH1 0x0 PUSH1 0x20 DUP3 ADD SWAP1 POP DUP2 DUP2 SUB PUSH1 0x0 DUP4 ADD MSTORE PUSH2 0x4488 DUP2 PUSH2 0x444C JUMP JUMPDEST SWAP1 POP SWAP2 SWAP1 POP JUMP JUMPDEST PUSH1 0x0 PUSH1 0x40 DUP3 ADD SWAP1 POP PUSH2 0x44A4 PUSH1 0x0 DUP4 ADD DUP6 PUSH2 0x2AFE JUMP JUMPDEST PUSH2 0x44B1 PUSH1 0x20 DUP4 ADD DUP5 PUSH2 0x2AFE JUMP JUMPDEST SWAP4 SWAP3 POP POP POP JUMP JUMPDEST PUSH1 0x0 DUP2 MLOAD SWAP1 POP SWAP2 SWAP1 POP JUMP JUMPDEST PUSH1 0x0 DUP3 DUP3 MSTORE PUSH1 0x20 DUP3 ADD SWAP1 POP SWAP3 SWAP2 POP POP JUMP JUMPDEST PUSH1 0x0 PUSH2 0x44DF DUP3 PUSH2 0x44B8 JUMP JUMPDEST PUSH2 0x44E9 DUP2 DUP6 PUSH2 0x44C3 JUMP JUMPDEST SWAP4 POP PUSH2 0x44F9 DUP2 DUP6 PUSH1 0x20 DUP7 ADD PUSH2 0x2C56 JUMP JUMPDEST PUSH2 0x4502 DUP2 PUSH2 0x2C80 JUMP JUMPDEST DUP5 ADD SWAP2 POP POP SWAP3 SWAP2 POP POP JUMP JUMPDEST PUSH1 0x0 PUSH1 0xA0 DUP3 ADD SWAP1 POP PUSH2 0x4522 PUSH1 0x0 DUP4 ADD DUP9 PUSH2 0x2BE3 JUMP JUMPDEST PUSH2 0x452F PUSH1 0x20 DUP4 ADD DUP8 PUSH2 0x2BE3 JUMP JUMPDEST DUP2 DUP2 SUB PUSH1 0x40 DUP4 ADD MSTORE PUSH2 0x4541 DUP2 DUP7 PUSH2 0x3180 JUMP JUMPDEST SWAP1 POP DUP2 DUP2 SUB PUSH1 0x60 DUP4 ADD MSTORE PUSH2 0x4555 DUP2 DUP6 PUSH2 0x3180 JUMP JUMPDEST SWAP1 POP DUP2 DUP2 SUB PUSH1 0x80 DUP4 ADD MSTORE PUSH2 0x4569 DUP2 DUP5 PUSH2 0x44D4 JUMP JUMPDEST SWAP1 POP SWAP7 SWAP6 POP POP POP POP POP POP JUMP JUMPDEST PUSH1 0x0 DUP2 MLOAD SWAP1 POP PUSH2 0x4584 DUP2 PUSH2 0x2B54 JUMP JUMPDEST SWAP3 SWAP2 POP POP JUMP JUMPDEST PUSH1 0x0 PUSH1 0x20 DUP3 DUP5 SUB SLT ISZERO PUSH2 0x45A0 JUMPI PUSH2 0x459F PUSH2 0x2A20 JUMP JUMPDEST JUMPDEST PUSH1 0x0 PUSH2 0x45AE DUP5 DUP3 DUP6 ADD PUSH2 0x4575 JUMP JUMPDEST SWAP2 POP POP SWAP3 SWAP2 POP POP JUMP JUMPDEST PUSH1 0x0 DUP2 PUSH1 0xE0 SHR SWAP1 POP SWAP2 SWAP1 POP JUMP JUMPDEST PUSH1 0x0 PUSH1 0x3 RETURNDATASIZE GT ISZERO PUSH2 0x45E3 JUMPI PUSH1 0x4 PUSH1 0x0 DUP1 RETURNDATACOPY PUSH2 0x45E0 PUSH1 0x0 MLOAD PUSH2 0x45B7 JUMP JUMPDEST SWAP1 POP JUMPDEST SWAP1 JUMP JUMPDEST PUSH1 0x0 PUSH1 0x44 RETURNDATASIZE LT PUSH2 0x4673 JUMPI PUSH2 0x45F8 PUSH2 0x2A16 JUMP JUMPDEST PUSH1 0x4 RETURNDATASIZE SUB PUSH1 0x4 DUP3 RETURNDATACOPY DUP1 MLOAD RETURNDATASIZE PUSH1 0x24 DUP3 ADD GT PUSH8 0xFFFFFFFFFFFFFFFF DUP3 GT OR ISZERO PUSH2 0x4620 JUMPI POP POP PUSH2 0x4673 JUMP JUMPDEST DUP1 DUP3 ADD DUP1 MLOAD PUSH8 0xFFFFFFFFFFFFFFFF DUP2 GT ISZERO PUSH2 0x463E JUMPI POP POP POP POP PUSH2 0x4673 JUMP JUMPDEST DUP1 PUSH1 0x20 DUP4 ADD ADD PUSH1 0x4 RETURNDATASIZE SUB DUP6 ADD DUP2 GT ISZERO PUSH2 0x465B JUMPI POP POP POP POP POP PUSH2 0x4673 JUMP JUMPDEST PUSH2 0x466A DUP3 PUSH1 0x20 ADD DUP6 ADD DUP7 PUSH2 0x2D4D JUMP JUMPDEST DUP3 SWAP6 POP POP POP POP POP POP JUMPDEST SWAP1 JUMP JUMPDEST PUSH32 0x455243313135353A207472616E7366657220746F206E6F6E2D45524331313535 PUSH1 0x0 DUP3 ADD MSTORE PUSH32 0x526563656976657220696D706C656D656E746572000000000000000000000000 PUSH1 0x20 DUP3 ADD MSTORE POP JUMP JUMPDEST PUSH1 0x0 PUSH2 0x46D2 PUSH1 0x34 DUP4 PUSH2 0x2C45 JUMP JUMPDEST SWAP2 POP PUSH2 0x46DD DUP3 PUSH2 0x4676 JUMP JUMPDEST PUSH1 0x40 DUP3 ADD SWAP1 POP SWAP2 SWAP1 POP JUMP JUMPDEST PUSH1 0x0 PUSH1 0x20 DUP3 ADD SWAP1 POP DUP2 DUP2 SUB PUSH1 0x0 DUP4 ADD MSTORE PUSH2 0x4701 DUP2 PUSH2 0x46C5 JUMP JUMPDEST SWAP1 POP SWAP2 SWAP1 POP JUMP JUMPDEST PUSH32 0x455243313135353A204552433131353552656365697665722072656A65637465 PUSH1 0x0 DUP3 ADD MSTORE PUSH32 0x6420746F6B656E73000000000000000000000000000000000000000000000000 PUSH1 0x20 DUP3 ADD MSTORE POP JUMP JUMPDEST PUSH1 0x0 PUSH2 0x4764 PUSH1 0x28 DUP4 PUSH2 0x2C45 JUMP JUMPDEST SWAP2 POP PUSH2 0x476F DUP3 PUSH2 0x4708 JUMP JUMPDEST PUSH1 0x40 DUP3 ADD SWAP1 POP SWAP2 SWAP1 POP JUMP JUMPDEST PUSH1 0x0 PUSH1 0x20 DUP3 ADD SWAP1 POP DUP2 DUP2 SUB PUSH1 0x0 DUP4 ADD MSTORE PUSH2 0x4793 DUP2 PUSH2 0x4757 JUMP JUMPDEST SWAP1 POP SWAP2 SWAP1 POP JUMP JUMPDEST PUSH1 0x0 PUSH1 0xA0 DUP3 ADD SWAP1 POP PUSH2 0x47AF PUSH1 0x0 DUP4 ADD DUP9 PUSH2 0x2BE3 JUMP JUMPDEST PUSH2 0x47BC PUSH1 0x20 DUP4 ADD DUP8 PUSH2 0x2BE3 JUMP JUMPDEST PUSH2 0x47C9 PUSH1 0x40 DUP4 ADD DUP7 PUSH2 0x2AFE JUMP JUMPDEST PUSH2 0x47D6 PUSH1 0x60 DUP4 ADD DUP6 PUSH2 0x2AFE JUMP JUMPDEST DUP2 DUP2 SUB PUSH1 0x80 DUP4 ADD MSTORE PUSH2 0x47E8 DUP2 DUP5 PUSH2 0x44D4 JUMP JUMPDEST SWAP1 POP SWAP7 SWAP6 POP POP POP POP POP POP JUMP INVALID LOG2 PUSH5 0x6970667358 0x22 SLT KECCAK256 SMOD 0xB8 0xE5 0xCD 0xFC 0xBD ADD 0x4C SSTORE 0xB1 EXTCODEHASH DUP2 0xD9 0x2F ISZERO 0xD2 0xBE DIV 0xE6 JUMP INVALID SWAP13 0x2B 0xC1 JUMPDEST PUSH8 0x37A457A96006473 PUSH16 0x6C6343000815003368747470733A2F2F PUSH17 0x656572686976652D6D792E736861726570 PUSH16 0x696E742E636F6D2F3A763A2F672F7065 PUSH19 0x736F6E616C2F76696E63656E745F79656F5F70 PUSH6 0x657268697665 PUSH0 PUSH2 0x7070 0x2F GASLIMIT PUSH3 0x645857 NUMBER NUMBER MSTORE 0x2D CODESIZE CHAINID 0x4D PUSH18 0x5032456C6A65723641304273316D4668524D CODESIZE PUSH25 0x51363279785A4B685A395237773F653D7876624D6F6E000000 "
		},
		"gasEstimates": {
			"creation": {
				"codeDepositCost": "3694800",
				"executionCost": "infinite",
				"totalCost": "infinite"
			},
			"external": {
				"approve(uint256)": "infinite",
				"balanceOf(address,uint256)": "infinite",
				"balanceOfBatch(address[],uint256[])": "infinite",
				"balances(address)": "2882",
				"borrowerAdd()": "2605",
				"drawnBalance()": "2541",
				"feePayable()": "2540",
				"isApprovedForAll(address,address)": "infinite",
				"joinLoan(uint256)": "infinite",
				"loanDefault()": "2538",
				"loanDrawn(uint256)": "infinite",
				"loanPeriod()": "2519",
				"loanRate()": "2475",
				"loanRepayment(uint256)": "infinite",
				"loanStatus()": "2634",
				"monthlyFee()": "2541",
				"monthlyRepayment()": "2495",
				"newLoan(address,uint256,uint256,uint256,uint256,uint256)": "infinite",
				"originationNominal()": "2475",
				"originationRate()": "2496",
				"owner()": "2617",
				"peerRate()": "2518",
				"principalAmount()": "2541",
				"principalLimit()": "2519",
				"principalPayable()": "2562",
				"renounceOwnership()": "30681",
				"repayment(address)": "2946",
				"safeBatchTransferFrom(address,address,uint256[],uint256[],bytes)": "infinite",
				"safeTransferFrom(address,address,uint256,uint256,bytes)": "infinite",
				"setApprovalForAll(address,bool)": "infinite",
				"supportsInterface(bytes4)": "842",
				"tokenId(address)": "2860",
				"totalPayable()": "2540",
				"transferOwnership(address)": "31004",
				"uri(uint256)": "infinite"
			},
			"internal": {
				"_transfer(address,address,uint256)": "infinite"
			}
		},
		"methodIdentifiers": {
			"approve(uint256)": "b759f954",
			"balanceOf(address,uint256)": "00fdd58e",
			"balanceOfBatch(address[],uint256[])": "4e1273f4",
			"balances(address)": "27e235e3",
			"borrowerAdd()": "0648a75e",
			"drawnBalance()": "419e2191",
			"feePayable()": "7024795d",
			"isApprovedForAll(address,address)": "e985e9c5",
			"joinLoan(uint256)": "7fb0556d",
			"loanDefault()": "c892eada",
			"loanDrawn(uint256)": "906816a6",
			"loanPeriod()": "18b4dd3c",
			"loanRate()": "086126d3",
			"loanRepayment(uint256)": "ec0dc3e4",
			"loanStatus()": "074ca966",
			"monthlyFee()": "8cfd3e40",
			"monthlyRepayment()": "ee73c90a",
			"newLoan(address,uint256,uint256,uint256,uint256,uint256)": "69e1251c",
			"originationNominal()": "217fca6e",
			"originationRate()": "5ab2af51",
			"owner()": "8da5cb5b",
			"peerRate()": "e29f5229",
			"principalAmount()": "196e74a7",
			"principalLimit()": "808093d4",
			"principalPayable()": "a8f8fe22",
			"renounceOwnership()": "715018a6",
			"repayment(address)": "fc22a6a3",
			"safeBatchTransferFrom(address,address,uint256[],uint256[],bytes)": "2eb2c2d6",
			"safeTransferFrom(address,address,uint256,uint256,bytes)": "f242432a",
			"setApprovalForAll(address,bool)": "a22cb465",
			"supportsInterface(bytes4)": "01ffc9a7",
			"tokenId(address)": "7ca31724",
			"totalPayable()": "a2eafc81",
			"transferOwnership(address)": "f2fde38b",
			"uri(uint256)": "0e89341c"
		}
	},
	"abi": [
		{
			"inputs": [],
			"stateMutability": "nonpayable",
			"type": "constructor"
		},
		{
			"anonymous": false,
			"inputs": [
				{
					"indexed": true,
					"internalType": "address",
					"name": "account",
					"type": "address"
				},
				{
					"indexed": true,
					"internalType": "address",
					"name": "operator",
					"type": "address"
				},
				{
					"indexed": false,
					"internalType": "bool",
					"name": "approved",
					"type": "bool"
				}
			],
			"name": "ApprovalForAll",
			"type": "event"
		},
		{
			"anonymous": false,
			"inputs": [
				{
					"indexed": false,
					"internalType": "uint8",
					"name": "version",
					"type": "uint8"
				}
			],
			"name": "Initialized",
			"type": "event"
		},
		{
			"anonymous": false,
			"inputs": [
				{
					"indexed": true,
					"internalType": "address",
					"name": "previousOwner",
					"type": "address"
				},
				{
					"indexed": true,
					"internalType": "address",
					"name": "newOwner",
					"type": "address"
				}
			],
			"name": "OwnershipTransferred",
			"type": "event"
		},
		{
			"anonymous": false,
			"inputs": [
				{
					"indexed": false,
					"internalType": "address",
					"name": "_from",
					"type": "address"
				},
				{
					"indexed": false,
					"internalType": "address",
					"name": "_to",
					"type": "address"
				},
				{
					"indexed": false,
					"internalType": "uint256",
					"name": "amount",
					"type": "uint256"
				}
			],
			"name": "Transfer",
			"type": "event"
		},
		{
			"anonymous": false,
			"inputs": [
				{
					"indexed": true,
					"internalType": "address",
					"name": "operator",
					"type": "address"
				},
				{
					"indexed": true,
					"internalType": "address",
					"name": "from",
					"type": "address"
				},
				{
					"indexed": true,
					"internalType": "address",
					"name": "to",
					"type": "address"
				},
				{
					"indexed": false,
					"internalType": "uint256[]",
					"name": "ids",
					"type": "uint256[]"
				},
				{
					"indexed": false,
					"internalType": "uint256[]",
					"name": "values",
					"type": "uint256[]"
				}
			],
			"name": "TransferBatch",
			"type": "event"
		},
		{
			"anonymous": false,
			"inputs": [
				{
					"indexed": true,
					"internalType": "address",
					"name": "operator",
					"type": "address"
				},
				{
					"indexed": true,
					"internalType": "address",
					"name": "from",
					"type": "address"
				},
				{
					"indexed": true,
					"internalType": "address",
					"name": "to",
					"type": "address"
				},
				{
					"indexed": false,
					"internalType": "uint256",
					"name": "id",
					"type": "uint256"
				},
				{
					"indexed": false,
					"internalType": "uint256",
					"name": "value",
					"type": "uint256"
				}
			],
			"name": "TransferSingle",
			"type": "event"
		},
		{
			"anonymous": false,
			"inputs": [
				{
					"indexed": false,
					"internalType": "string",
					"name": "value",
					"type": "string"
				},
				{
					"indexed": true,
					"internalType": "uint256",
					"name": "id",
					"type": "uint256"
				}
			],
			"name": "URI",
			"type": "event"
		},
		{
			"anonymous": false,
			"inputs": [
				{
					"indexed": false,
					"internalType": "address",
					"name": "borrower",
					"type": "address"
				},
				{
					"indexed": false,
					"internalType": "uint256",
					"name": "amount",
					"type": "uint256"
				},
				{
					"indexed": false,
					"internalType": "uint256",
					"name": "fee",
					"type": "uint256"
				},
				{
					"indexed": false,
					"internalType": "uint256",
					"name": "rate",
					"type": "uint256"
				},
				{
					"indexed": false,
					"internalType": "uint256",
					"name": "period",
					"type": "uint256"
				}
			],
			"name": "createLoan",
			"type": "event"
		},
		{
			"anonymous": false,
			"inputs": [
				{
					"indexed": false,
					"internalType": "address",
					"name": "borrower",
					"type": "address"
				},
				{
					"indexed": false,
					"internalType": "uint256",
					"name": "amount",
					"type": "uint256"
				}
			],
			"name": "drawnDown",
			"type": "event"
		},
		{
			"anonymous": false,
			"inputs": [
				{
					"indexed": false,
					"internalType": "address",
					"name": "borrower",
					"type": "address"
				},
				{
					"indexed": false,
					"internalType": "uint256",
					"name": "amount",
					"type": "uint256"
				}
			],
			"name": "repayLoan",
			"type": "event"
		},
		{
			"inputs": [
				{
					"internalType": "uint256",
					"name": "amount",
					"type": "uint256"
				}
			],
			"name": "approve",
			"outputs": [
				{
					"internalType": "bool",
					"name": "",
					"type": "bool"
				}
			],
			"stateMutability": "nonpayable",
			"type": "function"
		},
		{
			"inputs": [
				{
					"internalType": "address",
					"name": "account",
					"type": "address"
				},
				{
					"internalType": "uint256",
					"name": "id",
					"type": "uint256"
				}
			],
			"name": "balanceOf",
			"outputs": [
				{
					"internalType": "uint256",
					"name": "",
					"type": "uint256"
				}
			],
			"stateMutability": "view",
			"type": "function"
		},
		{
			"inputs": [
				{
					"internalType": "address[]",
					"name": "accounts",
					"type": "address[]"
				},
				{
					"internalType": "uint256[]",
					"name": "ids",
					"type": "uint256[]"
				}
			],
			"name": "balanceOfBatch",
			"outputs": [
				{
					"internalType": "uint256[]",
					"name": "",
					"type": "uint256[]"
				}
			],
			"stateMutability": "view",
			"type": "function"
		},
		{
			"inputs": [
				{
					"internalType": "address",
					"name": "",
					"type": "address"
				}
			],
			"name": "balances",
			"outputs": [
				{
					"internalType": "uint256",
					"name": "",
					"type": "uint256"
				}
			],
			"stateMutability": "view",
			"type": "function"
		},
		{
			"inputs": [],
			"name": "borrowerAdd",
			"outputs": [
				{
					"internalType": "address",
					"name": "",
					"type": "address"
				}
			],
			"stateMutability": "view",
			"type": "function"
		},
		{
			"inputs": [],
			"name": "drawnBalance",
			"outputs": [
				{
					"internalType": "uint256",
					"name": "",
					"type": "uint256"
				}
			],
			"stateMutability": "view",
			"type": "function"
		},
		{
			"inputs": [],
			"name": "feePayable",
			"outputs": [
				{
					"internalType": "uint256",
					"name": "",
					"type": "uint256"
				}
			],
			"stateMutability": "view",
			"type": "function"
		},
		{
			"inputs": [
				{
					"internalType": "address",
					"name": "account",
					"type": "address"
				},
				{
					"internalType": "address",
					"name": "operator",
					"type": "address"
				}
			],
			"name": "isApprovedForAll",
			"outputs": [
				{
					"internalType": "bool",
					"name": "",
					"type": "bool"
				}
			],
			"stateMutability": "view",
			"type": "function"
		},
		{
			"inputs": [
				{
					"internalType": "uint256",
					"name": "amount",
					"type": "uint256"
				}
			],
			"name": "joinLoan",
			"outputs": [],
			"stateMutability": "nonpayable",
			"type": "function"
		},
		{
			"inputs": [],
			"name": "loanDefault",
			"outputs": [
				{
					"internalType": "bool",
					"name": "",
					"type": "bool"
				}
			],
			"stateMutability": "view",
			"type": "function"
		},
		{
			"inputs": [
				{
					"internalType": "uint256",
					"name": "amount",
					"type": "uint256"
				}
			],
			"name": "loanDrawn",
			"outputs": [],
			"stateMutability": "nonpayable",
			"type": "function"
		},
		{
			"inputs": [],
			"name": "loanPeriod",
			"outputs": [
				{
					"internalType": "uint256",
					"name": "",
					"type": "uint256"
				}
			],
			"stateMutability": "view",
			"type": "function"
		},
		{
			"inputs": [],
			"name": "loanRate",
			"outputs": [
				{
					"internalType": "uint256",
					"name": "",
					"type": "uint256"
				}
			],
			"stateMutability": "view",
			"type": "function"
		},
		{
			"inputs": [
				{
					"internalType": "uint256",
					"name": "amount",
					"type": "uint256"
				}
			],
			"name": "loanRepayment",
			"outputs": [],
			"stateMutability": "nonpayable",
			"type": "function"
		},
		{
			"inputs": [],
			"name": "loanStatus",
			"outputs": [
				{
					"internalType": "bool",
					"name": "",
					"type": "bool"
				}
			],
			"stateMutability": "view",
			"type": "function"
		},
		{
			"inputs": [],
			"name": "monthlyFee",
			"outputs": [
				{
					"internalType": "uint256",
					"name": "",
					"type": "uint256"
				}
			],
			"stateMutability": "view",
			"type": "function"
		},
		{
			"inputs": [],
			"name": "monthlyRepayment",
			"outputs": [
				{
					"internalType": "uint256",
					"name": "",
					"type": "uint256"
				}
			],
			"stateMutability": "view",
			"type": "function"
		},
		{
			"inputs": [
				{
					"internalType": "address",
					"name": "borrower",
					"type": "address"
				},
				{
					"internalType": "uint256",
					"name": "amount",
					"type": "uint256"
				},
				{
					"internalType": "uint256",
					"name": "rate",
					"type": "uint256"
				},
				{
					"internalType": "uint256",
					"name": "period",
					"type": "uint256"
				},
				{
					"internalType": "uint256",
					"name": "peerIRate",
					"type": "uint256"
				},
				{
					"internalType": "uint256",
					"name": "originateRate",
					"type": "uint256"
				}
			],
			"name": "newLoan",
			"outputs": [],
			"stateMutability": "nonpayable",
			"type": "function"
		},
		{
			"inputs": [],
			"name": "originationNominal",
			"outputs": [
				{
					"internalType": "uint256",
					"name": "",
					"type": "uint256"
				}
			],
			"stateMutability": "view",
			"type": "function"
		},
		{
			"inputs": [],
			"name": "originationRate",
			"outputs": [
				{
					"internalType": "uint256",
					"name": "",
					"type": "uint256"
				}
			],
			"stateMutability": "view",
			"type": "function"
		},
		{
			"inputs": [],
			"name": "owner",
			"outputs": [
				{
					"internalType": "address",
					"name": "",
					"type": "address"
				}
			],
			"stateMutability": "view",
			"type": "function"
		},
		{
			"inputs": [],
			"name": "peerRate",
			"outputs": [
				{
					"internalType": "uint256",
					"name": "",
					"type": "uint256"
				}
			],
			"stateMutability": "view",
			"type": "function"
		},
		{
			"inputs": [],
			"name": "principalAmount",
			"outputs": [
				{
					"internalType": "uint256",
					"name": "",
					"type": "uint256"
				}
			],
			"stateMutability": "view",
			"type": "function"
		},
		{
			"inputs": [],
			"name": "principalLimit",
			"outputs": [
				{
					"internalType": "uint256",
					"name": "",
					"type": "uint256"
				}
			],
			"stateMutability": "view",
			"type": "function"
		},
		{
			"inputs": [],
			"name": "principalPayable",
			"outputs": [
				{
					"internalType": "uint256",
					"name": "",
					"type": "uint256"
				}
			],
			"stateMutability": "view",
			"type": "function"
		},
		{
			"inputs": [],
			"name": "renounceOwnership",
			"outputs": [],
			"stateMutability": "nonpayable",
			"type": "function"
		},
		{
			"inputs": [
				{
					"internalType": "address",
					"name": "",
					"type": "address"
				}
			],
			"name": "repayment",
			"outputs": [
				{
					"internalType": "uint256",
					"name": "",
					"type": "uint256"
				}
			],
			"stateMutability": "view",
			"type": "function"
		},
		{
			"inputs": [
				{
					"internalType": "address",
					"name": "from",
					"type": "address"
				},
				{
					"internalType": "address",
					"name": "to",
					"type": "address"
				},
				{
					"internalType": "uint256[]",
					"name": "ids",
					"type": "uint256[]"
				},
				{
					"internalType": "uint256[]",
					"name": "amounts",
					"type": "uint256[]"
				},
				{
					"internalType": "bytes",
					"name": "data",
					"type": "bytes"
				}
			],
			"name": "safeBatchTransferFrom",
			"outputs": [],
			"stateMutability": "nonpayable",
			"type": "function"
		},
		{
			"inputs": [
				{
					"internalType": "address",
					"name": "from",
					"type": "address"
				},
				{
					"internalType": "address",
					"name": "to",
					"type": "address"
				},
				{
					"internalType": "uint256",
					"name": "id",
					"type": "uint256"
				},
				{
					"internalType": "uint256",
					"name": "amount",
					"type": "uint256"
				},
				{
					"internalType": "bytes",
					"name": "data",
					"type": "bytes"
				}
			],
			"name": "safeTransferFrom",
			"outputs": [],
			"stateMutability": "nonpayable",
			"type": "function"
		},
		{
			"inputs": [
				{
					"internalType": "address",
					"name": "operator",
					"type": "address"
				},
				{
					"internalType": "bool",
					"name": "approved",
					"type": "bool"
				}
			],
			"name": "setApprovalForAll",
			"outputs": [],
			"stateMutability": "nonpayable",
			"type": "function"
		},
		{
			"inputs": [
				{
					"internalType": "bytes4",
					"name": "interfaceId",
					"type": "bytes4"
				}
			],
			"name": "supportsInterface",
			"outputs": [
				{
					"internalType": "bool",
					"name": "",
					"type": "bool"
				}
			],
			"stateMutability": "view",
			"type": "function"
		},
		{
			"inputs": [
				{
					"internalType": "address",
					"name": "",
					"type": "address"
				}
			],
			"name": "tokenId",
			"outputs": [
				{
					"internalType": "uint256",
					"name": "",
					"type": "uint256"
				}
			],
			"stateMutability": "view",
			"type": "function"
		},
		{
			"inputs": [],
			"name": "totalPayable",
			"outputs": [
				{
					"internalType": "uint256",
					"name": "",
					"type": "uint256"
				}
			],
			"stateMutability": "view",
			"type": "function"
		},
		{
			"inputs": [
				{
					"internalType": "address",
					"name": "newOwner",
					"type": "address"
				}
			],
			"name": "transferOwnership",
			"outputs": [],
			"stateMutability": "nonpayable",
			"type": "function"
		},
		{
			"inputs": [
				{
					"internalType": "uint256",
					"name": "",
					"type": "uint256"
				}
			],
			"name": "uri",
			"outputs": [
				{
					"internalType": "string",
					"name": "",
					"type": "string"
				}
			],
			"stateMutability": "view",
			"type": "function"
		}
	]
}